{
  "_format": "hh-sol-artifact-1",
  "contractName": "MockKCY1Distribution",
  "sourceName": "contracts/MockKCY1Distribution.sol",
  "abi": [
    {
      "inputs": [
        {
          "internalType": "address",
          "name": "_devWallet",
          "type": "address"
        },
        {
          "internalType": "address",
          "name": "_marketingWallet",
          "type": "address"
        },
        {
          "internalType": "address",
          "name": "_teamWallet",
          "type": "address"
        },
        {
          "internalType": "address",
          "name": "_advisorWallet",
          "type": "address"
        }
      ],
      "stateMutability": "nonpayable",
      "type": "constructor"
    },
    {
      "anonymous": false,
      "inputs": [
        {
          "indexed": true,
          "internalType": "address",
          "name": "owner",
          "type": "address"
        },
        {
          "indexed": true,
          "internalType": "address",
          "name": "spender",
          "type": "address"
        },
        {
          "indexed": false,
          "internalType": "uint256",
          "name": "value",
          "type": "uint256"
        }
      ],
      "name": "Approval",
      "type": "event"
    },
    {
      "anonymous": false,
      "inputs": [
        {
          "indexed": true,
          "internalType": "address",
          "name": "recipient",
          "type": "address"
        },
        {
          "indexed": false,
          "internalType": "uint256",
          "name": "amount",
          "type": "uint256"
        }
      ],
      "name": "DistributionSent",
      "type": "event"
    },
    {
      "anonymous": false,
      "inputs": [
        {
          "indexed": false,
          "internalType": "uint256",
          "name": "totalDistributed",
          "type": "uint256"
        }
      ],
      "name": "InitialDistributionCompleted",
      "type": "event"
    },
    {
      "anonymous": false,
      "inputs": [
        {
          "indexed": true,
          "internalType": "address",
          "name": "from",
          "type": "address"
        },
        {
          "indexed": true,
          "internalType": "address",
          "name": "to",
          "type": "address"
        },
        {
          "indexed": false,
          "internalType": "uint256",
          "name": "value",
          "type": "uint256"
        }
      ],
      "name": "Transfer",
      "type": "event"
    },
    {
      "inputs": [],
      "name": "Aw_trzV",
      "outputs": [
        {
          "internalType": "address",
          "name": "",
          "type": "address"
        }
      ],
      "stateMutability": "view",
      "type": "function"
    },
    {
      "inputs": [],
      "name": "DEVw_mv",
      "outputs": [
        {
          "internalType": "address",
          "name": "",
          "type": "address"
        }
      ],
      "stateMutability": "view",
      "type": "function"
    },
    {
      "inputs": [],
      "name": "Mw_tng",
      "outputs": [
        {
          "internalType": "address",
          "name": "",
          "type": "address"
        }
      ],
      "stateMutability": "view",
      "type": "function"
    },
    {
      "inputs": [],
      "name": "Tw_trz_hdn",
      "outputs": [
        {
          "internalType": "address",
          "name": "",
          "type": "address"
        }
      ],
      "stateMutability": "view",
      "type": "function"
    },
    {
      "inputs": [
        {
          "internalType": "address",
          "name": "",
          "type": "address"
        },
        {
          "internalType": "address",
          "name": "",
          "type": "address"
        }
      ],
      "name": "allowance",
      "outputs": [
        {
          "internalType": "uint256",
          "name": "",
          "type": "uint256"
        }
      ],
      "stateMutability": "view",
      "type": "function"
    },
    {
      "inputs": [
        {
          "internalType": "address",
          "name": "spender",
          "type": "address"
        },
        {
          "internalType": "uint256",
          "name": "amount",
          "type": "uint256"
        }
      ],
      "name": "approve",
      "outputs": [
        {
          "internalType": "bool",
          "name": "",
          "type": "bool"
        }
      ],
      "stateMutability": "nonpayable",
      "type": "function"
    },
    {
      "inputs": [
        {
          "internalType": "address",
          "name": "",
          "type": "address"
        }
      ],
      "name": "balanceOf",
      "outputs": [
        {
          "internalType": "uint256",
          "name": "",
          "type": "uint256"
        }
      ],
      "stateMutability": "view",
      "type": "function"
    },
    {
      "inputs": [],
      "name": "decimals",
      "outputs": [
        {
          "internalType": "uint8",
          "name": "",
          "type": "uint8"
        }
      ],
      "stateMutability": "view",
      "type": "function"
    },
    {
      "inputs": [],
      "name": "distributeInitialAllocations",
      "outputs": [],
      "stateMutability": "nonpayable",
      "type": "function"
    },
    {
      "inputs": [],
      "name": "getDistributionAddresses",
      "outputs": [
        {
          "internalType": "address",
          "name": "devWallet",
          "type": "address"
        },
        {
          "internalType": "address",
          "name": "marketingWallet",
          "type": "address"
        },
        {
          "internalType": "address",
          "name": "teamWallet",
          "type": "address"
        },
        {
          "internalType": "address",
          "name": "advisorWallet",
          "type": "address"
        }
      ],
      "stateMutability": "view",
      "type": "function"
    },
    {
      "inputs": [],
      "name": "initialDistributionCompleted",
      "outputs": [
        {
          "internalType": "bool",
          "name": "",
          "type": "bool"
        }
      ],
      "stateMutability": "view",
      "type": "function"
    },
    {
      "inputs": [],
      "name": "name",
      "outputs": [
        {
          "internalType": "string",
          "name": "",
          "type": "string"
        }
      ],
      "stateMutability": "view",
      "type": "function"
    },
    {
      "inputs": [],
      "name": "owner",
      "outputs": [
        {
          "internalType": "address",
          "name": "",
          "type": "address"
        }
      ],
      "stateMutability": "view",
      "type": "function"
    },
    {
      "inputs": [],
      "name": "symbol",
      "outputs": [
        {
          "internalType": "string",
          "name": "",
          "type": "string"
        }
      ],
      "stateMutability": "view",
      "type": "function"
    },
    {
      "inputs": [],
      "name": "totalSupply",
      "outputs": [
        {
          "internalType": "uint256",
          "name": "",
          "type": "uint256"
        }
      ],
      "stateMutability": "view",
      "type": "function"
    },
    {
      "inputs": [
        {
          "internalType": "address",
          "name": "to",
          "type": "address"
        },
        {
          "internalType": "uint256",
          "name": "amount",
          "type": "uint256"
        }
      ],
      "name": "transfer",
      "outputs": [
        {
          "internalType": "bool",
          "name": "",
          "type": "bool"
        }
      ],
      "stateMutability": "nonpayable",
      "type": "function"
    },
    {
      "inputs": [
        {
          "internalType": "address",
          "name": "from",
          "type": "address"
        },
        {
          "internalType": "address",
          "name": "to",
          "type": "address"
        },
        {
          "internalType": "uint256",
          "name": "amount",
          "type": "uint256"
        }
      ],
      "name": "transferFrom",
      "outputs": [
        {
          "internalType": "bool",
          "name": "",
          "type": "bool"
        }
      ],
      "stateMutability": "nonpayable",
      "type": "function"
    }
  ],
  "bytecode": "0x610120604052348015610010575f5ffd5b5060405161132338038061132383398101604081905261002f91610172565b3360805261003f6012600a6102bc565b61004d906305f5e1006102d1565b5f556001600160a01b0380851660a05283811660c05282811660e05281166101005261007b6012600a6102bc565b610089906305b8d8006102d1565b60a0516001600160a01b03165f908152600260205260409020556100af6012600a6102bc565b6100bc90623d09006102d1565b305f9081526002602052604081209190915560a0516001600160a01b0316905f5160206113035f395f51905f526100f56012600a6102bc565b610103906305b8d8006102d1565b60405190815260200160405180910390a3305f5f5160206113035f395f51905f526101306012600a6102bc565b61013d90623d09006102d1565b60405190815260200160405180910390a3505050506102e8565b80516001600160a01b038116811461016d575f5ffd5b919050565b5f5f5f5f60808587031215610185575f5ffd5b61018e85610157565b935061019c60208601610157565b92506101aa60408601610157565b91506101b860608601610157565b905092959194509250565b634e487b7160e01b5f52601160045260245ffd5b6001815b6001841115610212578085048111156101f6576101f66101c3565b600184161561020457908102905b60019390931c9280026101db565b935093915050565b5f82610228575060016102b6565b8161023457505f6102b6565b816001811461024a576002811461025457610270565b60019150506102b6565b60ff841115610265576102656101c3565b50506001821b6102b6565b5060208310610133831016604e8410600b8410161715610293575081810a6102b6565b61029f5f1984846101d7565b805f19048211156102b2576102b26101c3565b0290505b92915050565b5f6102ca60ff84168361021a565b9392505050565b80820281158282048414176102b6576102b66101c3565b60805160a05160c05160e05161010051610f3d6103c65f395f818161022d0152818161029b01528181610b8701528181610be401528181610c5601528181610cb60152610cfd01525f818161020301528181610335015281816109a601528181610a0301528181610a7401528181610ad20152610b1901525f81816101db015281816102e7015281816107c10152818161081e01528181610890015281816108f0015261093701525f81816101b601528181610380015281816107f4015281816109d90152610bba01525f818161030e01526106b60152610f3d5ff3fe608060405234801561000f575f5ffd5b5060043610610106575f3560e01c8063888933da1161009e57806395d89b411161006e57806395d89b4114610357578063a4c37fee1461037b578063a9059cbb146103a2578063dd62ed3e146103b5578063f8687091146103df575f5ffd5b8063888933da146102d55780638a0d849f146102e25780638da5cb5b146103095780639294292214610330575f5ffd5b80632bf9db79116100d95780632bf9db79146101a8578063313ce5671461025d57806370a0823114610277578063886cbda014610296575f5ffd5b806306fdde031461010a578063095ea7b31461015c57806318160ddd1461017f57806323b872dd14610195575b5f5ffd5b6101466040518060400160405280601b81526020017f4d6f636b204b43593120446973747269627574696f6e2054657374000000000081525081565b6040516101539190610daa565b60405180910390f35b61016f61016a366004610dfa565b6103e9565b6040519015158152602001610153565b6101875f5481565b604051908152602001610153565b61016f6101a3366004610e22565b610455565b604080516001600160a01b037f0000000000000000000000000000000000000000000000000000000000000000811682527f0000000000000000000000000000000000000000000000000000000000000000811660208301527f00000000000000000000000000000000000000000000000000000000000000008116928201929092527f0000000000000000000000000000000000000000000000000000000000000000919091166060820152608001610153565b610265601281565b60405160ff9091168152602001610153565b610187610285366004610e5c565b60026020525f908152604090205481565b6102bd7f000000000000000000000000000000000000000000000000000000000000000081565b6040516001600160a01b039091168152602001610153565b60015461016f9060ff1681565b6102bd7f000000000000000000000000000000000000000000000000000000000000000081565b6102bd7f000000000000000000000000000000000000000000000000000000000000000081565b6102bd7f000000000000000000000000000000000000000000000000000000000000000081565b610146604051806040016040528060058152602001644d4b43593160d81b81525081565b6102bd7f000000000000000000000000000000000000000000000000000000000000000081565b61016f6103b0366004610dfa565b6105e6565b6101876103c3366004610e7c565b600360209081525f928352604080842090915290825290205481565b6103e76106ab565b005b335f8181526003602090815260408083206001600160a01b038716808552925280832085905551919290917f8c5be1e5ebec7d5bd14f71427d1e84f3dd0314c0f7b2291e5b200ac8c7c3b925906104439086815260200190565b60405180910390a35060015b92915050565b6001600160a01b0383165f9081526003602090815260408083203384529091528120548211156104bc5760405162461bcd60e51b815260206004820152600d60248201526c4c6f7720616c6c6f77616e636560981b60448201526064015b60405180910390fd5b6001600160a01b0384165f908152600260205260409020548211156105115760405162461bcd60e51b815260206004820152600b60248201526a4c6f772062616c616e636560a81b60448201526064016104b3565b6001600160a01b0384165f90815260036020908152604080832033845290915281208054849290610543908490610ec1565b90915550506001600160a01b0384165f908152600260205260408120805484929061056f908490610ec1565b90915550506001600160a01b0383165f908152600260205260408120805484929061059b908490610ed4565b92505081905550826001600160a01b0316846001600160a01b03165f516020610ee85f395f51905f52846040516105d491815260200190565b60405180910390a35060019392505050565b335f908152600260205260408120548211156106325760405162461bcd60e51b815260206004820152600b60248201526a4c6f772062616c616e636560a81b60448201526064016104b3565b335f9081526002602052604081208054849290610650908490610ec1565b90915550506001600160a01b0383165f908152600260205260408120805484929061067c908490610ed4565b90915550506040518281526001600160a01b0384169033905f516020610ee85f395f51905f5290602001610443565b336001600160a01b037f0000000000000000000000000000000000000000000000000000000000000000161461070f5760405162461bcd60e51b81526020600482015260096024820152682737ba1037bbb732b960b91b60448201526064016104b3565b60015460ff16156107535760405162461bcd60e51b815260206004820152600e60248201526d111a5cdd0818dbdb5c1b195d195960921b60448201526064016104b3565b305f908152600260205260409020546a034f086f3b33b68400000011156107b35760405162461bcd60e51b8152602060048201526014602482015273436f6e74726163742062616c616e6365206c6f7760601b60448201526064016104b3565b6001805460ff1916811790557f00000000000000000000000000000000000000000000000000000000000000006001600160a01b03161580159061084957507f00000000000000000000000000000000000000000000000000000000000000006001600160a01b03167f00000000000000000000000000000000000000000000000000000000000000006001600160a01b031614155b8015610853575060015b156109a457305f90815260026020526040812080546a013da329b63364718000009290610881908490610ec1565b90915550506001600160a01b037f0000000000000000000000000000000000000000000000000000000000000000165f90815260026020526040812080546a013da329b633647180000092906108d8908490610ed4565b90915550506040516a013da329b633647180000081527f00000000000000000000000000000000000000000000000000000000000000006001600160a01b03169030905f516020610ee85f395f51905f529060200160405180910390a37f00000000000000000000000000000000000000000000000000000000000000006001600160a01b03167f78786c581da76125b3c6c8a810adb3d2dab5d14b1273b8220661085f045e25cd6a013da329b633647180000060405161099b91815260200190565b60405180910390a25b7f00000000000000000000000000000000000000000000000000000000000000006001600160a01b031615801590610a2e57507f00000000000000000000000000000000000000000000000000000000000000006001600160a01b03167f00000000000000000000000000000000000000000000000000000000000000006001600160a01b031614155b8015610a38575060015b15610b8557305f908152600260205260408120805469d3c21bcecceda10000009290610a65908490610ec1565b90915550506001600160a01b037f0000000000000000000000000000000000000000000000000000000000000000165f908152600260205260408120805469d3c21bcecceda10000009290610abb908490610ed4565b909155505060405169d3c21bcecceda100000081527f00000000000000000000000000000000000000000000000000000000000000006001600160a01b03169030905f516020610ee85f395f51905f529060200160405180910390a37f00000000000000000000000000000000000000000000000000000000000000006001600160a01b03167f78786c581da76125b3c6c8a810adb3d2dab5d14b1273b8220661085f045e25cd69d3c21bcecceda1000000604051610b7c91815260200190565b60405180910390a25b7f00000000000000000000000000000000000000000000000000000000000000006001600160a01b031615801590610c0f57507f00000000000000000000000000000000000000000000000000000000000000006001600160a01b03167f00000000000000000000000000000000000000000000000000000000000000006001600160a01b031614155b8015610c19575060015b15610d6a57305f90815260026020526040812080546a013da329b63364718000009290610c47908490610ec1565b90915550506001600160a01b037f0000000000000000000000000000000000000000000000000000000000000000165f90815260026020526040812080546a013da329b63364718000009290610c9e908490610ed4565b90915550506040516a013da329b633647180000081527f00000000000000000000000000000000000000000000000000000000000000006001600160a01b03169030905f516020610ee85f395f51905f529060200160405180910390a37f00000000000000000000000000000000000000000000000000000000000000006001600160a01b03167f78786c581da76125b3c6c8a810adb3d2dab5d14b1273b8220661085f045e25cd6a013da329b6336471800000604051610d6191815260200190565b60405180910390a25b6040516a034f086f3b33b68400000081527f3a1079628069a11f368373dad84d9cb2831368c6f4ea1a0e86fbdbe0145a899b9060200160405180910390a1565b602081525f82518060208401528060208501604085015e5f604082850101526040601f19601f83011684010191505092915050565b80356001600160a01b0381168114610df5575f5ffd5b919050565b5f5f60408385031215610e0b575f5ffd5b610e1483610ddf565b946020939093013593505050565b5f5f5f60608486031215610e34575f5ffd5b610e3d84610ddf565b9250610e4b60208501610ddf565b929592945050506040919091013590565b5f60208284031215610e6c575f5ffd5b610e7582610ddf565b9392505050565b5f5f60408385031215610e8d575f5ffd5b610e9683610ddf565b9150610ea460208401610ddf565b90509250929050565b634e487b7160e01b5f52601160045260245ffd5b8181038181111561044f5761044f610ead565b8082018082111561044f5761044f610ead56feddf252ad1be2c89b69c2b068fc378daa952ba7f163c4a11628f55a4df523b3efa26469706673582212201c35fb5e3891edf5db8d85927b7556132e4bc1debed1449dbce414a918ffce5564736f6c634300081c0033ddf252ad1be2c89b69c2b068fc378daa952ba7f163c4a11628f55a4df523b3ef",
  "linkReferences": {},
  "deployedLinkReferences": {}
}