{
  "_format": "hh-sol-artifact-1",
  "contractName": "SimpleMultiSig",
  "sourceName": "contracts/SimpleMultiSig.sol",
  "abi": [
    {
      "inputs": [
        {
          "internalType": "address",
          "name": "owner1",
          "type": "address"
        },
        {
          "internalType": "address",
          "name": "owner2",
          "type": "address"
        },
        {
          "internalType": "address",
          "name": "owner3",
          "type": "address"
        },
        {
          "internalType": "address",
          "name": "owner4",
          "type": "address"
        },
        {
          "internalType": "address",
          "name": "owner5",
          "type": "address"
        }
      ],
      "stateMutability": "nonpayable",
      "type": "constructor"
    },
    {
      "anonymous": false,
      "inputs": [
        {
          "indexed": true,
          "internalType": "uint256",
          "name": "txId",
          "type": "uint256"
        },
        {
          "indexed": true,
          "internalType": "address",
          "name": "confirmer",
          "type": "address"
        }
      ],
      "name": "TransactionConfirmed",
      "type": "event"
    },
    {
      "anonymous": false,
      "inputs": [
        {
          "indexed": true,
          "internalType": "uint256",
          "name": "txId",
          "type": "uint256"
        }
      ],
      "name": "TransactionExecuted",
      "type": "event"
    },
    {
      "anonymous": false,
      "inputs": [
        {
          "indexed": true,
          "internalType": "uint256",
          "name": "txId",
          "type": "uint256"
        },
        {
          "indexed": true,
          "internalType": "address",
          "name": "submitter",
          "type": "address"
        },
        {
          "indexed": false,
          "internalType": "address",
          "name": "to",
          "type": "address"
        },
        {
          "indexed": false,
          "internalType": "bytes",
          "name": "data",
          "type": "bytes"
        }
      ],
      "name": "TransactionSubmitted",
      "type": "event"
    },
    {
      "inputs": [],
      "name": "REQUIRED",
      "outputs": [
        {
          "internalType": "uint256",
          "name": "",
          "type": "uint256"
        }
      ],
      "stateMutability": "view",
      "type": "function"
    },
    {
      "inputs": [
        {
          "internalType": "uint256",
          "name": "txId",
          "type": "uint256"
        }
      ],
      "name": "confirmTransaction",
      "outputs": [],
      "stateMutability": "nonpayable",
      "type": "function"
    },
    {
      "inputs": [
        {
          "internalType": "uint256",
          "name": "",
          "type": "uint256"
        },
        {
          "internalType": "address",
          "name": "",
          "type": "address"
        }
      ],
      "name": "confirmations",
      "outputs": [
        {
          "internalType": "bool",
          "name": "",
          "type": "bool"
        }
      ],
      "stateMutability": "view",
      "type": "function"
    },
    {
      "inputs": [
        {
          "internalType": "uint256",
          "name": "txId",
          "type": "uint256"
        }
      ],
      "name": "executeTransaction",
      "outputs": [],
      "stateMutability": "nonpayable",
      "type": "function"
    },
    {
      "inputs": [],
      "name": "getOwners",
      "outputs": [
        {
          "internalType": "address[5]",
          "name": "",
          "type": "address[5]"
        }
      ],
      "stateMutability": "view",
      "type": "function"
    },
    {
      "inputs": [],
      "name": "getPendingTransactions",
      "outputs": [
        {
          "internalType": "uint256[]",
          "name": "",
          "type": "uint256[]"
        }
      ],
      "stateMutability": "view",
      "type": "function"
    },
    {
      "inputs": [
        {
          "internalType": "uint256",
          "name": "txId",
          "type": "uint256"
        }
      ],
      "name": "getTransaction",
      "outputs": [
        {
          "internalType": "address",
          "name": "to",
          "type": "address"
        },
        {
          "internalType": "bytes",
          "name": "data",
          "type": "bytes"
        },
        {
          "internalType": "bool",
          "name": "executed",
          "type": "bool"
        },
        {
          "internalType": "uint256",
          "name": "confirmationCount",
          "type": "uint256"
        }
      ],
      "stateMutability": "view",
      "type": "function"
    },
    {
      "inputs": [
        {
          "internalType": "uint256",
          "name": "txId",
          "type": "uint256"
        },
        {
          "internalType": "address",
          "name": "owner",
          "type": "address"
        }
      ],
      "name": "hasConfirmed",
      "outputs": [
        {
          "internalType": "bool",
          "name": "",
          "type": "bool"
        }
      ],
      "stateMutability": "view",
      "type": "function"
    },
    {
      "inputs": [
        {
          "internalType": "address",
          "name": "account",
          "type": "address"
        }
      ],
      "name": "isOwner",
      "outputs": [
        {
          "internalType": "bool",
          "name": "",
          "type": "bool"
        }
      ],
      "stateMutability": "view",
      "type": "function"
    },
    {
      "inputs": [
        {
          "internalType": "uint256",
          "name": "",
          "type": "uint256"
        }
      ],
      "name": "owners",
      "outputs": [
        {
          "internalType": "address",
          "name": "",
          "type": "address"
        }
      ],
      "stateMutability": "view",
      "type": "function"
    },
    {
      "inputs": [
        {
          "internalType": "address",
          "name": "to",
          "type": "address"
        },
        {
          "internalType": "bytes",
          "name": "data",
          "type": "bytes"
        }
      ],
      "name": "submitTransaction",
      "outputs": [
        {
          "internalType": "uint256",
          "name": "txId",
          "type": "uint256"
        }
      ],
      "stateMutability": "nonpayable",
      "type": "function"
    },
    {
      "inputs": [],
      "name": "transactionCount",
      "outputs": [
        {
          "internalType": "uint256",
          "name": "",
          "type": "uint256"
        }
      ],
      "stateMutability": "view",
      "type": "function"
    },
    {
      "inputs": [
        {
          "internalType": "uint256",
          "name": "",
          "type": "uint256"
        }
      ],
      "name": "transactions",
      "outputs": [
        {
          "internalType": "address",
          "name": "to",
          "type": "address"
        },
        {
          "internalType": "bytes",
          "name": "data",
          "type": "bytes"
        },
        {
          "internalType": "bool",
          "name": "executed",
          "type": "bool"
        },
        {
          "internalType": "uint256",
          "name": "confirmations",
          "type": "uint256"
        }
      ],
      "stateMutability": "view",
      "type": "function"
    }
  ],
  "bytecode": "0x60806040523480156200001157600080fd5b506040516200129538038062001295833981016040819052620000349162000225565b6001600160a01b038516620000815760405162461bcd60e51b815260206004820152600e60248201526d496e76616c6964206f776e65723160901b60448201526064015b60405180910390fd5b6001600160a01b038416620000ca5760405162461bcd60e51b815260206004820152600e60248201526d24b73b30b634b21037bbb732b91960911b604482015260640162000078565b6001600160a01b038316620001135760405162461bcd60e51b815260206004820152600e60248201526d496e76616c6964206f776e65723360901b604482015260640162000078565b6001600160a01b0382166200015c5760405162461bcd60e51b815260206004820152600e60248201526d125b9d985b1a59081bdddb995c8d60921b604482015260640162000078565b6001600160a01b038116620001a55760405162461bcd60e51b815260206004820152600e60248201526d496e76616c6964206f776e65723560901b604482015260640162000078565b600080546001600160a01b03199081166001600160a01b0397881617909155600180548216958716959095179094556002805485169386169390931790925560038054841691851691909117905560048054909216921691909117905562000295565b80516001600160a01b03811681146200022057600080fd5b919050565b600080600080600060a086880312156200023e57600080fd5b620002498662000208565b9450620002596020870162000208565b9350620002696040870162000208565b9250620002796060870162000208565b9150620002896080870162000208565b90509295509295909350565b610ff080620002a56000396000f3fe608060405234801561001057600080fd5b50600436106100cf5760003560e01c80639ace38c21161008c578063bbf1b2f111610066578063bbf1b2f1146101f8578063c01a8c841461020b578063d11db83f14610220578063ee22610b1461023557600080fd5b80639ace38c2146101c7578063a0e67e2b146101da578063b77bf600146101ef57600080fd5b8063025e7c27146100d457806308aff933146101045780632f54bf6e1461014d57806333ea3dc8146101605780633411c81c1461018357806367fdff26146101b1575b600080fd5b6100e76100e2366004610b3c565b610248565b6040516001600160a01b0390911681526020015b60405180910390f35b61013d610112366004610b71565b60009182526006602090815260408084206001600160a01b0393909316845291905290205460ff1690565b60405190151581526020016100fb565b61013d61015b366004610b9d565b610268565b61017361016e366004610b3c565b6102c6565b6040516100fb9493929190610c05565b61013d610191366004610b71565b600660209081526000928352604080842090915290825290205460ff1681565b6101b9600381565b6040519081526020016100fb565b6101736101d5366004610b3c565b61039d565b6101e261045c565b6040516100fb9190610c3c565b6101b960075481565b6101b9610206366004610c8c565b6104a1565b61021e610219366004610b3c565b610622565b005b610228610838565b6040516100fb9190610d4e565b61021e610243366004610b3c565b610937565b6000816005811061025857600080fd5b01546001600160a01b0316905081565b6000805b60058110156102bd57826001600160a01b03166000826005811061029257610292610d92565b01546001600160a01b0316036102ab5750600192915050565b806102b581610da8565b91505061026c565b50600092915050565b60008181526005602052604081208054600282015460038301546001840180546060958795869591946001600160a01b03909116939260ff90921691839061030d90610dcf565b80601f016020809104026020016040519081016040528092919081815260200182805461033990610dcf565b80156103865780601f1061035b57610100808354040283529160200191610386565b820191906000526020600020905b81548152906001019060200180831161036957829003601f168201915b505050505092509450945094509450509193509193565b600560205260009081526040902080546001820180546001600160a01b0390921692916103c990610dcf565b80601f01602080910402602001604051908101604052809291908181526020018280546103f590610dcf565b80156104425780601f1061041757610100808354040283529160200191610442565b820191906000526020600020905b81548152906001019060200180831161042557829003601f168201915b505050506002830154600390930154919260ff1691905084565b610464610b1e565b6040805160a08101918290529060009060059082845b81546001600160a01b0316815260019091019060200180831161047a575050505050905090565b600080805b60058110156104ee5733600082600581106104c3576104c3610d92565b01546001600160a01b0316036104dc57600191506104ee565b806104e681610da8565b9150506104a6565b508061052d5760405162461bcd60e51b81526020600482015260096024820152682737ba1037bbb732b960b91b60448201526064015b60405180910390fd5b600754604080516080810182526001600160a01b03878116825260208083018881526000848601819052606085018190528681526005909252939020825181546001600160a01b031916921691909117815591519294509160018201906105949082610e58565b50604082015160028201805460ff1916911515919091179055606090910151600390910155600780549060006105c983610da8565b9190505550336001600160a01b0316827f98c05d5d534f1e05804931f157e604800128fa08c13604e577c6b9d599dc56c1868660405161060a929190610f18565b60405180910390a361061b82610622565b5092915050565b6000805b600581101561066e57336000826005811061064357610643610d92565b01546001600160a01b03160361065c576001915061066e565b8061066681610da8565b915050610626565b50806106a85760405162461bcd60e51b81526020600482015260096024820152682737ba1037bbb732b960b91b6044820152606401610524565b8160075481106106e95760405162461bcd60e51b815260206004820152600c60248201526b1516081b9bdd08195e1a5cdd60a21b6044820152606401610524565b600083815260056020526040902060020154839060ff16156107405760405162461bcd60e51b815260206004820152601060248201526f105b1c9958591e48195e1958dd5d195960821b6044820152606401610524565b6000848152600660209081526040808320338452909152902054849060ff16156107a05760405162461bcd60e51b8152602060048201526011602482015270105b1c9958591e4818dbdb999a5c9b5959607a1b6044820152606401610524565b60008581526006602090815260408083203384528252808320805460ff19166001179055878352600590915281206003018054916107dd83610da8565b9091555050604051339086907f15c2f311c9e0f53b50388279894aeff029a3457884a6601e924fca879e12adcc90600090a36000858152600560205260409020600390810154106108315761083185610937565b5050505050565b60606000805b6007548110156108815760008181526005602052604090206002015460ff1661086f578161086b81610da8565b9250505b8061087981610da8565b91505061083e565b5060008167ffffffffffffffff81111561089d5761089d610c76565b6040519080825280602002602001820160405280156108c6578160200160208202803683370190505b5090506000805b60075481101561092e5760008181526005602052604090206002015460ff1661091c578083838151811061090357610903610d92565b60209081029190910101528161091881610da8565b9250505b8061092681610da8565b9150506108cd565b50909392505050565b8060075481106109785760405162461bcd60e51b815260206004820152600c60248201526b1516081b9bdd08195e1a5cdd60a21b6044820152606401610524565b600082815260056020526040902060020154829060ff16156109cf5760405162461bcd60e51b815260206004820152601060248201526f105b1c9958591e48195e1958dd5d195960821b6044820152606401610524565b60008381526005602052604090206003808201541015610a315760405162461bcd60e51b815260206004820152601860248201527f4e6f7420656e6f75676820636f6e6669726d6174696f6e7300000000000000006044820152606401610524565b60028101805460ff1916600190811790915581546040516000926001600160a01b0390921691610a649190850190610f44565b6000604051808303816000865af19150503d8060008114610aa1576040519150601f19603f3d011682016040523d82523d6000602084013e610aa6565b606091505b5050905080610aec5760405162461bcd60e51b8152602060048201526012602482015271151c985b9cd858dd1a5bdb8819985a5b195960721b6044820152606401610524565b60405185907f15ed165a284872ea7017f03df402a0cadfbfab588320ffaf83f160c2f82781c790600090a25050505050565b6040518060a001604052806005906020820280368337509192915050565b600060208284031215610b4e57600080fd5b5035919050565b80356001600160a01b0381168114610b6c57600080fd5b919050565b60008060408385031215610b8457600080fd5b82359150610b9460208401610b55565b90509250929050565b600060208284031215610baf57600080fd5b610bb882610b55565b9392505050565b6000815180845260005b81811015610be557602081850181015186830182015201610bc9565b506000602082860101526020601f19601f83011685010191505092915050565b6001600160a01b0385168152608060208201819052600090610c2990830186610bbf565b9315156040830152506060015292915050565b60a08101818360005b6005811015610c6d5781516001600160a01b0316835260209283019290910190600101610c45565b50505092915050565b634e487b7160e01b600052604160045260246000fd5b60008060408385031215610c9f57600080fd5b610ca883610b55565b9150602083013567ffffffffffffffff80821115610cc557600080fd5b818501915085601f830112610cd957600080fd5b813581811115610ceb57610ceb610c76565b604051601f8201601f19908116603f01168101908382118183101715610d1357610d13610c76565b81604052828152886020848701011115610d2c57600080fd5b8260208601602083013760006020848301015280955050505050509250929050565b6020808252825182820181905260009190848201906040850190845b81811015610d8657835183529284019291840191600101610d6a565b50909695505050505050565b634e487b7160e01b600052603260045260246000fd5b600060018201610dc857634e487b7160e01b600052601160045260246000fd5b5060010190565b600181811c90821680610de357607f821691505b602082108103610e0357634e487b7160e01b600052602260045260246000fd5b50919050565b601f821115610e5357600081815260208120601f850160051c81016020861015610e305750805b601f850160051c820191505b81811015610e4f57828155600101610e3c565b5050505b505050565b815167ffffffffffffffff811115610e7257610e72610c76565b610e8681610e808454610dcf565b84610e09565b602080601f831160018114610ebb5760008415610ea35750858301515b600019600386901b1c1916600185901b178555610e4f565b600085815260208120601f198616915b82811015610eea57888601518255948401946001909101908401610ecb565b5085821015610f085787850151600019600388901b60f8161c191681555b5050505050600190811b01905550565b6001600160a01b0383168152604060208201819052600090610f3c90830184610bbf565b949350505050565b6000808354610f5281610dcf565b60018281168015610f6a5760018114610f7f57610fae565b60ff1984168752821515830287019450610fae565b8760005260208060002060005b85811015610fa55781548a820152908401908201610f8c565b50505082870194505b5092969550505050505056fea26469706673582212200f5a97b4be5dd09d5aa85504a3389716e4dc44045fef0bd6717654aedd9b58bd64736f6c63430008140033",
  "linkReferences": {},
  "deployedLinkReferences": {}
}