{"contracts/MockKCY1Distribution.sol":{"MockKCY1Distribution":{"abi":[{"inputs":[{"internalType":"address","name":"_devWallet","type":"address"},{"internalType":"address","name":"_marketingWallet","type":"address"},{"internalType":"address","name":"_teamWallet","type":"address"},{"internalType":"address","name":"_advisorWallet","type":"address"}],"stateMutability":"nonpayable","type":"constructor"},{"anonymous":false,"inputs":[{"indexed":true,"internalType":"address","name":"owner","type":"address"},{"indexed":true,"internalType":"address","name":"spender","type":"address"},{"indexed":false,"internalType":"uint256","name":"value","type":"uint256"}],"name":"Approval","type":"event"},{"anonymous":false,"inputs":[{"indexed":true,"internalType":"address","name":"recipient","type":"address"},{"indexed":false,"internalType":"uint256","name":"amount","type":"uint256"}],"name":"DistributionSent","type":"event"},{"anonymous":false,"inputs":[{"indexed":false,"internalType":"uint256","name":"totalDistributed","type":"uint256"}],"name":"InitialDistributionCompleted","type":"event"},{"anonymous":false,"inputs":[{"indexed":true,"internalType":"address","name":"from","type":"address"},{"indexed":true,"internalType":"address","name":"to","type":"address"},{"indexed":false,"internalType":"uint256","name":"value","type":"uint256"}],"name":"Transfer","type":"event"},{"inputs":[],"name":"Aw_trzV","outputs":[{"internalType":"address","name":"","type":"address"}],"stateMutability":"view","type":"function"},{"inputs":[],"name":"DEVw_mv","outputs":[{"internalType":"address","name":"","type":"address"}],"stateMutability":"view","type":"function"},{"inputs":[],"name":"Mw_tng","outputs":[{"internalType":"address","name":"","type":"address"}],"stateMutability":"view","type":"function"},{"inputs":[],"name":"Tw_trz_hdn","outputs":[{"internalType":"address","name":"","type":"address"}],"stateMutability":"view","type":"function"},{"inputs":[{"internalType":"address","name":"","type":"address"},{"internalType":"address","name":"","type":"address"}],"name":"allowance","outputs":[{"internalType":"uint256","name":"","type":"uint256"}],"stateMutability":"view","type":"function"},{"inputs":[{"internalType":"address","name":"spender","type":"address"},{"internalType":"uint256","name":"amount","type":"uint256"}],"name":"approve","outputs":[{"internalType":"bool","name":"","type":"bool"}],"stateMutability":"nonpayable","type":"function"},{"inputs":[{"internalType":"address","name":"","type":"address"}],"name":"balanceOf","outputs":[{"internalType":"uint256","name":"","type":"uint256"}],"stateMutability":"view","type":"function"},{"inputs":[],"name":"decimals","outputs":[{"internalType":"uint8","name":"","type":"uint8"}],"stateMutability":"view","type":"function"},{"inputs":[],"name":"distributeInitialAllocations","outputs":[],"stateMutability":"nonpayable","type":"function"},{"inputs":[],"name":"getDistributionAddresses","outputs":[{"internalType":"address","name":"devWallet","type":"address"},{"internalType":"address","name":"marketingWallet","type":"address"},{"internalType":"address","name":"teamWallet","type":"address"},{"internalType":"address","name":"advisorWallet","type":"address"}],"stateMutability":"view","type":"function"},{"inputs":[],"name":"initialDistributionCompleted","outputs":[{"internalType":"bool","name":"","type":"bool"}],"stateMutability":"view","type":"function"},{"inputs":[],"name":"name","outputs":[{"internalType":"string","name":"","type":"string"}],"stateMutability":"view","type":"function"},{"inputs":[],"name":"owner","outputs":[{"internalType":"address","name":"","type":"address"}],"stateMutability":"view","type":"function"},{"inputs":[],"name":"symbol","outputs":[{"internalType":"string","name":"","type":"string"}],"stateMutability":"view","type":"function"},{"inputs":[],"name":"totalSupply","outputs":[{"internalType":"uint256","name":"","type":"uint256"}],"stateMutability":"view","type":"function"},{"inputs":[{"internalType":"address","name":"to","type":"address"},{"internalType":"uint256","name":"amount","type":"uint256"}],"name":"transfer","outputs":[{"internalType":"bool","name":"","type":"bool"}],"stateMutability":"nonpayable","type":"function"},{"inputs":[{"internalType":"address","name":"from","type":"address"},{"internalType":"address","name":"to","type":"address"},{"internalType":"uint256","name":"amount","type":"uint256"}],"name":"transferFrom","outputs":[{"internalType":"bool","name":"","type":"bool"}],"stateMutability":"nonpayable","type":"function"}],"evm":{"bytecode":{"linkReferences":{},"object":"610120604052348015610010575f5ffd5b5060405161132338038061132383398101604081905261002f91610172565b3360805261003f6012600a6102bc565b61004d906305f5e1006102d1565b5f556001600160a01b0380851660a05283811660c05282811660e05281166101005261007b6012600a6102bc565b610089906305b8d8006102d1565b60a0516001600160a01b03165f908152600260205260409020556100af6012600a6102bc565b6100bc90623d09006102d1565b305f9081526002602052604081209190915560a0516001600160a01b0316905f5160206113035f395f51905f526100f56012600a6102bc565b610103906305b8d8006102d1565b60405190815260200160405180910390a3305f5f5160206113035f395f51905f526101306012600a6102bc565b61013d90623d09006102d1565b60405190815260200160405180910390a3505050506102e8565b80516001600160a01b038116811461016d575f5ffd5b919050565b5f5f5f5f60808587031215610185575f5ffd5b61018e85610157565b935061019c60208601610157565b92506101aa60408601610157565b91506101b860608601610157565b905092959194509250565b634e487b7160e01b5f52601160045260245ffd5b6001815b6001841115610212578085048111156101f6576101f66101c3565b600184161561020457908102905b60019390931c9280026101db565b935093915050565b5f82610228575060016102b6565b8161023457505f6102b6565b816001811461024a576002811461025457610270565b60019150506102b6565b60ff841115610265576102656101c3565b50506001821b6102b6565b5060208310610133831016604e8410600b8410161715610293575081810a6102b6565b61029f5f1984846101d7565b805f19048211156102b2576102b26101c3565b0290505b92915050565b5f6102ca60ff84168361021a565b9392505050565b80820281158282048414176102b6576102b66101c3565b60805160a05160c05160e05161010051610f3d6103c65f395f818161022d0152818161029b01528181610b8701528181610be401528181610c5601528181610cb60152610cfd01525f818161020301528181610335015281816109a601528181610a0301528181610a7401528181610ad20152610b1901525f81816101db015281816102e7015281816107c10152818161081e01528181610890015281816108f0015261093701525f81816101b601528181610380015281816107f4015281816109d90152610bba01525f818161030e01526106b60152610f3d5ff3fe608060405234801561000f575f5ffd5b5060043610610106575f3560e01c8063888933da1161009e57806395d89b411161006e57806395d89b4114610357578063a4c37fee1461037b578063a9059cbb146103a2578063dd62ed3e146103b5578063f8687091146103df575f5ffd5b8063888933da146102d55780638a0d849f146102e25780638da5cb5b146103095780639294292214610330575f5ffd5b80632bf9db79116100d95780632bf9db79146101a8578063313ce5671461025d57806370a0823114610277578063886cbda014610296575f5ffd5b806306fdde031461010a578063095ea7b31461015c57806318160ddd1461017f57806323b872dd14610195575b5f5ffd5b6101466040518060400160405280601b81526020017f4d6f636b204b43593120446973747269627574696f6e2054657374000000000081525081565b6040516101539190610daa565b60405180910390f35b61016f61016a366004610dfa565b6103e9565b6040519015158152602001610153565b6101875f5481565b604051908152602001610153565b61016f6101a3366004610e22565b610455565b604080516001600160a01b037f0000000000000000000000000000000000000000000000000000000000000000811682527f0000000000000000000000000000000000000000000000000000000000000000811660208301527f00000000000000000000000000000000000000000000000000000000000000008116928201929092527f0000000000000000000000000000000000000000000000000000000000000000919091166060820152608001610153565b610265601281565b60405160ff9091168152602001610153565b610187610285366004610e5c565b60026020525f908152604090205481565b6102bd7f000000000000000000000000000000000000000000000000000000000000000081565b6040516001600160a01b039091168152602001610153565b60015461016f9060ff1681565b6102bd7f000000000000000000000000000000000000000000000000000000000000000081565b6102bd7f000000000000000000000000000000000000000000000000000000000000000081565b6102bd7f000000000000000000000000000000000000000000000000000000000000000081565b610146604051806040016040528060058152602001644d4b43593160d81b81525081565b6102bd7f000000000000000000000000000000000000000000000000000000000000000081565b61016f6103b0366004610dfa565b6105e6565b6101876103c3366004610e7c565b600360209081525f928352604080842090915290825290205481565b6103e76106ab565b005b335f8181526003602090815260408083206001600160a01b038716808552925280832085905551919290917f8c5be1e5ebec7d5bd14f71427d1e84f3dd0314c0f7b2291e5b200ac8c7c3b925906104439086815260200190565b60405180910390a35060015b92915050565b6001600160a01b0383165f9081526003602090815260408083203384529091528120548211156104bc5760405162461bcd60e51b815260206004820152600d60248201526c4c6f7720616c6c6f77616e636560981b60448201526064015b60405180910390fd5b6001600160a01b0384165f908152600260205260409020548211156105115760405162461bcd60e51b815260206004820152600b60248201526a4c6f772062616c616e636560a81b60448201526064016104b3565b6001600160a01b0384165f90815260036020908152604080832033845290915281208054849290610543908490610ec1565b90915550506001600160a01b0384165f908152600260205260408120805484929061056f908490610ec1565b90915550506001600160a01b0383165f908152600260205260408120805484929061059b908490610ed4565b92505081905550826001600160a01b0316846001600160a01b03165f516020610ee85f395f51905f52846040516105d491815260200190565b60405180910390a35060019392505050565b335f908152600260205260408120548211156106325760405162461bcd60e51b815260206004820152600b60248201526a4c6f772062616c616e636560a81b60448201526064016104b3565b335f9081526002602052604081208054849290610650908490610ec1565b90915550506001600160a01b0383165f908152600260205260408120805484929061067c908490610ed4565b90915550506040518281526001600160a01b0384169033905f516020610ee85f395f51905f5290602001610443565b336001600160a01b037f0000000000000000000000000000000000000000000000000000000000000000161461070f5760405162461bcd60e51b81526020600482015260096024820152682737ba1037bbb732b960b91b60448201526064016104b3565b60015460ff16156107535760405162461bcd60e51b815260206004820152600e60248201526d111a5cdd0818dbdb5c1b195d195960921b60448201526064016104b3565b305f908152600260205260409020546a034f086f3b33b68400000011156107b35760405162461bcd60e51b8152602060048201526014602482015273436f6e74726163742062616c616e6365206c6f7760601b60448201526064016104b3565b6001805460ff1916811790557f00000000000000000000000000000000000000000000000000000000000000006001600160a01b03161580159061084957507f00000000000000000000000000000000000000000000000000000000000000006001600160a01b03167f00000000000000000000000000000000000000000000000000000000000000006001600160a01b031614155b8015610853575060015b156109a457305f90815260026020526040812080546a013da329b63364718000009290610881908490610ec1565b90915550506001600160a01b037f0000000000000000000000000000000000000000000000000000000000000000165f90815260026020526040812080546a013da329b633647180000092906108d8908490610ed4565b90915550506040516a013da329b633647180000081527f00000000000000000000000000000000000000000000000000000000000000006001600160a01b03169030905f516020610ee85f395f51905f529060200160405180910390a37f00000000000000000000000000000000000000000000000000000000000000006001600160a01b03167f78786c581da76125b3c6c8a810adb3d2dab5d14b1273b8220661085f045e25cd6a013da329b633647180000060405161099b91815260200190565b60405180910390a25b7f00000000000000000000000000000000000000000000000000000000000000006001600160a01b031615801590610a2e57507f00000000000000000000000000000000000000000000000000000000000000006001600160a01b03167f00000000000000000000000000000000000000000000000000000000000000006001600160a01b031614155b8015610a38575060015b15610b8557305f908152600260205260408120805469d3c21bcecceda10000009290610a65908490610ec1565b90915550506001600160a01b037f0000000000000000000000000000000000000000000000000000000000000000165f908152600260205260408120805469d3c21bcecceda10000009290610abb908490610ed4565b909155505060405169d3c21bcecceda100000081527f00000000000000000000000000000000000000000000000000000000000000006001600160a01b03169030905f516020610ee85f395f51905f529060200160405180910390a37f00000000000000000000000000000000000000000000000000000000000000006001600160a01b03167f78786c581da76125b3c6c8a810adb3d2dab5d14b1273b8220661085f045e25cd69d3c21bcecceda1000000604051610b7c91815260200190565b60405180910390a25b7f00000000000000000000000000000000000000000000000000000000000000006001600160a01b031615801590610c0f57507f00000000000000000000000000000000000000000000000000000000000000006001600160a01b03167f00000000000000000000000000000000000000000000000000000000000000006001600160a01b031614155b8015610c19575060015b15610d6a57305f90815260026020526040812080546a013da329b63364718000009290610c47908490610ec1565b90915550506001600160a01b037f0000000000000000000000000000000000000000000000000000000000000000165f90815260026020526040812080546a013da329b63364718000009290610c9e908490610ed4565b90915550506040516a013da329b633647180000081527f00000000000000000000000000000000000000000000000000000000000000006001600160a01b03169030905f516020610ee85f395f51905f529060200160405180910390a37f00000000000000000000000000000000000000000000000000000000000000006001600160a01b03167f78786c581da76125b3c6c8a810adb3d2dab5d14b1273b8220661085f045e25cd6a013da329b6336471800000604051610d6191815260200190565b60405180910390a25b6040516a034f086f3b33b68400000081527f3a1079628069a11f368373dad84d9cb2831368c6f4ea1a0e86fbdbe0145a899b9060200160405180910390a1565b602081525f82518060208401528060208501604085015e5f604082850101526040601f19601f83011684010191505092915050565b80356001600160a01b0381168114610df5575f5ffd5b919050565b5f5f60408385031215610e0b575f5ffd5b610e1483610ddf565b946020939093013593505050565b5f5f5f60608486031215610e34575f5ffd5b610e3d84610ddf565b9250610e4b60208501610ddf565b929592945050506040919091013590565b5f60208284031215610e6c575f5ffd5b610e7582610ddf565b9392505050565b5f5f60408385031215610e8d575f5ffd5b610e9683610ddf565b9150610ea460208401610ddf565b90509250929050565b634e487b7160e01b5f52601160045260245ffd5b8181038181111561044f5761044f610ead565b8082018082111561044f5761044f610ead56feddf252ad1be2c89b69c2b068fc378daa952ba7f163c4a11628f55a4df523b3efa26469706673582212201c35fb5e3891edf5db8d85927b7556132e4bc1debed1449dbce414a918ffce5564736f6c634300081c0033ddf252ad1be2c89b69c2b068fc378daa952ba7f163c4a11628f55a4df523b3ef","opcodes":"PUSH2 0x120 PUSH1 0x40 MSTORE CALLVALUE DUP1 ISZERO PUSH2 0x10 JUMPI PUSH0 PUSH0 REVERT JUMPDEST POP PUSH1 0x40 MLOAD PUSH2 0x1323 CODESIZE SUB DUP1 PUSH2 0x1323 DUP4 CODECOPY DUP2 ADD PUSH1 0x40 DUP2 SWAP1 MSTORE PUSH2 0x2F SWAP2 PUSH2 0x172 JUMP JUMPDEST CALLER PUSH1 0x80 MSTORE PUSH2 0x3F PUSH1 0x12 PUSH1 0xA PUSH2 0x2BC JUMP JUMPDEST PUSH2 0x4D SWAP1 PUSH4 0x5F5E100 PUSH2 0x2D1 JUMP JUMPDEST PUSH0 SSTORE PUSH1 0x1 PUSH1 0x1 PUSH1 0xA0 SHL SUB DUP1 DUP6 AND PUSH1 0xA0 MSTORE DUP4 DUP2 AND PUSH1 0xC0 MSTORE DUP3 DUP2 AND PUSH1 0xE0 MSTORE DUP2 AND PUSH2 0x100 MSTORE PUSH2 0x7B PUSH1 0x12 PUSH1 0xA PUSH2 0x2BC JUMP JUMPDEST PUSH2 0x89 SWAP1 PUSH4 0x5B8D800 PUSH2 0x2D1 JUMP JUMPDEST PUSH1 0xA0 MLOAD PUSH1 0x1 PUSH1 0x1 PUSH1 0xA0 SHL SUB AND PUSH0 SWAP1 DUP2 MSTORE PUSH1 0x2 PUSH1 0x20 MSTORE PUSH1 0x40 SWAP1 KECCAK256 SSTORE PUSH2 0xAF PUSH1 0x12 PUSH1 0xA PUSH2 0x2BC JUMP JUMPDEST PUSH2 0xBC SWAP1 PUSH3 0x3D0900 PUSH2 0x2D1 JUMP JUMPDEST ADDRESS PUSH0 SWAP1 DUP2 MSTORE PUSH1 0x2 PUSH1 0x20 MSTORE PUSH1 0x40 DUP2 KECCAK256 SWAP2 SWAP1 SWAP2 SSTORE PUSH1 0xA0 MLOAD PUSH1 0x1 PUSH1 0x1 PUSH1 0xA0 SHL SUB AND SWAP1 PUSH0 MLOAD PUSH1 0x20 PUSH2 0x1303 PUSH0 CODECOPY PUSH0 MLOAD SWAP1 PUSH0 MSTORE PUSH2 0xF5 PUSH1 0x12 PUSH1 0xA PUSH2 0x2BC JUMP JUMPDEST PUSH2 0x103 SWAP1 PUSH4 0x5B8D800 PUSH2 0x2D1 JUMP JUMPDEST PUSH1 0x40 MLOAD SWAP1 DUP2 MSTORE PUSH1 0x20 ADD PUSH1 0x40 MLOAD DUP1 SWAP2 SUB SWAP1 LOG3 ADDRESS PUSH0 PUSH0 MLOAD PUSH1 0x20 PUSH2 0x1303 PUSH0 CODECOPY PUSH0 MLOAD SWAP1 PUSH0 MSTORE PUSH2 0x130 PUSH1 0x12 PUSH1 0xA PUSH2 0x2BC JUMP JUMPDEST PUSH2 0x13D SWAP1 PUSH3 0x3D0900 PUSH2 0x2D1 JUMP JUMPDEST PUSH1 0x40 MLOAD SWAP1 DUP2 MSTORE PUSH1 0x20 ADD PUSH1 0x40 MLOAD DUP1 SWAP2 SUB SWAP1 LOG3 POP POP POP POP PUSH2 0x2E8 JUMP JUMPDEST DUP1 MLOAD PUSH1 0x1 PUSH1 0x1 PUSH1 0xA0 SHL SUB DUP2 AND DUP2 EQ PUSH2 0x16D JUMPI PUSH0 PUSH0 REVERT JUMPDEST SWAP2 SWAP1 POP JUMP JUMPDEST PUSH0 PUSH0 PUSH0 PUSH0 PUSH1 0x80 DUP6 DUP8 SUB SLT ISZERO PUSH2 0x185 JUMPI PUSH0 PUSH0 REVERT JUMPDEST PUSH2 0x18E DUP6 PUSH2 0x157 JUMP JUMPDEST SWAP4 POP PUSH2 0x19C PUSH1 0x20 DUP7 ADD PUSH2 0x157 JUMP JUMPDEST SWAP3 POP PUSH2 0x1AA PUSH1 0x40 DUP7 ADD PUSH2 0x157 JUMP JUMPDEST SWAP2 POP PUSH2 0x1B8 PUSH1 0x60 DUP7 ADD PUSH2 0x157 JUMP JUMPDEST SWAP1 POP SWAP3 SWAP6 SWAP2 SWAP5 POP SWAP3 POP JUMP JUMPDEST PUSH4 0x4E487B71 PUSH1 0xE0 SHL PUSH0 MSTORE PUSH1 0x11 PUSH1 0x4 MSTORE PUSH1 0x24 PUSH0 REVERT JUMPDEST PUSH1 0x1 DUP2 JUMPDEST PUSH1 0x1 DUP5 GT ISZERO PUSH2 0x212 JUMPI DUP1 DUP6 DIV DUP2 GT ISZERO PUSH2 0x1F6 JUMPI PUSH2 0x1F6 PUSH2 0x1C3 JUMP JUMPDEST PUSH1 0x1 DUP5 AND ISZERO PUSH2 0x204 JUMPI SWAP1 DUP2 MUL SWAP1 JUMPDEST PUSH1 0x1 SWAP4 SWAP1 SWAP4 SHR SWAP3 DUP1 MUL PUSH2 0x1DB JUMP JUMPDEST SWAP4 POP SWAP4 SWAP2 POP POP JUMP JUMPDEST PUSH0 DUP3 PUSH2 0x228 JUMPI POP PUSH1 0x1 PUSH2 0x2B6 JUMP JUMPDEST DUP2 PUSH2 0x234 JUMPI POP PUSH0 PUSH2 0x2B6 JUMP JUMPDEST DUP2 PUSH1 0x1 DUP2 EQ PUSH2 0x24A JUMPI PUSH1 0x2 DUP2 EQ PUSH2 0x254 JUMPI PUSH2 0x270 JUMP JUMPDEST PUSH1 0x1 SWAP2 POP POP PUSH2 0x2B6 JUMP JUMPDEST PUSH1 0xFF DUP5 GT ISZERO PUSH2 0x265 JUMPI PUSH2 0x265 PUSH2 0x1C3 JUMP JUMPDEST POP POP PUSH1 0x1 DUP3 SHL PUSH2 0x2B6 JUMP JUMPDEST POP PUSH1 0x20 DUP4 LT PUSH2 0x133 DUP4 LT AND PUSH1 0x4E DUP5 LT PUSH1 0xB DUP5 LT AND OR ISZERO PUSH2 0x293 JUMPI POP DUP2 DUP2 EXP PUSH2 0x2B6 JUMP JUMPDEST PUSH2 0x29F PUSH0 NOT DUP5 DUP5 PUSH2 0x1D7 JUMP JUMPDEST DUP1 PUSH0 NOT DIV DUP3 GT ISZERO PUSH2 0x2B2 JUMPI PUSH2 0x2B2 PUSH2 0x1C3 JUMP JUMPDEST MUL SWAP1 POP JUMPDEST SWAP3 SWAP2 POP POP JUMP JUMPDEST PUSH0 PUSH2 0x2CA PUSH1 0xFF DUP5 AND DUP4 PUSH2 0x21A JUMP JUMPDEST SWAP4 SWAP3 POP POP POP JUMP JUMPDEST DUP1 DUP3 MUL DUP2 ISZERO DUP3 DUP3 DIV DUP5 EQ OR PUSH2 0x2B6 JUMPI PUSH2 0x2B6 PUSH2 0x1C3 JUMP JUMPDEST PUSH1 0x80 MLOAD PUSH1 0xA0 MLOAD PUSH1 0xC0 MLOAD PUSH1 0xE0 MLOAD PUSH2 0x100 MLOAD PUSH2 0xF3D PUSH2 0x3C6 PUSH0 CODECOPY PUSH0 DUP2 DUP2 PUSH2 0x22D ADD MSTORE DUP2 DUP2 PUSH2 0x29B ADD MSTORE DUP2 DUP2 PUSH2 0xB87 ADD MSTORE DUP2 DUP2 PUSH2 0xBE4 ADD MSTORE DUP2 DUP2 PUSH2 0xC56 ADD MSTORE DUP2 DUP2 PUSH2 0xCB6 ADD MSTORE PUSH2 0xCFD ADD MSTORE PUSH0 DUP2 DUP2 PUSH2 0x203 ADD MSTORE DUP2 DUP2 PUSH2 0x335 ADD MSTORE DUP2 DUP2 PUSH2 0x9A6 ADD MSTORE DUP2 DUP2 PUSH2 0xA03 ADD MSTORE DUP2 DUP2 PUSH2 0xA74 ADD MSTORE DUP2 DUP2 PUSH2 0xAD2 ADD MSTORE PUSH2 0xB19 ADD MSTORE PUSH0 DUP2 DUP2 PUSH2 0x1DB ADD MSTORE DUP2 DUP2 PUSH2 0x2E7 ADD MSTORE DUP2 DUP2 PUSH2 0x7C1 ADD MSTORE DUP2 DUP2 PUSH2 0x81E ADD MSTORE DUP2 DUP2 PUSH2 0x890 ADD MSTORE DUP2 DUP2 PUSH2 0x8F0 ADD MSTORE PUSH2 0x937 ADD MSTORE PUSH0 DUP2 DUP2 PUSH2 0x1B6 ADD MSTORE DUP2 DUP2 PUSH2 0x380 ADD MSTORE DUP2 DUP2 PUSH2 0x7F4 ADD MSTORE DUP2 DUP2 PUSH2 0x9D9 ADD MSTORE PUSH2 0xBBA ADD MSTORE PUSH0 DUP2 DUP2 PUSH2 0x30E ADD MSTORE PUSH2 0x6B6 ADD MSTORE PUSH2 0xF3D PUSH0 RETURN INVALID PUSH1 0x80 PUSH1 0x40 MSTORE CALLVALUE DUP1 ISZERO PUSH2 0xF JUMPI PUSH0 PUSH0 REVERT JUMPDEST POP PUSH1 0x4 CALLDATASIZE LT PUSH2 0x106 JUMPI PUSH0 CALLDATALOAD PUSH1 0xE0 SHR DUP1 PUSH4 0x888933DA GT PUSH2 0x9E JUMPI DUP1 PUSH4 0x95D89B41 GT PUSH2 0x6E JUMPI DUP1 PUSH4 0x95D89B41 EQ PUSH2 0x357 JUMPI DUP1 PUSH4 0xA4C37FEE EQ PUSH2 0x37B JUMPI DUP1 PUSH4 0xA9059CBB EQ PUSH2 0x3A2 JUMPI DUP1 PUSH4 0xDD62ED3E EQ PUSH2 0x3B5 JUMPI DUP1 PUSH4 0xF8687091 EQ PUSH2 0x3DF JUMPI PUSH0 PUSH0 REVERT JUMPDEST DUP1 PUSH4 0x888933DA EQ PUSH2 0x2D5 JUMPI DUP1 PUSH4 0x8A0D849F EQ PUSH2 0x2E2 JUMPI DUP1 PUSH4 0x8DA5CB5B EQ PUSH2 0x309 JUMPI DUP1 PUSH4 0x92942922 EQ PUSH2 0x330 JUMPI PUSH0 PUSH0 REVERT JUMPDEST DUP1 PUSH4 0x2BF9DB79 GT PUSH2 0xD9 JUMPI DUP1 PUSH4 0x2BF9DB79 EQ PUSH2 0x1A8 JUMPI DUP1 PUSH4 0x313CE567 EQ PUSH2 0x25D JUMPI DUP1 PUSH4 0x70A08231 EQ PUSH2 0x277 JUMPI DUP1 PUSH4 0x886CBDA0 EQ PUSH2 0x296 JUMPI PUSH0 PUSH0 REVERT JUMPDEST DUP1 PUSH4 0x6FDDE03 EQ PUSH2 0x10A JUMPI DUP1 PUSH4 0x95EA7B3 EQ PUSH2 0x15C JUMPI DUP1 PUSH4 0x18160DDD EQ PUSH2 0x17F JUMPI DUP1 PUSH4 0x23B872DD EQ PUSH2 0x195 JUMPI JUMPDEST PUSH0 PUSH0 REVERT JUMPDEST PUSH2 0x146 PUSH1 0x40 MLOAD DUP1 PUSH1 0x40 ADD PUSH1 0x40 MSTORE DUP1 PUSH1 0x1B DUP2 MSTORE PUSH1 0x20 ADD PUSH32 0x4D6F636B204B43593120446973747269627574696F6E20546573740000000000 DUP2 MSTORE POP DUP2 JUMP JUMPDEST PUSH1 0x40 MLOAD PUSH2 0x153 SWAP2 SWAP1 PUSH2 0xDAA JUMP JUMPDEST PUSH1 0x40 MLOAD DUP1 SWAP2 SUB SWAP1 RETURN JUMPDEST PUSH2 0x16F PUSH2 0x16A CALLDATASIZE PUSH1 0x4 PUSH2 0xDFA JUMP JUMPDEST PUSH2 0x3E9 JUMP JUMPDEST PUSH1 0x40 MLOAD SWAP1 ISZERO ISZERO DUP2 MSTORE PUSH1 0x20 ADD PUSH2 0x153 JUMP JUMPDEST PUSH2 0x187 PUSH0 SLOAD DUP2 JUMP JUMPDEST PUSH1 0x40 MLOAD SWAP1 DUP2 MSTORE PUSH1 0x20 ADD PUSH2 0x153 JUMP JUMPDEST PUSH2 0x16F PUSH2 0x1A3 CALLDATASIZE PUSH1 0x4 PUSH2 0xE22 JUMP JUMPDEST PUSH2 0x455 JUMP JUMPDEST PUSH1 0x40 DUP1 MLOAD PUSH1 0x1 PUSH1 0x1 PUSH1 0xA0 SHL SUB PUSH32 0x0 DUP2 AND DUP3 MSTORE PUSH32 0x0 DUP2 AND PUSH1 0x20 DUP4 ADD MSTORE PUSH32 0x0 DUP2 AND SWAP3 DUP3 ADD SWAP3 SWAP1 SWAP3 MSTORE PUSH32 0x0 SWAP2 SWAP1 SWAP2 AND PUSH1 0x60 DUP3 ADD MSTORE PUSH1 0x80 ADD PUSH2 0x153 JUMP JUMPDEST PUSH2 0x265 PUSH1 0x12 DUP2 JUMP JUMPDEST PUSH1 0x40 MLOAD PUSH1 0xFF SWAP1 SWAP2 AND DUP2 MSTORE PUSH1 0x20 ADD PUSH2 0x153 JUMP JUMPDEST PUSH2 0x187 PUSH2 0x285 CALLDATASIZE PUSH1 0x4 PUSH2 0xE5C JUMP JUMPDEST PUSH1 0x2 PUSH1 0x20 MSTORE PUSH0 SWAP1 DUP2 MSTORE PUSH1 0x40 SWAP1 KECCAK256 SLOAD DUP2 JUMP JUMPDEST PUSH2 0x2BD PUSH32 0x0 DUP2 JUMP JUMPDEST PUSH1 0x40 MLOAD PUSH1 0x1 PUSH1 0x1 PUSH1 0xA0 SHL SUB SWAP1 SWAP2 AND DUP2 MSTORE PUSH1 0x20 ADD PUSH2 0x153 JUMP JUMPDEST PUSH1 0x1 SLOAD PUSH2 0x16F SWAP1 PUSH1 0xFF AND DUP2 JUMP JUMPDEST PUSH2 0x2BD PUSH32 0x0 DUP2 JUMP JUMPDEST PUSH2 0x2BD PUSH32 0x0 DUP2 JUMP JUMPDEST PUSH2 0x2BD PUSH32 0x0 DUP2 JUMP JUMPDEST PUSH2 0x146 PUSH1 0x40 MLOAD DUP1 PUSH1 0x40 ADD PUSH1 0x40 MSTORE DUP1 PUSH1 0x5 DUP2 MSTORE PUSH1 0x20 ADD PUSH5 0x4D4B435931 PUSH1 0xD8 SHL DUP2 MSTORE POP DUP2 JUMP JUMPDEST PUSH2 0x2BD PUSH32 0x0 DUP2 JUMP JUMPDEST PUSH2 0x16F PUSH2 0x3B0 CALLDATASIZE PUSH1 0x4 PUSH2 0xDFA JUMP JUMPDEST PUSH2 0x5E6 JUMP JUMPDEST PUSH2 0x187 PUSH2 0x3C3 CALLDATASIZE PUSH1 0x4 PUSH2 0xE7C JUMP JUMPDEST PUSH1 0x3 PUSH1 0x20 SWAP1 DUP2 MSTORE PUSH0 SWAP3 DUP4 MSTORE PUSH1 0x40 DUP1 DUP5 KECCAK256 SWAP1 SWAP2 MSTORE SWAP1 DUP3 MSTORE SWAP1 KECCAK256 SLOAD DUP2 JUMP JUMPDEST PUSH2 0x3E7 PUSH2 0x6AB JUMP JUMPDEST STOP JUMPDEST CALLER PUSH0 DUP2 DUP2 MSTORE PUSH1 0x3 PUSH1 0x20 SWAP1 DUP2 MSTORE PUSH1 0x40 DUP1 DUP4 KECCAK256 PUSH1 0x1 PUSH1 0x1 PUSH1 0xA0 SHL SUB DUP8 AND DUP1 DUP6 MSTORE SWAP3 MSTORE DUP1 DUP4 KECCAK256 DUP6 SWAP1 SSTORE MLOAD SWAP2 SWAP3 SWAP1 SWAP2 PUSH32 0x8C5BE1E5EBEC7D5BD14F71427D1E84F3DD0314C0F7B2291E5B200AC8C7C3B925 SWAP1 PUSH2 0x443 SWAP1 DUP7 DUP2 MSTORE PUSH1 0x20 ADD SWAP1 JUMP JUMPDEST PUSH1 0x40 MLOAD DUP1 SWAP2 SUB SWAP1 LOG3 POP PUSH1 0x1 JUMPDEST SWAP3 SWAP2 POP POP JUMP JUMPDEST PUSH1 0x1 PUSH1 0x1 PUSH1 0xA0 SHL SUB DUP4 AND PUSH0 SWAP1 DUP2 MSTORE PUSH1 0x3 PUSH1 0x20 SWAP1 DUP2 MSTORE PUSH1 0x40 DUP1 DUP4 KECCAK256 CALLER DUP5 MSTORE SWAP1 SWAP2 MSTORE DUP2 KECCAK256 SLOAD DUP3 GT ISZERO PUSH2 0x4BC JUMPI PUSH1 0x40 MLOAD PUSH3 0x461BCD PUSH1 0xE5 SHL DUP2 MSTORE PUSH1 0x20 PUSH1 0x4 DUP3 ADD MSTORE PUSH1 0xD PUSH1 0x24 DUP3 ADD MSTORE PUSH13 0x4C6F7720616C6C6F77616E6365 PUSH1 0x98 SHL PUSH1 0x44 DUP3 ADD MSTORE PUSH1 0x64 ADD JUMPDEST PUSH1 0x40 MLOAD DUP1 SWAP2 SUB SWAP1 REVERT JUMPDEST PUSH1 0x1 PUSH1 0x1 PUSH1 0xA0 SHL SUB DUP5 AND PUSH0 SWAP1 DUP2 MSTORE PUSH1 0x2 PUSH1 0x20 MSTORE PUSH1 0x40 SWAP1 KECCAK256 SLOAD DUP3 GT ISZERO PUSH2 0x511 JUMPI PUSH1 0x40 MLOAD PUSH3 0x461BCD PUSH1 0xE5 SHL DUP2 MSTORE PUSH1 0x20 PUSH1 0x4 DUP3 ADD MSTORE PUSH1 0xB PUSH1 0x24 DUP3 ADD MSTORE PUSH11 0x4C6F772062616C616E6365 PUSH1 0xA8 SHL PUSH1 0x44 DUP3 ADD MSTORE PUSH1 0x64 ADD PUSH2 0x4B3 JUMP JUMPDEST PUSH1 0x1 PUSH1 0x1 PUSH1 0xA0 SHL SUB DUP5 AND PUSH0 SWAP1 DUP2 MSTORE PUSH1 0x3 PUSH1 0x20 SWAP1 DUP2 MSTORE PUSH1 0x40 DUP1 DUP4 KECCAK256 CALLER DUP5 MSTORE SWAP1 SWAP2 MSTORE DUP2 KECCAK256 DUP1 SLOAD DUP5 SWAP3 SWAP1 PUSH2 0x543 SWAP1 DUP5 SWAP1 PUSH2 0xEC1 JUMP JUMPDEST SWAP1 SWAP2 SSTORE POP POP PUSH1 0x1 PUSH1 0x1 PUSH1 0xA0 SHL SUB DUP5 AND PUSH0 SWAP1 DUP2 MSTORE PUSH1 0x2 PUSH1 0x20 MSTORE PUSH1 0x40 DUP2 KECCAK256 DUP1 SLOAD DUP5 SWAP3 SWAP1 PUSH2 0x56F SWAP1 DUP5 SWAP1 PUSH2 0xEC1 JUMP JUMPDEST SWAP1 SWAP2 SSTORE POP POP PUSH1 0x1 PUSH1 0x1 PUSH1 0xA0 SHL SUB DUP4 AND PUSH0 SWAP1 DUP2 MSTORE PUSH1 0x2 PUSH1 0x20 MSTORE PUSH1 0x40 DUP2 KECCAK256 DUP1 SLOAD DUP5 SWAP3 SWAP1 PUSH2 0x59B SWAP1 DUP5 SWAP1 PUSH2 0xED4 JUMP JUMPDEST SWAP3 POP POP DUP2 SWAP1 SSTORE POP DUP3 PUSH1 0x1 PUSH1 0x1 PUSH1 0xA0 SHL SUB AND DUP5 PUSH1 0x1 PUSH1 0x1 PUSH1 0xA0 SHL SUB AND PUSH0 MLOAD PUSH1 0x20 PUSH2 0xEE8 PUSH0 CODECOPY PUSH0 MLOAD SWAP1 PUSH0 MSTORE DUP5 PUSH1 0x40 MLOAD PUSH2 0x5D4 SWAP2 DUP2 MSTORE PUSH1 0x20 ADD SWAP1 JUMP JUMPDEST PUSH1 0x40 MLOAD DUP1 SWAP2 SUB SWAP1 LOG3 POP PUSH1 0x1 SWAP4 SWAP3 POP POP POP JUMP JUMPDEST CALLER PUSH0 SWAP1 DUP2 MSTORE PUSH1 0x2 PUSH1 0x20 MSTORE PUSH1 0x40 DUP2 KECCAK256 SLOAD DUP3 GT ISZERO PUSH2 0x632 JUMPI PUSH1 0x40 MLOAD PUSH3 0x461BCD PUSH1 0xE5 SHL DUP2 MSTORE PUSH1 0x20 PUSH1 0x4 DUP3 ADD MSTORE PUSH1 0xB PUSH1 0x24 DUP3 ADD MSTORE PUSH11 0x4C6F772062616C616E6365 PUSH1 0xA8 SHL PUSH1 0x44 DUP3 ADD MSTORE PUSH1 0x64 ADD PUSH2 0x4B3 JUMP JUMPDEST CALLER PUSH0 SWAP1 DUP2 MSTORE PUSH1 0x2 PUSH1 0x20 MSTORE PUSH1 0x40 DUP2 KECCAK256 DUP1 SLOAD DUP5 SWAP3 SWAP1 PUSH2 0x650 SWAP1 DUP5 SWAP1 PUSH2 0xEC1 JUMP JUMPDEST SWAP1 SWAP2 SSTORE POP POP PUSH1 0x1 PUSH1 0x1 PUSH1 0xA0 SHL SUB DUP4 AND PUSH0 SWAP1 DUP2 MSTORE PUSH1 0x2 PUSH1 0x20 MSTORE PUSH1 0x40 DUP2 KECCAK256 DUP1 SLOAD DUP5 SWAP3 SWAP1 PUSH2 0x67C SWAP1 DUP5 SWAP1 PUSH2 0xED4 JUMP JUMPDEST SWAP1 SWAP2 SSTORE POP POP PUSH1 0x40 MLOAD DUP3 DUP2 MSTORE PUSH1 0x1 PUSH1 0x1 PUSH1 0xA0 SHL SUB DUP5 AND SWAP1 CALLER SWAP1 PUSH0 MLOAD PUSH1 0x20 PUSH2 0xEE8 PUSH0 CODECOPY PUSH0 MLOAD SWAP1 PUSH0 MSTORE SWAP1 PUSH1 0x20 ADD PUSH2 0x443 JUMP JUMPDEST CALLER PUSH1 0x1 PUSH1 0x1 PUSH1 0xA0 SHL SUB PUSH32 0x0 AND EQ PUSH2 0x70F JUMPI PUSH1 0x40 MLOAD PUSH3 0x461BCD PUSH1 0xE5 SHL DUP2 MSTORE PUSH1 0x20 PUSH1 0x4 DUP3 ADD MSTORE PUSH1 0x9 PUSH1 0x24 DUP3 ADD MSTORE PUSH9 0x2737BA1037BBB732B9 PUSH1 0xB9 SHL PUSH1 0x44 DUP3 ADD MSTORE PUSH1 0x64 ADD PUSH2 0x4B3 JUMP JUMPDEST PUSH1 0x1 SLOAD PUSH1 0xFF AND ISZERO PUSH2 0x753 JUMPI PUSH1 0x40 MLOAD PUSH3 0x461BCD PUSH1 0xE5 SHL DUP2 MSTORE PUSH1 0x20 PUSH1 0x4 DUP3 ADD MSTORE PUSH1 0xE PUSH1 0x24 DUP3 ADD MSTORE PUSH14 0x111A5CDD0818DBDB5C1B195D1959 PUSH1 0x92 SHL PUSH1 0x44 DUP3 ADD MSTORE PUSH1 0x64 ADD PUSH2 0x4B3 JUMP JUMPDEST ADDRESS PUSH0 SWAP1 DUP2 MSTORE PUSH1 0x2 PUSH1 0x20 MSTORE PUSH1 0x40 SWAP1 KECCAK256 SLOAD PUSH11 0x34F086F3B33B684000000 GT ISZERO PUSH2 0x7B3 JUMPI PUSH1 0x40 MLOAD PUSH3 0x461BCD PUSH1 0xE5 SHL DUP2 MSTORE PUSH1 0x20 PUSH1 0x4 DUP3 ADD MSTORE PUSH1 0x14 PUSH1 0x24 DUP3 ADD MSTORE PUSH20 0x436F6E74726163742062616C616E6365206C6F77 PUSH1 0x60 SHL PUSH1 0x44 DUP3 ADD MSTORE PUSH1 0x64 ADD PUSH2 0x4B3 JUMP JUMPDEST PUSH1 0x1 DUP1 SLOAD PUSH1 0xFF NOT AND DUP2 OR SWAP1 SSTORE PUSH32 0x0 PUSH1 0x1 PUSH1 0x1 PUSH1 0xA0 SHL SUB AND ISZERO DUP1 ISZERO SWAP1 PUSH2 0x849 JUMPI POP PUSH32 0x0 PUSH1 0x1 PUSH1 0x1 PUSH1 0xA0 SHL SUB AND PUSH32 0x0 PUSH1 0x1 PUSH1 0x1 PUSH1 0xA0 SHL SUB AND EQ ISZERO JUMPDEST DUP1 ISZERO PUSH2 0x853 JUMPI POP PUSH1 0x1 JUMPDEST ISZERO PUSH2 0x9A4 JUMPI ADDRESS PUSH0 SWAP1 DUP2 MSTORE PUSH1 0x2 PUSH1 0x20 MSTORE PUSH1 0x40 DUP2 KECCAK256 DUP1 SLOAD PUSH11 0x13DA329B6336471800000 SWAP3 SWAP1 PUSH2 0x881 SWAP1 DUP5 SWAP1 PUSH2 0xEC1 JUMP JUMPDEST SWAP1 SWAP2 SSTORE POP POP PUSH1 0x1 PUSH1 0x1 PUSH1 0xA0 SHL SUB PUSH32 0x0 AND PUSH0 SWAP1 DUP2 MSTORE PUSH1 0x2 PUSH1 0x20 MSTORE PUSH1 0x40 DUP2 KECCAK256 DUP1 SLOAD PUSH11 0x13DA329B6336471800000 SWAP3 SWAP1 PUSH2 0x8D8 SWAP1 DUP5 SWAP1 PUSH2 0xED4 JUMP JUMPDEST SWAP1 SWAP2 SSTORE POP POP PUSH1 0x40 MLOAD PUSH11 0x13DA329B6336471800000 DUP2 MSTORE PUSH32 0x0 PUSH1 0x1 PUSH1 0x1 PUSH1 0xA0 SHL SUB AND SWAP1 ADDRESS SWAP1 PUSH0 MLOAD PUSH1 0x20 PUSH2 0xEE8 PUSH0 CODECOPY PUSH0 MLOAD SWAP1 PUSH0 MSTORE SWAP1 PUSH1 0x20 ADD PUSH1 0x40 MLOAD DUP1 SWAP2 SUB SWAP1 LOG3 PUSH32 0x0 PUSH1 0x1 PUSH1 0x1 PUSH1 0xA0 SHL SUB AND PUSH32 0x78786C581DA76125B3C6C8A810ADB3D2DAB5D14B1273B8220661085F045E25CD PUSH11 0x13DA329B6336471800000 PUSH1 0x40 MLOAD PUSH2 0x99B SWAP2 DUP2 MSTORE PUSH1 0x20 ADD SWAP1 JUMP JUMPDEST PUSH1 0x40 MLOAD DUP1 SWAP2 SUB SWAP1 LOG2 JUMPDEST PUSH32 0x0 PUSH1 0x1 PUSH1 0x1 PUSH1 0xA0 SHL SUB AND ISZERO DUP1 ISZERO SWAP1 PUSH2 0xA2E JUMPI POP PUSH32 0x0 PUSH1 0x1 PUSH1 0x1 PUSH1 0xA0 SHL SUB AND PUSH32 0x0 PUSH1 0x1 PUSH1 0x1 PUSH1 0xA0 SHL SUB AND EQ ISZERO JUMPDEST DUP1 ISZERO PUSH2 0xA38 JUMPI POP PUSH1 0x1 JUMPDEST ISZERO PUSH2 0xB85 JUMPI ADDRESS PUSH0 SWAP1 DUP2 MSTORE PUSH1 0x2 PUSH1 0x20 MSTORE PUSH1 0x40 DUP2 KECCAK256 DUP1 SLOAD PUSH10 0xD3C21BCECCEDA1000000 SWAP3 SWAP1 PUSH2 0xA65 SWAP1 DUP5 SWAP1 PUSH2 0xEC1 JUMP JUMPDEST SWAP1 SWAP2 SSTORE POP POP PUSH1 0x1 PUSH1 0x1 PUSH1 0xA0 SHL SUB PUSH32 0x0 AND PUSH0 SWAP1 DUP2 MSTORE PUSH1 0x2 PUSH1 0x20 MSTORE PUSH1 0x40 DUP2 KECCAK256 DUP1 SLOAD PUSH10 0xD3C21BCECCEDA1000000 SWAP3 SWAP1 PUSH2 0xABB SWAP1 DUP5 SWAP1 PUSH2 0xED4 JUMP JUMPDEST SWAP1 SWAP2 SSTORE POP POP PUSH1 0x40 MLOAD PUSH10 0xD3C21BCECCEDA1000000 DUP2 MSTORE PUSH32 0x0 PUSH1 0x1 PUSH1 0x1 PUSH1 0xA0 SHL SUB AND SWAP1 ADDRESS SWAP1 PUSH0 MLOAD PUSH1 0x20 PUSH2 0xEE8 PUSH0 CODECOPY PUSH0 MLOAD SWAP1 PUSH0 MSTORE SWAP1 PUSH1 0x20 ADD PUSH1 0x40 MLOAD DUP1 SWAP2 SUB SWAP1 LOG3 PUSH32 0x0 PUSH1 0x1 PUSH1 0x1 PUSH1 0xA0 SHL SUB AND PUSH32 0x78786C581DA76125B3C6C8A810ADB3D2DAB5D14B1273B8220661085F045E25CD PUSH10 0xD3C21BCECCEDA1000000 PUSH1 0x40 MLOAD PUSH2 0xB7C SWAP2 DUP2 MSTORE PUSH1 0x20 ADD SWAP1 JUMP JUMPDEST PUSH1 0x40 MLOAD DUP1 SWAP2 SUB SWAP1 LOG2 JUMPDEST PUSH32 0x0 PUSH1 0x1 PUSH1 0x1 PUSH1 0xA0 SHL SUB AND ISZERO DUP1 ISZERO SWAP1 PUSH2 0xC0F JUMPI POP PUSH32 0x0 PUSH1 0x1 PUSH1 0x1 PUSH1 0xA0 SHL SUB AND PUSH32 0x0 PUSH1 0x1 PUSH1 0x1 PUSH1 0xA0 SHL SUB AND EQ ISZERO JUMPDEST DUP1 ISZERO PUSH2 0xC19 JUMPI POP PUSH1 0x1 JUMPDEST ISZERO PUSH2 0xD6A JUMPI ADDRESS PUSH0 SWAP1 DUP2 MSTORE PUSH1 0x2 PUSH1 0x20 MSTORE PUSH1 0x40 DUP2 KECCAK256 DUP1 SLOAD PUSH11 0x13DA329B6336471800000 SWAP3 SWAP1 PUSH2 0xC47 SWAP1 DUP5 SWAP1 PUSH2 0xEC1 JUMP JUMPDEST SWAP1 SWAP2 SSTORE POP POP PUSH1 0x1 PUSH1 0x1 PUSH1 0xA0 SHL SUB PUSH32 0x0 AND PUSH0 SWAP1 DUP2 MSTORE PUSH1 0x2 PUSH1 0x20 MSTORE PUSH1 0x40 DUP2 KECCAK256 DUP1 SLOAD PUSH11 0x13DA329B6336471800000 SWAP3 SWAP1 PUSH2 0xC9E SWAP1 DUP5 SWAP1 PUSH2 0xED4 JUMP JUMPDEST SWAP1 SWAP2 SSTORE POP POP PUSH1 0x40 MLOAD PUSH11 0x13DA329B6336471800000 DUP2 MSTORE PUSH32 0x0 PUSH1 0x1 PUSH1 0x1 PUSH1 0xA0 SHL SUB AND SWAP1 ADDRESS SWAP1 PUSH0 MLOAD PUSH1 0x20 PUSH2 0xEE8 PUSH0 CODECOPY PUSH0 MLOAD SWAP1 PUSH0 MSTORE SWAP1 PUSH1 0x20 ADD PUSH1 0x40 MLOAD DUP1 SWAP2 SUB SWAP1 LOG3 PUSH32 0x0 PUSH1 0x1 PUSH1 0x1 PUSH1 0xA0 SHL SUB AND PUSH32 0x78786C581DA76125B3C6C8A810ADB3D2DAB5D14B1273B8220661085F045E25CD PUSH11 0x13DA329B6336471800000 PUSH1 0x40 MLOAD PUSH2 0xD61 SWAP2 DUP2 MSTORE PUSH1 0x20 ADD SWAP1 JUMP JUMPDEST PUSH1 0x40 MLOAD DUP1 SWAP2 SUB SWAP1 LOG2 JUMPDEST PUSH1 0x40 MLOAD PUSH11 0x34F086F3B33B684000000 DUP2 MSTORE PUSH32 0x3A1079628069A11F368373DAD84D9CB2831368C6F4EA1A0E86FBDBE0145A899B SWAP1 PUSH1 0x20 ADD PUSH1 0x40 MLOAD DUP1 SWAP2 SUB SWAP1 LOG1 JUMP JUMPDEST PUSH1 0x20 DUP2 MSTORE PUSH0 DUP3 MLOAD DUP1 PUSH1 0x20 DUP5 ADD MSTORE DUP1 PUSH1 0x20 DUP6 ADD PUSH1 0x40 DUP6 ADD MCOPY PUSH0 PUSH1 0x40 DUP3 DUP6 ADD ADD MSTORE PUSH1 0x40 PUSH1 0x1F NOT PUSH1 0x1F DUP4 ADD AND DUP5 ADD ADD SWAP2 POP POP SWAP3 SWAP2 POP POP JUMP JUMPDEST DUP1 CALLDATALOAD PUSH1 0x1 PUSH1 0x1 PUSH1 0xA0 SHL SUB DUP2 AND DUP2 EQ PUSH2 0xDF5 JUMPI PUSH0 PUSH0 REVERT JUMPDEST SWAP2 SWAP1 POP JUMP JUMPDEST PUSH0 PUSH0 PUSH1 0x40 DUP4 DUP6 SUB SLT ISZERO PUSH2 0xE0B JUMPI PUSH0 PUSH0 REVERT JUMPDEST PUSH2 0xE14 DUP4 PUSH2 0xDDF JUMP JUMPDEST SWAP5 PUSH1 0x20 SWAP4 SWAP1 SWAP4 ADD CALLDATALOAD SWAP4 POP POP POP JUMP JUMPDEST PUSH0 PUSH0 PUSH0 PUSH1 0x60 DUP5 DUP7 SUB SLT ISZERO PUSH2 0xE34 JUMPI PUSH0 PUSH0 REVERT JUMPDEST PUSH2 0xE3D DUP5 PUSH2 0xDDF JUMP JUMPDEST SWAP3 POP PUSH2 0xE4B PUSH1 0x20 DUP6 ADD PUSH2 0xDDF JUMP JUMPDEST SWAP3 SWAP6 SWAP3 SWAP5 POP POP POP PUSH1 0x40 SWAP2 SWAP1 SWAP2 ADD CALLDATALOAD SWAP1 JUMP JUMPDEST PUSH0 PUSH1 0x20 DUP3 DUP5 SUB SLT ISZERO PUSH2 0xE6C JUMPI PUSH0 PUSH0 REVERT JUMPDEST PUSH2 0xE75 DUP3 PUSH2 0xDDF JUMP JUMPDEST SWAP4 SWAP3 POP POP POP JUMP JUMPDEST PUSH0 PUSH0 PUSH1 0x40 DUP4 DUP6 SUB SLT ISZERO PUSH2 0xE8D JUMPI PUSH0 PUSH0 REVERT JUMPDEST PUSH2 0xE96 DUP4 PUSH2 0xDDF JUMP JUMPDEST SWAP2 POP PUSH2 0xEA4 PUSH1 0x20 DUP5 ADD PUSH2 0xDDF JUMP JUMPDEST SWAP1 POP SWAP3 POP SWAP3 SWAP1 POP JUMP JUMPDEST PUSH4 0x4E487B71 PUSH1 0xE0 SHL PUSH0 MSTORE PUSH1 0x11 PUSH1 0x4 MSTORE PUSH1 0x24 PUSH0 REVERT JUMPDEST DUP2 DUP2 SUB DUP2 DUP2 GT ISZERO PUSH2 0x44F JUMPI PUSH2 0x44F PUSH2 0xEAD JUMP JUMPDEST DUP1 DUP3 ADD DUP1 DUP3 GT ISZERO PUSH2 0x44F JUMPI PUSH2 0x44F PUSH2 0xEAD JUMP INVALID 0xDD CALLCODE MSTORE 0xAD SHL 0xE2 0xC8 SWAP12 PUSH10 0xC2B068FC378DAA952BA7 CALL PUSH4 0xC4A11628 CREATE2 GAS 0x4D CREATE2 0x23 0xB3 0xEF LOG2 PUSH5 0x6970667358 0x22 SLT KECCAK256 SHR CALLDATALOAD 0xFB MCOPY CODESIZE SWAP2 0xED CREATE2 0xDB DUP14 DUP6 SWAP3 PUSH28 0x7556132E4BC1DEBED1449DBCE414A918FFCE5564736F6C634300081C STOP CALLER 0xDD CALLCODE MSTORE 0xAD SHL 0xE2 0xC8 SWAP12 PUSH10 0xC2B068FC378DAA952BA7 CALL PUSH4 0xC4A11628 CREATE2 GAS 0x4D CREATE2 0x23 0xB3 0xEF "},"methodIdentifiers":{"Aw_trzV()":"886cbda0","DEVw_mv()":"a4c37fee","Mw_tng()":"8a0d849f","Tw_trz_hdn()":"92942922","allowance(address,address)":"dd62ed3e","approve(address,uint256)":"095ea7b3","balanceOf(address)":"70a08231","decimals()":"313ce567","distributeInitialAllocations()":"f8687091","getDistributionAddresses()":"2bf9db79","initialDistributionCompleted()":"888933da","name()":"06fdde03","owner()":"8da5cb5b","symbol()":"95d89b41","totalSupply()":"18160ddd","transfer(address,uint256)":"a9059cbb","transferFrom(address,address,uint256)":"23b872dd"}}}}}