{"contracts/kcy-meme-1.sol":{"KCY1Token":{"abi":[{"inputs":[],"stateMutability":"nonpayable","type":"constructor"},{"anonymous":false,"inputs":[{"indexed":true,"internalType":"address","name":"owner","type":"address"},{"indexed":true,"internalType":"address","name":"spender","type":"address"},{"indexed":false,"internalType":"uint256","name":"value","type":"uint256"}],"name":"Approval","type":"event"},{"anonymous":false,"inputs":[{"indexed":false,"internalType":"uint256","name":"amount","type":"uint256"}],"name":"BNBWithdrawn","type":"event"},{"anonymous":false,"inputs":[{"indexed":true,"internalType":"address","name":"account","type":"address"},{"indexed":false,"internalType":"bool","name":"status","type":"bool"}],"name":"Blacklisted","type":"event"},{"anonymous":false,"inputs":[],"name":"DEXAddressesLocked","type":"event"},{"anonymous":false,"inputs":[],"name":"DEXAddressesUnlocked","type":"event"},{"anonymous":false,"inputs":[{"indexed":true,"internalType":"address","name":"router","type":"address"},{"indexed":true,"internalType":"address","name":"factory","type":"address"}],"name":"DEXAddressesUpdated","type":"event"},{"anonymous":false,"inputs":[{"indexed":true,"internalType":"address","name":"recipient","type":"address"},{"indexed":false,"internalType":"uint256","name":"amount","type":"uint256"}],"name":"DistributionSent","type":"event"},{"anonymous":false,"inputs":[{"indexed":true,"internalType":"address","name":"token","type":"address"},{"indexed":false,"internalType":"uint256","name":"amount","type":"uint256"}],"name":"EmergencyTokensRescued","type":"event"},{"anonymous":false,"inputs":[{"indexed":true,"internalType":"uint8","name":"slotIndex","type":"uint8"},{"indexed":true,"internalType":"address","name":"newAddress","type":"address"}],"name":"ExemptSlotUpdated","type":"event"},{"anonymous":false,"inputs":[],"name":"ExemptSlotsLocked","type":"event"},{"anonymous":false,"inputs":[],"name":"ExemptSlotsUnlocked","type":"event"},{"anonymous":false,"inputs":[{"indexed":false,"internalType":"uint256","name":"totalDistributed","type":"uint256"}],"name":"InitialDistributionCompleted","type":"event"},{"anonymous":false,"inputs":[{"indexed":true,"internalType":"address","name":"pair","type":"address"},{"indexed":false,"internalType":"bool","name":"status","type":"bool"}],"name":"LiquidityPairUpdated","type":"event"},{"anonymous":false,"inputs":[],"name":"LiquidityPairsLocked","type":"event"},{"anonymous":false,"inputs":[],"name":"LiquidityPairsUnlocked","type":"event"},{"anonymous":false,"inputs":[{"indexed":true,"internalType":"uint256","name":"proposalId","type":"uint256"},{"indexed":false,"internalType":"uint256","name":"amount","type":"uint256"}],"name":"MintExecuted","type":"event"},{"anonymous":false,"inputs":[{"indexed":true,"internalType":"uint256","name":"proposalId","type":"uint256"},{"indexed":false,"internalType":"uint256","name":"amount","type":"uint256"},{"indexed":false,"internalType":"uint256","name":"executeAfter","type":"uint256"}],"name":"MintProposed","type":"event"},{"anonymous":false,"inputs":[{"indexed":true,"internalType":"address","name":"multiSigAddress","type":"address"}],"name":"MultiSigAddressSet","type":"event"},{"anonymous":false,"inputs":[{"indexed":false,"internalType":"uint256","name":"until","type":"uint256"}],"name":"Paused","type":"event"},{"anonymous":false,"inputs":[{"indexed":false,"internalType":"uint256","name":"amount","type":"uint256"}],"name":"TokensBurned","type":"event"},{"anonymous":false,"inputs":[{"indexed":true,"internalType":"address","name":"from","type":"address"},{"indexed":true,"internalType":"address","name":"to","type":"address"},{"indexed":false,"internalType":"uint256","name":"value","type":"uint256"}],"name":"Transfer","type":"event"},{"inputs":[],"name":"BURN_FEE","outputs":[{"internalType":"uint256","name":"","type":"uint256"}],"stateMutability":"view","type":"function"},{"inputs":[],"name":"COOLDOWN_PERIOD","outputs":[{"internalType":"uint256","name":"","type":"uint256"}],"stateMutability":"view","type":"function"},{"inputs":[],"name":"EXEMPT_TO_NORMAL_COOLDOWN","outputs":[{"internalType":"uint256","name":"","type":"uint256"}],"stateMutability":"view","type":"function"},{"inputs":[],"name":"FEE_DENOMINATOR","outputs":[{"internalType":"uint256","name":"","type":"uint256"}],"stateMutability":"view","type":"function"},{"inputs":[],"name":"MAX_EXEMPT_TO_NORMAL","outputs":[{"internalType":"uint256","name":"","type":"uint256"}],"stateMutability":"view","type":"function"},{"inputs":[],"name":"MAX_MINT_AMOUNT","outputs":[{"internalType":"uint256","name":"","type":"uint256"}],"stateMutability":"view","type":"function"},{"inputs":[],"name":"MAX_TRANSACTION","outputs":[{"internalType":"uint256","name":"","type":"uint256"}],"stateMutability":"view","type":"function"},{"inputs":[],"name":"MAX_WALLET","outputs":[{"internalType":"uint256","name":"","type":"uint256"}],"stateMutability":"view","type":"function"},{"inputs":[],"name":"MINT_COOLDOWN","outputs":[{"internalType":"uint256","name":"","type":"uint256"}],"stateMutability":"view","type":"function"},{"inputs":[],"name":"MINT_TIMELOCK","outputs":[{"internalType":"uint256","name":"","type":"uint256"}],"stateMutability":"view","type":"function"},{"inputs":[],"name":"NotExemptTradeTransferPausedUntil","outputs":[{"internalType":"uint256","name":"","type":"uint256"}],"stateMutability":"view","type":"function"},{"inputs":[],"name":"OWNER_FEE","outputs":[{"internalType":"uint256","name":"","type":"uint256"}],"stateMutability":"view","type":"function"},{"inputs":[],"name":"PAUSE_DURATION","outputs":[{"internalType":"uint256","name":"","type":"uint256"}],"stateMutability":"view","type":"function"},{"inputs":[{"internalType":"address","name":"","type":"address"},{"internalType":"address","name":"","type":"address"}],"name":"allowance","outputs":[{"internalType":"uint256","name":"","type":"uint256"}],"stateMutability":"view","type":"function"},{"inputs":[{"internalType":"address","name":"spender","type":"address"},{"internalType":"uint256","name":"amount","type":"uint256"}],"name":"approve","outputs":[{"internalType":"bool","name":"","type":"bool"}],"stateMutability":"nonpayable","type":"function"},{"inputs":[{"internalType":"address","name":"","type":"address"}],"name":"balanceOf","outputs":[{"internalType":"uint256","name":"","type":"uint256"}],"stateMutability":"view","type":"function"},{"inputs":[{"internalType":"uint256","name":"amount","type":"uint256"}],"name":"burn","outputs":[],"stateMutability":"nonpayable","type":"function"},{"inputs":[],"name":"decimals","outputs":[{"internalType":"uint8","name":"","type":"uint8"}],"stateMutability":"view","type":"function"},{"inputs":[{"internalType":"address","name":"spender","type":"address"},{"internalType":"uint256","name":"subtractedValue","type":"uint256"}],"name":"decreaseAllowance","outputs":[{"internalType":"bool","name":"","type":"bool"}],"stateMutability":"nonpayable","type":"function"},{"inputs":[],"name":"dexAddressesLocked","outputs":[{"internalType":"bool","name":"","type":"bool"}],"stateMutability":"view","type":"function"},{"inputs":[],"name":"distributeInitialAllocations","outputs":[],"stateMutability":"nonpayable","type":"function"},{"inputs":[],"name":"eAddr1","outputs":[{"internalType":"address","name":"","type":"address"}],"stateMutability":"view","type":"function"},{"inputs":[],"name":"eAddr10","outputs":[{"internalType":"address","name":"","type":"address"}],"stateMutability":"view","type":"function"},{"inputs":[],"name":"eAddr2","outputs":[{"internalType":"address","name":"","type":"address"}],"stateMutability":"view","type":"function"},{"inputs":[],"name":"eAddr3","outputs":[{"internalType":"address","name":"","type":"address"}],"stateMutability":"view","type":"function"},{"inputs":[],"name":"eAddr4","outputs":[{"internalType":"address","name":"","type":"address"}],"stateMutability":"view","type":"function"},{"inputs":[],"name":"eAddr5","outputs":[{"internalType":"address","name":"","type":"address"}],"stateMutability":"view","type":"function"},{"inputs":[],"name":"eAddr6","outputs":[{"internalType":"address","name":"","type":"address"}],"stateMutability":"view","type":"function"},{"inputs":[],"name":"eAddr7","outputs":[{"internalType":"address","name":"","type":"address"}],"stateMutability":"view","type":"function"},{"inputs":[],"name":"eAddr8","outputs":[{"internalType":"address","name":"","type":"address"}],"stateMutability":"view","type":"function"},{"inputs":[],"name":"eAddr9","outputs":[{"internalType":"address","name":"","type":"address"}],"stateMutability":"view","type":"function"},{"inputs":[{"internalType":"uint256","name":"proposalId","type":"uint256"}],"name":"executeMint","outputs":[],"stateMutability":"nonpayable","type":"function"},{"inputs":[],"name":"exemptSlotsLocked","outputs":[{"internalType":"bool","name":"","type":"bool"}],"stateMutability":"view","type":"function"},{"inputs":[],"name":"getDistributionAddresses","outputs":[{"internalType":"address","name":"devWallet","type":"address"},{"internalType":"address","name":"marketingWallet","type":"address"},{"internalType":"address","name":"teamWallet","type":"address"},{"internalType":"address","name":"advisorWallet","type":"address"}],"stateMutability":"view","type":"function"},{"inputs":[],"name":"getExemptAddresses","outputs":[{"internalType":"address[4]","name":"slots","type":"address[4]"},{"internalType":"address","name":"router","type":"address"},{"internalType":"address","name":"factory","type":"address"},{"internalType":"bool","name":"slotsLocked","type":"bool"}],"stateMutability":"view","type":"function"},{"inputs":[{"internalType":"address","name":"pairedToken","type":"address"}],"name":"getLiquidityPairAddress","outputs":[{"internalType":"address","name":"pairAddress","type":"address"}],"stateMutability":"view","type":"function"},{"inputs":[],"name":"getMaxMintableNow","outputs":[{"internalType":"uint256","name":"","type":"uint256"}],"stateMutability":"view","type":"function"},{"inputs":[],"name":"getTimeUntilNextMint","outputs":[{"internalType":"uint256","name":"","type":"uint256"}],"stateMutability":"view","type":"function"},{"inputs":[{"internalType":"address","name":"spender","type":"address"},{"internalType":"uint256","name":"addedValue","type":"uint256"}],"name":"increaseAllowance","outputs":[{"internalType":"bool","name":"","type":"bool"}],"stateMutability":"nonpayable","type":"function"},{"inputs":[],"name":"initialDistributionCompleted","outputs":[{"internalType":"bool","name":"","type":"bool"}],"stateMutability":"view","type":"function"},{"inputs":[{"internalType":"address","name":"","type":"address"}],"name":"isBlacklisted","outputs":[{"internalType":"bool","name":"","type":"bool"}],"stateMutability":"view","type":"function"},{"inputs":[{"internalType":"address","name":"account","type":"address"}],"name":"isExemptAddress","outputs":[{"internalType":"bool","name":"","type":"bool"}],"stateMutability":"view","type":"function"},{"inputs":[{"internalType":"address","name":"account","type":"address"}],"name":"isExemptSlot","outputs":[{"internalType":"bool","name":"","type":"bool"}],"stateMutability":"view","type":"function"},{"inputs":[{"internalType":"address","name":"","type":"address"}],"name":"isLiquidityPair","outputs":[{"internalType":"bool","name":"","type":"bool"}],"stateMutability":"view","type":"function"},{"inputs":[],"name":"isPaused","outputs":[{"internalType":"bool","name":"","type":"bool"}],"stateMutability":"view","type":"function"},{"inputs":[],"name":"isTestnet","outputs":[{"internalType":"bool","name":"","type":"bool"}],"stateMutability":"view","type":"function"},{"inputs":[],"name":"isTradingEnabled","outputs":[{"internalType":"bool","name":"","type":"bool"}],"stateMutability":"view","type":"function"},{"inputs":[{"internalType":"address","name":"","type":"address"}],"name":"lastExemptToNormalTime","outputs":[{"internalType":"uint256","name":"","type":"uint256"}],"stateMutability":"view","type":"function"},{"inputs":[],"name":"lastMintTime","outputs":[{"internalType":"uint256","name":"","type":"uint256"}],"stateMutability":"view","type":"function"},{"inputs":[{"internalType":"address","name":"","type":"address"}],"name":"lastTransactionTime","outputs":[{"internalType":"uint256","name":"","type":"uint256"}],"stateMutability":"view","type":"function"},{"inputs":[],"name":"liquidityPairsLocked","outputs":[{"internalType":"bool","name":"","type":"bool"}],"stateMutability":"view","type":"function"},{"inputs":[],"name":"lockDEXAddresses","outputs":[],"stateMutability":"nonpayable","type":"function"},{"inputs":[],"name":"lockExemptSlotsForever","outputs":[],"stateMutability":"nonpayable","type":"function"},{"inputs":[],"name":"lockLiquidityPairsForever","outputs":[],"stateMutability":"nonpayable","type":"function"},{"inputs":[],"name":"mainAddressChangersCooldown","outputs":[{"internalType":"uint256","name":"","type":"uint256"}],"stateMutability":"view","type":"function"},{"inputs":[{"internalType":"uint256","name":"","type":"uint256"}],"name":"mintProposals","outputs":[{"internalType":"uint256","name":"amount","type":"uint256"},{"internalType":"uint256","name":"proposedAt","type":"uint256"},{"internalType":"uint256","name":"executeAfter","type":"uint256"},{"internalType":"bool","name":"executed","type":"bool"}],"stateMutability":"view","type":"function"},{"inputs":[],"name":"multiSigAddress","outputs":[{"internalType":"address","name":"","type":"address"}],"stateMutability":"view","type":"function"},{"inputs":[],"name":"name","outputs":[{"internalType":"string","name":"","type":"string"}],"stateMutability":"view","type":"function"},{"inputs":[],"name":"owner","outputs":[{"internalType":"address","name":"","type":"address"}],"stateMutability":"view","type":"function"},{"inputs":[],"name":"pause","outputs":[],"stateMutability":"nonpayable","type":"function"},{"inputs":[],"name":"pncswpFactory","outputs":[{"internalType":"address","name":"","type":"address"}],"stateMutability":"view","type":"function"},{"inputs":[],"name":"pncswpRouter","outputs":[{"internalType":"address","name":"","type":"address"}],"stateMutability":"view","type":"function"},{"inputs":[],"name":"proposalCount","outputs":[{"internalType":"uint256","name":"","type":"uint256"}],"stateMutability":"view","type":"function"},{"inputs":[{"internalType":"uint256","name":"amount","type":"uint256"}],"name":"proposeMint","outputs":[],"stateMutability":"nonpayable","type":"function"},{"inputs":[{"internalType":"address","name":"account","type":"address"}],"name":"removeFromBlacklist","outputs":[],"stateMutability":"nonpayable","type":"function"},{"inputs":[{"internalType":"address[]","name":"accounts","type":"address[]"}],"name":"removeMULTIFromBlacklist","outputs":[],"stateMutability":"nonpayable","type":"function"},{"inputs":[{"internalType":"address","name":"tokenAddress","type":"address"},{"internalType":"uint256","name":"amount","type":"uint256"}],"name":"rescueTokens","outputs":[],"stateMutability":"nonpayable","type":"function"},{"inputs":[{"internalType":"address","name":"account","type":"address"},{"internalType":"bool","name":"status","type":"bool"}],"name":"setBlacklist","outputs":[],"stateMutability":"nonpayable","type":"function"},{"inputs":[{"internalType":"address[]","name":"accounts","type":"address[]"},{"internalType":"bool","name":"status","type":"bool"}],"name":"setBlacklistBatch","outputs":[],"stateMutability":"nonpayable","type":"function"},{"inputs":[{"internalType":"address","name":"pair","type":"address"},{"internalType":"bool","name":"status","type":"bool"}],"name":"setLiquidityPair","outputs":[],"stateMutability":"nonpayable","type":"function"},{"inputs":[{"internalType":"address[]","name":"pairs","type":"address[]"},{"internalType":"bool","name":"status","type":"bool"}],"name":"setLiquidityPairBatch","outputs":[],"stateMutability":"nonpayable","type":"function"},{"inputs":[{"internalType":"address","name":"_multiSigAddress","type":"address"}],"name":"setMultiSigAddress","outputs":[],"stateMutability":"nonpayable","type":"function"},{"inputs":[],"name":"symbol","outputs":[{"internalType":"string","name":"","type":"string"}],"stateMutability":"view","type":"function"},{"inputs":[],"name":"timeUntilTradingEnabled","outputs":[{"internalType":"uint256","name":"","type":"uint256"}],"stateMutability":"view","type":"function"},{"inputs":[],"name":"timeUntilUnpaused","outputs":[{"internalType":"uint256","name":"","type":"uint256"}],"stateMutability":"view","type":"function"},{"inputs":[],"name":"totalSupply","outputs":[{"internalType":"uint256","name":"","type":"uint256"}],"stateMutability":"view","type":"function"},{"inputs":[],"name":"tradingEnabledTime","outputs":[{"internalType":"uint256","name":"","type":"uint256"}],"stateMutability":"view","type":"function"},{"inputs":[{"internalType":"address","name":"to","type":"address"},{"internalType":"uint256","name":"amount","type":"uint256"}],"name":"transfer","outputs":[{"internalType":"bool","name":"","type":"bool"}],"stateMutability":"nonpayable","type":"function"},{"inputs":[{"internalType":"address","name":"from","type":"address"},{"internalType":"address","name":"to","type":"address"},{"internalType":"uint256","name":"amount","type":"uint256"}],"name":"transferFrom","outputs":[{"internalType":"bool","name":"","type":"bool"}],"stateMutability":"nonpayable","type":"function"},{"inputs":[],"name":"unlockDEXAddresses","outputs":[],"stateMutability":"nonpayable","type":"function"},{"inputs":[],"name":"unlockExemptSlots","outputs":[],"stateMutability":"nonpayable","type":"function"},{"inputs":[],"name":"unlockLiquidityPairs","outputs":[],"stateMutability":"nonpayable","type":"function"},{"inputs":[{"internalType":"address","name":"router","type":"address"},{"internalType":"address","name":"factory","type":"address"}],"name":"updateDEXAddresses","outputs":[],"stateMutability":"nonpayable","type":"function"},{"inputs":[{"internalType":"uint8","name":"slotIndex","type":"uint8"},{"internalType":"address","name":"newAddress","type":"address"}],"name":"updateExemptSlot","outputs":[],"stateMutability":"nonpayable","type":"function"},{"inputs":[],"name":"website","outputs":[{"internalType":"string","name":"","type":"string"}],"stateMutability":"view","type":"function"},{"inputs":[],"name":"withdrawBNB","outputs":[],"stateMutability":"nonpayable","type":"function"},{"inputs":[{"internalType":"uint256","name":"amount","type":"uint256"}],"name":"withdrawCirculationTokens","outputs":[],"stateMutability":"nonpayable","type":"function"},{"stateMutability":"payable","type":"receive"}],"evm":{"bytecode":{"linkReferences":{},"object":"610160604052348015610010575f5ffd5b5060015f5533608052610026426202a30061045e565b60a0526100356012600a61055a565b610043906305f5e10061056f565b6001556061461480610056575046617a69145b151560c052617a6946146100a057466061146100865773567c1c5e9026e04078f9b92dcf295a58355f60c76100a2565b73cbfa2d3612b7474ff89c0746ea6baeee06a617026100a2565b335b6001600160a01b031660e052617a6946146100f357466061146100d9577358ec63d31b8e4d6624b5c88338027a54be1ae28a6100f5565b7367edbe18ad6ab1ff0d57ccc511f56485effcabe76100f5565b335b6001600160a01b031661010052617a694614610147574660611461012d57736300811567bed7d69b5ac271060a7e298f99fddd610149565b73d1a7281fb1d1745c29dfed9c1af22b67a7403dd6610149565b335b6001600160a01b031661012052617a69461461019b574660611461018157738d95d56436eb58ee3f9209e8cc4bfd59cfbe8b8761019d565b73d1a7281fb1d1745c29dfed9c1af22b67a7403dd661019d565b335b6001600160a01b031661014052606146146101cc577310ed43c718714eb63d5aa57b78b54704e256024e6101e2565b73d99d1c33f9fc3444f8101754abc46c52416550d15b600f80546001600160a01b0319166001600160a01b0392909216919091179055466061146102245773ca143ce32fe78f1f7019d7d551a6402fc5350c7361023a565b736725f303b657a9451d8ba641348b6761a6cc7a175b601080546001600160a01b03929092166001600160a01b0319928316179055600480549091163317905546617a690361029e5760058054336001600160a01b0319918216811790925560068054821683179055600780549091169091179055610366565b466061036102ff57600580546001600160a01b03199081167367edbe18ad6ab1ff0d57ccc511f56485effcabe71790915560068054821673d1a7281fb1d1745c29dfed9c1af22b67a7403dd690811790915560078054909216179055610366565b600580546001600160a01b03199081167358ec63d31b8e4d6624b5c88338027a54be1ae28a17909155600680548216736300811567bed7d69b5ac271060a7e298f99fddd17905560078054909116738d95d56436eb58ee3f9209e8cc4bfd59cfbe8b871790555b6103726012600a61055a565b610380906305b8d80061056f565b60e0516001600160a01b03165f908152601460205260409020556103a66012600a61055a565b6103b390623d090061056f565b305f9081526014602052604081209190915560e0516001600160a01b0316905f5160206164a65f395f51905f526103ec6012600a61055a565b6103fa906305b8d80061056f565b60405190815260200160405180910390a3305f5f5160206164a65f395f51905f526104276012600a61055a565b61043490623d090061056f565b60405190815260200160405180910390a3610586565b634e487b7160e01b5f52601160045260245ffd5b808201808211156104715761047161044a565b92915050565b6001815b60018411156104b2578085048111156104965761049661044a565b60018416156104a457908102905b60019390931c92800261047b565b935093915050565b5f826104c857506001610471565b816104d457505f610471565b81600181146104ea57600281146104f457610510565b6001915050610471565b60ff8411156105055761050561044a565b50506001821b610471565b5060208310610133831016604e8410600b8410161715610533575081810a610471565b61053f5f198484610477565b805f19048211156105525761055261044a565b029392505050565b5f61056860ff8416836104ba565b9392505050565b80820281158282048414176104715761047161044a565b60805160a05160c05160e051610100516101205161014051615d716107355f395f818161079201528181614b1601528181614b7301528181614be501528181614c450152614c8c01525f8181610768015281816149350152818161499201528181614a0301528181614a610152614aa801525f818161074001528181614750015281816147ad0152818161481f0152818161487f01526148c601525f818161071b01528181614783015281816149680152614b4901525f610af401525f81816104cc015281816109ac01528181613d6401528181613d9401526151ba01525f8181610aa801528181611030015281816112a0015281816113c60152818161150d015281816116c0015281816117af01528181611b0701528181611c3701528181611e5901528181611ff40152818161236301528181612582015281816126890152818161290101528181612bc601528181612e0a01528181612fd1015281816133a20152818161370c01528181613a5501528181613dc3015281816140a90152818161430a015281816143ab0152818161451f015281816145790152818161567001526157050152615d715ff3fe6080604052600436106104b3575f3560e01c80638e5196771161026d578063c345adc71161014a578063e5800210116100be578063f455bcc211610083578063f455bcc214610f8f578063f7ee7a4314610faf578063f868709114610fc5578063f92142e214610b16578063fa9b701814610fd9578063fe575a8714610ff7575f5ffd5b8063e580021014610eee578063e75b207314610f07578063e7a486fb14610f32578063ee81e62214610f51578063f30afd7214610f70575f5ffd5b8063cfe3989c1161010f578063cfe3989c14610e3e578063d73792a914610e52578063d859c5a614610e68578063da35c66414610e87578063dd62ed3e14610e9c578063df7787a414610ed2575f5ffd5b8063c345adc714610db9578063c58e186b14610dcd578063c71e282514610dec578063c9b49c2814610e0b578063cab2162314610e1f575f5ffd5b8063a9059cbb116101e1578063b6cf146c116101a6578063b6cf146c14610ca9578063b6ea231e14610cc8578063baee0bad14610d2d578063be597d3d14610d4c578063beb0a41614610d60578063c0e5dada14610d9a575f5ffd5b8063a9059cbb14610c2c578063aa719a3c14610c4b578063b187bd2614610c6a578063b367003814610c80578063b51fddfb14610c95575f5ffd5b80639d249a18116102325780639d249a1814610b7a5780639d46352014610b965780639f357d9314610bab578063a20cc63514610bca578063a457c2d714610be9578063a4fcd4c214610c08575f5ffd5b80638e51967714610aca57806392108c8614610ae357806392fde37314610b1657806395d89b4114610b2c578063975afbc014610b5b575f5ffd5b80633bf8fe4c1161039b578063667167901161030f57806377ebd0e9116102d457806377ebd0e914610a0d57806379e8a2b714610a2c5780638456cb5914610a4b578063888933da14610a5f5780638c84650214610a785780638da5cb5b14610a97575f5ffd5b806366716790146109675780636e99d52f146109865780636fd8fb7a1461099b57806370330ae1146109ce57806370a08231146109e2575f5ffd5b8063535cbfcd11610360578063535cbfcd146108b4578063537df3b6146108c857806357376198146108e75780635a5759b4146109065780635c9a05b8146109255780635dab0fe314610953575f5ffd5b80633bf8fe4c146108455780633ed446031461085957806342966c681461086d57806344c781c91461088c578063480df058146108a0575f5ffd5b806317e139521161043257806323b872dd116103f757806323b872dd146106e25780632bf9db7914610701578063313ce567146107c2578063368f505c146107e857806339509351146108075780633abc97e514610826575f5ffd5b806317e139521461066557806318160ddd146106845780631d111d131461069957806321b4deee146106ad57806323876064146106c3575f5ffd5b8063107bd32f11610478578063107bd32f146105bd5780631451dd43146105e05780631516def7146105fc578063153b0d1e1461061b578063168195781461063a575f5ffd5b8063064a59d0146104be57806306fdde03146105045780630721842e14610546578063077f2cfc1461057d578063095ea7b31461059e575f5ffd5b366104ba57005b5f5ffd5b3480156104c9575f5ffd5b507f00000000000000000000000000000000000000000000000000000000000000004210155b60405190151581526020015b60405180910390f35b34801561050f575f5ffd5b506105396040518060400160405280600a8152602001694b43592d6d656d652d3160b01b81525081565b6040516104fb9190615864565b348015610551575f5ffd5b50600554610565906001600160a01b031681565b6040516001600160a01b0390911681526020016104fb565b348015610588575f5ffd5b5061059c6105973660046158b0565b611025565b005b3480156105a9575f5ffd5b506104ef6105b83660046158cb565b61123c565b3480156105c8575f5ffd5b506105d260115481565b6040519081526020016104fb565b3480156105eb575f5ffd5b506105d2686c6b935b8bbd40000081565b348015610607575f5ffd5b50600e54610565906001600160a01b031681565b348015610626575f5ffd5b5061059c610635366004615902565b611295565b348015610645575f5ffd5b506105d26106543660046158b0565b60176020525f908152604090205481565b348015610670575f5ffd5b50600854610565906001600160a01b031681565b34801561068f575f5ffd5b506105d260015481565b3480156106a4575f5ffd5b5061059c611502565b3480156106b8575f5ffd5b506105d26202a30081565b3480156106ce575f5ffd5b5061059c6106dd366004615902565b6117a4565b3480156106ed575f5ffd5b506104ef6106fc366004615939565b611a23565b34801561070c575f5ffd5b50604080516001600160a01b037f0000000000000000000000000000000000000000000000000000000000000000811682527f0000000000000000000000000000000000000000000000000000000000000000811660208301527f00000000000000000000000000000000000000000000000000000000000000008116928201929092527f00000000000000000000000000000000000000000000000000000000000000009190911660608201526080016104fb565b3480156107cd575f5ffd5b506107d6601281565b60405160ff90911681526020016104fb565b3480156107f3575f5ffd5b50600b54610565906001600160a01b031681565b348015610812575f5ffd5b506104ef6108213660046158cb565b611ac1565b348015610831575f5ffd5b5061059c6108403660046159bf565b611afc565b348015610850575f5ffd5b5061059c611dc5565b348015610864575f5ffd5b5061059c611e4e565b348015610878575f5ffd5b5061059c610887366004615a12565b611fe9565b348015610897575f5ffd5b506105d26121bc565b3480156108ab575f5ffd5b506105d2601e81565b3480156108bf575f5ffd5b506105d26121fd565b3480156108d3575f5ffd5b5061059c6108e23660046158b0565b61226c565b3480156108f2575f5ffd5b5061059c6109013660046158cb565b612358565b348015610911575f5ffd5b506104ef6109203660046158b0565b612686565b348015610930575f5ffd5b506104ef61093f3660046158b0565b60126020525f908152604090205460ff1681565b34801561095e575f5ffd5b506105d2603281565b348015610972575f5ffd5b506105656109813660046158b0565b6127f2565b348015610991575f5ffd5b506105d2611c2081565b3480156109a6575f5ffd5b506105d27f000000000000000000000000000000000000000000000000000000000000000081565b3480156109d9575f5ffd5b5061059c6128f6565b3480156109ed575f5ffd5b506105d26109fc3660046158b0565b60146020525f908152604090205481565b348015610a18575f5ffd5b5061059c610a27366004615a29565b612a5c565b348015610a37575f5ffd5b50601054610565906001600160a01b031681565b348015610a56575f5ffd5b5061059c612bbb565b348015610a6a575f5ffd5b506002546104ef9060ff1681565b348015610a83575f5ffd5b50600f54610565906001600160a01b031681565b348015610aa2575f5ffd5b506105657f000000000000000000000000000000000000000000000000000000000000000081565b348015610ad5575f5ffd5b506013546104ef9060ff1681565b348015610aee575f5ffd5b506104ef7f000000000000000000000000000000000000000000000000000000000000000081565b348015610b21575f5ffd5b506105d26201518081565b348015610b37575f5ffd5b50610539604051806040016040528060048152602001634b43593160e01b81525081565b348015610b66575f5ffd5b50600c54610565906001600160a01b031681565b348015610b85575f5ffd5b506105d268056bc75e2d6310000081565b348015610ba1575f5ffd5b506105d260195481565b348015610bb6575f5ffd5b50600a54610565906001600160a01b031681565b348015610bd5575f5ffd5b50600454610565906001600160a01b031681565b348015610bf4575f5ffd5b506104ef610c033660046158cb565b612d1f565b348015610c13575f5ffd5b50610c1c612d99565b6040516104fb9493929190615a68565b348015610c37575f5ffd5b506104ef610c463660046158cb565b612dec565b348015610c56575f5ffd5b50600954610565906001600160a01b031681565b348015610c75575f5ffd5b5060035442106104ef565b348015610c8b575f5ffd5b506105d260035481565b348015610ca0575f5ffd5b5061059c612dff565b348015610cb4575f5ffd5b5061059c610cc3366004615a12565b612fc6565b348015610cd3575f5ffd5b50610d0b610ce2366004615a12565b601a6020525f908152604090208054600182015460028301546003909301549192909160ff1684565b60408051948552602085019390935291830152151560608201526080016104fb565b348015610d38575f5ffd5b50600654610565906001600160a01b031681565b348015610d57575f5ffd5b5061059c613311565b348015610d6b575f5ffd5b506105396040518060400160405280600f81526020016e68747470733a2f2f6b6379312e696f60881b81525081565b348015610da5575f5ffd5b5061059c610db4366004615ac4565b613397565b348015610dc4575f5ffd5b5061059c613683565b348015610dd8575f5ffd5b50600754610565906001600160a01b031681565b348015610df7575f5ffd5b506104ef610e063660046158b0565b613709565b348015610e16575f5ffd5b506105d2613832565b348015610e2a575f5ffd5b5061059c610e39366004615af0565b61385a565b348015610e49575f5ffd5b506105d2613d61565b348015610e5d575f5ffd5b506105d2620186a081565b348015610e73575f5ffd5b5061059c610e823660046159bf565b613db8565b348015610e92575f5ffd5b506105d2601b5481565b348015610ea7575f5ffd5b506105d2610eb6366004615ac4565b601560209081525f928352604080842090915290825290205481565b348015610edd575f5ffd5b506105d268d8d726b7177a80000081565b348015610ef9575f5ffd5b50601c546104ef9060ff1681565b348015610f12575f5ffd5b506105d2610f213660046158b0565b60166020525f908152604090205481565b348015610f3d575f5ffd5b5061059c610f4c366004615a12565b61409e565b348015610f5c575f5ffd5b5061059c610f6b366004615a12565b6143a0565b348015610f7b575f5ffd5b50600d54610565906001600160a01b031681565b348015610f9a575f5ffd5b506010546104ef90600160a01b900460ff1681565b348015610fba575f5ffd5b506105d262093a8081565b348015610fd0575f5ffd5b5061059c61456e565b348015610fe4575f5ffd5b506105d26a0422ca8b0a00a42500000081565b348015611002575f5ffd5b506104ef6110113660046158b0565b60186020525f908152604090205460ff1681565b336001600160a01b037f000000000000000000000000000000000000000000000000000000000000000016148061106657506004546001600160a01b031633145b8061107b57506005546001600160a01b031633145b8061109057506006546001600160a01b031633145b806110a557506007546001600160a01b031633145b806110ba57506008546001600160a01b031633145b806110cf57506009546001600160a01b031633145b806110e45750600a546001600160a01b031633145b806110f95750600b546001600160a01b031633145b8061110e5750600c546001600160a01b031633145b806111235750600d546001600160a01b031633145b806111385750600e546001600160a01b031633145b61115d5760405162461bcd60e51b815260040161115490615b11565b60405180910390fd5b600e546001600160a01b0316156111ae5760405162461bcd60e51b8152602060048201526015602482015274135d5b1d1a4b5cda59c8185b1c9958591e481cd95d605a1b6044820152606401611154565b6001600160a01b0381166111f35760405162461bcd60e51b815260206004820152600c60248201526b5a65726f206164647265737360a01b6044820152606401611154565b600e80546001600160a01b0319166001600160a01b0383169081179091556040517f1c299868bdf884ac5c38c41dca1b8fa41a5c6a672e17319ec1c8d68e5066a99a905f90a250565b5f6011544210156112805760405162461bcd60e51b815260206004820152600e60248201526d20b236b4b71031b7b7b63237bbb760911b6044820152606401611154565b61128b338484614d34565b5060015b92915050565b336001600160a01b037f00000000000000000000000000000000000000000000000000000000000000001614806112d657506004546001600160a01b031633145b806112eb57506005546001600160a01b031633145b8061130057506006546001600160a01b031633145b8061131557506007546001600160a01b031633145b8061132a57506008546001600160a01b031633145b8061133f57506009546001600160a01b031633145b806113545750600a546001600160a01b031633145b806113695750600b546001600160a01b031633145b8061137e5750600c546001600160a01b031633145b806113935750600d546001600160a01b031633145b806113a85750600e546001600160a01b031633145b6113c45760405162461bcd60e51b815260040161115490615b11565b7f00000000000000000000000000000000000000000000000000000000000000006001600160a01b0316826001600160a01b0316036114305760405162461bcd60e51b815260206004820152600860248201526727379037bbb732b960c11b6044820152606401611154565b306001600160a01b038316036114765760405162461bcd60e51b815260206004820152600b60248201526a139bc818dbdb9d1c9858dd60aa1b6044820152606401611154565b6001600160a01b0382166114b65760405162461bcd60e51b81526020600482015260076024820152664e6f207a65726f60c81b6044820152606401611154565b6001600160a01b0382165f81815260186020908152604091829020805460ff191685151590811790915591519182525f516020615cfc5f395f51905f5291015b60405180910390a25050565b336001600160a01b037f000000000000000000000000000000000000000000000000000000000000000016148061154357506004546001600160a01b031633145b8061155857506005546001600160a01b031633145b8061156d57506006546001600160a01b031633145b8061158257506007546001600160a01b031633145b8061159757506008546001600160a01b031633145b806115ac57506009546001600160a01b031633145b806115c15750600a546001600160a01b031633145b806115d65750600b546001600160a01b031633145b806115eb5750600c546001600160a01b031633145b806116005750600d546001600160a01b031633145b806116155750600e546001600160a01b031633145b6116315760405162461bcd60e51b815260040161115490615b11565b60025f54036116825760405162461bcd60e51b815260206004820152601f60248201527f5265656e7472616e637947756172643a207265656e7472616e742063616c6c006044820152606401611154565b60025f5547806116bd5760405162461bcd60e51b815260206004820152600660248201526527379021272160d11b6044820152606401611154565b5f7f00000000000000000000000000000000000000000000000000000000000000006001600160a01b0316826040515f6040518083038185875af1925050503d805f8114611726576040519150601f19603f3d011682016040523d82523d5f602084013e61172b565b606091505b50509050806117695760405162461bcd60e51b815260206004820152600a6024820152691093908819985a5b195960b21b6044820152606401611154565b6040518281527f1680612e6c4ea6353232f90d9fc956e494bb8a63829af6cf07e3763061a780949060200160405180910390a1505060015f55565b336001600160a01b037f00000000000000000000000000000000000000000000000000000000000000001614806117e557506004546001600160a01b031633145b806117fa57506005546001600160a01b031633145b8061180f57506006546001600160a01b031633145b8061182457506007546001600160a01b031633145b8061183957506008546001600160a01b031633145b8061184e57506009546001600160a01b031633145b806118635750600a546001600160a01b031633145b806118785750600b546001600160a01b031633145b8061188d5750600c546001600160a01b031633145b806118a25750600d546001600160a01b031633145b806118b75750600e546001600160a01b031633145b6118d35760405162461bcd60e51b815260040161115490615b11565b600e546001600160a01b031633146119085760135460ff16156119085760405162461bcd60e51b815260040161115490615b34565b600e546001600160a01b0316331461193c5760115442101561193c5760405162461bcd60e51b815260040161115490615b5a565b6001600160a01b0382166119815760405162461bcd60e51b815260206004820152600c60248201526b24b73b30b634b2103830b4b960a11b6044820152606401611154565b6001600160a01b0382165f908152601260205260409020805460ff19168215151790556119b16202a30042615ba5565b60038190556040519081525f516020615cdc5f395f51905f529060200160405180910390a16119e36202a30042615ba5565b60115560405181151581526001600160a01b038316907f7a2f4227df0ce76d5d4187329faaf8c53eb621fd92edb868d331f292bb011344906020016114f6565b6001600160a01b0383165f90815260156020908152604080832033845290915281205482811015611a865760405162461bcd60e51b815260206004820152600d60248201526c4c6f7720616c6c6f77616e636560981b6044820152606401611154565b6001600160a01b0385165f90815260156020908152604080832033845290915290208382039055611ab8858585614e16565b95945050505050565b335f8181526015602090815260408083206001600160a01b0387168452909152812054909161128b918590611af7908690615ba5565b614d34565b336001600160a01b037f0000000000000000000000000000000000000000000000000000000000000000161480611b3d57506004546001600160a01b031633145b80611b5257506005546001600160a01b031633145b80611b6757506006546001600160a01b031633145b80611b7c57506007546001600160a01b031633145b80611b9157506008546001600160a01b031633145b80611ba657506009546001600160a01b031633145b80611bbb5750600a546001600160a01b031633145b80611bd05750600b546001600160a01b031633145b80611be55750600c546001600160a01b031633145b80611bfa5750600d546001600160a01b031633145b80611c0f5750600e546001600160a01b031633145b611c2b5760405162461bcd60e51b815260040161115490615b11565b5f5b82811015611dbf577f00000000000000000000000000000000000000000000000000000000000000006001600160a01b0316848483818110611c7157611c71615bb8565b9050602002016020810190611c8691906158b0565b6001600160a01b031614158015611ccc575030848483818110611cab57611cab615bb8565b9050602002016020810190611cc091906158b0565b6001600160a01b031614155b8015611d0757505f848483818110611ce657611ce6615bb8565b9050602002016020810190611cfb91906158b0565b6001600160a01b031614155b15611db7578160185f868685818110611d2257611d22615bb8565b9050602002016020810190611d3791906158b0565b6001600160a01b0316815260208101919091526040015f20805460ff1916911515919091179055838382818110611d7057611d70615bb8565b9050602002016020810190611d8591906158b0565b6001600160a01b03165f516020615cfc5f395f51905f5283604051611dae911515815260200190565b60405180910390a25b600101611c2d565b50505050565b600e546001600160a01b03163314611def5760405162461bcd60e51b815260040161115490615bcc565b600e546001600160a01b0316611e175760405162461bcd60e51b815260040161115490615bf4565b6010805460ff60a01b191690556040517fa51949d2a53f5e36f13f153e2a7b001fd7ed6556cef2866ac2f1b52ea9342c1d905f90a1565b336001600160a01b037f0000000000000000000000000000000000000000000000000000000000000000161480611e8f57506004546001600160a01b031633145b80611ea457506005546001600160a01b031633145b80611eb957506006546001600160a01b031633145b80611ece57506007546001600160a01b031633145b80611ee357506008546001600160a01b031633145b80611ef857506009546001600160a01b031633145b80611f0d5750600a546001600160a01b031633145b80611f225750600b546001600160a01b031633145b80611f375750600c546001600160a01b031633145b80611f4c5750600d546001600160a01b031633145b80611f615750600e546001600160a01b031633145b611f7d5760405162461bcd60e51b815260040161115490615b11565b600e546001600160a01b03163314611fb25760135460ff1615611fb25760405162461bcd60e51b815260040161115490615b34565b6013805460ff191660011790556040517f4796bf6ffaaa75b9dd6d018c2bd9c876b3483a4be62665b4630f698ac85c5f7e905f90a1565b336001600160a01b037f000000000000000000000000000000000000000000000000000000000000000016148061202a57506004546001600160a01b031633145b8061203f57506005546001600160a01b031633145b8061205457506006546001600160a01b031633145b8061206957506007546001600160a01b031633145b8061207e57506008546001600160a01b031633145b8061209357506009546001600160a01b031633145b806120a85750600a546001600160a01b031633145b806120bd5750600b546001600160a01b031633145b806120d25750600c546001600160a01b031633145b806120e75750600d546001600160a01b031633145b806120fc5750600e546001600160a01b031633145b6121185760405162461bcd60e51b815260040161115490615b11565b335f908152601460205260409020548111156121465760405162461bcd60e51b815260040161115490615c1f565b335f81815260146020908152604080832080548690039055600180548690039055518481529192915f516020615d1c5f395f51905f52910160405180910390a36040518181527f6ef4855b666dcc7884561072e4358b28dfe01feb1b7f4dcebc00e62d50394ac79060200160405180910390a150565b5f6019545f036121cb57505f90565b5f62093a806019546121dd9190615ba5565b90508042106121ed575f91505090565b6121f74282615c44565b91505090565b5f6019545f1415801561221f575062093a8060195461221c9190615ba5565b42105b1561222957505f90565b6001546a0422ca8b0a00a425000000905f906127109061224a906032615c57565b6122549190615c6e565b90508181106122635781612265565b805b9250505090565b600e546001600160a01b031633146122965760405162461bcd60e51b815260040161115490615bcc565b600e546001600160a01b03166122be5760405162461bcd60e51b815260040161115490615bf4565b6001600160a01b0381165f9081526018602052604090205460ff166123175760405162461bcd60e51b815260206004820152600f60248201526e139bdd08189b1858dadb1a5cdd1959608a1b6044820152606401611154565b6001600160a01b0381165f818152601860209081526040808320805460ff19169055519182525f516020615cfc5f395f51905f52910160405180910390a250565b336001600160a01b037f000000000000000000000000000000000000000000000000000000000000000016148061239957506004546001600160a01b031633145b806123ae57506005546001600160a01b031633145b806123c357506006546001600160a01b031633145b806123d857506007546001600160a01b031633145b806123ed57506008546001600160a01b031633145b8061240257506009546001600160a01b031633145b806124175750600a546001600160a01b031633145b8061242c5750600b546001600160a01b031633145b806124415750600c546001600160a01b031633145b806124565750600d546001600160a01b031633145b8061246b5750600e546001600160a01b031633145b6124875760405162461bcd60e51b815260040161115490615b11565b60025f54036124d85760405162461bcd60e51b815260206004820152601f60248201527f5265656e7472616e637947756172643a207265656e7472616e742063616c6c006044820152606401611154565b60025f556001600160a01b0382166125225760405162461bcd60e51b815260206004820152600d60248201526c24b73b30b634b2103a37b5b2b760991b6044820152606401611154565b306001600160a01b0383160361256b5760405162461bcd60e51b815260206004820152600e60248201526d4e6f20726573637565204b43593160901b6044820152606401611154565b60405163a9059cbb60e01b81526001600160a01b037f0000000000000000000000000000000000000000000000000000000000000000811660048301526024820183905283919082169063a9059cbb906044016020604051808303815f875af11580156125da573d5f5f3e3d5ffd5b505050506040513d601f19601f820116820180604052508101906125fe9190615c8d565b61263a5760405162461bcd60e51b815260206004820152600d60248201526c14995cd8dd594819985a5b1959609a1b6044820152606401611154565b826001600160a01b03167fe2ff149b1527ce73bc1113b8b0d5f0afffefac241473a371880d7510708ad4438360405161267591815260200190565b60405180910390a2505060015f5550565b5f7f00000000000000000000000000000000000000000000000000000000000000006001600160a01b0316826001600160a01b031614806126cf57506001600160a01b03821630145b806126e757506004546001600160a01b038381169116145b806126ff57506005546001600160a01b038381169116145b8061271757506006546001600160a01b038381169116145b8061272f57506007546001600160a01b038381169116145b8061274757506008546001600160a01b038381169116145b8061275f57506009546001600160a01b038381169116145b806127775750600a546001600160a01b038381169116145b8061278f5750600b546001600160a01b038381169116145b806127a75750600c546001600160a01b038381169116145b806127bf5750600d546001600160a01b038381169116145b806127d75750600f546001600160a01b038381169116145b8061128f5750506010546001600160a01b0390811691161490565b5f6001600160a01b0382166128395760405162461bcd60e51b815260206004820152600d60248201526c24b73b30b634b2103a37b5b2b760991b6044820152606401611154565b306001600160a01b038316036128845760405162461bcd60e51b815260206004820152601060248201526f21b0b73737ba103830b4b91039b2b63360811b6044820152606401611154565b60105460405163e6a4390560e01b81523060048201526001600160a01b0384811660248301529091169063e6a4390590604401602060405180830381865afa1580156128d2573d5f5f3e3d5ffd5b505050506040513d601f19601f8201168201806040525081019061128f9190615ca8565b336001600160a01b037f000000000000000000000000000000000000000000000000000000000000000016148061293757506004546001600160a01b031633145b8061294c57506005546001600160a01b031633145b8061296157506006546001600160a01b031633145b8061297657506007546001600160a01b031633145b8061298b57506008546001600160a01b031633145b806129a057506009546001600160a01b031633145b806129b55750600a546001600160a01b031633145b806129ca5750600b546001600160a01b031633145b806129df5750600c546001600160a01b031633145b806129f45750600d546001600160a01b031633145b80612a095750600e546001600160a01b031633145b612a255760405162461bcd60e51b815260040161115490615b11565b601c805460ff191660011790556040517f8626b5eba97cb663ee6bc23f6f1085d98d9ae2a677d0f785943aeb24557b0007905f90a1565b600e546001600160a01b03163314612a865760405162461bcd60e51b815260040161115490615bcc565b600e546001600160a01b0316612aae5760405162461bcd60e51b815260040161115490615bf4565b5f5b81811015612bb65760185f848484818110612acd57612acd615bb8565b9050602002016020810190612ae291906158b0565b6001600160a01b0316815260208101919091526040015f205460ff1615612bae575f60185f858585818110612b1957612b19615bb8565b9050602002016020810190612b2e91906158b0565b6001600160a01b0316815260208101919091526040015f20805460ff1916911515919091179055828282818110612b6757612b67615bb8565b9050602002016020810190612b7c91906158b0565b6001600160a01b03165f516020615cfc5f395f51905f525f604051612ba5911515815260200190565b60405180910390a25b600101612ab0565b505050565b336001600160a01b037f0000000000000000000000000000000000000000000000000000000000000000161480612bfc57506004546001600160a01b031633145b80612c1157506005546001600160a01b031633145b80612c2657506006546001600160a01b031633145b80612c3b57506007546001600160a01b031633145b80612c5057506008546001600160a01b031633145b80612c6557506009546001600160a01b031633145b80612c7a5750600a546001600160a01b031633145b80612c8f5750600b546001600160a01b031633145b80612ca45750600c546001600160a01b031633145b80612cb95750600d546001600160a01b031633145b80612cce5750600e546001600160a01b031633145b612cea5760405162461bcd60e51b815260040161115490615b11565b612cf76202a30042615ba5565b60038190556040519081525f516020615cdc5f395f51905f52906020015b60405180910390a1565b335f9081526015602090815260408083206001600160a01b038616845290915281205482811015612d825760405162461bcd60e51b815260206004820152600d60248201526c4c6f7720616c6c6f77616e636560981b6044820152606401611154565b612d8f3385858403614d34565b5060019392505050565b612da1615846565b6004546001600160a01b039081168252600554811660208301526006548116604083015260075481166060830152600f5460105492939082169291821691600160a01b900460ff1690565b5f612df8338484614e16565b9392505050565b336001600160a01b037f0000000000000000000000000000000000000000000000000000000000000000161480612e4057506004546001600160a01b031633145b80612e5557506005546001600160a01b031633145b80612e6a57506006546001600160a01b031633145b80612e7f57506007546001600160a01b031633145b80612e9457506008546001600160a01b031633145b80612ea957506009546001600160a01b031633145b80612ebe5750600a546001600160a01b031633145b80612ed35750600b546001600160a01b031633145b80612ee85750600c546001600160a01b031633145b80612efd5750600d546001600160a01b031633145b80612f125750600e546001600160a01b031633145b612f2e5760405162461bcd60e51b815260040161115490615b11565b600e546001600160a01b03163314612f8957601054600160a01b900460ff1615612f895760405162461bcd60e51b815260206004820152600c60248201526b14db1bdd1cc81b1bd8dad95960a21b6044820152606401611154565b6010805460ff60a01b1916600160a01b1790556040517f08234ccd0d49a6aa697f3793c5f51d1a67334aadd98b1a80978b14c42e4204c9905f90a1565b336001600160a01b037f000000000000000000000000000000000000000000000000000000000000000016148061300757506004546001600160a01b031633145b8061301c57506005546001600160a01b031633145b8061303157506006546001600160a01b031633145b8061304657506007546001600160a01b031633145b8061305b57506008546001600160a01b031633145b8061307057506009546001600160a01b031633145b806130855750600a546001600160a01b031633145b8061309a5750600b546001600160a01b031633145b806130af5750600c546001600160a01b031633145b806130c45750600d546001600160a01b031633145b806130d95750600e546001600160a01b031633145b6130f55760405162461bcd60e51b815260040161115490615b11565b600e546001600160a01b03163314613129576011544210156131295760405162461bcd60e51b815260040161115490615b5a565b5f811161316d5760405162461bcd60e51b81526020600482015260126024820152710416d6f756e74206d757374206265203e20360741b6044820152606401611154565b62093a8060195461317e9190615ba5565b4210156131c35760405162461bcd60e51b815260206004820152601360248201527210dbdbdb191bdddb881b9bdd081c185cdcd959606a1b6044820152606401611154565b6001546a0422ca8b0a00a425000000905f90612710906131e4906032615c57565b6131ee9190615c6e565b9050818110156131fc578091505b8183111561323f5760405162461bcd60e51b815260206004820152601060248201526f115e18d959591cc81b585e081b5a5b9d60821b6044820152606401611154565b601b8054905f61324e83615cc3565b9190505550604051806080016040528084815260200142815260200162015180426132799190615ba5565b81525f6020918201819052601b80548252601a8352604091829020845181559284015160018401559083015160028301556060909201516003909101805460ff1916911515919091179055547f647292d081eebcc7a2a611fa5a88554629f8fb2c089a593a8419c4f6dc7b91a3846132f46201518042615ba5565b6040805192835260208301919091520160405180910390a2505050565b600e546001600160a01b0316331461333b5760405162461bcd60e51b815260040161115490615bcc565b600e546001600160a01b03166133635760405162461bcd60e51b815260040161115490615bf4565b6013805460ff191690556040517fbb6c70ce316c154e62e01716ee643d3b433b5fd65f37f62e170411447251ac7a905f90a1565b336001600160a01b037f00000000000000000000000000000000000000000000000000000000000000001614806133d857506004546001600160a01b031633145b806133ed57506005546001600160a01b031633145b8061340257506006546001600160a01b031633145b8061341757506007546001600160a01b031633145b8061342c57506008546001600160a01b031633145b8061344157506009546001600160a01b031633145b806134565750600a546001600160a01b031633145b8061346b5750600b546001600160a01b031633145b806134805750600c546001600160a01b031633145b806134955750600d546001600160a01b031633145b806134aa5750600e546001600160a01b031633145b6134c65760405162461bcd60e51b815260040161115490615b11565b600e546001600160a01b0316331461351857601c5460ff16156135185760405162461bcd60e51b815260206004820152600a602482015269111156081b1bd8dad95960b21b6044820152606401611154565b600e546001600160a01b0316331461354c5760115442101561354c5760405162461bcd60e51b815260040161115490615b5a565b6001600160a01b0382166135905760405162461bcd60e51b815260206004820152600b60248201526a526f75746572207a65726f60a81b6044820152606401611154565b6001600160a01b0381166135d55760405162461bcd60e51b815260206004820152600c60248201526b466163746f7279207a65726f60a01b6044820152606401611154565b600f80546001600160a01b038085166001600160a01b03199283161790925560108054928416929091169190911790556136126202a30042615ba5565b60038190556040519081525f516020615cdc5f395f51905f529060200160405180910390a16136446202a30042615ba5565b6011556040516001600160a01b0380831691908416907f21baedc621b715a34ba27312a07d13d9fefd74e0fe7770fef56db94f3399e5ba905f90a35050565b600e546001600160a01b031633146136ad5760405162461bcd60e51b815260040161115490615bcc565b600e546001600160a01b03166136d55760405162461bcd60e51b815260040161115490615bf4565b601c805460ff191690556040517f2e33380adea2f285a9841bb8e9745e505ce81db299f34111d2ae1cff72d10c28905f90a1565b5f7f00000000000000000000000000000000000000000000000000000000000000006001600160a01b0316826001600160a01b0316148061375757506004546001600160a01b038381169116145b8061376f57506005546001600160a01b038381169116145b8061378757506006546001600160a01b038381169116145b8061379f57506007546001600160a01b038381169116145b806137b757506008546001600160a01b038381169116145b806137cf57506009546001600160a01b038381169116145b806137e75750600a546001600160a01b038381169116145b806137ff5750600b546001600160a01b038381169116145b806138175750600c546001600160a01b038381169116145b8061128f575050600d546001600160a01b0390811691161490565b5f61383e600354421090565b61384757505f90565b426003546138559190615c44565b905090565b600e546001600160a01b031633146138b557601054600160a01b900460ff16156138b55760405162461bcd60e51b815260206004820152600c60248201526b14db1bdd1cc81b1bd8dad95960a21b6044820152606401611154565b60018260ff16101580156138cd5750600a8260ff1611155b61390e5760405162461bcd60e51b8152602060048201526012602482015271092dcecc2d8d2c840e6d8dee840d2dcc8caf60731b6044820152606401611154565b6001600160a01b0381166139535760405162461bcd60e51b815260206004820152600c60248201526b5a65726f206164647265737360a01b6044820152606401611154565b8160ff166001036139a65760405162461bcd60e51b815260206004820152601f60248201527f536c6f742031206973206f776e6572202d2063616e6e6f74206368616e6765006044820152606401611154565b60028260ff16101580156139be575060058260ff1611155b15613a4a57600e546001600160a01b03163314613a1d5760405162461bcd60e51b815260206004820152601c60248201527f4f6e6c79206d756c74692d73696720666f7220736c6f747320312d35000000006044820152606401611154565b600e546001600160a01b0316613a455760405162461bcd60e51b815260040161115490615bf4565b613b64565b336001600160a01b037f0000000000000000000000000000000000000000000000000000000000000000161480613a8b57506004546001600160a01b031633145b80613aa057506005546001600160a01b031633145b80613ab557506006546001600160a01b031633145b80613aca57506007546001600160a01b031633145b80613adf57506008546001600160a01b031633145b80613af457506009546001600160a01b031633145b80613b095750600a546001600160a01b031633145b80613b1e5750600b546001600160a01b031633145b80613b335750600c546001600160a01b031633145b80613b485750600d546001600160a01b031633145b613b645760405162461bcd60e51b815260040161115490615b11565b8160ff16600203613b8f57600580546001600160a01b0319166001600160a01b038316179055613ce3565b8160ff16600303613bba57600680546001600160a01b0319166001600160a01b038316179055613ce3565b8160ff16600403613be557600780546001600160a01b0319166001600160a01b038316179055613ce3565b8160ff16600503613c1057600880546001600160a01b0319166001600160a01b038316179055613ce3565b8160ff16600603613c3b57600980546001600160a01b0319166001600160a01b038316179055613ce3565b8160ff16600703613c6657600a80546001600160a01b0319166001600160a01b038316179055613ce3565b8160ff16600803613c9157600b80546001600160a01b0319166001600160a01b038316179055613ce3565b8160ff16600903613cbc57600c80546001600160a01b0319166001600160a01b038316179055613ce3565b8160ff16600a03613ce357600d80546001600160a01b0319166001600160a01b0383161790555b613cf06202a30042615ba5565b60038190556040519081525f516020615cdc5f395f51905f529060200160405180910390a1613d226202a30042615ba5565b6011556040516001600160a01b0382169060ff8416907f55fa37c516338944fcc832b2ffde413707862af8395516e549c43af435a58797905f90a35050565b5f7f00000000000000000000000000000000000000000000000000000000000000004210613d8e57505f90565b613855427f0000000000000000000000000000000000000000000000000000000000000000615c44565b336001600160a01b037f0000000000000000000000000000000000000000000000000000000000000000161480613df957506004546001600160a01b031633145b80613e0e57506005546001600160a01b031633145b80613e2357506006546001600160a01b031633145b80613e3857506007546001600160a01b031633145b80613e4d57506008546001600160a01b031633145b80613e6257506009546001600160a01b031633145b80613e775750600a546001600160a01b031633145b80613e8c5750600b546001600160a01b031633145b80613ea15750600c546001600160a01b031633145b80613eb65750600d546001600160a01b031633145b80613ecb5750600e546001600160a01b031633145b613ee75760405162461bcd60e51b815260040161115490615b11565b600e546001600160a01b03163314613f1c5760135460ff1615613f1c5760405162461bcd60e51b815260040161115490615b34565b600e546001600160a01b03163314613f5057601154421015613f505760405162461bcd60e51b815260040161115490615b5a565b5f5b82811015614056575f848483818110613f6d57613f6d615bb8565b9050602002016020810190613f8291906158b0565b6001600160a01b03161461404e578160125f868685818110613fa657613fa6615bb8565b9050602002016020810190613fbb91906158b0565b6001600160a01b0316815260208101919091526040015f20805460ff1916911515919091179055838382818110613ff457613ff4615bb8565b905060200201602081019061400991906158b0565b6001600160a01b03167f7a2f4227df0ce76d5d4187329faaf8c53eb621fd92edb868d331f292bb01134483604051614045911515815260200190565b60405180910390a25b600101613f52565b506140646202a30042615ba5565b60038190556040519081525f516020615cdc5f395f51905f529060200160405180910390a16140966202a30042615ba5565b601155505050565b336001600160a01b037f00000000000000000000000000000000000000000000000000000000000000001614806140df57506004546001600160a01b031633145b806140f457506005546001600160a01b031633145b8061410957506006546001600160a01b031633145b8061411e57506007546001600160a01b031633145b8061413357506008546001600160a01b031633145b8061414857506009546001600160a01b031633145b8061415d5750600a546001600160a01b031633145b806141725750600b546001600160a01b031633145b806141875750600c546001600160a01b031633145b8061419c5750600d546001600160a01b031633145b806141b15750600e546001600160a01b031633145b6141cd5760405162461bcd60e51b815260040161115490615b11565b600e546001600160a01b03163314614201576011544210156142015760405162461bcd60e51b815260040161115490615b5a565b5f818152601a60205260409020600381015460ff16156142565760405162461bcd60e51b815260206004820152601060248201526f105b1c9958591e48195e1958dd5d195960821b6044820152606401611154565b80546142975760405162461bcd60e51b815260206004820152601060248201526f125b9d985b1a59081c1c9bdc1bdcd85b60821b6044820152606401611154565b80600201544210156142e15760405162461bcd60e51b8152602060048201526013602482015272151a5b595b1bd8dac81b9bdd081c185cdcd959606a1b6044820152606401611154565b60038101805460ff19166001908117909155426019558154815401905580546001600160a01b037f0000000000000000000000000000000000000000000000000000000000000000165f81815260146020526040808220805490940190935583549251919290915f516020615d1c5f395f51905f52916143649190815260200190565b60405180910390a3805460405190815282907f1c8450e81009bae0b2dc2af7e74559bb5a99e3c83ee6199c8822376295f958ea906020016114f6565b336001600160a01b037f00000000000000000000000000000000000000000000000000000000000000001614806143e157506004546001600160a01b031633145b806143f657506005546001600160a01b031633145b8061440b57506006546001600160a01b031633145b8061442057506007546001600160a01b031633145b8061443557506008546001600160a01b031633145b8061444a57506009546001600160a01b031633145b8061445f5750600a546001600160a01b031633145b806144745750600b546001600160a01b031633145b806144895750600c546001600160a01b031633145b8061449e5750600d546001600160a01b031633145b806144b35750600e546001600160a01b031633145b6144cf5760405162461bcd60e51b815260040161115490615b11565b305f908152601460205260409020548111156144fd5760405162461bcd60e51b815260040161115490615c1f565b305f818152601460209081526040808320805486900390556001600160a01b037f00000000000000000000000000000000000000000000000000000000000000001680845292819020805486019055518481529192915f516020615d1c5f395f51905f52910160405180910390a350565b336001600160a01b037f00000000000000000000000000000000000000000000000000000000000000001614806145af57506004546001600160a01b031633145b806145c457506005546001600160a01b031633145b806145d957506006546001600160a01b031633145b806145ee57506007546001600160a01b031633145b8061460357506008546001600160a01b031633145b8061461857506009546001600160a01b031633145b8061462d5750600a546001600160a01b031633145b806146425750600b546001600160a01b031633145b806146575750600c546001600160a01b031633145b8061466c5750600d546001600160a01b031633145b806146815750600e546001600160a01b031633145b61469d5760405162461bcd60e51b815260040161115490615b11565b60025460ff16156146e15760405162461bcd60e51b815260206004820152600e60248201526d111a5cdd0818dbdb5c1b195d195960921b6044820152606401611154565b305f908152601460205260409020546a034f086f3b33b68400000011156147415760405162461bcd60e51b8152602060048201526014602482015273436f6e74726163742062616c616e6365206c6f7760601b6044820152606401611154565b6002805460ff191660011790557f00000000000000000000000000000000000000000000000000000000000000006001600160a01b0316158015906147d857507f00000000000000000000000000000000000000000000000000000000000000006001600160a01b03167f00000000000000000000000000000000000000000000000000000000000000006001600160a01b031614155b80156147e2575060015b1561493357305f90815260146020526040812080546a013da329b63364718000009290614810908490615c44565b90915550506001600160a01b037f0000000000000000000000000000000000000000000000000000000000000000165f90815260146020526040812080546a013da329b63364718000009290614867908490615ba5565b90915550506040516a013da329b633647180000081527f00000000000000000000000000000000000000000000000000000000000000006001600160a01b03169030905f516020615d1c5f395f51905f529060200160405180910390a37f00000000000000000000000000000000000000000000000000000000000000006001600160a01b03167f78786c581da76125b3c6c8a810adb3d2dab5d14b1273b8220661085f045e25cd6a013da329b633647180000060405161492a91815260200190565b60405180910390a25b7f00000000000000000000000000000000000000000000000000000000000000006001600160a01b0316158015906149bd57507f00000000000000000000000000000000000000000000000000000000000000006001600160a01b03167f00000000000000000000000000000000000000000000000000000000000000006001600160a01b031614155b80156149c7575060015b15614b1457305f908152601460205260408120805469d3c21bcecceda100000092906149f4908490615c44565b90915550506001600160a01b037f0000000000000000000000000000000000000000000000000000000000000000165f908152601460205260408120805469d3c21bcecceda10000009290614a4a908490615ba5565b909155505060405169d3c21bcecceda100000081527f00000000000000000000000000000000000000000000000000000000000000006001600160a01b03169030905f516020615d1c5f395f51905f529060200160405180910390a37f00000000000000000000000000000000000000000000000000000000000000006001600160a01b03167f78786c581da76125b3c6c8a810adb3d2dab5d14b1273b8220661085f045e25cd69d3c21bcecceda1000000604051614b0b91815260200190565b60405180910390a25b7f00000000000000000000000000000000000000000000000000000000000000006001600160a01b031615801590614b9e57507f00000000000000000000000000000000000000000000000000000000000000006001600160a01b03167f00000000000000000000000000000000000000000000000000000000000000006001600160a01b031614155b8015614ba8575060015b15614cf957305f90815260146020526040812080546a013da329b63364718000009290614bd6908490615c44565b90915550506001600160a01b037f0000000000000000000000000000000000000000000000000000000000000000165f90815260146020526040812080546a013da329b63364718000009290614c2d908490615ba5565b90915550506040516a013da329b633647180000081527f00000000000000000000000000000000000000000000000000000000000000006001600160a01b03169030905f516020615d1c5f395f51905f529060200160405180910390a37f00000000000000000000000000000000000000000000000000000000000000006001600160a01b03167f78786c581da76125b3c6c8a810adb3d2dab5d14b1273b8220661085f045e25cd6a013da329b6336471800000604051614cf091815260200190565b60405180910390a25b6040516a034f086f3b33b68400000081527f3a1079628069a11f368373dad84d9cb2831368c6f4ea1a0e86fbdbe0145a899b90602001612d15565b6001600160a01b038316614d765760405162461bcd60e51b815260206004820152600960248201526846726f6d207a65726f60b81b6044820152606401611154565b6001600160a01b038216614db65760405162461bcd60e51b8152602060048201526007602482015266546f207a65726f60c81b6044820152606401611154565b6001600160a01b038381165f8181526015602090815260408083209487168084529482529182902085905590518481527f8c5be1e5ebec7d5bd14f71427d1e84f3dd0314c0f7b2291e5b200ac8c7c3b925910160405180910390a3505050565b5f6001600160a01b038416614e595760405162461bcd60e51b815260206004820152600960248201526846726f6d207a65726f60b81b6044820152606401611154565b6001600160a01b038316614e995760405162461bcd60e51b8152602060048201526007602482015266546f207a65726f60c81b6044820152606401611154565b6001600160a01b0384165f90815260146020526040902054821115614ed05760405162461bcd60e51b815260040161115490615c1f565b5f614eda85612686565b90505f614ee685612686565b90505f614ef287613709565b600f549091505f906001600160a01b0389811691161480614f2057506010546001600160a01b038981169116145b905083158015614f4757506001600160a01b0387165f9081526012602052604090205460ff165b15614fa75760405162461bcd60e51b815260206004820152602a60248201527f4e6f726d616c2075736572732063616e6e6f7420616464206c6971756964697460448201526979206469726563746c7960b01b6064820152608401611154565b82158015614fcc57506001600160a01b0388165f9081526012602052604090205460ff165b8015614fe35750600f546001600160a01b03163314155b156150465760405162461bcd60e51b815260206004820152602d60248201527f4e6f726d616c2075736572732063616e6e6f742072656d6f7665206c6971756960448201526c64697479206469726563746c7960981b6064820152608401611154565b5f841580615052575083155b90505f838015615060575084155b80156150775750600f546001600160a01b03163314155b90506011544210156150bc5760405162461bcd60e51b815260206004820152600e60248201526d20b236b4b71031b7b7b63237bbb760911b6044820152606401611154565b81156150fd576003544210156150fd5760405162461bcd60e51b815260206004820152600660248201526514185d5cd95960d21b6044820152606401611154565b85615158576001600160a01b038a165f9081526018602052604090205460ff16156151585760405162461bcd60e51b815260206004820152600b60248201526a109b1858dadb1a5cdd195960aa1b6044820152606401611154565b846151b3576001600160a01b0389165f9081526018602052604090205460ff16156151b35760405162461bcd60e51b815260206004820152600b60248201526a109b1858dadb1a5cdd195960aa1b6044820152606401611154565b85615215577f00000000000000000000000000000000000000000000000000000000000000004210156152155760405162461bcd60e51b815260206004820152600a602482015269098dec6d6cac8406870d60b31b6044820152606401611154565b801561537a5768056bc75e2d6310000088111561525e5760405162461bcd60e51b815260206004820152600760248201526604d6178203130360cc1b6044820152606401611154565b6001600160a01b038a165f9081526017602052604090205480156152c3576152896201518082615ba5565b4210156152c35760405162461bcd60e51b81526020600482015260086024820152670aec2d2e8406468d60c31b6044820152606401611154565b6001600160a01b038a165f9081526014602052604090205468d8d726b7177a800000620186a06152f460328d615c57565b6152fe9190615c6e565b620186a061530d601e8e615c57565b6153179190615c6e565b615321908d615c44565b61532b9190615c44565b6153359083615ba5565b11156153735760405162461bcd60e51b815260206004820152600d60248201526c4d61782077616c6c657420346b60981b6044820152606401611154565b5050615550565b811561555057686c6b935b8bbd4000008811156153c45760405162461bcd60e51b815260206004820152600860248201526704d617820323030360c41b6044820152606401611154565b846154e6576001600160a01b0389165f9081526014602052604090205468d8d726b7177a800000620186a06153fa60328c615c57565b6154049190615c6e565b620186a0615413601e8d615c57565b61541d9190615c6e565b615427908c615c44565b6154319190615c44565b61543b9083615ba5565b11156154795760405162461bcd60e51b815260206004820152600d60248201526c4d61782077616c6c657420346b60981b6044820152606401611154565b83156154e4576001600160a01b038a165f9081526016602052604090205480156154e2576154a9611c2082615ba5565b4210156154e25760405162461bcd60e51b81526020600482015260076024820152660aec2d2e84064d60cb1b6044820152606401611154565b505b505b85615550576001600160a01b038a165f90815260166020526040902054801561554e57615515611c2082615ba5565b42101561554e5760405162461bcd60e51b81526020600482015260076024820152660aec2d2e84064d60cb1b6044820152606401611154565b505b85801561555a5750845b156155ba576001600160a01b03808b165f8181526014602052604080822080548d90039055928c168082529083902080548c01905591515f516020615d1c5f395f51905f52906155ad908c815260200190565b60405180910390a36157c1565b5f620186a06155ca601e8b615c57565b6155d49190615c6e565b90505f620186a06155e660328c615c57565b6155f09190615c6e565b90505f816155fe848d615c44565b6156089190615c44565b90508a60145f8f6001600160a01b03166001600160a01b031681526020019081526020015f205f82825403925050819055508060145f8e6001600160a01b03166001600160a01b031681526020019081526020015f205f82825401925050819055508160145f7f00000000000000000000000000000000000000000000000000000000000000006001600160a01b03166001600160a01b031681526020019081526020015f205f82825401925050819055508260015f82825403925050819055508b6001600160a01b03168d6001600160a01b03165f516020615d1c5f395f51905f52836040516156fb91815260200190565b60405180910390a37f00000000000000000000000000000000000000000000000000000000000000006001600160a01b03168d6001600160a01b03165f516020615d1c5f395f51905f528460405161575591815260200190565b60405180910390a36040518381525f906001600160a01b038f16905f516020615d1c5f395f51905f529060200160405180910390a36040518381527f6ef4855b666dcc7884561072e4358b28dfe01feb1b7f4dcebc00e62d50394ac79060200160405180910390a15050505b856157e1576001600160a01b038a165f9081526016602052604090204290555b841580156157ec5750815b80156157f55750825b15615815576001600160a01b0389165f9081526016602052604090204290555b8015615836576001600160a01b038a165f9081526017602052604090204290555b5060019998505050505050505050565b60405180608001604052806004906020820280368337509192915050565b602081525f82518060208401528060208501604085015e5f604082850101526040601f19601f83011684010191505092915050565b6001600160a01b03811681146158ad575f5ffd5b50565b5f602082840312156158c0575f5ffd5b8135612df881615899565b5f5f604083850312156158dc575f5ffd5b82356158e781615899565b946020939093013593505050565b80151581146158ad575f5ffd5b5f5f60408385031215615913575f5ffd5b823561591e81615899565b9150602083013561592e816158f5565b809150509250929050565b5f5f5f6060848603121561594b575f5ffd5b833561595681615899565b9250602084013561596681615899565b929592945050506040919091013590565b5f5f83601f840112615987575f5ffd5b50813567ffffffffffffffff81111561599e575f5ffd5b6020830191508360208260051b85010111156159b8575f5ffd5b9250929050565b5f5f5f604084860312156159d1575f5ffd5b833567ffffffffffffffff8111156159e7575f5ffd5b6159f386828701615977565b9094509250506020840135615a07816158f5565b809150509250925092565b5f60208284031215615a22575f5ffd5b5035919050565b5f5f60208385031215615a3a575f5ffd5b823567ffffffffffffffff811115615a50575f5ffd5b615a5c85828601615977565b90969095509350505050565b60e0810181865f5b6004811015615a985781516001600160a01b0316835260209283019290910190600101615a70565b5050506001600160a01b0394851660808301529290931660a0840152151560c090920191909152919050565b5f5f60408385031215615ad5575f5ffd5b8235615ae081615899565b9150602083013561592e81615899565b5f5f60408385031215615b01575f5ffd5b823560ff81168114615ae0575f5ffd5b6020808252600990820152682737ba1030b236b4b760b91b604082015260600190565b6020808252600c908201526b14185a5c9cc81b1bd8dad95960a21b604082015260600190565b60208082526019908201527f41646472657373206368616e6765727320636f6f6c646f776e00000000000000604082015260600190565b634e487b7160e01b5f52601160045260245ffd5b8082018082111561128f5761128f615b91565b634e487b7160e01b5f52603260045260245ffd5b6020808252600e908201526d4f6e6c79206d756c74692d73696760901b604082015260600190565b602080825260119082015270135d5b1d1a4b5cda59c81b9bdd081cd95d607a1b604082015260600190565b6020808252600b908201526a4c6f772062616c616e636560a81b604082015260600190565b8181038181111561128f5761128f615b91565b808202811582820484141761128f5761128f615b91565b5f82615c8857634e487b7160e01b5f52601260045260245ffd5b500490565b5f60208284031215615c9d575f5ffd5b8151612df8816158f5565b5f60208284031215615cb8575f5ffd5b8151612df881615899565b5f60018201615cd457615cd4615b91565b506001019056fe32fb7c9891bc4f963c7de9f1186d2a7755c7d6e9f4604dabe1d8bb3027c2f49ecf3473b85df1594d47b6958f29a32bea0abff9dd68296f7bf33443646793cfd8ddf252ad1be2c89b69c2b068fc378daa952ba7f163c4a11628f55a4df523b3efa2646970667358221220303c977f1fda848288125e5a05c457da980acb78fe4dcb7adf2985b29c627ebf64736f6c634300081c0033ddf252ad1be2c89b69c2b068fc378daa952ba7f163c4a11628f55a4df523b3ef","opcodes":"PUSH2 0x160 PUSH1 0x40 MSTORE CALLVALUE DUP1 ISZERO PUSH2 0x10 JUMPI PUSH0 PUSH0 REVERT JUMPDEST POP PUSH1 0x1 PUSH0 SSTORE CALLER PUSH1 0x80 MSTORE PUSH2 0x26 TIMESTAMP PUSH3 0x2A300 PUSH2 0x45E JUMP JUMPDEST PUSH1 0xA0 MSTORE PUSH2 0x35 PUSH1 0x12 PUSH1 0xA PUSH2 0x55A JUMP JUMPDEST PUSH2 0x43 SWAP1 PUSH4 0x5F5E100 PUSH2 0x56F JUMP JUMPDEST PUSH1 0x1 SSTORE PUSH1 0x61 CHAINID EQ DUP1 PUSH2 0x56 JUMPI POP CHAINID PUSH2 0x7A69 EQ JUMPDEST ISZERO ISZERO PUSH1 0xC0 MSTORE PUSH2 0x7A69 CHAINID EQ PUSH2 0xA0 JUMPI CHAINID PUSH1 0x61 EQ PUSH2 0x86 JUMPI PUSH20 0x567C1C5E9026E04078F9B92DCF295A58355F60C7 PUSH2 0xA2 JUMP JUMPDEST PUSH20 0xCBFA2D3612B7474FF89C0746EA6BAEEE06A61702 PUSH2 0xA2 JUMP JUMPDEST CALLER JUMPDEST PUSH1 0x1 PUSH1 0x1 PUSH1 0xA0 SHL SUB AND PUSH1 0xE0 MSTORE PUSH2 0x7A69 CHAINID EQ PUSH2 0xF3 JUMPI CHAINID PUSH1 0x61 EQ PUSH2 0xD9 JUMPI PUSH20 0x58EC63D31B8E4D6624B5C88338027A54BE1AE28A PUSH2 0xF5 JUMP JUMPDEST PUSH20 0x67EDBE18AD6AB1FF0D57CCC511F56485EFFCABE7 PUSH2 0xF5 JUMP JUMPDEST CALLER JUMPDEST PUSH1 0x1 PUSH1 0x1 PUSH1 0xA0 SHL SUB AND PUSH2 0x100 MSTORE PUSH2 0x7A69 CHAINID EQ PUSH2 0x147 JUMPI CHAINID PUSH1 0x61 EQ PUSH2 0x12D JUMPI PUSH20 0x6300811567BED7D69B5AC271060A7E298F99FDDD PUSH2 0x149 JUMP JUMPDEST PUSH20 0xD1A7281FB1D1745C29DFED9C1AF22B67A7403DD6 PUSH2 0x149 JUMP JUMPDEST CALLER JUMPDEST PUSH1 0x1 PUSH1 0x1 PUSH1 0xA0 SHL SUB AND PUSH2 0x120 MSTORE PUSH2 0x7A69 CHAINID EQ PUSH2 0x19B JUMPI CHAINID PUSH1 0x61 EQ PUSH2 0x181 JUMPI PUSH20 0x8D95D56436EB58EE3F9209E8CC4BFD59CFBE8B87 PUSH2 0x19D JUMP JUMPDEST PUSH20 0xD1A7281FB1D1745C29DFED9C1AF22B67A7403DD6 PUSH2 0x19D JUMP JUMPDEST CALLER JUMPDEST PUSH1 0x1 PUSH1 0x1 PUSH1 0xA0 SHL SUB AND PUSH2 0x140 MSTORE PUSH1 0x61 CHAINID EQ PUSH2 0x1CC JUMPI PUSH20 0x10ED43C718714EB63D5AA57B78B54704E256024E PUSH2 0x1E2 JUMP JUMPDEST PUSH20 0xD99D1C33F9FC3444F8101754ABC46C52416550D1 JUMPDEST PUSH1 0xF DUP1 SLOAD PUSH1 0x1 PUSH1 0x1 PUSH1 0xA0 SHL SUB NOT AND PUSH1 0x1 PUSH1 0x1 PUSH1 0xA0 SHL SUB SWAP3 SWAP1 SWAP3 AND SWAP2 SWAP1 SWAP2 OR SWAP1 SSTORE CHAINID PUSH1 0x61 EQ PUSH2 0x224 JUMPI PUSH20 0xCA143CE32FE78F1F7019D7D551A6402FC5350C73 PUSH2 0x23A JUMP JUMPDEST PUSH20 0x6725F303B657A9451D8BA641348B6761A6CC7A17 JUMPDEST PUSH1 0x10 DUP1 SLOAD PUSH1 0x1 PUSH1 0x1 PUSH1 0xA0 SHL SUB SWAP3 SWAP1 SWAP3 AND PUSH1 0x1 PUSH1 0x1 PUSH1 0xA0 SHL SUB NOT SWAP3 DUP4 AND OR SWAP1 SSTORE PUSH1 0x4 DUP1 SLOAD SWAP1 SWAP2 AND CALLER OR SWAP1 SSTORE CHAINID PUSH2 0x7A69 SUB PUSH2 0x29E JUMPI PUSH1 0x5 DUP1 SLOAD CALLER PUSH1 0x1 PUSH1 0x1 PUSH1 0xA0 SHL SUB NOT SWAP2 DUP3 AND DUP2 OR SWAP1 SWAP3 SSTORE PUSH1 0x6 DUP1 SLOAD DUP3 AND DUP4 OR SWAP1 SSTORE PUSH1 0x7 DUP1 SLOAD SWAP1 SWAP2 AND SWAP1 SWAP2 OR SWAP1 SSTORE PUSH2 0x366 JUMP JUMPDEST CHAINID PUSH1 0x61 SUB PUSH2 0x2FF JUMPI PUSH1 0x5 DUP1 SLOAD PUSH1 0x1 PUSH1 0x1 PUSH1 0xA0 SHL SUB NOT SWAP1 DUP2 AND PUSH20 0x67EDBE18AD6AB1FF0D57CCC511F56485EFFCABE7 OR SWAP1 SWAP2 SSTORE PUSH1 0x6 DUP1 SLOAD DUP3 AND PUSH20 0xD1A7281FB1D1745C29DFED9C1AF22B67A7403DD6 SWAP1 DUP2 OR SWAP1 SWAP2 SSTORE PUSH1 0x7 DUP1 SLOAD SWAP1 SWAP3 AND OR SWAP1 SSTORE PUSH2 0x366 JUMP JUMPDEST PUSH1 0x5 DUP1 SLOAD PUSH1 0x1 PUSH1 0x1 PUSH1 0xA0 SHL SUB NOT SWAP1 DUP2 AND PUSH20 0x58EC63D31B8E4D6624B5C88338027A54BE1AE28A OR SWAP1 SWAP2 SSTORE PUSH1 0x6 DUP1 SLOAD DUP3 AND PUSH20 0x6300811567BED7D69B5AC271060A7E298F99FDDD OR SWAP1 SSTORE PUSH1 0x7 DUP1 SLOAD SWAP1 SWAP2 AND PUSH20 0x8D95D56436EB58EE3F9209E8CC4BFD59CFBE8B87 OR SWAP1 SSTORE JUMPDEST PUSH2 0x372 PUSH1 0x12 PUSH1 0xA PUSH2 0x55A JUMP JUMPDEST PUSH2 0x380 SWAP1 PUSH4 0x5B8D800 PUSH2 0x56F JUMP JUMPDEST PUSH1 0xE0 MLOAD PUSH1 0x1 PUSH1 0x1 PUSH1 0xA0 SHL SUB AND PUSH0 SWAP1 DUP2 MSTORE PUSH1 0x14 PUSH1 0x20 MSTORE PUSH1 0x40 SWAP1 KECCAK256 SSTORE PUSH2 0x3A6 PUSH1 0x12 PUSH1 0xA PUSH2 0x55A JUMP JUMPDEST PUSH2 0x3B3 SWAP1 PUSH3 0x3D0900 PUSH2 0x56F JUMP JUMPDEST ADDRESS PUSH0 SWAP1 DUP2 MSTORE PUSH1 0x14 PUSH1 0x20 MSTORE PUSH1 0x40 DUP2 KECCAK256 SWAP2 SWAP1 SWAP2 SSTORE PUSH1 0xE0 MLOAD PUSH1 0x1 PUSH1 0x1 PUSH1 0xA0 SHL SUB AND SWAP1 PUSH0 MLOAD PUSH1 0x20 PUSH2 0x64A6 PUSH0 CODECOPY PUSH0 MLOAD SWAP1 PUSH0 MSTORE PUSH2 0x3EC PUSH1 0x12 PUSH1 0xA PUSH2 0x55A JUMP JUMPDEST PUSH2 0x3FA SWAP1 PUSH4 0x5B8D800 PUSH2 0x56F JUMP JUMPDEST PUSH1 0x40 MLOAD SWAP1 DUP2 MSTORE PUSH1 0x20 ADD PUSH1 0x40 MLOAD DUP1 SWAP2 SUB SWAP1 LOG3 ADDRESS PUSH0 PUSH0 MLOAD PUSH1 0x20 PUSH2 0x64A6 PUSH0 CODECOPY PUSH0 MLOAD SWAP1 PUSH0 MSTORE PUSH2 0x427 PUSH1 0x12 PUSH1 0xA PUSH2 0x55A JUMP JUMPDEST PUSH2 0x434 SWAP1 PUSH3 0x3D0900 PUSH2 0x56F JUMP JUMPDEST PUSH1 0x40 MLOAD SWAP1 DUP2 MSTORE PUSH1 0x20 ADD PUSH1 0x40 MLOAD DUP1 SWAP2 SUB SWAP1 LOG3 PUSH2 0x586 JUMP JUMPDEST PUSH4 0x4E487B71 PUSH1 0xE0 SHL PUSH0 MSTORE PUSH1 0x11 PUSH1 0x4 MSTORE PUSH1 0x24 PUSH0 REVERT JUMPDEST DUP1 DUP3 ADD DUP1 DUP3 GT ISZERO PUSH2 0x471 JUMPI PUSH2 0x471 PUSH2 0x44A JUMP JUMPDEST SWAP3 SWAP2 POP POP JUMP JUMPDEST PUSH1 0x1 DUP2 JUMPDEST PUSH1 0x1 DUP5 GT ISZERO PUSH2 0x4B2 JUMPI DUP1 DUP6 DIV DUP2 GT ISZERO PUSH2 0x496 JUMPI PUSH2 0x496 PUSH2 0x44A JUMP JUMPDEST PUSH1 0x1 DUP5 AND ISZERO PUSH2 0x4A4 JUMPI SWAP1 DUP2 MUL SWAP1 JUMPDEST PUSH1 0x1 SWAP4 SWAP1 SWAP4 SHR SWAP3 DUP1 MUL PUSH2 0x47B JUMP JUMPDEST SWAP4 POP SWAP4 SWAP2 POP POP JUMP JUMPDEST PUSH0 DUP3 PUSH2 0x4C8 JUMPI POP PUSH1 0x1 PUSH2 0x471 JUMP JUMPDEST DUP2 PUSH2 0x4D4 JUMPI POP PUSH0 PUSH2 0x471 JUMP JUMPDEST DUP2 PUSH1 0x1 DUP2 EQ PUSH2 0x4EA JUMPI PUSH1 0x2 DUP2 EQ PUSH2 0x4F4 JUMPI PUSH2 0x510 JUMP JUMPDEST PUSH1 0x1 SWAP2 POP POP PUSH2 0x471 JUMP JUMPDEST PUSH1 0xFF DUP5 GT ISZERO PUSH2 0x505 JUMPI PUSH2 0x505 PUSH2 0x44A JUMP JUMPDEST POP POP PUSH1 0x1 DUP3 SHL PUSH2 0x471 JUMP JUMPDEST POP PUSH1 0x20 DUP4 LT PUSH2 0x133 DUP4 LT AND PUSH1 0x4E DUP5 LT PUSH1 0xB DUP5 LT AND OR ISZERO PUSH2 0x533 JUMPI POP DUP2 DUP2 EXP PUSH2 0x471 JUMP JUMPDEST PUSH2 0x53F PUSH0 NOT DUP5 DUP5 PUSH2 0x477 JUMP JUMPDEST DUP1 PUSH0 NOT DIV DUP3 GT ISZERO PUSH2 0x552 JUMPI PUSH2 0x552 PUSH2 0x44A JUMP JUMPDEST MUL SWAP4 SWAP3 POP POP POP JUMP JUMPDEST PUSH0 PUSH2 0x568 PUSH1 0xFF DUP5 AND DUP4 PUSH2 0x4BA JUMP JUMPDEST SWAP4 SWAP3 POP POP POP JUMP JUMPDEST DUP1 DUP3 MUL DUP2 ISZERO DUP3 DUP3 DIV DUP5 EQ OR PUSH2 0x471 JUMPI PUSH2 0x471 PUSH2 0x44A JUMP JUMPDEST PUSH1 0x80 MLOAD PUSH1 0xA0 MLOAD PUSH1 0xC0 MLOAD PUSH1 0xE0 MLOAD PUSH2 0x100 MLOAD PUSH2 0x120 MLOAD PUSH2 0x140 MLOAD PUSH2 0x5D71 PUSH2 0x735 PUSH0 CODECOPY PUSH0 DUP2 DUP2 PUSH2 0x792 ADD MSTORE DUP2 DUP2 PUSH2 0x4B16 ADD MSTORE DUP2 DUP2 PUSH2 0x4B73 ADD MSTORE DUP2 DUP2 PUSH2 0x4BE5 ADD MSTORE DUP2 DUP2 PUSH2 0x4C45 ADD MSTORE PUSH2 0x4C8C ADD MSTORE PUSH0 DUP2 DUP2 PUSH2 0x768 ADD MSTORE DUP2 DUP2 PUSH2 0x4935 ADD MSTORE DUP2 DUP2 PUSH2 0x4992 ADD MSTORE DUP2 DUP2 PUSH2 0x4A03 ADD MSTORE DUP2 DUP2 PUSH2 0x4A61 ADD MSTORE PUSH2 0x4AA8 ADD MSTORE PUSH0 DUP2 DUP2 PUSH2 0x740 ADD MSTORE DUP2 DUP2 PUSH2 0x4750 ADD MSTORE DUP2 DUP2 PUSH2 0x47AD ADD MSTORE DUP2 DUP2 PUSH2 0x481F ADD MSTORE DUP2 DUP2 PUSH2 0x487F ADD MSTORE PUSH2 0x48C6 ADD MSTORE PUSH0 DUP2 DUP2 PUSH2 0x71B ADD MSTORE DUP2 DUP2 PUSH2 0x4783 ADD MSTORE DUP2 DUP2 PUSH2 0x4968 ADD MSTORE PUSH2 0x4B49 ADD MSTORE PUSH0 PUSH2 0xAF4 ADD MSTORE PUSH0 DUP2 DUP2 PUSH2 0x4CC ADD MSTORE DUP2 DUP2 PUSH2 0x9AC ADD MSTORE DUP2 DUP2 PUSH2 0x3D64 ADD MSTORE DUP2 DUP2 PUSH2 0x3D94 ADD MSTORE PUSH2 0x51BA ADD MSTORE PUSH0 DUP2 DUP2 PUSH2 0xAA8 ADD MSTORE DUP2 DUP2 PUSH2 0x1030 ADD MSTORE DUP2 DUP2 PUSH2 0x12A0 ADD MSTORE DUP2 DUP2 PUSH2 0x13C6 ADD MSTORE DUP2 DUP2 PUSH2 0x150D ADD MSTORE DUP2 DUP2 PUSH2 0x16C0 ADD MSTORE DUP2 DUP2 PUSH2 0x17AF ADD MSTORE DUP2 DUP2 PUSH2 0x1B07 ADD MSTORE DUP2 DUP2 PUSH2 0x1C37 ADD MSTORE DUP2 DUP2 PUSH2 0x1E59 ADD MSTORE DUP2 DUP2 PUSH2 0x1FF4 ADD MSTORE DUP2 DUP2 PUSH2 0x2363 ADD MSTORE DUP2 DUP2 PUSH2 0x2582 ADD MSTORE DUP2 DUP2 PUSH2 0x2689 ADD MSTORE DUP2 DUP2 PUSH2 0x2901 ADD MSTORE DUP2 DUP2 PUSH2 0x2BC6 ADD MSTORE DUP2 DUP2 PUSH2 0x2E0A ADD MSTORE DUP2 DUP2 PUSH2 0x2FD1 ADD MSTORE DUP2 DUP2 PUSH2 0x33A2 ADD MSTORE DUP2 DUP2 PUSH2 0x370C ADD MSTORE DUP2 DUP2 PUSH2 0x3A55 ADD MSTORE DUP2 DUP2 PUSH2 0x3DC3 ADD MSTORE DUP2 DUP2 PUSH2 0x40A9 ADD MSTORE DUP2 DUP2 PUSH2 0x430A ADD MSTORE DUP2 DUP2 PUSH2 0x43AB ADD MSTORE DUP2 DUP2 PUSH2 0x451F ADD MSTORE DUP2 DUP2 PUSH2 0x4579 ADD MSTORE DUP2 DUP2 PUSH2 0x5670 ADD MSTORE PUSH2 0x5705 ADD MSTORE PUSH2 0x5D71 PUSH0 RETURN INVALID PUSH1 0x80 PUSH1 0x40 MSTORE PUSH1 0x4 CALLDATASIZE LT PUSH2 0x4B3 JUMPI PUSH0 CALLDATALOAD PUSH1 0xE0 SHR DUP1 PUSH4 0x8E519677 GT PUSH2 0x26D JUMPI DUP1 PUSH4 0xC345ADC7 GT PUSH2 0x14A JUMPI DUP1 PUSH4 0xE5800210 GT PUSH2 0xBE JUMPI DUP1 PUSH4 0xF455BCC2 GT PUSH2 0x83 JUMPI DUP1 PUSH4 0xF455BCC2 EQ PUSH2 0xF8F JUMPI DUP1 PUSH4 0xF7EE7A43 EQ PUSH2 0xFAF JUMPI DUP1 PUSH4 0xF8687091 EQ PUSH2 0xFC5 JUMPI DUP1 PUSH4 0xF92142E2 EQ PUSH2 0xB16 JUMPI DUP1 PUSH4 0xFA9B7018 EQ PUSH2 0xFD9 JUMPI DUP1 PUSH4 0xFE575A87 EQ PUSH2 0xFF7 JUMPI PUSH0 PUSH0 REVERT JUMPDEST DUP1 PUSH4 0xE5800210 EQ PUSH2 0xEEE JUMPI DUP1 PUSH4 0xE75B2073 EQ PUSH2 0xF07 JUMPI DUP1 PUSH4 0xE7A486FB EQ PUSH2 0xF32 JUMPI DUP1 PUSH4 0xEE81E622 EQ PUSH2 0xF51 JUMPI DUP1 PUSH4 0xF30AFD72 EQ PUSH2 0xF70 JUMPI PUSH0 PUSH0 REVERT JUMPDEST DUP1 PUSH4 0xCFE3989C GT PUSH2 0x10F JUMPI DUP1 PUSH4 0xCFE3989C EQ PUSH2 0xE3E JUMPI DUP1 PUSH4 0xD73792A9 EQ PUSH2 0xE52 JUMPI DUP1 PUSH4 0xD859C5A6 EQ PUSH2 0xE68 JUMPI DUP1 PUSH4 0xDA35C664 EQ PUSH2 0xE87 JUMPI DUP1 PUSH4 0xDD62ED3E EQ PUSH2 0xE9C JUMPI DUP1 PUSH4 0xDF7787A4 EQ PUSH2 0xED2 JUMPI PUSH0 PUSH0 REVERT JUMPDEST DUP1 PUSH4 0xC345ADC7 EQ PUSH2 0xDB9 JUMPI DUP1 PUSH4 0xC58E186B EQ PUSH2 0xDCD JUMPI DUP1 PUSH4 0xC71E2825 EQ PUSH2 0xDEC JUMPI DUP1 PUSH4 0xC9B49C28 EQ PUSH2 0xE0B JUMPI DUP1 PUSH4 0xCAB21623 EQ PUSH2 0xE1F JUMPI PUSH0 PUSH0 REVERT JUMPDEST DUP1 PUSH4 0xA9059CBB GT PUSH2 0x1E1 JUMPI DUP1 PUSH4 0xB6CF146C GT PUSH2 0x1A6 JUMPI DUP1 PUSH4 0xB6CF146C EQ PUSH2 0xCA9 JUMPI DUP1 PUSH4 0xB6EA231E EQ PUSH2 0xCC8 JUMPI DUP1 PUSH4 0xBAEE0BAD EQ PUSH2 0xD2D JUMPI DUP1 PUSH4 0xBE597D3D EQ PUSH2 0xD4C JUMPI DUP1 PUSH4 0xBEB0A416 EQ PUSH2 0xD60 JUMPI DUP1 PUSH4 0xC0E5DADA EQ PUSH2 0xD9A JUMPI PUSH0 PUSH0 REVERT JUMPDEST DUP1 PUSH4 0xA9059CBB EQ PUSH2 0xC2C JUMPI DUP1 PUSH4 0xAA719A3C EQ PUSH2 0xC4B JUMPI DUP1 PUSH4 0xB187BD26 EQ PUSH2 0xC6A JUMPI DUP1 PUSH4 0xB3670038 EQ PUSH2 0xC80 JUMPI DUP1 PUSH4 0xB51FDDFB EQ PUSH2 0xC95 JUMPI PUSH0 PUSH0 REVERT JUMPDEST DUP1 PUSH4 0x9D249A18 GT PUSH2 0x232 JUMPI DUP1 PUSH4 0x9D249A18 EQ PUSH2 0xB7A JUMPI DUP1 PUSH4 0x9D463520 EQ PUSH2 0xB96 JUMPI DUP1 PUSH4 0x9F357D93 EQ PUSH2 0xBAB JUMPI DUP1 PUSH4 0xA20CC635 EQ PUSH2 0xBCA JUMPI DUP1 PUSH4 0xA457C2D7 EQ PUSH2 0xBE9 JUMPI DUP1 PUSH4 0xA4FCD4C2 EQ PUSH2 0xC08 JUMPI PUSH0 PUSH0 REVERT JUMPDEST DUP1 PUSH4 0x8E519677 EQ PUSH2 0xACA JUMPI DUP1 PUSH4 0x92108C86 EQ PUSH2 0xAE3 JUMPI DUP1 PUSH4 0x92FDE373 EQ PUSH2 0xB16 JUMPI DUP1 PUSH4 0x95D89B41 EQ PUSH2 0xB2C JUMPI DUP1 PUSH4 0x975AFBC0 EQ PUSH2 0xB5B JUMPI PUSH0 PUSH0 REVERT JUMPDEST DUP1 PUSH4 0x3BF8FE4C GT PUSH2 0x39B JUMPI DUP1 PUSH4 0x66716790 GT PUSH2 0x30F JUMPI DUP1 PUSH4 0x77EBD0E9 GT PUSH2 0x2D4 JUMPI DUP1 PUSH4 0x77EBD0E9 EQ PUSH2 0xA0D JUMPI DUP1 PUSH4 0x79E8A2B7 EQ PUSH2 0xA2C JUMPI DUP1 PUSH4 0x8456CB59 EQ PUSH2 0xA4B JUMPI DUP1 PUSH4 0x888933DA EQ PUSH2 0xA5F JUMPI DUP1 PUSH4 0x8C846502 EQ PUSH2 0xA78 JUMPI DUP1 PUSH4 0x8DA5CB5B EQ PUSH2 0xA97 JUMPI PUSH0 PUSH0 REVERT JUMPDEST DUP1 PUSH4 0x66716790 EQ PUSH2 0x967 JUMPI DUP1 PUSH4 0x6E99D52F EQ PUSH2 0x986 JUMPI DUP1 PUSH4 0x6FD8FB7A EQ PUSH2 0x99B JUMPI DUP1 PUSH4 0x70330AE1 EQ PUSH2 0x9CE JUMPI DUP1 PUSH4 0x70A08231 EQ PUSH2 0x9E2 JUMPI PUSH0 PUSH0 REVERT JUMPDEST DUP1 PUSH4 0x535CBFCD GT PUSH2 0x360 JUMPI DUP1 PUSH4 0x535CBFCD EQ PUSH2 0x8B4 JUMPI DUP1 PUSH4 0x537DF3B6 EQ PUSH2 0x8C8 JUMPI DUP1 PUSH4 0x57376198 EQ PUSH2 0x8E7 JUMPI DUP1 PUSH4 0x5A5759B4 EQ PUSH2 0x906 JUMPI DUP1 PUSH4 0x5C9A05B8 EQ PUSH2 0x925 JUMPI DUP1 PUSH4 0x5DAB0FE3 EQ PUSH2 0x953 JUMPI PUSH0 PUSH0 REVERT JUMPDEST DUP1 PUSH4 0x3BF8FE4C EQ PUSH2 0x845 JUMPI DUP1 PUSH4 0x3ED44603 EQ PUSH2 0x859 JUMPI DUP1 PUSH4 0x42966C68 EQ PUSH2 0x86D JUMPI DUP1 PUSH4 0x44C781C9 EQ PUSH2 0x88C JUMPI DUP1 PUSH4 0x480DF058 EQ PUSH2 0x8A0 JUMPI PUSH0 PUSH0 REVERT JUMPDEST DUP1 PUSH4 0x17E13952 GT PUSH2 0x432 JUMPI DUP1 PUSH4 0x23B872DD GT PUSH2 0x3F7 JUMPI DUP1 PUSH4 0x23B872DD EQ PUSH2 0x6E2 JUMPI DUP1 PUSH4 0x2BF9DB79 EQ PUSH2 0x701 JUMPI DUP1 PUSH4 0x313CE567 EQ PUSH2 0x7C2 JUMPI DUP1 PUSH4 0x368F505C EQ PUSH2 0x7E8 JUMPI DUP1 PUSH4 0x39509351 EQ PUSH2 0x807 JUMPI DUP1 PUSH4 0x3ABC97E5 EQ PUSH2 0x826 JUMPI PUSH0 PUSH0 REVERT JUMPDEST DUP1 PUSH4 0x17E13952 EQ PUSH2 0x665 JUMPI DUP1 PUSH4 0x18160DDD EQ PUSH2 0x684 JUMPI DUP1 PUSH4 0x1D111D13 EQ PUSH2 0x699 JUMPI DUP1 PUSH4 0x21B4DEEE EQ PUSH2 0x6AD JUMPI DUP1 PUSH4 0x23876064 EQ PUSH2 0x6C3 JUMPI PUSH0 PUSH0 REVERT JUMPDEST DUP1 PUSH4 0x107BD32F GT PUSH2 0x478 JUMPI DUP1 PUSH4 0x107BD32F EQ PUSH2 0x5BD JUMPI DUP1 PUSH4 0x1451DD43 EQ PUSH2 0x5E0 JUMPI DUP1 PUSH4 0x1516DEF7 EQ PUSH2 0x5FC JUMPI DUP1 PUSH4 0x153B0D1E EQ PUSH2 0x61B JUMPI DUP1 PUSH4 0x16819578 EQ PUSH2 0x63A JUMPI PUSH0 PUSH0 REVERT JUMPDEST DUP1 PUSH4 0x64A59D0 EQ PUSH2 0x4BE JUMPI DUP1 PUSH4 0x6FDDE03 EQ PUSH2 0x504 JUMPI DUP1 PUSH4 0x721842E EQ PUSH2 0x546 JUMPI DUP1 PUSH4 0x77F2CFC EQ PUSH2 0x57D JUMPI DUP1 PUSH4 0x95EA7B3 EQ PUSH2 0x59E JUMPI PUSH0 PUSH0 REVERT JUMPDEST CALLDATASIZE PUSH2 0x4BA JUMPI STOP JUMPDEST PUSH0 PUSH0 REVERT JUMPDEST CALLVALUE DUP1 ISZERO PUSH2 0x4C9 JUMPI PUSH0 PUSH0 REVERT JUMPDEST POP PUSH32 0x0 TIMESTAMP LT ISZERO JUMPDEST PUSH1 0x40 MLOAD SWAP1 ISZERO ISZERO DUP2 MSTORE PUSH1 0x20 ADD JUMPDEST PUSH1 0x40 MLOAD DUP1 SWAP2 SUB SWAP1 RETURN JUMPDEST CALLVALUE DUP1 ISZERO PUSH2 0x50F JUMPI PUSH0 PUSH0 REVERT JUMPDEST POP PUSH2 0x539 PUSH1 0x40 MLOAD DUP1 PUSH1 0x40 ADD PUSH1 0x40 MSTORE DUP1 PUSH1 0xA DUP2 MSTORE PUSH1 0x20 ADD PUSH10 0x4B43592D6D656D652D31 PUSH1 0xB0 SHL DUP2 MSTORE POP DUP2 JUMP JUMPDEST PUSH1 0x40 MLOAD PUSH2 0x4FB SWAP2 SWAP1 PUSH2 0x5864 JUMP JUMPDEST CALLVALUE DUP1 ISZERO PUSH2 0x551 JUMPI PUSH0 PUSH0 REVERT JUMPDEST POP PUSH1 0x5 SLOAD PUSH2 0x565 SWAP1 PUSH1 0x1 PUSH1 0x1 PUSH1 0xA0 SHL SUB AND DUP2 JUMP JUMPDEST PUSH1 0x40 MLOAD PUSH1 0x1 PUSH1 0x1 PUSH1 0xA0 SHL SUB SWAP1 SWAP2 AND DUP2 MSTORE PUSH1 0x20 ADD PUSH2 0x4FB JUMP JUMPDEST CALLVALUE DUP1 ISZERO PUSH2 0x588 JUMPI PUSH0 PUSH0 REVERT JUMPDEST POP PUSH2 0x59C PUSH2 0x597 CALLDATASIZE PUSH1 0x4 PUSH2 0x58B0 JUMP JUMPDEST PUSH2 0x1025 JUMP JUMPDEST STOP JUMPDEST CALLVALUE DUP1 ISZERO PUSH2 0x5A9 JUMPI PUSH0 PUSH0 REVERT JUMPDEST POP PUSH2 0x4EF PUSH2 0x5B8 CALLDATASIZE PUSH1 0x4 PUSH2 0x58CB JUMP JUMPDEST PUSH2 0x123C JUMP JUMPDEST CALLVALUE DUP1 ISZERO PUSH2 0x5C8 JUMPI PUSH0 PUSH0 REVERT JUMPDEST POP PUSH2 0x5D2 PUSH1 0x11 SLOAD DUP2 JUMP JUMPDEST PUSH1 0x40 MLOAD SWAP1 DUP2 MSTORE PUSH1 0x20 ADD PUSH2 0x4FB JUMP JUMPDEST CALLVALUE DUP1 ISZERO PUSH2 0x5EB JUMPI PUSH0 PUSH0 REVERT JUMPDEST POP PUSH2 0x5D2 PUSH9 0x6C6B935B8BBD400000 DUP2 JUMP JUMPDEST CALLVALUE DUP1 ISZERO PUSH2 0x607 JUMPI PUSH0 PUSH0 REVERT JUMPDEST POP PUSH1 0xE SLOAD PUSH2 0x565 SWAP1 PUSH1 0x1 PUSH1 0x1 PUSH1 0xA0 SHL SUB AND DUP2 JUMP JUMPDEST CALLVALUE DUP1 ISZERO PUSH2 0x626 JUMPI PUSH0 PUSH0 REVERT JUMPDEST POP PUSH2 0x59C PUSH2 0x635 CALLDATASIZE PUSH1 0x4 PUSH2 0x5902 JUMP JUMPDEST PUSH2 0x1295 JUMP JUMPDEST CALLVALUE DUP1 ISZERO PUSH2 0x645 JUMPI PUSH0 PUSH0 REVERT JUMPDEST POP PUSH2 0x5D2 PUSH2 0x654 CALLDATASIZE PUSH1 0x4 PUSH2 0x58B0 JUMP JUMPDEST PUSH1 0x17 PUSH1 0x20 MSTORE PUSH0 SWAP1 DUP2 MSTORE PUSH1 0x40 SWAP1 KECCAK256 SLOAD DUP2 JUMP JUMPDEST CALLVALUE DUP1 ISZERO PUSH2 0x670 JUMPI PUSH0 PUSH0 REVERT JUMPDEST POP PUSH1 0x8 SLOAD PUSH2 0x565 SWAP1 PUSH1 0x1 PUSH1 0x1 PUSH1 0xA0 SHL SUB AND DUP2 JUMP JUMPDEST CALLVALUE DUP1 ISZERO PUSH2 0x68F JUMPI PUSH0 PUSH0 REVERT JUMPDEST POP PUSH2 0x5D2 PUSH1 0x1 SLOAD DUP2 JUMP JUMPDEST CALLVALUE DUP1 ISZERO PUSH2 0x6A4 JUMPI PUSH0 PUSH0 REVERT JUMPDEST POP PUSH2 0x59C PUSH2 0x1502 JUMP JUMPDEST CALLVALUE DUP1 ISZERO PUSH2 0x6B8 JUMPI PUSH0 PUSH0 REVERT JUMPDEST POP PUSH2 0x5D2 PUSH3 0x2A300 DUP2 JUMP JUMPDEST CALLVALUE DUP1 ISZERO PUSH2 0x6CE JUMPI PUSH0 PUSH0 REVERT JUMPDEST POP PUSH2 0x59C PUSH2 0x6DD CALLDATASIZE PUSH1 0x4 PUSH2 0x5902 JUMP JUMPDEST PUSH2 0x17A4 JUMP JUMPDEST CALLVALUE DUP1 ISZERO PUSH2 0x6ED JUMPI PUSH0 PUSH0 REVERT JUMPDEST POP PUSH2 0x4EF PUSH2 0x6FC CALLDATASIZE PUSH1 0x4 PUSH2 0x5939 JUMP JUMPDEST PUSH2 0x1A23 JUMP JUMPDEST CALLVALUE DUP1 ISZERO PUSH2 0x70C JUMPI PUSH0 PUSH0 REVERT JUMPDEST POP PUSH1 0x40 DUP1 MLOAD PUSH1 0x1 PUSH1 0x1 PUSH1 0xA0 SHL SUB PUSH32 0x0 DUP2 AND DUP3 MSTORE PUSH32 0x0 DUP2 AND PUSH1 0x20 DUP4 ADD MSTORE PUSH32 0x0 DUP2 AND SWAP3 DUP3 ADD SWAP3 SWAP1 SWAP3 MSTORE PUSH32 0x0 SWAP2 SWAP1 SWAP2 AND PUSH1 0x60 DUP3 ADD MSTORE PUSH1 0x80 ADD PUSH2 0x4FB JUMP JUMPDEST CALLVALUE DUP1 ISZERO PUSH2 0x7CD JUMPI PUSH0 PUSH0 REVERT JUMPDEST POP PUSH2 0x7D6 PUSH1 0x12 DUP2 JUMP JUMPDEST PUSH1 0x40 MLOAD PUSH1 0xFF SWAP1 SWAP2 AND DUP2 MSTORE PUSH1 0x20 ADD PUSH2 0x4FB JUMP JUMPDEST CALLVALUE DUP1 ISZERO PUSH2 0x7F3 JUMPI PUSH0 PUSH0 REVERT JUMPDEST POP PUSH1 0xB SLOAD PUSH2 0x565 SWAP1 PUSH1 0x1 PUSH1 0x1 PUSH1 0xA0 SHL SUB AND DUP2 JUMP JUMPDEST CALLVALUE DUP1 ISZERO PUSH2 0x812 JUMPI PUSH0 PUSH0 REVERT JUMPDEST POP PUSH2 0x4EF PUSH2 0x821 CALLDATASIZE PUSH1 0x4 PUSH2 0x58CB JUMP JUMPDEST PUSH2 0x1AC1 JUMP JUMPDEST CALLVALUE DUP1 ISZERO PUSH2 0x831 JUMPI PUSH0 PUSH0 REVERT JUMPDEST POP PUSH2 0x59C PUSH2 0x840 CALLDATASIZE PUSH1 0x4 PUSH2 0x59BF JUMP JUMPDEST PUSH2 0x1AFC JUMP JUMPDEST CALLVALUE DUP1 ISZERO PUSH2 0x850 JUMPI PUSH0 PUSH0 REVERT JUMPDEST POP PUSH2 0x59C PUSH2 0x1DC5 JUMP JUMPDEST CALLVALUE DUP1 ISZERO PUSH2 0x864 JUMPI PUSH0 PUSH0 REVERT JUMPDEST POP PUSH2 0x59C PUSH2 0x1E4E JUMP JUMPDEST CALLVALUE DUP1 ISZERO PUSH2 0x878 JUMPI PUSH0 PUSH0 REVERT JUMPDEST POP PUSH2 0x59C PUSH2 0x887 CALLDATASIZE PUSH1 0x4 PUSH2 0x5A12 JUMP JUMPDEST PUSH2 0x1FE9 JUMP JUMPDEST CALLVALUE DUP1 ISZERO PUSH2 0x897 JUMPI PUSH0 PUSH0 REVERT JUMPDEST POP PUSH2 0x5D2 PUSH2 0x21BC JUMP JUMPDEST CALLVALUE DUP1 ISZERO PUSH2 0x8AB JUMPI PUSH0 PUSH0 REVERT JUMPDEST POP PUSH2 0x5D2 PUSH1 0x1E DUP2 JUMP JUMPDEST CALLVALUE DUP1 ISZERO PUSH2 0x8BF JUMPI PUSH0 PUSH0 REVERT JUMPDEST POP PUSH2 0x5D2 PUSH2 0x21FD JUMP JUMPDEST CALLVALUE DUP1 ISZERO PUSH2 0x8D3 JUMPI PUSH0 PUSH0 REVERT JUMPDEST POP PUSH2 0x59C PUSH2 0x8E2 CALLDATASIZE PUSH1 0x4 PUSH2 0x58B0 JUMP JUMPDEST PUSH2 0x226C JUMP JUMPDEST CALLVALUE DUP1 ISZERO PUSH2 0x8F2 JUMPI PUSH0 PUSH0 REVERT JUMPDEST POP PUSH2 0x59C PUSH2 0x901 CALLDATASIZE PUSH1 0x4 PUSH2 0x58CB JUMP JUMPDEST PUSH2 0x2358 JUMP JUMPDEST CALLVALUE DUP1 ISZERO PUSH2 0x911 JUMPI PUSH0 PUSH0 REVERT JUMPDEST POP PUSH2 0x4EF PUSH2 0x920 CALLDATASIZE PUSH1 0x4 PUSH2 0x58B0 JUMP JUMPDEST PUSH2 0x2686 JUMP JUMPDEST CALLVALUE DUP1 ISZERO PUSH2 0x930 JUMPI PUSH0 PUSH0 REVERT JUMPDEST POP PUSH2 0x4EF PUSH2 0x93F CALLDATASIZE PUSH1 0x4 PUSH2 0x58B0 JUMP JUMPDEST PUSH1 0x12 PUSH1 0x20 MSTORE PUSH0 SWAP1 DUP2 MSTORE PUSH1 0x40 SWAP1 KECCAK256 SLOAD PUSH1 0xFF AND DUP2 JUMP JUMPDEST CALLVALUE DUP1 ISZERO PUSH2 0x95E JUMPI PUSH0 PUSH0 REVERT JUMPDEST POP PUSH2 0x5D2 PUSH1 0x32 DUP2 JUMP JUMPDEST CALLVALUE DUP1 ISZERO PUSH2 0x972 JUMPI PUSH0 PUSH0 REVERT JUMPDEST POP PUSH2 0x565 PUSH2 0x981 CALLDATASIZE PUSH1 0x4 PUSH2 0x58B0 JUMP JUMPDEST PUSH2 0x27F2 JUMP JUMPDEST CALLVALUE DUP1 ISZERO PUSH2 0x991 JUMPI PUSH0 PUSH0 REVERT JUMPDEST POP PUSH2 0x5D2 PUSH2 0x1C20 DUP2 JUMP JUMPDEST CALLVALUE DUP1 ISZERO PUSH2 0x9A6 JUMPI PUSH0 PUSH0 REVERT JUMPDEST POP PUSH2 0x5D2 PUSH32 0x0 DUP2 JUMP JUMPDEST CALLVALUE DUP1 ISZERO PUSH2 0x9D9 JUMPI PUSH0 PUSH0 REVERT JUMPDEST POP PUSH2 0x59C PUSH2 0x28F6 JUMP JUMPDEST CALLVALUE DUP1 ISZERO PUSH2 0x9ED JUMPI PUSH0 PUSH0 REVERT JUMPDEST POP PUSH2 0x5D2 PUSH2 0x9FC CALLDATASIZE PUSH1 0x4 PUSH2 0x58B0 JUMP JUMPDEST PUSH1 0x14 PUSH1 0x20 MSTORE PUSH0 SWAP1 DUP2 MSTORE PUSH1 0x40 SWAP1 KECCAK256 SLOAD DUP2 JUMP JUMPDEST CALLVALUE DUP1 ISZERO PUSH2 0xA18 JUMPI PUSH0 PUSH0 REVERT JUMPDEST POP PUSH2 0x59C PUSH2 0xA27 CALLDATASIZE PUSH1 0x4 PUSH2 0x5A29 JUMP JUMPDEST PUSH2 0x2A5C JUMP JUMPDEST CALLVALUE DUP1 ISZERO PUSH2 0xA37 JUMPI PUSH0 PUSH0 REVERT JUMPDEST POP PUSH1 0x10 SLOAD PUSH2 0x565 SWAP1 PUSH1 0x1 PUSH1 0x1 PUSH1 0xA0 SHL SUB AND DUP2 JUMP JUMPDEST CALLVALUE DUP1 ISZERO PUSH2 0xA56 JUMPI PUSH0 PUSH0 REVERT JUMPDEST POP PUSH2 0x59C PUSH2 0x2BBB JUMP JUMPDEST CALLVALUE DUP1 ISZERO PUSH2 0xA6A JUMPI PUSH0 PUSH0 REVERT JUMPDEST POP PUSH1 0x2 SLOAD PUSH2 0x4EF SWAP1 PUSH1 0xFF AND DUP2 JUMP JUMPDEST CALLVALUE DUP1 ISZERO PUSH2 0xA83 JUMPI PUSH0 PUSH0 REVERT JUMPDEST POP PUSH1 0xF SLOAD PUSH2 0x565 SWAP1 PUSH1 0x1 PUSH1 0x1 PUSH1 0xA0 SHL SUB AND DUP2 JUMP JUMPDEST CALLVALUE DUP1 ISZERO PUSH2 0xAA2 JUMPI PUSH0 PUSH0 REVERT JUMPDEST POP PUSH2 0x565 PUSH32 0x0 DUP2 JUMP JUMPDEST CALLVALUE DUP1 ISZERO PUSH2 0xAD5 JUMPI PUSH0 PUSH0 REVERT JUMPDEST POP PUSH1 0x13 SLOAD PUSH2 0x4EF SWAP1 PUSH1 0xFF AND DUP2 JUMP JUMPDEST CALLVALUE DUP1 ISZERO PUSH2 0xAEE JUMPI PUSH0 PUSH0 REVERT JUMPDEST POP PUSH2 0x4EF PUSH32 0x0 DUP2 JUMP JUMPDEST CALLVALUE DUP1 ISZERO PUSH2 0xB21 JUMPI PUSH0 PUSH0 REVERT JUMPDEST POP PUSH2 0x5D2 PUSH3 0x15180 DUP2 JUMP JUMPDEST CALLVALUE DUP1 ISZERO PUSH2 0xB37 JUMPI PUSH0 PUSH0 REVERT JUMPDEST POP PUSH2 0x539 PUSH1 0x40 MLOAD DUP1 PUSH1 0x40 ADD PUSH1 0x40 MSTORE DUP1 PUSH1 0x4 DUP2 MSTORE PUSH1 0x20 ADD PUSH4 0x4B435931 PUSH1 0xE0 SHL DUP2 MSTORE POP DUP2 JUMP JUMPDEST CALLVALUE DUP1 ISZERO PUSH2 0xB66 JUMPI PUSH0 PUSH0 REVERT JUMPDEST POP PUSH1 0xC SLOAD PUSH2 0x565 SWAP1 PUSH1 0x1 PUSH1 0x1 PUSH1 0xA0 SHL SUB AND DUP2 JUMP JUMPDEST CALLVALUE DUP1 ISZERO PUSH2 0xB85 JUMPI PUSH0 PUSH0 REVERT JUMPDEST POP PUSH2 0x5D2 PUSH9 0x56BC75E2D63100000 DUP2 JUMP JUMPDEST CALLVALUE DUP1 ISZERO PUSH2 0xBA1 JUMPI PUSH0 PUSH0 REVERT JUMPDEST POP PUSH2 0x5D2 PUSH1 0x19 SLOAD DUP2 JUMP JUMPDEST CALLVALUE DUP1 ISZERO PUSH2 0xBB6 JUMPI PUSH0 PUSH0 REVERT JUMPDEST POP PUSH1 0xA SLOAD PUSH2 0x565 SWAP1 PUSH1 0x1 PUSH1 0x1 PUSH1 0xA0 SHL SUB AND DUP2 JUMP JUMPDEST CALLVALUE DUP1 ISZERO PUSH2 0xBD5 JUMPI PUSH0 PUSH0 REVERT JUMPDEST POP PUSH1 0x4 SLOAD PUSH2 0x565 SWAP1 PUSH1 0x1 PUSH1 0x1 PUSH1 0xA0 SHL SUB AND DUP2 JUMP JUMPDEST CALLVALUE DUP1 ISZERO PUSH2 0xBF4 JUMPI PUSH0 PUSH0 REVERT JUMPDEST POP PUSH2 0x4EF PUSH2 0xC03 CALLDATASIZE PUSH1 0x4 PUSH2 0x58CB JUMP JUMPDEST PUSH2 0x2D1F JUMP JUMPDEST CALLVALUE DUP1 ISZERO PUSH2 0xC13 JUMPI PUSH0 PUSH0 REVERT JUMPDEST POP PUSH2 0xC1C PUSH2 0x2D99 JUMP JUMPDEST PUSH1 0x40 MLOAD PUSH2 0x4FB SWAP5 SWAP4 SWAP3 SWAP2 SWAP1 PUSH2 0x5A68 JUMP JUMPDEST CALLVALUE DUP1 ISZERO PUSH2 0xC37 JUMPI PUSH0 PUSH0 REVERT JUMPDEST POP PUSH2 0x4EF PUSH2 0xC46 CALLDATASIZE PUSH1 0x4 PUSH2 0x58CB JUMP JUMPDEST PUSH2 0x2DEC JUMP JUMPDEST CALLVALUE DUP1 ISZERO PUSH2 0xC56 JUMPI PUSH0 PUSH0 REVERT JUMPDEST POP PUSH1 0x9 SLOAD PUSH2 0x565 SWAP1 PUSH1 0x1 PUSH1 0x1 PUSH1 0xA0 SHL SUB AND DUP2 JUMP JUMPDEST CALLVALUE DUP1 ISZERO PUSH2 0xC75 JUMPI PUSH0 PUSH0 REVERT JUMPDEST POP PUSH1 0x3 SLOAD TIMESTAMP LT PUSH2 0x4EF JUMP JUMPDEST CALLVALUE DUP1 ISZERO PUSH2 0xC8B JUMPI PUSH0 PUSH0 REVERT JUMPDEST POP PUSH2 0x5D2 PUSH1 0x3 SLOAD DUP2 JUMP JUMPDEST CALLVALUE DUP1 ISZERO PUSH2 0xCA0 JUMPI PUSH0 PUSH0 REVERT JUMPDEST POP PUSH2 0x59C PUSH2 0x2DFF JUMP JUMPDEST CALLVALUE DUP1 ISZERO PUSH2 0xCB4 JUMPI PUSH0 PUSH0 REVERT JUMPDEST POP PUSH2 0x59C PUSH2 0xCC3 CALLDATASIZE PUSH1 0x4 PUSH2 0x5A12 JUMP JUMPDEST PUSH2 0x2FC6 JUMP JUMPDEST CALLVALUE DUP1 ISZERO PUSH2 0xCD3 JUMPI PUSH0 PUSH0 REVERT JUMPDEST POP PUSH2 0xD0B PUSH2 0xCE2 CALLDATASIZE PUSH1 0x4 PUSH2 0x5A12 JUMP JUMPDEST PUSH1 0x1A PUSH1 0x20 MSTORE PUSH0 SWAP1 DUP2 MSTORE PUSH1 0x40 SWAP1 KECCAK256 DUP1 SLOAD PUSH1 0x1 DUP3 ADD SLOAD PUSH1 0x2 DUP4 ADD SLOAD PUSH1 0x3 SWAP1 SWAP4 ADD SLOAD SWAP2 SWAP3 SWAP1 SWAP2 PUSH1 0xFF AND DUP5 JUMP JUMPDEST PUSH1 0x40 DUP1 MLOAD SWAP5 DUP6 MSTORE PUSH1 0x20 DUP6 ADD SWAP4 SWAP1 SWAP4 MSTORE SWAP2 DUP4 ADD MSTORE ISZERO ISZERO PUSH1 0x60 DUP3 ADD MSTORE PUSH1 0x80 ADD PUSH2 0x4FB JUMP JUMPDEST CALLVALUE DUP1 ISZERO PUSH2 0xD38 JUMPI PUSH0 PUSH0 REVERT JUMPDEST POP PUSH1 0x6 SLOAD PUSH2 0x565 SWAP1 PUSH1 0x1 PUSH1 0x1 PUSH1 0xA0 SHL SUB AND DUP2 JUMP JUMPDEST CALLVALUE DUP1 ISZERO PUSH2 0xD57 JUMPI PUSH0 PUSH0 REVERT JUMPDEST POP PUSH2 0x59C PUSH2 0x3311 JUMP JUMPDEST CALLVALUE DUP1 ISZERO PUSH2 0xD6B JUMPI PUSH0 PUSH0 REVERT JUMPDEST POP PUSH2 0x539 PUSH1 0x40 MLOAD DUP1 PUSH1 0x40 ADD PUSH1 0x40 MSTORE DUP1 PUSH1 0xF DUP2 MSTORE PUSH1 0x20 ADD PUSH15 0x68747470733A2F2F6B6379312E696F PUSH1 0x88 SHL DUP2 MSTORE POP DUP2 JUMP JUMPDEST CALLVALUE DUP1 ISZERO PUSH2 0xDA5 JUMPI PUSH0 PUSH0 REVERT JUMPDEST POP PUSH2 0x59C PUSH2 0xDB4 CALLDATASIZE PUSH1 0x4 PUSH2 0x5AC4 JUMP JUMPDEST PUSH2 0x3397 JUMP JUMPDEST CALLVALUE DUP1 ISZERO PUSH2 0xDC4 JUMPI PUSH0 PUSH0 REVERT JUMPDEST POP PUSH2 0x59C PUSH2 0x3683 JUMP JUMPDEST CALLVALUE DUP1 ISZERO PUSH2 0xDD8 JUMPI PUSH0 PUSH0 REVERT JUMPDEST POP PUSH1 0x7 SLOAD PUSH2 0x565 SWAP1 PUSH1 0x1 PUSH1 0x1 PUSH1 0xA0 SHL SUB AND DUP2 JUMP JUMPDEST CALLVALUE DUP1 ISZERO PUSH2 0xDF7 JUMPI PUSH0 PUSH0 REVERT JUMPDEST POP PUSH2 0x4EF PUSH2 0xE06 CALLDATASIZE PUSH1 0x4 PUSH2 0x58B0 JUMP JUMPDEST PUSH2 0x3709 JUMP JUMPDEST CALLVALUE DUP1 ISZERO PUSH2 0xE16 JUMPI PUSH0 PUSH0 REVERT JUMPDEST POP PUSH2 0x5D2 PUSH2 0x3832 JUMP JUMPDEST CALLVALUE DUP1 ISZERO PUSH2 0xE2A JUMPI PUSH0 PUSH0 REVERT JUMPDEST POP PUSH2 0x59C PUSH2 0xE39 CALLDATASIZE PUSH1 0x4 PUSH2 0x5AF0 JUMP JUMPDEST PUSH2 0x385A JUMP JUMPDEST CALLVALUE DUP1 ISZERO PUSH2 0xE49 JUMPI PUSH0 PUSH0 REVERT JUMPDEST POP PUSH2 0x5D2 PUSH2 0x3D61 JUMP JUMPDEST CALLVALUE DUP1 ISZERO PUSH2 0xE5D JUMPI PUSH0 PUSH0 REVERT JUMPDEST POP PUSH2 0x5D2 PUSH3 0x186A0 DUP2 JUMP JUMPDEST CALLVALUE DUP1 ISZERO PUSH2 0xE73 JUMPI PUSH0 PUSH0 REVERT JUMPDEST POP PUSH2 0x59C PUSH2 0xE82 CALLDATASIZE PUSH1 0x4 PUSH2 0x59BF JUMP JUMPDEST PUSH2 0x3DB8 JUMP JUMPDEST CALLVALUE DUP1 ISZERO PUSH2 0xE92 JUMPI PUSH0 PUSH0 REVERT JUMPDEST POP PUSH2 0x5D2 PUSH1 0x1B SLOAD DUP2 JUMP JUMPDEST CALLVALUE DUP1 ISZERO PUSH2 0xEA7 JUMPI PUSH0 PUSH0 REVERT JUMPDEST POP PUSH2 0x5D2 PUSH2 0xEB6 CALLDATASIZE PUSH1 0x4 PUSH2 0x5AC4 JUMP JUMPDEST PUSH1 0x15 PUSH1 0x20 SWAP1 DUP2 MSTORE PUSH0 SWAP3 DUP4 MSTORE PUSH1 0x40 DUP1 DUP5 KECCAK256 SWAP1 SWAP2 MSTORE SWAP1 DUP3 MSTORE SWAP1 KECCAK256 SLOAD DUP2 JUMP JUMPDEST CALLVALUE DUP1 ISZERO PUSH2 0xEDD JUMPI PUSH0 PUSH0 REVERT JUMPDEST POP PUSH2 0x5D2 PUSH9 0xD8D726B7177A800000 DUP2 JUMP JUMPDEST CALLVALUE DUP1 ISZERO PUSH2 0xEF9 JUMPI PUSH0 PUSH0 REVERT JUMPDEST POP PUSH1 0x1C SLOAD PUSH2 0x4EF SWAP1 PUSH1 0xFF AND DUP2 JUMP JUMPDEST CALLVALUE DUP1 ISZERO PUSH2 0xF12 JUMPI PUSH0 PUSH0 REVERT JUMPDEST POP PUSH2 0x5D2 PUSH2 0xF21 CALLDATASIZE PUSH1 0x4 PUSH2 0x58B0 JUMP JUMPDEST PUSH1 0x16 PUSH1 0x20 MSTORE PUSH0 SWAP1 DUP2 MSTORE PUSH1 0x40 SWAP1 KECCAK256 SLOAD DUP2 JUMP JUMPDEST CALLVALUE DUP1 ISZERO PUSH2 0xF3D JUMPI PUSH0 PUSH0 REVERT JUMPDEST POP PUSH2 0x59C PUSH2 0xF4C CALLDATASIZE PUSH1 0x4 PUSH2 0x5A12 JUMP JUMPDEST PUSH2 0x409E JUMP JUMPDEST CALLVALUE DUP1 ISZERO PUSH2 0xF5C JUMPI PUSH0 PUSH0 REVERT JUMPDEST POP PUSH2 0x59C PUSH2 0xF6B CALLDATASIZE PUSH1 0x4 PUSH2 0x5A12 JUMP JUMPDEST PUSH2 0x43A0 JUMP JUMPDEST CALLVALUE DUP1 ISZERO PUSH2 0xF7B JUMPI PUSH0 PUSH0 REVERT JUMPDEST POP PUSH1 0xD SLOAD PUSH2 0x565 SWAP1 PUSH1 0x1 PUSH1 0x1 PUSH1 0xA0 SHL SUB AND DUP2 JUMP JUMPDEST CALLVALUE DUP1 ISZERO PUSH2 0xF9A JUMPI PUSH0 PUSH0 REVERT JUMPDEST POP PUSH1 0x10 SLOAD PUSH2 0x4EF SWAP1 PUSH1 0x1 PUSH1 0xA0 SHL SWAP1 DIV PUSH1 0xFF AND DUP2 JUMP JUMPDEST CALLVALUE DUP1 ISZERO PUSH2 0xFBA JUMPI PUSH0 PUSH0 REVERT JUMPDEST POP PUSH2 0x5D2 PUSH3 0x93A80 DUP2 JUMP JUMPDEST CALLVALUE DUP1 ISZERO PUSH2 0xFD0 JUMPI PUSH0 PUSH0 REVERT JUMPDEST POP PUSH2 0x59C PUSH2 0x456E JUMP JUMPDEST CALLVALUE DUP1 ISZERO PUSH2 0xFE4 JUMPI PUSH0 PUSH0 REVERT JUMPDEST POP PUSH2 0x5D2 PUSH11 0x422CA8B0A00A425000000 DUP2 JUMP JUMPDEST CALLVALUE DUP1 ISZERO PUSH2 0x1002 JUMPI PUSH0 PUSH0 REVERT JUMPDEST POP PUSH2 0x4EF PUSH2 0x1011 CALLDATASIZE PUSH1 0x4 PUSH2 0x58B0 JUMP JUMPDEST PUSH1 0x18 PUSH1 0x20 MSTORE PUSH0 SWAP1 DUP2 MSTORE PUSH1 0x40 SWAP1 KECCAK256 SLOAD PUSH1 0xFF AND DUP2 JUMP JUMPDEST CALLER PUSH1 0x1 PUSH1 0x1 PUSH1 0xA0 SHL SUB PUSH32 0x0 AND EQ DUP1 PUSH2 0x1066 JUMPI POP PUSH1 0x4 SLOAD PUSH1 0x1 PUSH1 0x1 PUSH1 0xA0 SHL SUB AND CALLER EQ JUMPDEST DUP1 PUSH2 0x107B JUMPI POP PUSH1 0x5 SLOAD PUSH1 0x1 PUSH1 0x1 PUSH1 0xA0 SHL SUB AND CALLER EQ JUMPDEST DUP1 PUSH2 0x1090 JUMPI POP PUSH1 0x6 SLOAD PUSH1 0x1 PUSH1 0x1 PUSH1 0xA0 SHL SUB AND CALLER EQ JUMPDEST DUP1 PUSH2 0x10A5 JUMPI POP PUSH1 0x7 SLOAD PUSH1 0x1 PUSH1 0x1 PUSH1 0xA0 SHL SUB AND CALLER EQ JUMPDEST DUP1 PUSH2 0x10BA JUMPI POP PUSH1 0x8 SLOAD PUSH1 0x1 PUSH1 0x1 PUSH1 0xA0 SHL SUB AND CALLER EQ JUMPDEST DUP1 PUSH2 0x10CF JUMPI POP PUSH1 0x9 SLOAD PUSH1 0x1 PUSH1 0x1 PUSH1 0xA0 SHL SUB AND CALLER EQ JUMPDEST DUP1 PUSH2 0x10E4 JUMPI POP PUSH1 0xA SLOAD PUSH1 0x1 PUSH1 0x1 PUSH1 0xA0 SHL SUB AND CALLER EQ JUMPDEST DUP1 PUSH2 0x10F9 JUMPI POP PUSH1 0xB SLOAD PUSH1 0x1 PUSH1 0x1 PUSH1 0xA0 SHL SUB AND CALLER EQ JUMPDEST DUP1 PUSH2 0x110E JUMPI POP PUSH1 0xC SLOAD PUSH1 0x1 PUSH1 0x1 PUSH1 0xA0 SHL SUB AND CALLER EQ JUMPDEST DUP1 PUSH2 0x1123 JUMPI POP PUSH1 0xD SLOAD PUSH1 0x1 PUSH1 0x1 PUSH1 0xA0 SHL SUB AND CALLER EQ JUMPDEST DUP1 PUSH2 0x1138 JUMPI POP PUSH1 0xE SLOAD PUSH1 0x1 PUSH1 0x1 PUSH1 0xA0 SHL SUB AND CALLER EQ JUMPDEST PUSH2 0x115D JUMPI PUSH1 0x40 MLOAD PUSH3 0x461BCD PUSH1 0xE5 SHL DUP2 MSTORE PUSH1 0x4 ADD PUSH2 0x1154 SWAP1 PUSH2 0x5B11 JUMP JUMPDEST PUSH1 0x40 MLOAD DUP1 SWAP2 SUB SWAP1 REVERT JUMPDEST PUSH1 0xE SLOAD PUSH1 0x1 PUSH1 0x1 PUSH1 0xA0 SHL SUB AND ISZERO PUSH2 0x11AE JUMPI PUSH1 0x40 MLOAD PUSH3 0x461BCD PUSH1 0xE5 SHL DUP2 MSTORE PUSH1 0x20 PUSH1 0x4 DUP3 ADD MSTORE PUSH1 0x15 PUSH1 0x24 DUP3 ADD MSTORE PUSH21 0x135D5B1D1A4B5CDA59C8185B1C9958591E481CD95D PUSH1 0x5A SHL PUSH1 0x44 DUP3 ADD MSTORE PUSH1 0x64 ADD PUSH2 0x1154 JUMP JUMPDEST PUSH1 0x1 PUSH1 0x1 PUSH1 0xA0 SHL SUB DUP2 AND PUSH2 0x11F3 JUMPI PUSH1 0x40 MLOAD PUSH3 0x461BCD PUSH1 0xE5 SHL DUP2 MSTORE PUSH1 0x20 PUSH1 0x4 DUP3 ADD MSTORE PUSH1 0xC PUSH1 0x24 DUP3 ADD MSTORE PUSH12 0x5A65726F2061646472657373 PUSH1 0xA0 SHL PUSH1 0x44 DUP3 ADD MSTORE PUSH1 0x64 ADD PUSH2 0x1154 JUMP JUMPDEST PUSH1 0xE DUP1 SLOAD PUSH1 0x1 PUSH1 0x1 PUSH1 0xA0 SHL SUB NOT AND PUSH1 0x1 PUSH1 0x1 PUSH1 0xA0 SHL SUB DUP4 AND SWAP1 DUP2 OR SWAP1 SWAP2 SSTORE PUSH1 0x40 MLOAD PUSH32 0x1C299868BDF884AC5C38C41DCA1B8FA41A5C6A672E17319EC1C8D68E5066A99A SWAP1 PUSH0 SWAP1 LOG2 POP JUMP JUMPDEST PUSH0 PUSH1 0x11 SLOAD TIMESTAMP LT ISZERO PUSH2 0x1280 JUMPI PUSH1 0x40 MLOAD PUSH3 0x461BCD PUSH1 0xE5 SHL DUP2 MSTORE PUSH1 0x20 PUSH1 0x4 DUP3 ADD MSTORE PUSH1 0xE PUSH1 0x24 DUP3 ADD MSTORE PUSH14 0x20B236B4B71031B7B7B63237BBB7 PUSH1 0x91 SHL PUSH1 0x44 DUP3 ADD MSTORE PUSH1 0x64 ADD PUSH2 0x1154 JUMP JUMPDEST PUSH2 0x128B CALLER DUP5 DUP5 PUSH2 0x4D34 JUMP JUMPDEST POP PUSH1 0x1 JUMPDEST SWAP3 SWAP2 POP POP JUMP JUMPDEST CALLER PUSH1 0x1 PUSH1 0x1 PUSH1 0xA0 SHL SUB PUSH32 0x0 AND EQ DUP1 PUSH2 0x12D6 JUMPI POP PUSH1 0x4 SLOAD PUSH1 0x1 PUSH1 0x1 PUSH1 0xA0 SHL SUB AND CALLER EQ JUMPDEST DUP1 PUSH2 0x12EB JUMPI POP PUSH1 0x5 SLOAD PUSH1 0x1 PUSH1 0x1 PUSH1 0xA0 SHL SUB AND CALLER EQ JUMPDEST DUP1 PUSH2 0x1300 JUMPI POP PUSH1 0x6 SLOAD PUSH1 0x1 PUSH1 0x1 PUSH1 0xA0 SHL SUB AND CALLER EQ JUMPDEST DUP1 PUSH2 0x1315 JUMPI POP PUSH1 0x7 SLOAD PUSH1 0x1 PUSH1 0x1 PUSH1 0xA0 SHL SUB AND CALLER EQ JUMPDEST DUP1 PUSH2 0x132A JUMPI POP PUSH1 0x8 SLOAD PUSH1 0x1 PUSH1 0x1 PUSH1 0xA0 SHL SUB AND CALLER EQ JUMPDEST DUP1 PUSH2 0x133F JUMPI POP PUSH1 0x9 SLOAD PUSH1 0x1 PUSH1 0x1 PUSH1 0xA0 SHL SUB AND CALLER EQ JUMPDEST DUP1 PUSH2 0x1354 JUMPI POP PUSH1 0xA SLOAD PUSH1 0x1 PUSH1 0x1 PUSH1 0xA0 SHL SUB AND CALLER EQ JUMPDEST DUP1 PUSH2 0x1369 JUMPI POP PUSH1 0xB SLOAD PUSH1 0x1 PUSH1 0x1 PUSH1 0xA0 SHL SUB AND CALLER EQ JUMPDEST DUP1 PUSH2 0x137E JUMPI POP PUSH1 0xC SLOAD PUSH1 0x1 PUSH1 0x1 PUSH1 0xA0 SHL SUB AND CALLER EQ JUMPDEST DUP1 PUSH2 0x1393 JUMPI POP PUSH1 0xD SLOAD PUSH1 0x1 PUSH1 0x1 PUSH1 0xA0 SHL SUB AND CALLER EQ JUMPDEST DUP1 PUSH2 0x13A8 JUMPI POP PUSH1 0xE SLOAD PUSH1 0x1 PUSH1 0x1 PUSH1 0xA0 SHL SUB AND CALLER EQ JUMPDEST PUSH2 0x13C4 JUMPI PUSH1 0x40 MLOAD PUSH3 0x461BCD PUSH1 0xE5 SHL DUP2 MSTORE PUSH1 0x4 ADD PUSH2 0x1154 SWAP1 PUSH2 0x5B11 JUMP JUMPDEST PUSH32 0x0 PUSH1 0x1 PUSH1 0x1 PUSH1 0xA0 SHL SUB AND DUP3 PUSH1 0x1 PUSH1 0x1 PUSH1 0xA0 SHL SUB AND SUB PUSH2 0x1430 JUMPI PUSH1 0x40 MLOAD PUSH3 0x461BCD PUSH1 0xE5 SHL DUP2 MSTORE PUSH1 0x20 PUSH1 0x4 DUP3 ADD MSTORE PUSH1 0x8 PUSH1 0x24 DUP3 ADD MSTORE PUSH8 0x27379037BBB732B9 PUSH1 0xC1 SHL PUSH1 0x44 DUP3 ADD MSTORE PUSH1 0x64 ADD PUSH2 0x1154 JUMP JUMPDEST ADDRESS PUSH1 0x1 PUSH1 0x1 PUSH1 0xA0 SHL SUB DUP4 AND SUB PUSH2 0x1476 JUMPI PUSH1 0x40 MLOAD PUSH3 0x461BCD PUSH1 0xE5 SHL DUP2 MSTORE PUSH1 0x20 PUSH1 0x4 DUP3 ADD MSTORE PUSH1 0xB PUSH1 0x24 DUP3 ADD MSTORE PUSH11 0x139BC818DBDB9D1C9858DD PUSH1 0xAA SHL PUSH1 0x44 DUP3 ADD MSTORE PUSH1 0x64 ADD PUSH2 0x1154 JUMP JUMPDEST PUSH1 0x1 PUSH1 0x1 PUSH1 0xA0 SHL SUB DUP3 AND PUSH2 0x14B6 JUMPI PUSH1 0x40 MLOAD PUSH3 0x461BCD PUSH1 0xE5 SHL DUP2 MSTORE PUSH1 0x20 PUSH1 0x4 DUP3 ADD MSTORE PUSH1 0x7 PUSH1 0x24 DUP3 ADD MSTORE PUSH7 0x4E6F207A65726F PUSH1 0xC8 SHL PUSH1 0x44 DUP3 ADD MSTORE PUSH1 0x64 ADD PUSH2 0x1154 JUMP JUMPDEST PUSH1 0x1 PUSH1 0x1 PUSH1 0xA0 SHL SUB DUP3 AND PUSH0 DUP2 DUP2 MSTORE PUSH1 0x18 PUSH1 0x20 SWAP1 DUP2 MSTORE PUSH1 0x40 SWAP2 DUP3 SWAP1 KECCAK256 DUP1 SLOAD PUSH1 0xFF NOT AND DUP6 ISZERO ISZERO SWAP1 DUP2 OR SWAP1 SWAP2 SSTORE SWAP2 MLOAD SWAP2 DUP3 MSTORE PUSH0 MLOAD PUSH1 0x20 PUSH2 0x5CFC PUSH0 CODECOPY PUSH0 MLOAD SWAP1 PUSH0 MSTORE SWAP2 ADD JUMPDEST PUSH1 0x40 MLOAD DUP1 SWAP2 SUB SWAP1 LOG2 POP POP JUMP JUMPDEST CALLER PUSH1 0x1 PUSH1 0x1 PUSH1 0xA0 SHL SUB PUSH32 0x0 AND EQ DUP1 PUSH2 0x1543 JUMPI POP PUSH1 0x4 SLOAD PUSH1 0x1 PUSH1 0x1 PUSH1 0xA0 SHL SUB AND CALLER EQ JUMPDEST DUP1 PUSH2 0x1558 JUMPI POP PUSH1 0x5 SLOAD PUSH1 0x1 PUSH1 0x1 PUSH1 0xA0 SHL SUB AND CALLER EQ JUMPDEST DUP1 PUSH2 0x156D JUMPI POP PUSH1 0x6 SLOAD PUSH1 0x1 PUSH1 0x1 PUSH1 0xA0 SHL SUB AND CALLER EQ JUMPDEST DUP1 PUSH2 0x1582 JUMPI POP PUSH1 0x7 SLOAD PUSH1 0x1 PUSH1 0x1 PUSH1 0xA0 SHL SUB AND CALLER EQ JUMPDEST DUP1 PUSH2 0x1597 JUMPI POP PUSH1 0x8 SLOAD PUSH1 0x1 PUSH1 0x1 PUSH1 0xA0 SHL SUB AND CALLER EQ JUMPDEST DUP1 PUSH2 0x15AC JUMPI POP PUSH1 0x9 SLOAD PUSH1 0x1 PUSH1 0x1 PUSH1 0xA0 SHL SUB AND CALLER EQ JUMPDEST DUP1 PUSH2 0x15C1 JUMPI POP PUSH1 0xA SLOAD PUSH1 0x1 PUSH1 0x1 PUSH1 0xA0 SHL SUB AND CALLER EQ JUMPDEST DUP1 PUSH2 0x15D6 JUMPI POP PUSH1 0xB SLOAD PUSH1 0x1 PUSH1 0x1 PUSH1 0xA0 SHL SUB AND CALLER EQ JUMPDEST DUP1 PUSH2 0x15EB JUMPI POP PUSH1 0xC SLOAD PUSH1 0x1 PUSH1 0x1 PUSH1 0xA0 SHL SUB AND CALLER EQ JUMPDEST DUP1 PUSH2 0x1600 JUMPI POP PUSH1 0xD SLOAD PUSH1 0x1 PUSH1 0x1 PUSH1 0xA0 SHL SUB AND CALLER EQ JUMPDEST DUP1 PUSH2 0x1615 JUMPI POP PUSH1 0xE SLOAD PUSH1 0x1 PUSH1 0x1 PUSH1 0xA0 SHL SUB AND CALLER EQ JUMPDEST PUSH2 0x1631 JUMPI PUSH1 0x40 MLOAD PUSH3 0x461BCD PUSH1 0xE5 SHL DUP2 MSTORE PUSH1 0x4 ADD PUSH2 0x1154 SWAP1 PUSH2 0x5B11 JUMP JUMPDEST PUSH1 0x2 PUSH0 SLOAD SUB PUSH2 0x1682 JUMPI PUSH1 0x40 MLOAD PUSH3 0x461BCD PUSH1 0xE5 SHL DUP2 MSTORE PUSH1 0x20 PUSH1 0x4 DUP3 ADD MSTORE PUSH1 0x1F PUSH1 0x24 DUP3 ADD MSTORE PUSH32 0x5265656E7472616E637947756172643A207265656E7472616E742063616C6C00 PUSH1 0x44 DUP3 ADD MSTORE PUSH1 0x64 ADD PUSH2 0x1154 JUMP JUMPDEST PUSH1 0x2 PUSH0 SSTORE SELFBALANCE DUP1 PUSH2 0x16BD JUMPI PUSH1 0x40 MLOAD PUSH3 0x461BCD PUSH1 0xE5 SHL DUP2 MSTORE PUSH1 0x20 PUSH1 0x4 DUP3 ADD MSTORE PUSH1 0x6 PUSH1 0x24 DUP3 ADD MSTORE PUSH6 0x273790212721 PUSH1 0xD1 SHL PUSH1 0x44 DUP3 ADD MSTORE PUSH1 0x64 ADD PUSH2 0x1154 JUMP JUMPDEST PUSH0 PUSH32 0x0 PUSH1 0x1 PUSH1 0x1 PUSH1 0xA0 SHL SUB AND DUP3 PUSH1 0x40 MLOAD PUSH0 PUSH1 0x40 MLOAD DUP1 DUP4 SUB DUP2 DUP6 DUP8 GAS CALL SWAP3 POP POP POP RETURNDATASIZE DUP1 PUSH0 DUP2 EQ PUSH2 0x1726 JUMPI PUSH1 0x40 MLOAD SWAP2 POP PUSH1 0x1F NOT PUSH1 0x3F RETURNDATASIZE ADD AND DUP3 ADD PUSH1 0x40 MSTORE RETURNDATASIZE DUP3 MSTORE RETURNDATASIZE PUSH0 PUSH1 0x20 DUP5 ADD RETURNDATACOPY PUSH2 0x172B JUMP JUMPDEST PUSH1 0x60 SWAP2 POP JUMPDEST POP POP SWAP1 POP DUP1 PUSH2 0x1769 JUMPI PUSH1 0x40 MLOAD PUSH3 0x461BCD PUSH1 0xE5 SHL DUP2 MSTORE PUSH1 0x20 PUSH1 0x4 DUP3 ADD MSTORE PUSH1 0xA PUSH1 0x24 DUP3 ADD MSTORE PUSH10 0x1093908819985A5B1959 PUSH1 0xB2 SHL PUSH1 0x44 DUP3 ADD MSTORE PUSH1 0x64 ADD PUSH2 0x1154 JUMP JUMPDEST PUSH1 0x40 MLOAD DUP3 DUP2 MSTORE PUSH32 0x1680612E6C4EA6353232F90D9FC956E494BB8A63829AF6CF07E3763061A78094 SWAP1 PUSH1 0x20 ADD PUSH1 0x40 MLOAD DUP1 SWAP2 SUB SWAP1 LOG1 POP POP PUSH1 0x1 PUSH0 SSTORE JUMP JUMPDEST CALLER PUSH1 0x1 PUSH1 0x1 PUSH1 0xA0 SHL SUB PUSH32 0x0 AND EQ DUP1 PUSH2 0x17E5 JUMPI POP PUSH1 0x4 SLOAD PUSH1 0x1 PUSH1 0x1 PUSH1 0xA0 SHL SUB AND CALLER EQ JUMPDEST DUP1 PUSH2 0x17FA JUMPI POP PUSH1 0x5 SLOAD PUSH1 0x1 PUSH1 0x1 PUSH1 0xA0 SHL SUB AND CALLER EQ JUMPDEST DUP1 PUSH2 0x180F JUMPI POP PUSH1 0x6 SLOAD PUSH1 0x1 PUSH1 0x1 PUSH1 0xA0 SHL SUB AND CALLER EQ JUMPDEST DUP1 PUSH2 0x1824 JUMPI POP PUSH1 0x7 SLOAD PUSH1 0x1 PUSH1 0x1 PUSH1 0xA0 SHL SUB AND CALLER EQ JUMPDEST DUP1 PUSH2 0x1839 JUMPI POP PUSH1 0x8 SLOAD PUSH1 0x1 PUSH1 0x1 PUSH1 0xA0 SHL SUB AND CALLER EQ JUMPDEST DUP1 PUSH2 0x184E JUMPI POP PUSH1 0x9 SLOAD PUSH1 0x1 PUSH1 0x1 PUSH1 0xA0 SHL SUB AND CALLER EQ JUMPDEST DUP1 PUSH2 0x1863 JUMPI POP PUSH1 0xA SLOAD PUSH1 0x1 PUSH1 0x1 PUSH1 0xA0 SHL SUB AND CALLER EQ JUMPDEST DUP1 PUSH2 0x1878 JUMPI POP PUSH1 0xB SLOAD PUSH1 0x1 PUSH1 0x1 PUSH1 0xA0 SHL SUB AND CALLER EQ JUMPDEST DUP1 PUSH2 0x188D JUMPI POP PUSH1 0xC SLOAD PUSH1 0x1 PUSH1 0x1 PUSH1 0xA0 SHL SUB AND CALLER EQ JUMPDEST DUP1 PUSH2 0x18A2 JUMPI POP PUSH1 0xD SLOAD PUSH1 0x1 PUSH1 0x1 PUSH1 0xA0 SHL SUB AND CALLER EQ JUMPDEST DUP1 PUSH2 0x18B7 JUMPI POP PUSH1 0xE SLOAD PUSH1 0x1 PUSH1 0x1 PUSH1 0xA0 SHL SUB AND CALLER EQ JUMPDEST PUSH2 0x18D3 JUMPI PUSH1 0x40 MLOAD PUSH3 0x461BCD PUSH1 0xE5 SHL DUP2 MSTORE PUSH1 0x4 ADD PUSH2 0x1154 SWAP1 PUSH2 0x5B11 JUMP JUMPDEST PUSH1 0xE SLOAD PUSH1 0x1 PUSH1 0x1 PUSH1 0xA0 SHL SUB AND CALLER EQ PUSH2 0x1908 JUMPI PUSH1 0x13 SLOAD PUSH1 0xFF AND ISZERO PUSH2 0x1908 JUMPI PUSH1 0x40 MLOAD PUSH3 0x461BCD PUSH1 0xE5 SHL DUP2 MSTORE PUSH1 0x4 ADD PUSH2 0x1154 SWAP1 PUSH2 0x5B34 JUMP JUMPDEST PUSH1 0xE SLOAD PUSH1 0x1 PUSH1 0x1 PUSH1 0xA0 SHL SUB AND CALLER EQ PUSH2 0x193C JUMPI PUSH1 0x11 SLOAD TIMESTAMP LT ISZERO PUSH2 0x193C JUMPI PUSH1 0x40 MLOAD PUSH3 0x461BCD PUSH1 0xE5 SHL DUP2 MSTORE PUSH1 0x4 ADD PUSH2 0x1154 SWAP1 PUSH2 0x5B5A JUMP JUMPDEST PUSH1 0x1 PUSH1 0x1 PUSH1 0xA0 SHL SUB DUP3 AND PUSH2 0x1981 JUMPI PUSH1 0x40 MLOAD PUSH3 0x461BCD PUSH1 0xE5 SHL DUP2 MSTORE PUSH1 0x20 PUSH1 0x4 DUP3 ADD MSTORE PUSH1 0xC PUSH1 0x24 DUP3 ADD MSTORE PUSH12 0x24B73B30B634B2103830B4B9 PUSH1 0xA1 SHL PUSH1 0x44 DUP3 ADD MSTORE PUSH1 0x64 ADD PUSH2 0x1154 JUMP JUMPDEST PUSH1 0x1 PUSH1 0x1 PUSH1 0xA0 SHL SUB DUP3 AND PUSH0 SWAP1 DUP2 MSTORE PUSH1 0x12 PUSH1 0x20 MSTORE PUSH1 0x40 SWAP1 KECCAK256 DUP1 SLOAD PUSH1 0xFF NOT AND DUP3 ISZERO ISZERO OR SWAP1 SSTORE PUSH2 0x19B1 PUSH3 0x2A300 TIMESTAMP PUSH2 0x5BA5 JUMP JUMPDEST PUSH1 0x3 DUP2 SWAP1 SSTORE PUSH1 0x40 MLOAD SWAP1 DUP2 MSTORE PUSH0 MLOAD PUSH1 0x20 PUSH2 0x5CDC PUSH0 CODECOPY PUSH0 MLOAD SWAP1 PUSH0 MSTORE SWAP1 PUSH1 0x20 ADD PUSH1 0x40 MLOAD DUP1 SWAP2 SUB SWAP1 LOG1 PUSH2 0x19E3 PUSH3 0x2A300 TIMESTAMP PUSH2 0x5BA5 JUMP JUMPDEST PUSH1 0x11 SSTORE PUSH1 0x40 MLOAD DUP2 ISZERO ISZERO DUP2 MSTORE PUSH1 0x1 PUSH1 0x1 PUSH1 0xA0 SHL SUB DUP4 AND SWAP1 PUSH32 0x7A2F4227DF0CE76D5D4187329FAAF8C53EB621FD92EDB868D331F292BB011344 SWAP1 PUSH1 0x20 ADD PUSH2 0x14F6 JUMP JUMPDEST PUSH1 0x1 PUSH1 0x1 PUSH1 0xA0 SHL SUB DUP4 AND PUSH0 SWAP1 DUP2 MSTORE PUSH1 0x15 PUSH1 0x20 SWAP1 DUP2 MSTORE PUSH1 0x40 DUP1 DUP4 KECCAK256 CALLER DUP5 MSTORE SWAP1 SWAP2 MSTORE DUP2 KECCAK256 SLOAD DUP3 DUP2 LT ISZERO PUSH2 0x1A86 JUMPI PUSH1 0x40 MLOAD PUSH3 0x461BCD PUSH1 0xE5 SHL DUP2 MSTORE PUSH1 0x20 PUSH1 0x4 DUP3 ADD MSTORE PUSH1 0xD PUSH1 0x24 DUP3 ADD MSTORE PUSH13 0x4C6F7720616C6C6F77616E6365 PUSH1 0x98 SHL PUSH1 0x44 DUP3 ADD MSTORE PUSH1 0x64 ADD PUSH2 0x1154 JUMP JUMPDEST PUSH1 0x1 PUSH1 0x1 PUSH1 0xA0 SHL SUB DUP6 AND PUSH0 SWAP1 DUP2 MSTORE PUSH1 0x15 PUSH1 0x20 SWAP1 DUP2 MSTORE PUSH1 0x40 DUP1 DUP4 KECCAK256 CALLER DUP5 MSTORE SWAP1 SWAP2 MSTORE SWAP1 KECCAK256 DUP4 DUP3 SUB SWAP1 SSTORE PUSH2 0x1AB8 DUP6 DUP6 DUP6 PUSH2 0x4E16 JUMP JUMPDEST SWAP6 SWAP5 POP POP POP POP POP JUMP JUMPDEST CALLER PUSH0 DUP2 DUP2 MSTORE PUSH1 0x15 PUSH1 0x20 SWAP1 DUP2 MSTORE PUSH1 0x40 DUP1 DUP4 KECCAK256 PUSH1 0x1 PUSH1 0x1 PUSH1 0xA0 SHL SUB DUP8 AND DUP5 MSTORE SWAP1 SWAP2 MSTORE DUP2 KECCAK256 SLOAD SWAP1 SWAP2 PUSH2 0x128B SWAP2 DUP6 SWAP1 PUSH2 0x1AF7 SWAP1 DUP7 SWAP1 PUSH2 0x5BA5 JUMP JUMPDEST PUSH2 0x4D34 JUMP JUMPDEST CALLER PUSH1 0x1 PUSH1 0x1 PUSH1 0xA0 SHL SUB PUSH32 0x0 AND EQ DUP1 PUSH2 0x1B3D JUMPI POP PUSH1 0x4 SLOAD PUSH1 0x1 PUSH1 0x1 PUSH1 0xA0 SHL SUB AND CALLER EQ JUMPDEST DUP1 PUSH2 0x1B52 JUMPI POP PUSH1 0x5 SLOAD PUSH1 0x1 PUSH1 0x1 PUSH1 0xA0 SHL SUB AND CALLER EQ JUMPDEST DUP1 PUSH2 0x1B67 JUMPI POP PUSH1 0x6 SLOAD PUSH1 0x1 PUSH1 0x1 PUSH1 0xA0 SHL SUB AND CALLER EQ JUMPDEST DUP1 PUSH2 0x1B7C JUMPI POP PUSH1 0x7 SLOAD PUSH1 0x1 PUSH1 0x1 PUSH1 0xA0 SHL SUB AND CALLER EQ JUMPDEST DUP1 PUSH2 0x1B91 JUMPI POP PUSH1 0x8 SLOAD PUSH1 0x1 PUSH1 0x1 PUSH1 0xA0 SHL SUB AND CALLER EQ JUMPDEST DUP1 PUSH2 0x1BA6 JUMPI POP PUSH1 0x9 SLOAD PUSH1 0x1 PUSH1 0x1 PUSH1 0xA0 SHL SUB AND CALLER EQ JUMPDEST DUP1 PUSH2 0x1BBB JUMPI POP PUSH1 0xA SLOAD PUSH1 0x1 PUSH1 0x1 PUSH1 0xA0 SHL SUB AND CALLER EQ JUMPDEST DUP1 PUSH2 0x1BD0 JUMPI POP PUSH1 0xB SLOAD PUSH1 0x1 PUSH1 0x1 PUSH1 0xA0 SHL SUB AND CALLER EQ JUMPDEST DUP1 PUSH2 0x1BE5 JUMPI POP PUSH1 0xC SLOAD PUSH1 0x1 PUSH1 0x1 PUSH1 0xA0 SHL SUB AND CALLER EQ JUMPDEST DUP1 PUSH2 0x1BFA JUMPI POP PUSH1 0xD SLOAD PUSH1 0x1 PUSH1 0x1 PUSH1 0xA0 SHL SUB AND CALLER EQ JUMPDEST DUP1 PUSH2 0x1C0F JUMPI POP PUSH1 0xE SLOAD PUSH1 0x1 PUSH1 0x1 PUSH1 0xA0 SHL SUB AND CALLER EQ JUMPDEST PUSH2 0x1C2B JUMPI PUSH1 0x40 MLOAD PUSH3 0x461BCD PUSH1 0xE5 SHL DUP2 MSTORE PUSH1 0x4 ADD PUSH2 0x1154 SWAP1 PUSH2 0x5B11 JUMP JUMPDEST PUSH0 JUMPDEST DUP3 DUP2 LT ISZERO PUSH2 0x1DBF JUMPI PUSH32 0x0 PUSH1 0x1 PUSH1 0x1 PUSH1 0xA0 SHL SUB AND DUP5 DUP5 DUP4 DUP2 DUP2 LT PUSH2 0x1C71 JUMPI PUSH2 0x1C71 PUSH2 0x5BB8 JUMP JUMPDEST SWAP1 POP PUSH1 0x20 MUL ADD PUSH1 0x20 DUP2 ADD SWAP1 PUSH2 0x1C86 SWAP2 SWAP1 PUSH2 0x58B0 JUMP JUMPDEST PUSH1 0x1 PUSH1 0x1 PUSH1 0xA0 SHL SUB AND EQ ISZERO DUP1 ISZERO PUSH2 0x1CCC JUMPI POP ADDRESS DUP5 DUP5 DUP4 DUP2 DUP2 LT PUSH2 0x1CAB JUMPI PUSH2 0x1CAB PUSH2 0x5BB8 JUMP JUMPDEST SWAP1 POP PUSH1 0x20 MUL ADD PUSH1 0x20 DUP2 ADD SWAP1 PUSH2 0x1CC0 SWAP2 SWAP1 PUSH2 0x58B0 JUMP JUMPDEST PUSH1 0x1 PUSH1 0x1 PUSH1 0xA0 SHL SUB AND EQ ISZERO JUMPDEST DUP1 ISZERO PUSH2 0x1D07 JUMPI POP PUSH0 DUP5 DUP5 DUP4 DUP2 DUP2 LT PUSH2 0x1CE6 JUMPI PUSH2 0x1CE6 PUSH2 0x5BB8 JUMP JUMPDEST SWAP1 POP PUSH1 0x20 MUL ADD PUSH1 0x20 DUP2 ADD SWAP1 PUSH2 0x1CFB SWAP2 SWAP1 PUSH2 0x58B0 JUMP JUMPDEST PUSH1 0x1 PUSH1 0x1 PUSH1 0xA0 SHL SUB AND EQ ISZERO JUMPDEST ISZERO PUSH2 0x1DB7 JUMPI DUP2 PUSH1 0x18 PUSH0 DUP7 DUP7 DUP6 DUP2 DUP2 LT PUSH2 0x1D22 JUMPI PUSH2 0x1D22 PUSH2 0x5BB8 JUMP JUMPDEST SWAP1 POP PUSH1 0x20 MUL ADD PUSH1 0x20 DUP2 ADD SWAP1 PUSH2 0x1D37 SWAP2 SWAP1 PUSH2 0x58B0 JUMP JUMPDEST PUSH1 0x1 PUSH1 0x1 PUSH1 0xA0 SHL SUB AND DUP2 MSTORE PUSH1 0x20 DUP2 ADD SWAP2 SWAP1 SWAP2 MSTORE PUSH1 0x40 ADD PUSH0 KECCAK256 DUP1 SLOAD PUSH1 0xFF NOT AND SWAP2 ISZERO ISZERO SWAP2 SWAP1 SWAP2 OR SWAP1 SSTORE DUP4 DUP4 DUP3 DUP2 DUP2 LT PUSH2 0x1D70 JUMPI PUSH2 0x1D70 PUSH2 0x5BB8 JUMP JUMPDEST SWAP1 POP PUSH1 0x20 MUL ADD PUSH1 0x20 DUP2 ADD SWAP1 PUSH2 0x1D85 SWAP2 SWAP1 PUSH2 0x58B0 JUMP JUMPDEST PUSH1 0x1 PUSH1 0x1 PUSH1 0xA0 SHL SUB AND PUSH0 MLOAD PUSH1 0x20 PUSH2 0x5CFC PUSH0 CODECOPY PUSH0 MLOAD SWAP1 PUSH0 MSTORE DUP4 PUSH1 0x40 MLOAD PUSH2 0x1DAE SWAP2 ISZERO ISZERO DUP2 MSTORE PUSH1 0x20 ADD SWAP1 JUMP JUMPDEST PUSH1 0x40 MLOAD DUP1 SWAP2 SUB SWAP1 LOG2 JUMPDEST PUSH1 0x1 ADD PUSH2 0x1C2D JUMP JUMPDEST POP POP POP POP JUMP JUMPDEST PUSH1 0xE SLOAD PUSH1 0x1 PUSH1 0x1 PUSH1 0xA0 SHL SUB AND CALLER EQ PUSH2 0x1DEF JUMPI PUSH1 0x40 MLOAD PUSH3 0x461BCD PUSH1 0xE5 SHL DUP2 MSTORE PUSH1 0x4 ADD PUSH2 0x1154 SWAP1 PUSH2 0x5BCC JUMP JUMPDEST PUSH1 0xE SLOAD PUSH1 0x1 PUSH1 0x1 PUSH1 0xA0 SHL SUB AND PUSH2 0x1E17 JUMPI PUSH1 0x40 MLOAD PUSH3 0x461BCD PUSH1 0xE5 SHL DUP2 MSTORE PUSH1 0x4 ADD PUSH2 0x1154 SWAP1 PUSH2 0x5BF4 JUMP JUMPDEST PUSH1 0x10 DUP1 SLOAD PUSH1 0xFF PUSH1 0xA0 SHL NOT AND SWAP1 SSTORE PUSH1 0x40 MLOAD PUSH32 0xA51949D2A53F5E36F13F153E2A7B001FD7ED6556CEF2866AC2F1B52EA9342C1D SWAP1 PUSH0 SWAP1 LOG1 JUMP JUMPDEST CALLER PUSH1 0x1 PUSH1 0x1 PUSH1 0xA0 SHL SUB PUSH32 0x0 AND EQ DUP1 PUSH2 0x1E8F JUMPI POP PUSH1 0x4 SLOAD PUSH1 0x1 PUSH1 0x1 PUSH1 0xA0 SHL SUB AND CALLER EQ JUMPDEST DUP1 PUSH2 0x1EA4 JUMPI POP PUSH1 0x5 SLOAD PUSH1 0x1 PUSH1 0x1 PUSH1 0xA0 SHL SUB AND CALLER EQ JUMPDEST DUP1 PUSH2 0x1EB9 JUMPI POP PUSH1 0x6 SLOAD PUSH1 0x1 PUSH1 0x1 PUSH1 0xA0 SHL SUB AND CALLER EQ JUMPDEST DUP1 PUSH2 0x1ECE JUMPI POP PUSH1 0x7 SLOAD PUSH1 0x1 PUSH1 0x1 PUSH1 0xA0 SHL SUB AND CALLER EQ JUMPDEST DUP1 PUSH2 0x1EE3 JUMPI POP PUSH1 0x8 SLOAD PUSH1 0x1 PUSH1 0x1 PUSH1 0xA0 SHL SUB AND CALLER EQ JUMPDEST DUP1 PUSH2 0x1EF8 JUMPI POP PUSH1 0x9 SLOAD PUSH1 0x1 PUSH1 0x1 PUSH1 0xA0 SHL SUB AND CALLER EQ JUMPDEST DUP1 PUSH2 0x1F0D JUMPI POP PUSH1 0xA SLOAD PUSH1 0x1 PUSH1 0x1 PUSH1 0xA0 SHL SUB AND CALLER EQ JUMPDEST DUP1 PUSH2 0x1F22 JUMPI POP PUSH1 0xB SLOAD PUSH1 0x1 PUSH1 0x1 PUSH1 0xA0 SHL SUB AND CALLER EQ JUMPDEST DUP1 PUSH2 0x1F37 JUMPI POP PUSH1 0xC SLOAD PUSH1 0x1 PUSH1 0x1 PUSH1 0xA0 SHL SUB AND CALLER EQ JUMPDEST DUP1 PUSH2 0x1F4C JUMPI POP PUSH1 0xD SLOAD PUSH1 0x1 PUSH1 0x1 PUSH1 0xA0 SHL SUB AND CALLER EQ JUMPDEST DUP1 PUSH2 0x1F61 JUMPI POP PUSH1 0xE SLOAD PUSH1 0x1 PUSH1 0x1 PUSH1 0xA0 SHL SUB AND CALLER EQ JUMPDEST PUSH2 0x1F7D JUMPI PUSH1 0x40 MLOAD PUSH3 0x461BCD PUSH1 0xE5 SHL DUP2 MSTORE PUSH1 0x4 ADD PUSH2 0x1154 SWAP1 PUSH2 0x5B11 JUMP JUMPDEST PUSH1 0xE SLOAD PUSH1 0x1 PUSH1 0x1 PUSH1 0xA0 SHL SUB AND CALLER EQ PUSH2 0x1FB2 JUMPI PUSH1 0x13 SLOAD PUSH1 0xFF AND ISZERO PUSH2 0x1FB2 JUMPI PUSH1 0x40 MLOAD PUSH3 0x461BCD PUSH1 0xE5 SHL DUP2 MSTORE PUSH1 0x4 ADD PUSH2 0x1154 SWAP1 PUSH2 0x5B34 JUMP JUMPDEST PUSH1 0x13 DUP1 SLOAD PUSH1 0xFF NOT AND PUSH1 0x1 OR SWAP1 SSTORE PUSH1 0x40 MLOAD PUSH32 0x4796BF6FFAAA75B9DD6D018C2BD9C876B3483A4BE62665B4630F698AC85C5F7E SWAP1 PUSH0 SWAP1 LOG1 JUMP JUMPDEST CALLER PUSH1 0x1 PUSH1 0x1 PUSH1 0xA0 SHL SUB PUSH32 0x0 AND EQ DUP1 PUSH2 0x202A JUMPI POP PUSH1 0x4 SLOAD PUSH1 0x1 PUSH1 0x1 PUSH1 0xA0 SHL SUB AND CALLER EQ JUMPDEST DUP1 PUSH2 0x203F JUMPI POP PUSH1 0x5 SLOAD PUSH1 0x1 PUSH1 0x1 PUSH1 0xA0 SHL SUB AND CALLER EQ JUMPDEST DUP1 PUSH2 0x2054 JUMPI POP PUSH1 0x6 SLOAD PUSH1 0x1 PUSH1 0x1 PUSH1 0xA0 SHL SUB AND CALLER EQ JUMPDEST DUP1 PUSH2 0x2069 JUMPI POP PUSH1 0x7 SLOAD PUSH1 0x1 PUSH1 0x1 PUSH1 0xA0 SHL SUB AND CALLER EQ JUMPDEST DUP1 PUSH2 0x207E JUMPI POP PUSH1 0x8 SLOAD PUSH1 0x1 PUSH1 0x1 PUSH1 0xA0 SHL SUB AND CALLER EQ JUMPDEST DUP1 PUSH2 0x2093 JUMPI POP PUSH1 0x9 SLOAD PUSH1 0x1 PUSH1 0x1 PUSH1 0xA0 SHL SUB AND CALLER EQ JUMPDEST DUP1 PUSH2 0x20A8 JUMPI POP PUSH1 0xA SLOAD PUSH1 0x1 PUSH1 0x1 PUSH1 0xA0 SHL SUB AND CALLER EQ JUMPDEST DUP1 PUSH2 0x20BD JUMPI POP PUSH1 0xB SLOAD PUSH1 0x1 PUSH1 0x1 PUSH1 0xA0 SHL SUB AND CALLER EQ JUMPDEST DUP1 PUSH2 0x20D2 JUMPI POP PUSH1 0xC SLOAD PUSH1 0x1 PUSH1 0x1 PUSH1 0xA0 SHL SUB AND CALLER EQ JUMPDEST DUP1 PUSH2 0x20E7 JUMPI POP PUSH1 0xD SLOAD PUSH1 0x1 PUSH1 0x1 PUSH1 0xA0 SHL SUB AND CALLER EQ JUMPDEST DUP1 PUSH2 0x20FC JUMPI POP PUSH1 0xE SLOAD PUSH1 0x1 PUSH1 0x1 PUSH1 0xA0 SHL SUB AND CALLER EQ JUMPDEST PUSH2 0x2118 JUMPI PUSH1 0x40 MLOAD PUSH3 0x461BCD PUSH1 0xE5 SHL DUP2 MSTORE PUSH1 0x4 ADD PUSH2 0x1154 SWAP1 PUSH2 0x5B11 JUMP JUMPDEST CALLER PUSH0 SWAP1 DUP2 MSTORE PUSH1 0x14 PUSH1 0x20 MSTORE PUSH1 0x40 SWAP1 KECCAK256 SLOAD DUP2 GT ISZERO PUSH2 0x2146 JUMPI PUSH1 0x40 MLOAD PUSH3 0x461BCD PUSH1 0xE5 SHL DUP2 MSTORE PUSH1 0x4 ADD PUSH2 0x1154 SWAP1 PUSH2 0x5C1F JUMP JUMPDEST CALLER PUSH0 DUP2 DUP2 MSTORE PUSH1 0x14 PUSH1 0x20 SWAP1 DUP2 MSTORE PUSH1 0x40 DUP1 DUP4 KECCAK256 DUP1 SLOAD DUP7 SWAP1 SUB SWAP1 SSTORE PUSH1 0x1 DUP1 SLOAD DUP7 SWAP1 SUB SWAP1 SSTORE MLOAD DUP5 DUP2 MSTORE SWAP2 SWAP3 SWAP2 PUSH0 MLOAD PUSH1 0x20 PUSH2 0x5D1C PUSH0 CODECOPY PUSH0 MLOAD SWAP1 PUSH0 MSTORE SWAP2 ADD PUSH1 0x40 MLOAD DUP1 SWAP2 SUB SWAP1 LOG3 PUSH1 0x40 MLOAD DUP2 DUP2 MSTORE PUSH32 0x6EF4855B666DCC7884561072E4358B28DFE01FEB1B7F4DCEBC00E62D50394AC7 SWAP1 PUSH1 0x20 ADD PUSH1 0x40 MLOAD DUP1 SWAP2 SUB SWAP1 LOG1 POP JUMP JUMPDEST PUSH0 PUSH1 0x19 SLOAD PUSH0 SUB PUSH2 0x21CB JUMPI POP PUSH0 SWAP1 JUMP JUMPDEST PUSH0 PUSH3 0x93A80 PUSH1 0x19 SLOAD PUSH2 0x21DD SWAP2 SWAP1 PUSH2 0x5BA5 JUMP JUMPDEST SWAP1 POP DUP1 TIMESTAMP LT PUSH2 0x21ED JUMPI PUSH0 SWAP2 POP POP SWAP1 JUMP JUMPDEST PUSH2 0x21F7 TIMESTAMP DUP3 PUSH2 0x5C44 JUMP JUMPDEST SWAP2 POP POP SWAP1 JUMP JUMPDEST PUSH0 PUSH1 0x19 SLOAD PUSH0 EQ ISZERO DUP1 ISZERO PUSH2 0x221F JUMPI POP PUSH3 0x93A80 PUSH1 0x19 SLOAD PUSH2 0x221C SWAP2 SWAP1 PUSH2 0x5BA5 JUMP JUMPDEST TIMESTAMP LT JUMPDEST ISZERO PUSH2 0x2229 JUMPI POP PUSH0 SWAP1 JUMP JUMPDEST PUSH1 0x1 SLOAD PUSH11 0x422CA8B0A00A425000000 SWAP1 PUSH0 SWAP1 PUSH2 0x2710 SWAP1 PUSH2 0x224A SWAP1 PUSH1 0x32 PUSH2 0x5C57 JUMP JUMPDEST PUSH2 0x2254 SWAP2 SWAP1 PUSH2 0x5C6E JUMP JUMPDEST SWAP1 POP DUP2 DUP2 LT PUSH2 0x2263 JUMPI DUP2 PUSH2 0x2265 JUMP JUMPDEST DUP1 JUMPDEST SWAP3 POP POP POP SWAP1 JUMP JUMPDEST PUSH1 0xE SLOAD PUSH1 0x1 PUSH1 0x1 PUSH1 0xA0 SHL SUB AND CALLER EQ PUSH2 0x2296 JUMPI PUSH1 0x40 MLOAD PUSH3 0x461BCD PUSH1 0xE5 SHL DUP2 MSTORE PUSH1 0x4 ADD PUSH2 0x1154 SWAP1 PUSH2 0x5BCC JUMP JUMPDEST PUSH1 0xE SLOAD PUSH1 0x1 PUSH1 0x1 PUSH1 0xA0 SHL SUB AND PUSH2 0x22BE JUMPI PUSH1 0x40 MLOAD PUSH3 0x461BCD PUSH1 0xE5 SHL DUP2 MSTORE PUSH1 0x4 ADD PUSH2 0x1154 SWAP1 PUSH2 0x5BF4 JUMP JUMPDEST PUSH1 0x1 PUSH1 0x1 PUSH1 0xA0 SHL SUB DUP2 AND PUSH0 SWAP1 DUP2 MSTORE PUSH1 0x18 PUSH1 0x20 MSTORE PUSH1 0x40 SWAP1 KECCAK256 SLOAD PUSH1 0xFF AND PUSH2 0x2317 JUMPI PUSH1 0x40 MLOAD PUSH3 0x461BCD PUSH1 0xE5 SHL DUP2 MSTORE PUSH1 0x20 PUSH1 0x4 DUP3 ADD MSTORE PUSH1 0xF PUSH1 0x24 DUP3 ADD MSTORE PUSH15 0x139BDD08189B1858DADB1A5CDD1959 PUSH1 0x8A SHL PUSH1 0x44 DUP3 ADD MSTORE PUSH1 0x64 ADD PUSH2 0x1154 JUMP JUMPDEST PUSH1 0x1 PUSH1 0x1 PUSH1 0xA0 SHL SUB DUP2 AND PUSH0 DUP2 DUP2 MSTORE PUSH1 0x18 PUSH1 0x20 SWAP1 DUP2 MSTORE PUSH1 0x40 DUP1 DUP4 KECCAK256 DUP1 SLOAD PUSH1 0xFF NOT AND SWAP1 SSTORE MLOAD SWAP2 DUP3 MSTORE PUSH0 MLOAD PUSH1 0x20 PUSH2 0x5CFC PUSH0 CODECOPY PUSH0 MLOAD SWAP1 PUSH0 MSTORE SWAP2 ADD PUSH1 0x40 MLOAD DUP1 SWAP2 SUB SWAP1 LOG2 POP JUMP JUMPDEST CALLER PUSH1 0x1 PUSH1 0x1 PUSH1 0xA0 SHL SUB PUSH32 0x0 AND EQ DUP1 PUSH2 0x2399 JUMPI POP PUSH1 0x4 SLOAD PUSH1 0x1 PUSH1 0x1 PUSH1 0xA0 SHL SUB AND CALLER EQ JUMPDEST DUP1 PUSH2 0x23AE JUMPI POP PUSH1 0x5 SLOAD PUSH1 0x1 PUSH1 0x1 PUSH1 0xA0 SHL SUB AND CALLER EQ JUMPDEST DUP1 PUSH2 0x23C3 JUMPI POP PUSH1 0x6 SLOAD PUSH1 0x1 PUSH1 0x1 PUSH1 0xA0 SHL SUB AND CALLER EQ JUMPDEST DUP1 PUSH2 0x23D8 JUMPI POP PUSH1 0x7 SLOAD PUSH1 0x1 PUSH1 0x1 PUSH1 0xA0 SHL SUB AND CALLER EQ JUMPDEST DUP1 PUSH2 0x23ED JUMPI POP PUSH1 0x8 SLOAD PUSH1 0x1 PUSH1 0x1 PUSH1 0xA0 SHL SUB AND CALLER EQ JUMPDEST DUP1 PUSH2 0x2402 JUMPI POP PUSH1 0x9 SLOAD PUSH1 0x1 PUSH1 0x1 PUSH1 0xA0 SHL SUB AND CALLER EQ JUMPDEST DUP1 PUSH2 0x2417 JUMPI POP PUSH1 0xA SLOAD PUSH1 0x1 PUSH1 0x1 PUSH1 0xA0 SHL SUB AND CALLER EQ JUMPDEST DUP1 PUSH2 0x242C JUMPI POP PUSH1 0xB SLOAD PUSH1 0x1 PUSH1 0x1 PUSH1 0xA0 SHL SUB AND CALLER EQ JUMPDEST DUP1 PUSH2 0x2441 JUMPI POP PUSH1 0xC SLOAD PUSH1 0x1 PUSH1 0x1 PUSH1 0xA0 SHL SUB AND CALLER EQ JUMPDEST DUP1 PUSH2 0x2456 JUMPI POP PUSH1 0xD SLOAD PUSH1 0x1 PUSH1 0x1 PUSH1 0xA0 SHL SUB AND CALLER EQ JUMPDEST DUP1 PUSH2 0x246B JUMPI POP PUSH1 0xE SLOAD PUSH1 0x1 PUSH1 0x1 PUSH1 0xA0 SHL SUB AND CALLER EQ JUMPDEST PUSH2 0x2487 JUMPI PUSH1 0x40 MLOAD PUSH3 0x461BCD PUSH1 0xE5 SHL DUP2 MSTORE PUSH1 0x4 ADD PUSH2 0x1154 SWAP1 PUSH2 0x5B11 JUMP JUMPDEST PUSH1 0x2 PUSH0 SLOAD SUB PUSH2 0x24D8 JUMPI PUSH1 0x40 MLOAD PUSH3 0x461BCD PUSH1 0xE5 SHL DUP2 MSTORE PUSH1 0x20 PUSH1 0x4 DUP3 ADD MSTORE PUSH1 0x1F PUSH1 0x24 DUP3 ADD MSTORE PUSH32 0x5265656E7472616E637947756172643A207265656E7472616E742063616C6C00 PUSH1 0x44 DUP3 ADD MSTORE PUSH1 0x64 ADD PUSH2 0x1154 JUMP JUMPDEST PUSH1 0x2 PUSH0 SSTORE PUSH1 0x1 PUSH1 0x1 PUSH1 0xA0 SHL SUB DUP3 AND PUSH2 0x2522 JUMPI PUSH1 0x40 MLOAD PUSH3 0x461BCD PUSH1 0xE5 SHL DUP2 MSTORE PUSH1 0x20 PUSH1 0x4 DUP3 ADD MSTORE PUSH1 0xD PUSH1 0x24 DUP3 ADD MSTORE PUSH13 0x24B73B30B634B2103A37B5B2B7 PUSH1 0x99 SHL PUSH1 0x44 DUP3 ADD MSTORE PUSH1 0x64 ADD PUSH2 0x1154 JUMP JUMPDEST ADDRESS PUSH1 0x1 PUSH1 0x1 PUSH1 0xA0 SHL SUB DUP4 AND SUB PUSH2 0x256B JUMPI PUSH1 0x40 MLOAD PUSH3 0x461BCD PUSH1 0xE5 SHL DUP2 MSTORE PUSH1 0x20 PUSH1 0x4 DUP3 ADD MSTORE PUSH1 0xE PUSH1 0x24 DUP3 ADD MSTORE PUSH14 0x4E6F20726573637565204B435931 PUSH1 0x90 SHL PUSH1 0x44 DUP3 ADD MSTORE PUSH1 0x64 ADD PUSH2 0x1154 JUMP JUMPDEST PUSH1 0x40 MLOAD PUSH4 0xA9059CBB PUSH1 0xE0 SHL DUP2 MSTORE PUSH1 0x1 PUSH1 0x1 PUSH1 0xA0 SHL SUB PUSH32 0x0 DUP2 AND PUSH1 0x4 DUP4 ADD MSTORE PUSH1 0x24 DUP3 ADD DUP4 SWAP1 MSTORE DUP4 SWAP2 SWAP1 DUP3 AND SWAP1 PUSH4 0xA9059CBB SWAP1 PUSH1 0x44 ADD PUSH1 0x20 PUSH1 0x40 MLOAD DUP1 DUP4 SUB DUP2 PUSH0 DUP8 GAS CALL ISZERO DUP1 ISZERO PUSH2 0x25DA JUMPI RETURNDATASIZE PUSH0 PUSH0 RETURNDATACOPY RETURNDATASIZE PUSH0 REVERT JUMPDEST POP POP POP POP PUSH1 0x40 MLOAD RETURNDATASIZE PUSH1 0x1F NOT PUSH1 0x1F DUP3 ADD AND DUP3 ADD DUP1 PUSH1 0x40 MSTORE POP DUP2 ADD SWAP1 PUSH2 0x25FE SWAP2 SWAP1 PUSH2 0x5C8D JUMP JUMPDEST PUSH2 0x263A JUMPI PUSH1 0x40 MLOAD PUSH3 0x461BCD PUSH1 0xE5 SHL DUP2 MSTORE PUSH1 0x20 PUSH1 0x4 DUP3 ADD MSTORE PUSH1 0xD PUSH1 0x24 DUP3 ADD MSTORE PUSH13 0x14995CD8DD594819985A5B1959 PUSH1 0x9A SHL PUSH1 0x44 DUP3 ADD MSTORE PUSH1 0x64 ADD PUSH2 0x1154 JUMP JUMPDEST DUP3 PUSH1 0x1 PUSH1 0x1 PUSH1 0xA0 SHL SUB AND PUSH32 0xE2FF149B1527CE73BC1113B8B0D5F0AFFFEFAC241473A371880D7510708AD443 DUP4 PUSH1 0x40 MLOAD PUSH2 0x2675 SWAP2 DUP2 MSTORE PUSH1 0x20 ADD SWAP1 JUMP JUMPDEST PUSH1 0x40 MLOAD DUP1 SWAP2 SUB SWAP1 LOG2 POP POP PUSH1 0x1 PUSH0 SSTORE POP JUMP JUMPDEST PUSH0 PUSH32 0x0 PUSH1 0x1 PUSH1 0x1 PUSH1 0xA0 SHL SUB AND DUP3 PUSH1 0x1 PUSH1 0x1 PUSH1 0xA0 SHL SUB AND EQ DUP1 PUSH2 0x26CF JUMPI POP PUSH1 0x1 PUSH1 0x1 PUSH1 0xA0 SHL SUB DUP3 AND ADDRESS EQ JUMPDEST DUP1 PUSH2 0x26E7 JUMPI POP PUSH1 0x4 SLOAD PUSH1 0x1 PUSH1 0x1 PUSH1 0xA0 SHL SUB DUP4 DUP2 AND SWAP2 AND EQ JUMPDEST DUP1 PUSH2 0x26FF JUMPI POP PUSH1 0x5 SLOAD PUSH1 0x1 PUSH1 0x1 PUSH1 0xA0 SHL SUB DUP4 DUP2 AND SWAP2 AND EQ JUMPDEST DUP1 PUSH2 0x2717 JUMPI POP PUSH1 0x6 SLOAD PUSH1 0x1 PUSH1 0x1 PUSH1 0xA0 SHL SUB DUP4 DUP2 AND SWAP2 AND EQ JUMPDEST DUP1 PUSH2 0x272F JUMPI POP PUSH1 0x7 SLOAD PUSH1 0x1 PUSH1 0x1 PUSH1 0xA0 SHL SUB DUP4 DUP2 AND SWAP2 AND EQ JUMPDEST DUP1 PUSH2 0x2747 JUMPI POP PUSH1 0x8 SLOAD PUSH1 0x1 PUSH1 0x1 PUSH1 0xA0 SHL SUB DUP4 DUP2 AND SWAP2 AND EQ JUMPDEST DUP1 PUSH2 0x275F JUMPI POP PUSH1 0x9 SLOAD PUSH1 0x1 PUSH1 0x1 PUSH1 0xA0 SHL SUB DUP4 DUP2 AND SWAP2 AND EQ JUMPDEST DUP1 PUSH2 0x2777 JUMPI POP PUSH1 0xA SLOAD PUSH1 0x1 PUSH1 0x1 PUSH1 0xA0 SHL SUB DUP4 DUP2 AND SWAP2 AND EQ JUMPDEST DUP1 PUSH2 0x278F JUMPI POP PUSH1 0xB SLOAD PUSH1 0x1 PUSH1 0x1 PUSH1 0xA0 SHL SUB DUP4 DUP2 AND SWAP2 AND EQ JUMPDEST DUP1 PUSH2 0x27A7 JUMPI POP PUSH1 0xC SLOAD PUSH1 0x1 PUSH1 0x1 PUSH1 0xA0 SHL SUB DUP4 DUP2 AND SWAP2 AND EQ JUMPDEST DUP1 PUSH2 0x27BF JUMPI POP PUSH1 0xD SLOAD PUSH1 0x1 PUSH1 0x1 PUSH1 0xA0 SHL SUB DUP4 DUP2 AND SWAP2 AND EQ JUMPDEST DUP1 PUSH2 0x27D7 JUMPI POP PUSH1 0xF SLOAD PUSH1 0x1 PUSH1 0x1 PUSH1 0xA0 SHL SUB DUP4 DUP2 AND SWAP2 AND EQ JUMPDEST DUP1 PUSH2 0x128F JUMPI POP POP PUSH1 0x10 SLOAD PUSH1 0x1 PUSH1 0x1 PUSH1 0xA0 SHL SUB SWAP1 DUP2 AND SWAP2 AND EQ SWAP1 JUMP JUMPDEST PUSH0 PUSH1 0x1 PUSH1 0x1 PUSH1 0xA0 SHL SUB DUP3 AND PUSH2 0x2839 JUMPI PUSH1 0x40 MLOAD PUSH3 0x461BCD PUSH1 0xE5 SHL DUP2 MSTORE PUSH1 0x20 PUSH1 0x4 DUP3 ADD MSTORE PUSH1 0xD PUSH1 0x24 DUP3 ADD MSTORE PUSH13 0x24B73B30B634B2103A37B5B2B7 PUSH1 0x99 SHL PUSH1 0x44 DUP3 ADD MSTORE PUSH1 0x64 ADD PUSH2 0x1154 JUMP JUMPDEST ADDRESS PUSH1 0x1 PUSH1 0x1 PUSH1 0xA0 SHL SUB DUP4 AND SUB PUSH2 0x2884 JUMPI PUSH1 0x40 MLOAD PUSH3 0x461BCD PUSH1 0xE5 SHL DUP2 MSTORE PUSH1 0x20 PUSH1 0x4 DUP3 ADD MSTORE PUSH1 0x10 PUSH1 0x24 DUP3 ADD MSTORE PUSH16 0x21B0B73737BA103830B4B91039B2B633 PUSH1 0x81 SHL PUSH1 0x44 DUP3 ADD MSTORE PUSH1 0x64 ADD PUSH2 0x1154 JUMP JUMPDEST PUSH1 0x10 SLOAD PUSH1 0x40 MLOAD PUSH4 0xE6A43905 PUSH1 0xE0 SHL DUP2 MSTORE ADDRESS PUSH1 0x4 DUP3 ADD MSTORE PUSH1 0x1 PUSH1 0x1 PUSH1 0xA0 SHL SUB DUP5 DUP2 AND PUSH1 0x24 DUP4 ADD MSTORE SWAP1 SWAP2 AND SWAP1 PUSH4 0xE6A43905 SWAP1 PUSH1 0x44 ADD PUSH1 0x20 PUSH1 0x40 MLOAD DUP1 DUP4 SUB DUP2 DUP7 GAS STATICCALL ISZERO DUP1 ISZERO PUSH2 0x28D2 JUMPI RETURNDATASIZE PUSH0 PUSH0 RETURNDATACOPY RETURNDATASIZE PUSH0 REVERT JUMPDEST POP POP POP POP PUSH1 0x40 MLOAD RETURNDATASIZE PUSH1 0x1F NOT PUSH1 0x1F DUP3 ADD AND DUP3 ADD DUP1 PUSH1 0x40 MSTORE POP DUP2 ADD SWAP1 PUSH2 0x128F SWAP2 SWAP1 PUSH2 0x5CA8 JUMP JUMPDEST CALLER PUSH1 0x1 PUSH1 0x1 PUSH1 0xA0 SHL SUB PUSH32 0x0 AND EQ DUP1 PUSH2 0x2937 JUMPI POP PUSH1 0x4 SLOAD PUSH1 0x1 PUSH1 0x1 PUSH1 0xA0 SHL SUB AND CALLER EQ JUMPDEST DUP1 PUSH2 0x294C JUMPI POP PUSH1 0x5 SLOAD PUSH1 0x1 PUSH1 0x1 PUSH1 0xA0 SHL SUB AND CALLER EQ JUMPDEST DUP1 PUSH2 0x2961 JUMPI POP PUSH1 0x6 SLOAD PUSH1 0x1 PUSH1 0x1 PUSH1 0xA0 SHL SUB AND CALLER EQ JUMPDEST DUP1 PUSH2 0x2976 JUMPI POP PUSH1 0x7 SLOAD PUSH1 0x1 PUSH1 0x1 PUSH1 0xA0 SHL SUB AND CALLER EQ JUMPDEST DUP1 PUSH2 0x298B JUMPI POP PUSH1 0x8 SLOAD PUSH1 0x1 PUSH1 0x1 PUSH1 0xA0 SHL SUB AND CALLER EQ JUMPDEST DUP1 PUSH2 0x29A0 JUMPI POP PUSH1 0x9 SLOAD PUSH1 0x1 PUSH1 0x1 PUSH1 0xA0 SHL SUB AND CALLER EQ JUMPDEST DUP1 PUSH2 0x29B5 JUMPI POP PUSH1 0xA SLOAD PUSH1 0x1 PUSH1 0x1 PUSH1 0xA0 SHL SUB AND CALLER EQ JUMPDEST DUP1 PUSH2 0x29CA JUMPI POP PUSH1 0xB SLOAD PUSH1 0x1 PUSH1 0x1 PUSH1 0xA0 SHL SUB AND CALLER EQ JUMPDEST DUP1 PUSH2 0x29DF JUMPI POP PUSH1 0xC SLOAD PUSH1 0x1 PUSH1 0x1 PUSH1 0xA0 SHL SUB AND CALLER EQ JUMPDEST DUP1 PUSH2 0x29F4 JUMPI POP PUSH1 0xD SLOAD PUSH1 0x1 PUSH1 0x1 PUSH1 0xA0 SHL SUB AND CALLER EQ JUMPDEST DUP1 PUSH2 0x2A09 JUMPI POP PUSH1 0xE SLOAD PUSH1 0x1 PUSH1 0x1 PUSH1 0xA0 SHL SUB AND CALLER EQ JUMPDEST PUSH2 0x2A25 JUMPI PUSH1 0x40 MLOAD PUSH3 0x461BCD PUSH1 0xE5 SHL DUP2 MSTORE PUSH1 0x4 ADD PUSH2 0x1154 SWAP1 PUSH2 0x5B11 JUMP JUMPDEST PUSH1 0x1C DUP1 SLOAD PUSH1 0xFF NOT AND PUSH1 0x1 OR SWAP1 SSTORE PUSH1 0x40 MLOAD PUSH32 0x8626B5EBA97CB663EE6BC23F6F1085D98D9AE2A677D0F785943AEB24557B0007 SWAP1 PUSH0 SWAP1 LOG1 JUMP JUMPDEST PUSH1 0xE SLOAD PUSH1 0x1 PUSH1 0x1 PUSH1 0xA0 SHL SUB AND CALLER EQ PUSH2 0x2A86 JUMPI PUSH1 0x40 MLOAD PUSH3 0x461BCD PUSH1 0xE5 SHL DUP2 MSTORE PUSH1 0x4 ADD PUSH2 0x1154 SWAP1 PUSH2 0x5BCC JUMP JUMPDEST PUSH1 0xE SLOAD PUSH1 0x1 PUSH1 0x1 PUSH1 0xA0 SHL SUB AND PUSH2 0x2AAE JUMPI PUSH1 0x40 MLOAD PUSH3 0x461BCD PUSH1 0xE5 SHL DUP2 MSTORE PUSH1 0x4 ADD PUSH2 0x1154 SWAP1 PUSH2 0x5BF4 JUMP JUMPDEST PUSH0 JUMPDEST DUP2 DUP2 LT ISZERO PUSH2 0x2BB6 JUMPI PUSH1 0x18 PUSH0 DUP5 DUP5 DUP5 DUP2 DUP2 LT PUSH2 0x2ACD JUMPI PUSH2 0x2ACD PUSH2 0x5BB8 JUMP JUMPDEST SWAP1 POP PUSH1 0x20 MUL ADD PUSH1 0x20 DUP2 ADD SWAP1 PUSH2 0x2AE2 SWAP2 SWAP1 PUSH2 0x58B0 JUMP JUMPDEST PUSH1 0x1 PUSH1 0x1 PUSH1 0xA0 SHL SUB AND DUP2 MSTORE PUSH1 0x20 DUP2 ADD SWAP2 SWAP1 SWAP2 MSTORE PUSH1 0x40 ADD PUSH0 KECCAK256 SLOAD PUSH1 0xFF AND ISZERO PUSH2 0x2BAE JUMPI PUSH0 PUSH1 0x18 PUSH0 DUP6 DUP6 DUP6 DUP2 DUP2 LT PUSH2 0x2B19 JUMPI PUSH2 0x2B19 PUSH2 0x5BB8 JUMP JUMPDEST SWAP1 POP PUSH1 0x20 MUL ADD PUSH1 0x20 DUP2 ADD SWAP1 PUSH2 0x2B2E SWAP2 SWAP1 PUSH2 0x58B0 JUMP JUMPDEST PUSH1 0x1 PUSH1 0x1 PUSH1 0xA0 SHL SUB AND DUP2 MSTORE PUSH1 0x20 DUP2 ADD SWAP2 SWAP1 SWAP2 MSTORE PUSH1 0x40 ADD PUSH0 KECCAK256 DUP1 SLOAD PUSH1 0xFF NOT AND SWAP2 ISZERO ISZERO SWAP2 SWAP1 SWAP2 OR SWAP1 SSTORE DUP3 DUP3 DUP3 DUP2 DUP2 LT PUSH2 0x2B67 JUMPI PUSH2 0x2B67 PUSH2 0x5BB8 JUMP JUMPDEST SWAP1 POP PUSH1 0x20 MUL ADD PUSH1 0x20 DUP2 ADD SWAP1 PUSH2 0x2B7C SWAP2 SWAP1 PUSH2 0x58B0 JUMP JUMPDEST PUSH1 0x1 PUSH1 0x1 PUSH1 0xA0 SHL SUB AND PUSH0 MLOAD PUSH1 0x20 PUSH2 0x5CFC PUSH0 CODECOPY PUSH0 MLOAD SWAP1 PUSH0 MSTORE PUSH0 PUSH1 0x40 MLOAD PUSH2 0x2BA5 SWAP2 ISZERO ISZERO DUP2 MSTORE PUSH1 0x20 ADD SWAP1 JUMP JUMPDEST PUSH1 0x40 MLOAD DUP1 SWAP2 SUB SWAP1 LOG2 JUMPDEST PUSH1 0x1 ADD PUSH2 0x2AB0 JUMP JUMPDEST POP POP POP JUMP JUMPDEST CALLER PUSH1 0x1 PUSH1 0x1 PUSH1 0xA0 SHL SUB PUSH32 0x0 AND EQ DUP1 PUSH2 0x2BFC JUMPI POP PUSH1 0x4 SLOAD PUSH1 0x1 PUSH1 0x1 PUSH1 0xA0 SHL SUB AND CALLER EQ JUMPDEST DUP1 PUSH2 0x2C11 JUMPI POP PUSH1 0x5 SLOAD PUSH1 0x1 PUSH1 0x1 PUSH1 0xA0 SHL SUB AND CALLER EQ JUMPDEST DUP1 PUSH2 0x2C26 JUMPI POP PUSH1 0x6 SLOAD PUSH1 0x1 PUSH1 0x1 PUSH1 0xA0 SHL SUB AND CALLER EQ JUMPDEST DUP1 PUSH2 0x2C3B JUMPI POP PUSH1 0x7 SLOAD PUSH1 0x1 PUSH1 0x1 PUSH1 0xA0 SHL SUB AND CALLER EQ JUMPDEST DUP1 PUSH2 0x2C50 JUMPI POP PUSH1 0x8 SLOAD PUSH1 0x1 PUSH1 0x1 PUSH1 0xA0 SHL SUB AND CALLER EQ JUMPDEST DUP1 PUSH2 0x2C65 JUMPI POP PUSH1 0x9 SLOAD PUSH1 0x1 PUSH1 0x1 PUSH1 0xA0 SHL SUB AND CALLER EQ JUMPDEST DUP1 PUSH2 0x2C7A JUMPI POP PUSH1 0xA SLOAD PUSH1 0x1 PUSH1 0x1 PUSH1 0xA0 SHL SUB AND CALLER EQ JUMPDEST DUP1 PUSH2 0x2C8F JUMPI POP PUSH1 0xB SLOAD PUSH1 0x1 PUSH1 0x1 PUSH1 0xA0 SHL SUB AND CALLER EQ JUMPDEST DUP1 PUSH2 0x2CA4 JUMPI POP PUSH1 0xC SLOAD PUSH1 0x1 PUSH1 0x1 PUSH1 0xA0 SHL SUB AND CALLER EQ JUMPDEST DUP1 PUSH2 0x2CB9 JUMPI POP PUSH1 0xD SLOAD PUSH1 0x1 PUSH1 0x1 PUSH1 0xA0 SHL SUB AND CALLER EQ JUMPDEST DUP1 PUSH2 0x2CCE JUMPI POP PUSH1 0xE SLOAD PUSH1 0x1 PUSH1 0x1 PUSH1 0xA0 SHL SUB AND CALLER EQ JUMPDEST PUSH2 0x2CEA JUMPI PUSH1 0x40 MLOAD PUSH3 0x461BCD PUSH1 0xE5 SHL DUP2 MSTORE PUSH1 0x4 ADD PUSH2 0x1154 SWAP1 PUSH2 0x5B11 JUMP JUMPDEST PUSH2 0x2CF7 PUSH3 0x2A300 TIMESTAMP PUSH2 0x5BA5 JUMP JUMPDEST PUSH1 0x3 DUP2 SWAP1 SSTORE PUSH1 0x40 MLOAD SWAP1 DUP2 MSTORE PUSH0 MLOAD PUSH1 0x20 PUSH2 0x5CDC PUSH0 CODECOPY PUSH0 MLOAD SWAP1 PUSH0 MSTORE SWAP1 PUSH1 0x20 ADD JUMPDEST PUSH1 0x40 MLOAD DUP1 SWAP2 SUB SWAP1 LOG1 JUMP JUMPDEST CALLER PUSH0 SWAP1 DUP2 MSTORE PUSH1 0x15 PUSH1 0x20 SWAP1 DUP2 MSTORE PUSH1 0x40 DUP1 DUP4 KECCAK256 PUSH1 0x1 PUSH1 0x1 PUSH1 0xA0 SHL SUB DUP7 AND DUP5 MSTORE SWAP1 SWAP2 MSTORE DUP2 KECCAK256 SLOAD DUP3 DUP2 LT ISZERO PUSH2 0x2D82 JUMPI PUSH1 0x40 MLOAD PUSH3 0x461BCD PUSH1 0xE5 SHL DUP2 MSTORE PUSH1 0x20 PUSH1 0x4 DUP3 ADD MSTORE PUSH1 0xD PUSH1 0x24 DUP3 ADD MSTORE PUSH13 0x4C6F7720616C6C6F77616E6365 PUSH1 0x98 SHL PUSH1 0x44 DUP3 ADD MSTORE PUSH1 0x64 ADD PUSH2 0x1154 JUMP JUMPDEST PUSH2 0x2D8F CALLER DUP6 DUP6 DUP5 SUB PUSH2 0x4D34 JUMP JUMPDEST POP PUSH1 0x1 SWAP4 SWAP3 POP POP POP JUMP JUMPDEST PUSH2 0x2DA1 PUSH2 0x5846 JUMP JUMPDEST PUSH1 0x4 SLOAD PUSH1 0x1 PUSH1 0x1 PUSH1 0xA0 SHL SUB SWAP1 DUP2 AND DUP3 MSTORE PUSH1 0x5 SLOAD DUP2 AND PUSH1 0x20 DUP4 ADD MSTORE PUSH1 0x6 SLOAD DUP2 AND PUSH1 0x40 DUP4 ADD MSTORE PUSH1 0x7 SLOAD DUP2 AND PUSH1 0x60 DUP4 ADD MSTORE PUSH1 0xF SLOAD PUSH1 0x10 SLOAD SWAP3 SWAP4 SWAP1 DUP3 AND SWAP3 SWAP2 DUP3 AND SWAP2 PUSH1 0x1 PUSH1 0xA0 SHL SWAP1 DIV PUSH1 0xFF AND SWAP1 JUMP JUMPDEST PUSH0 PUSH2 0x2DF8 CALLER DUP5 DUP5 PUSH2 0x4E16 JUMP JUMPDEST SWAP4 SWAP3 POP POP POP JUMP JUMPDEST CALLER PUSH1 0x1 PUSH1 0x1 PUSH1 0xA0 SHL SUB PUSH32 0x0 AND EQ DUP1 PUSH2 0x2E40 JUMPI POP PUSH1 0x4 SLOAD PUSH1 0x1 PUSH1 0x1 PUSH1 0xA0 SHL SUB AND CALLER EQ JUMPDEST DUP1 PUSH2 0x2E55 JUMPI POP PUSH1 0x5 SLOAD PUSH1 0x1 PUSH1 0x1 PUSH1 0xA0 SHL SUB AND CALLER EQ JUMPDEST DUP1 PUSH2 0x2E6A JUMPI POP PUSH1 0x6 SLOAD PUSH1 0x1 PUSH1 0x1 PUSH1 0xA0 SHL SUB AND CALLER EQ JUMPDEST DUP1 PUSH2 0x2E7F JUMPI POP PUSH1 0x7 SLOAD PUSH1 0x1 PUSH1 0x1 PUSH1 0xA0 SHL SUB AND CALLER EQ JUMPDEST DUP1 PUSH2 0x2E94 JUMPI POP PUSH1 0x8 SLOAD PUSH1 0x1 PUSH1 0x1 PUSH1 0xA0 SHL SUB AND CALLER EQ JUMPDEST DUP1 PUSH2 0x2EA9 JUMPI POP PUSH1 0x9 SLOAD PUSH1 0x1 PUSH1 0x1 PUSH1 0xA0 SHL SUB AND CALLER EQ JUMPDEST DUP1 PUSH2 0x2EBE JUMPI POP PUSH1 0xA SLOAD PUSH1 0x1 PUSH1 0x1 PUSH1 0xA0 SHL SUB AND CALLER EQ JUMPDEST DUP1 PUSH2 0x2ED3 JUMPI POP PUSH1 0xB SLOAD PUSH1 0x1 PUSH1 0x1 PUSH1 0xA0 SHL SUB AND CALLER EQ JUMPDEST DUP1 PUSH2 0x2EE8 JUMPI POP PUSH1 0xC SLOAD PUSH1 0x1 PUSH1 0x1 PUSH1 0xA0 SHL SUB AND CALLER EQ JUMPDEST DUP1 PUSH2 0x2EFD JUMPI POP PUSH1 0xD SLOAD PUSH1 0x1 PUSH1 0x1 PUSH1 0xA0 SHL SUB AND CALLER EQ JUMPDEST DUP1 PUSH2 0x2F12 JUMPI POP PUSH1 0xE SLOAD PUSH1 0x1 PUSH1 0x1 PUSH1 0xA0 SHL SUB AND CALLER EQ JUMPDEST PUSH2 0x2F2E JUMPI PUSH1 0x40 MLOAD PUSH3 0x461BCD PUSH1 0xE5 SHL DUP2 MSTORE PUSH1 0x4 ADD PUSH2 0x1154 SWAP1 PUSH2 0x5B11 JUMP JUMPDEST PUSH1 0xE SLOAD PUSH1 0x1 PUSH1 0x1 PUSH1 0xA0 SHL SUB AND CALLER EQ PUSH2 0x2F89 JUMPI PUSH1 0x10 SLOAD PUSH1 0x1 PUSH1 0xA0 SHL SWAP1 DIV PUSH1 0xFF AND ISZERO PUSH2 0x2F89 JUMPI PUSH1 0x40 MLOAD PUSH3 0x461BCD PUSH1 0xE5 SHL DUP2 MSTORE PUSH1 0x20 PUSH1 0x4 DUP3 ADD MSTORE PUSH1 0xC PUSH1 0x24 DUP3 ADD MSTORE PUSH12 0x14DB1BDD1CC81B1BD8DAD959 PUSH1 0xA2 SHL PUSH1 0x44 DUP3 ADD MSTORE PUSH1 0x64 ADD PUSH2 0x1154 JUMP JUMPDEST PUSH1 0x10 DUP1 SLOAD PUSH1 0xFF PUSH1 0xA0 SHL NOT AND PUSH1 0x1 PUSH1 0xA0 SHL OR SWAP1 SSTORE PUSH1 0x40 MLOAD PUSH32 0x8234CCD0D49A6AA697F3793C5F51D1A67334AADD98B1A80978B14C42E4204C9 SWAP1 PUSH0 SWAP1 LOG1 JUMP JUMPDEST CALLER PUSH1 0x1 PUSH1 0x1 PUSH1 0xA0 SHL SUB PUSH32 0x0 AND EQ DUP1 PUSH2 0x3007 JUMPI POP PUSH1 0x4 SLOAD PUSH1 0x1 PUSH1 0x1 PUSH1 0xA0 SHL SUB AND CALLER EQ JUMPDEST DUP1 PUSH2 0x301C JUMPI POP PUSH1 0x5 SLOAD PUSH1 0x1 PUSH1 0x1 PUSH1 0xA0 SHL SUB AND CALLER EQ JUMPDEST DUP1 PUSH2 0x3031 JUMPI POP PUSH1 0x6 SLOAD PUSH1 0x1 PUSH1 0x1 PUSH1 0xA0 SHL SUB AND CALLER EQ JUMPDEST DUP1 PUSH2 0x3046 JUMPI POP PUSH1 0x7 SLOAD PUSH1 0x1 PUSH1 0x1 PUSH1 0xA0 SHL SUB AND CALLER EQ JUMPDEST DUP1 PUSH2 0x305B JUMPI POP PUSH1 0x8 SLOAD PUSH1 0x1 PUSH1 0x1 PUSH1 0xA0 SHL SUB AND CALLER EQ JUMPDEST DUP1 PUSH2 0x3070 JUMPI POP PUSH1 0x9 SLOAD PUSH1 0x1 PUSH1 0x1 PUSH1 0xA0 SHL SUB AND CALLER EQ JUMPDEST DUP1 PUSH2 0x3085 JUMPI POP PUSH1 0xA SLOAD PUSH1 0x1 PUSH1 0x1 PUSH1 0xA0 SHL SUB AND CALLER EQ JUMPDEST DUP1 PUSH2 0x309A JUMPI POP PUSH1 0xB SLOAD PUSH1 0x1 PUSH1 0x1 PUSH1 0xA0 SHL SUB AND CALLER EQ JUMPDEST DUP1 PUSH2 0x30AF JUMPI POP PUSH1 0xC SLOAD PUSH1 0x1 PUSH1 0x1 PUSH1 0xA0 SHL SUB AND CALLER EQ JUMPDEST DUP1 PUSH2 0x30C4 JUMPI POP PUSH1 0xD SLOAD PUSH1 0x1 PUSH1 0x1 PUSH1 0xA0 SHL SUB AND CALLER EQ JUMPDEST DUP1 PUSH2 0x30D9 JUMPI POP PUSH1 0xE SLOAD PUSH1 0x1 PUSH1 0x1 PUSH1 0xA0 SHL SUB AND CALLER EQ JUMPDEST PUSH2 0x30F5 JUMPI PUSH1 0x40 MLOAD PUSH3 0x461BCD PUSH1 0xE5 SHL DUP2 MSTORE PUSH1 0x4 ADD PUSH2 0x1154 SWAP1 PUSH2 0x5B11 JUMP JUMPDEST PUSH1 0xE SLOAD PUSH1 0x1 PUSH1 0x1 PUSH1 0xA0 SHL SUB AND CALLER EQ PUSH2 0x3129 JUMPI PUSH1 0x11 SLOAD TIMESTAMP LT ISZERO PUSH2 0x3129 JUMPI PUSH1 0x40 MLOAD PUSH3 0x461BCD PUSH1 0xE5 SHL DUP2 MSTORE PUSH1 0x4 ADD PUSH2 0x1154 SWAP1 PUSH2 0x5B5A JUMP JUMPDEST PUSH0 DUP2 GT PUSH2 0x316D JUMPI PUSH1 0x40 MLOAD PUSH3 0x461BCD PUSH1 0xE5 SHL DUP2 MSTORE PUSH1 0x20 PUSH1 0x4 DUP3 ADD MSTORE PUSH1 0x12 PUSH1 0x24 DUP3 ADD MSTORE PUSH18 0x416D6F756E74206D757374206265203E203 PUSH1 0x74 SHL PUSH1 0x44 DUP3 ADD MSTORE PUSH1 0x64 ADD PUSH2 0x1154 JUMP JUMPDEST PUSH3 0x93A80 PUSH1 0x19 SLOAD PUSH2 0x317E SWAP2 SWAP1 PUSH2 0x5BA5 JUMP JUMPDEST TIMESTAMP LT ISZERO PUSH2 0x31C3 JUMPI PUSH1 0x40 MLOAD PUSH3 0x461BCD PUSH1 0xE5 SHL DUP2 MSTORE PUSH1 0x20 PUSH1 0x4 DUP3 ADD MSTORE PUSH1 0x13 PUSH1 0x24 DUP3 ADD MSTORE PUSH19 0x10DBDBDB191BDDDB881B9BDD081C185CDCD959 PUSH1 0x6A SHL PUSH1 0x44 DUP3 ADD MSTORE PUSH1 0x64 ADD PUSH2 0x1154 JUMP JUMPDEST PUSH1 0x1 SLOAD PUSH11 0x422CA8B0A00A425000000 SWAP1 PUSH0 SWAP1 PUSH2 0x2710 SWAP1 PUSH2 0x31E4 SWAP1 PUSH1 0x32 PUSH2 0x5C57 JUMP JUMPDEST PUSH2 0x31EE SWAP2 SWAP1 PUSH2 0x5C6E JUMP JUMPDEST SWAP1 POP DUP2 DUP2 LT ISZERO PUSH2 0x31FC JUMPI DUP1 SWAP2 POP JUMPDEST DUP2 DUP4 GT ISZERO PUSH2 0x323F JUMPI PUSH1 0x40 MLOAD PUSH3 0x461BCD PUSH1 0xE5 SHL DUP2 MSTORE PUSH1 0x20 PUSH1 0x4 DUP3 ADD MSTORE PUSH1 0x10 PUSH1 0x24 DUP3 ADD MSTORE PUSH16 0x115E18D959591CC81B585E081B5A5B9D PUSH1 0x82 SHL PUSH1 0x44 DUP3 ADD MSTORE PUSH1 0x64 ADD PUSH2 0x1154 JUMP JUMPDEST PUSH1 0x1B DUP1 SLOAD SWAP1 PUSH0 PUSH2 0x324E DUP4 PUSH2 0x5CC3 JUMP JUMPDEST SWAP2 SWAP1 POP SSTORE POP PUSH1 0x40 MLOAD DUP1 PUSH1 0x80 ADD PUSH1 0x40 MSTORE DUP1 DUP5 DUP2 MSTORE PUSH1 0x20 ADD TIMESTAMP DUP2 MSTORE PUSH1 0x20 ADD PUSH3 0x15180 TIMESTAMP PUSH2 0x3279 SWAP2 SWAP1 PUSH2 0x5BA5 JUMP JUMPDEST DUP2 MSTORE PUSH0 PUSH1 0x20 SWAP2 DUP3 ADD DUP2 SWAP1 MSTORE PUSH1 0x1B DUP1 SLOAD DUP3 MSTORE PUSH1 0x1A DUP4 MSTORE PUSH1 0x40 SWAP2 DUP3 SWAP1 KECCAK256 DUP5 MLOAD DUP2 SSTORE SWAP3 DUP5 ADD MLOAD PUSH1 0x1 DUP5 ADD SSTORE SWAP1 DUP4 ADD MLOAD PUSH1 0x2 DUP4 ADD SSTORE PUSH1 0x60 SWAP1 SWAP3 ADD MLOAD PUSH1 0x3 SWAP1 SWAP2 ADD DUP1 SLOAD PUSH1 0xFF NOT AND SWAP2 ISZERO ISZERO SWAP2 SWAP1 SWAP2 OR SWAP1 SSTORE SLOAD PUSH32 0x647292D081EEBCC7A2A611FA5A88554629F8FB2C089A593A8419C4F6DC7B91A3 DUP5 PUSH2 0x32F4 PUSH3 0x15180 TIMESTAMP PUSH2 0x5BA5 JUMP JUMPDEST PUSH1 0x40 DUP1 MLOAD SWAP3 DUP4 MSTORE PUSH1 0x20 DUP4 ADD SWAP2 SWAP1 SWAP2 MSTORE ADD PUSH1 0x40 MLOAD DUP1 SWAP2 SUB SWAP1 LOG2 POP POP POP JUMP JUMPDEST PUSH1 0xE SLOAD PUSH1 0x1 PUSH1 0x1 PUSH1 0xA0 SHL SUB AND CALLER EQ PUSH2 0x333B JUMPI PUSH1 0x40 MLOAD PUSH3 0x461BCD PUSH1 0xE5 SHL DUP2 MSTORE PUSH1 0x4 ADD PUSH2 0x1154 SWAP1 PUSH2 0x5BCC JUMP JUMPDEST PUSH1 0xE SLOAD PUSH1 0x1 PUSH1 0x1 PUSH1 0xA0 SHL SUB AND PUSH2 0x3363 JUMPI PUSH1 0x40 MLOAD PUSH3 0x461BCD PUSH1 0xE5 SHL DUP2 MSTORE PUSH1 0x4 ADD PUSH2 0x1154 SWAP1 PUSH2 0x5BF4 JUMP JUMPDEST PUSH1 0x13 DUP1 SLOAD PUSH1 0xFF NOT AND SWAP1 SSTORE PUSH1 0x40 MLOAD PUSH32 0xBB6C70CE316C154E62E01716EE643D3B433B5FD65F37F62E170411447251AC7A SWAP1 PUSH0 SWAP1 LOG1 JUMP JUMPDEST CALLER PUSH1 0x1 PUSH1 0x1 PUSH1 0xA0 SHL SUB PUSH32 0x0 AND EQ DUP1 PUSH2 0x33D8 JUMPI POP PUSH1 0x4 SLOAD PUSH1 0x1 PUSH1 0x1 PUSH1 0xA0 SHL SUB AND CALLER EQ JUMPDEST DUP1 PUSH2 0x33ED JUMPI POP PUSH1 0x5 SLOAD PUSH1 0x1 PUSH1 0x1 PUSH1 0xA0 SHL SUB AND CALLER EQ JUMPDEST DUP1 PUSH2 0x3402 JUMPI POP PUSH1 0x6 SLOAD PUSH1 0x1 PUSH1 0x1 PUSH1 0xA0 SHL SUB AND CALLER EQ JUMPDEST DUP1 PUSH2 0x3417 JUMPI POP PUSH1 0x7 SLOAD PUSH1 0x1 PUSH1 0x1 PUSH1 0xA0 SHL SUB AND CALLER EQ JUMPDEST DUP1 PUSH2 0x342C JUMPI POP PUSH1 0x8 SLOAD PUSH1 0x1 PUSH1 0x1 PUSH1 0xA0 SHL SUB AND CALLER EQ JUMPDEST DUP1 PUSH2 0x3441 JUMPI POP PUSH1 0x9 SLOAD PUSH1 0x1 PUSH1 0x1 PUSH1 0xA0 SHL SUB AND CALLER EQ JUMPDEST DUP1 PUSH2 0x3456 JUMPI POP PUSH1 0xA SLOAD PUSH1 0x1 PUSH1 0x1 PUSH1 0xA0 SHL SUB AND CALLER EQ JUMPDEST DUP1 PUSH2 0x346B JUMPI POP PUSH1 0xB SLOAD PUSH1 0x1 PUSH1 0x1 PUSH1 0xA0 SHL SUB AND CALLER EQ JUMPDEST DUP1 PUSH2 0x3480 JUMPI POP PUSH1 0xC SLOAD PUSH1 0x1 PUSH1 0x1 PUSH1 0xA0 SHL SUB AND CALLER EQ JUMPDEST DUP1 PUSH2 0x3495 JUMPI POP PUSH1 0xD SLOAD PUSH1 0x1 PUSH1 0x1 PUSH1 0xA0 SHL SUB AND CALLER EQ JUMPDEST DUP1 PUSH2 0x34AA JUMPI POP PUSH1 0xE SLOAD PUSH1 0x1 PUSH1 0x1 PUSH1 0xA0 SHL SUB AND CALLER EQ JUMPDEST PUSH2 0x34C6 JUMPI PUSH1 0x40 MLOAD PUSH3 0x461BCD PUSH1 0xE5 SHL DUP2 MSTORE PUSH1 0x4 ADD PUSH2 0x1154 SWAP1 PUSH2 0x5B11 JUMP JUMPDEST PUSH1 0xE SLOAD PUSH1 0x1 PUSH1 0x1 PUSH1 0xA0 SHL SUB AND CALLER EQ PUSH2 0x3518 JUMPI PUSH1 0x1C SLOAD PUSH1 0xFF AND ISZERO PUSH2 0x3518 JUMPI PUSH1 0x40 MLOAD PUSH3 0x461BCD PUSH1 0xE5 SHL DUP2 MSTORE PUSH1 0x20 PUSH1 0x4 DUP3 ADD MSTORE PUSH1 0xA PUSH1 0x24 DUP3 ADD MSTORE PUSH10 0x111156081B1BD8DAD959 PUSH1 0xB2 SHL PUSH1 0x44 DUP3 ADD MSTORE PUSH1 0x64 ADD PUSH2 0x1154 JUMP JUMPDEST PUSH1 0xE SLOAD PUSH1 0x1 PUSH1 0x1 PUSH1 0xA0 SHL SUB AND CALLER EQ PUSH2 0x354C JUMPI PUSH1 0x11 SLOAD TIMESTAMP LT ISZERO PUSH2 0x354C JUMPI PUSH1 0x40 MLOAD PUSH3 0x461BCD PUSH1 0xE5 SHL DUP2 MSTORE PUSH1 0x4 ADD PUSH2 0x1154 SWAP1 PUSH2 0x5B5A JUMP JUMPDEST PUSH1 0x1 PUSH1 0x1 PUSH1 0xA0 SHL SUB DUP3 AND PUSH2 0x3590 JUMPI PUSH1 0x40 MLOAD PUSH3 0x461BCD PUSH1 0xE5 SHL DUP2 MSTORE PUSH1 0x20 PUSH1 0x4 DUP3 ADD MSTORE PUSH1 0xB PUSH1 0x24 DUP3 ADD MSTORE PUSH11 0x526F75746572207A65726F PUSH1 0xA8 SHL PUSH1 0x44 DUP3 ADD MSTORE PUSH1 0x64 ADD PUSH2 0x1154 JUMP JUMPDEST PUSH1 0x1 PUSH1 0x1 PUSH1 0xA0 SHL SUB DUP2 AND PUSH2 0x35D5 JUMPI PUSH1 0x40 MLOAD PUSH3 0x461BCD PUSH1 0xE5 SHL DUP2 MSTORE PUSH1 0x20 PUSH1 0x4 DUP3 ADD MSTORE PUSH1 0xC PUSH1 0x24 DUP3 ADD MSTORE PUSH12 0x466163746F7279207A65726F PUSH1 0xA0 SHL PUSH1 0x44 DUP3 ADD MSTORE PUSH1 0x64 ADD PUSH2 0x1154 JUMP JUMPDEST PUSH1 0xF DUP1 SLOAD PUSH1 0x1 PUSH1 0x1 PUSH1 0xA0 SHL SUB DUP1 DUP6 AND PUSH1 0x1 PUSH1 0x1 PUSH1 0xA0 SHL SUB NOT SWAP3 DUP4 AND OR SWAP1 SWAP3 SSTORE PUSH1 0x10 DUP1 SLOAD SWAP3 DUP5 AND SWAP3 SWAP1 SWAP2 AND SWAP2 SWAP1 SWAP2 OR SWAP1 SSTORE PUSH2 0x3612 PUSH3 0x2A300 TIMESTAMP PUSH2 0x5BA5 JUMP JUMPDEST PUSH1 0x3 DUP2 SWAP1 SSTORE PUSH1 0x40 MLOAD SWAP1 DUP2 MSTORE PUSH0 MLOAD PUSH1 0x20 PUSH2 0x5CDC PUSH0 CODECOPY PUSH0 MLOAD SWAP1 PUSH0 MSTORE SWAP1 PUSH1 0x20 ADD PUSH1 0x40 MLOAD DUP1 SWAP2 SUB SWAP1 LOG1 PUSH2 0x3644 PUSH3 0x2A300 TIMESTAMP PUSH2 0x5BA5 JUMP JUMPDEST PUSH1 0x11 SSTORE PUSH1 0x40 MLOAD PUSH1 0x1 PUSH1 0x1 PUSH1 0xA0 SHL SUB DUP1 DUP4 AND SWAP2 SWAP1 DUP5 AND SWAP1 PUSH32 0x21BAEDC621B715A34BA27312A07D13D9FEFD74E0FE7770FEF56DB94F3399E5BA SWAP1 PUSH0 SWAP1 LOG3 POP POP JUMP JUMPDEST PUSH1 0xE SLOAD PUSH1 0x1 PUSH1 0x1 PUSH1 0xA0 SHL SUB AND CALLER EQ PUSH2 0x36AD JUMPI PUSH1 0x40 MLOAD PUSH3 0x461BCD PUSH1 0xE5 SHL DUP2 MSTORE PUSH1 0x4 ADD PUSH2 0x1154 SWAP1 PUSH2 0x5BCC JUMP JUMPDEST PUSH1 0xE SLOAD PUSH1 0x1 PUSH1 0x1 PUSH1 0xA0 SHL SUB AND PUSH2 0x36D5 JUMPI PUSH1 0x40 MLOAD PUSH3 0x461BCD PUSH1 0xE5 SHL DUP2 MSTORE PUSH1 0x4 ADD PUSH2 0x1154 SWAP1 PUSH2 0x5BF4 JUMP JUMPDEST PUSH1 0x1C DUP1 SLOAD PUSH1 0xFF NOT AND SWAP1 SSTORE PUSH1 0x40 MLOAD PUSH32 0x2E33380ADEA2F285A9841BB8E9745E505CE81DB299F34111D2AE1CFF72D10C28 SWAP1 PUSH0 SWAP1 LOG1 JUMP JUMPDEST PUSH0 PUSH32 0x0 PUSH1 0x1 PUSH1 0x1 PUSH1 0xA0 SHL SUB AND DUP3 PUSH1 0x1 PUSH1 0x1 PUSH1 0xA0 SHL SUB AND EQ DUP1 PUSH2 0x3757 JUMPI POP PUSH1 0x4 SLOAD PUSH1 0x1 PUSH1 0x1 PUSH1 0xA0 SHL SUB DUP4 DUP2 AND SWAP2 AND EQ JUMPDEST DUP1 PUSH2 0x376F JUMPI POP PUSH1 0x5 SLOAD PUSH1 0x1 PUSH1 0x1 PUSH1 0xA0 SHL SUB DUP4 DUP2 AND SWAP2 AND EQ JUMPDEST DUP1 PUSH2 0x3787 JUMPI POP PUSH1 0x6 SLOAD PUSH1 0x1 PUSH1 0x1 PUSH1 0xA0 SHL SUB DUP4 DUP2 AND SWAP2 AND EQ JUMPDEST DUP1 PUSH2 0x379F JUMPI POP PUSH1 0x7 SLOAD PUSH1 0x1 PUSH1 0x1 PUSH1 0xA0 SHL SUB DUP4 DUP2 AND SWAP2 AND EQ JUMPDEST DUP1 PUSH2 0x37B7 JUMPI POP PUSH1 0x8 SLOAD PUSH1 0x1 PUSH1 0x1 PUSH1 0xA0 SHL SUB DUP4 DUP2 AND SWAP2 AND EQ JUMPDEST DUP1 PUSH2 0x37CF JUMPI POP PUSH1 0x9 SLOAD PUSH1 0x1 PUSH1 0x1 PUSH1 0xA0 SHL SUB DUP4 DUP2 AND SWAP2 AND EQ JUMPDEST DUP1 PUSH2 0x37E7 JUMPI POP PUSH1 0xA SLOAD PUSH1 0x1 PUSH1 0x1 PUSH1 0xA0 SHL SUB DUP4 DUP2 AND SWAP2 AND EQ JUMPDEST DUP1 PUSH2 0x37FF JUMPI POP PUSH1 0xB SLOAD PUSH1 0x1 PUSH1 0x1 PUSH1 0xA0 SHL SUB DUP4 DUP2 AND SWAP2 AND EQ JUMPDEST DUP1 PUSH2 0x3817 JUMPI POP PUSH1 0xC SLOAD PUSH1 0x1 PUSH1 0x1 PUSH1 0xA0 SHL SUB DUP4 DUP2 AND SWAP2 AND EQ JUMPDEST DUP1 PUSH2 0x128F JUMPI POP POP PUSH1 0xD SLOAD PUSH1 0x1 PUSH1 0x1 PUSH1 0xA0 SHL SUB SWAP1 DUP2 AND SWAP2 AND EQ SWAP1 JUMP JUMPDEST PUSH0 PUSH2 0x383E PUSH1 0x3 SLOAD TIMESTAMP LT SWAP1 JUMP JUMPDEST PUSH2 0x3847 JUMPI POP PUSH0 SWAP1 JUMP JUMPDEST TIMESTAMP PUSH1 0x3 SLOAD PUSH2 0x3855 SWAP2 SWAP1 PUSH2 0x5C44 JUMP JUMPDEST SWAP1 POP SWAP1 JUMP JUMPDEST PUSH1 0xE SLOAD PUSH1 0x1 PUSH1 0x1 PUSH1 0xA0 SHL SUB AND CALLER EQ PUSH2 0x38B5 JUMPI PUSH1 0x10 SLOAD PUSH1 0x1 PUSH1 0xA0 SHL SWAP1 DIV PUSH1 0xFF AND ISZERO PUSH2 0x38B5 JUMPI PUSH1 0x40 MLOAD PUSH3 0x461BCD PUSH1 0xE5 SHL DUP2 MSTORE PUSH1 0x20 PUSH1 0x4 DUP3 ADD MSTORE PUSH1 0xC PUSH1 0x24 DUP3 ADD MSTORE PUSH12 0x14DB1BDD1CC81B1BD8DAD959 PUSH1 0xA2 SHL PUSH1 0x44 DUP3 ADD MSTORE PUSH1 0x64 ADD PUSH2 0x1154 JUMP JUMPDEST PUSH1 0x1 DUP3 PUSH1 0xFF AND LT ISZERO DUP1 ISZERO PUSH2 0x38CD JUMPI POP PUSH1 0xA DUP3 PUSH1 0xFF AND GT ISZERO JUMPDEST PUSH2 0x390E JUMPI PUSH1 0x40 MLOAD PUSH3 0x461BCD PUSH1 0xE5 SHL DUP2 MSTORE PUSH1 0x20 PUSH1 0x4 DUP3 ADD MSTORE PUSH1 0x12 PUSH1 0x24 DUP3 ADD MSTORE PUSH18 0x92DCECC2D8D2C840E6D8DEE840D2DCC8CAF PUSH1 0x73 SHL PUSH1 0x44 DUP3 ADD MSTORE PUSH1 0x64 ADD PUSH2 0x1154 JUMP JUMPDEST PUSH1 0x1 PUSH1 0x1 PUSH1 0xA0 SHL SUB DUP2 AND PUSH2 0x3953 JUMPI PUSH1 0x40 MLOAD PUSH3 0x461BCD PUSH1 0xE5 SHL DUP2 MSTORE PUSH1 0x20 PUSH1 0x4 DUP3 ADD MSTORE PUSH1 0xC PUSH1 0x24 DUP3 ADD MSTORE PUSH12 0x5A65726F2061646472657373 PUSH1 0xA0 SHL PUSH1 0x44 DUP3 ADD MSTORE PUSH1 0x64 ADD PUSH2 0x1154 JUMP JUMPDEST DUP2 PUSH1 0xFF AND PUSH1 0x1 SUB PUSH2 0x39A6 JUMPI PUSH1 0x40 MLOAD PUSH3 0x461BCD PUSH1 0xE5 SHL DUP2 MSTORE PUSH1 0x20 PUSH1 0x4 DUP3 ADD MSTORE PUSH1 0x1F PUSH1 0x24 DUP3 ADD MSTORE PUSH32 0x536C6F742031206973206F776E6572202D2063616E6E6F74206368616E676500 PUSH1 0x44 DUP3 ADD MSTORE PUSH1 0x64 ADD PUSH2 0x1154 JUMP JUMPDEST PUSH1 0x2 DUP3 PUSH1 0xFF AND LT ISZERO DUP1 ISZERO PUSH2 0x39BE JUMPI POP PUSH1 0x5 DUP3 PUSH1 0xFF AND GT ISZERO JUMPDEST ISZERO PUSH2 0x3A4A JUMPI PUSH1 0xE SLOAD PUSH1 0x1 PUSH1 0x1 PUSH1 0xA0 SHL SUB AND CALLER EQ PUSH2 0x3A1D JUMPI PUSH1 0x40 MLOAD PUSH3 0x461BCD PUSH1 0xE5 SHL DUP2 MSTORE PUSH1 0x20 PUSH1 0x4 DUP3 ADD MSTORE PUSH1 0x1C PUSH1 0x24 DUP3 ADD MSTORE PUSH32 0x4F6E6C79206D756C74692D73696720666F7220736C6F747320312D3500000000 PUSH1 0x44 DUP3 ADD MSTORE PUSH1 0x64 ADD PUSH2 0x1154 JUMP JUMPDEST PUSH1 0xE SLOAD PUSH1 0x1 PUSH1 0x1 PUSH1 0xA0 SHL SUB AND PUSH2 0x3A45 JUMPI PUSH1 0x40 MLOAD PUSH3 0x461BCD PUSH1 0xE5 SHL DUP2 MSTORE PUSH1 0x4 ADD PUSH2 0x1154 SWAP1 PUSH2 0x5BF4 JUMP JUMPDEST PUSH2 0x3B64 JUMP JUMPDEST CALLER PUSH1 0x1 PUSH1 0x1 PUSH1 0xA0 SHL SUB PUSH32 0x0 AND EQ DUP1 PUSH2 0x3A8B JUMPI POP PUSH1 0x4 SLOAD PUSH1 0x1 PUSH1 0x1 PUSH1 0xA0 SHL SUB AND CALLER EQ JUMPDEST DUP1 PUSH2 0x3AA0 JUMPI POP PUSH1 0x5 SLOAD PUSH1 0x1 PUSH1 0x1 PUSH1 0xA0 SHL SUB AND CALLER EQ JUMPDEST DUP1 PUSH2 0x3AB5 JUMPI POP PUSH1 0x6 SLOAD PUSH1 0x1 PUSH1 0x1 PUSH1 0xA0 SHL SUB AND CALLER EQ JUMPDEST DUP1 PUSH2 0x3ACA JUMPI POP PUSH1 0x7 SLOAD PUSH1 0x1 PUSH1 0x1 PUSH1 0xA0 SHL SUB AND CALLER EQ JUMPDEST DUP1 PUSH2 0x3ADF JUMPI POP PUSH1 0x8 SLOAD PUSH1 0x1 PUSH1 0x1 PUSH1 0xA0 SHL SUB AND CALLER EQ JUMPDEST DUP1 PUSH2 0x3AF4 JUMPI POP PUSH1 0x9 SLOAD PUSH1 0x1 PUSH1 0x1 PUSH1 0xA0 SHL SUB AND CALLER EQ JUMPDEST DUP1 PUSH2 0x3B09 JUMPI POP PUSH1 0xA SLOAD PUSH1 0x1 PUSH1 0x1 PUSH1 0xA0 SHL SUB AND CALLER EQ JUMPDEST DUP1 PUSH2 0x3B1E JUMPI POP PUSH1 0xB SLOAD PUSH1 0x1 PUSH1 0x1 PUSH1 0xA0 SHL SUB AND CALLER EQ JUMPDEST DUP1 PUSH2 0x3B33 JUMPI POP PUSH1 0xC SLOAD PUSH1 0x1 PUSH1 0x1 PUSH1 0xA0 SHL SUB AND CALLER EQ JUMPDEST DUP1 PUSH2 0x3B48 JUMPI POP PUSH1 0xD SLOAD PUSH1 0x1 PUSH1 0x1 PUSH1 0xA0 SHL SUB AND CALLER EQ JUMPDEST PUSH2 0x3B64 JUMPI PUSH1 0x40 MLOAD PUSH3 0x461BCD PUSH1 0xE5 SHL DUP2 MSTORE PUSH1 0x4 ADD PUSH2 0x1154 SWAP1 PUSH2 0x5B11 JUMP JUMPDEST DUP2 PUSH1 0xFF AND PUSH1 0x2 SUB PUSH2 0x3B8F JUMPI PUSH1 0x5 DUP1 SLOAD PUSH1 0x1 PUSH1 0x1 PUSH1 0xA0 SHL SUB NOT AND PUSH1 0x1 PUSH1 0x1 PUSH1 0xA0 SHL SUB DUP4 AND OR SWAP1 SSTORE PUSH2 0x3CE3 JUMP JUMPDEST DUP2 PUSH1 0xFF AND PUSH1 0x3 SUB PUSH2 0x3BBA JUMPI PUSH1 0x6 DUP1 SLOAD PUSH1 0x1 PUSH1 0x1 PUSH1 0xA0 SHL SUB NOT AND PUSH1 0x1 PUSH1 0x1 PUSH1 0xA0 SHL SUB DUP4 AND OR SWAP1 SSTORE PUSH2 0x3CE3 JUMP JUMPDEST DUP2 PUSH1 0xFF AND PUSH1 0x4 SUB PUSH2 0x3BE5 JUMPI PUSH1 0x7 DUP1 SLOAD PUSH1 0x1 PUSH1 0x1 PUSH1 0xA0 SHL SUB NOT AND PUSH1 0x1 PUSH1 0x1 PUSH1 0xA0 SHL SUB DUP4 AND OR SWAP1 SSTORE PUSH2 0x3CE3 JUMP JUMPDEST DUP2 PUSH1 0xFF AND PUSH1 0x5 SUB PUSH2 0x3C10 JUMPI PUSH1 0x8 DUP1 SLOAD PUSH1 0x1 PUSH1 0x1 PUSH1 0xA0 SHL SUB NOT AND PUSH1 0x1 PUSH1 0x1 PUSH1 0xA0 SHL SUB DUP4 AND OR SWAP1 SSTORE PUSH2 0x3CE3 JUMP JUMPDEST DUP2 PUSH1 0xFF AND PUSH1 0x6 SUB PUSH2 0x3C3B JUMPI PUSH1 0x9 DUP1 SLOAD PUSH1 0x1 PUSH1 0x1 PUSH1 0xA0 SHL SUB NOT AND PUSH1 0x1 PUSH1 0x1 PUSH1 0xA0 SHL SUB DUP4 AND OR SWAP1 SSTORE PUSH2 0x3CE3 JUMP JUMPDEST DUP2 PUSH1 0xFF AND PUSH1 0x7 SUB PUSH2 0x3C66 JUMPI PUSH1 0xA DUP1 SLOAD PUSH1 0x1 PUSH1 0x1 PUSH1 0xA0 SHL SUB NOT AND PUSH1 0x1 PUSH1 0x1 PUSH1 0xA0 SHL SUB DUP4 AND OR SWAP1 SSTORE PUSH2 0x3CE3 JUMP JUMPDEST DUP2 PUSH1 0xFF AND PUSH1 0x8 SUB PUSH2 0x3C91 JUMPI PUSH1 0xB DUP1 SLOAD PUSH1 0x1 PUSH1 0x1 PUSH1 0xA0 SHL SUB NOT AND PUSH1 0x1 PUSH1 0x1 PUSH1 0xA0 SHL SUB DUP4 AND OR SWAP1 SSTORE PUSH2 0x3CE3 JUMP JUMPDEST DUP2 PUSH1 0xFF AND PUSH1 0x9 SUB PUSH2 0x3CBC JUMPI PUSH1 0xC DUP1 SLOAD PUSH1 0x1 PUSH1 0x1 PUSH1 0xA0 SHL SUB NOT AND PUSH1 0x1 PUSH1 0x1 PUSH1 0xA0 SHL SUB DUP4 AND OR SWAP1 SSTORE PUSH2 0x3CE3 JUMP JUMPDEST DUP2 PUSH1 0xFF AND PUSH1 0xA SUB PUSH2 0x3CE3 JUMPI PUSH1 0xD DUP1 SLOAD PUSH1 0x1 PUSH1 0x1 PUSH1 0xA0 SHL SUB NOT AND PUSH1 0x1 PUSH1 0x1 PUSH1 0xA0 SHL SUB DUP4 AND OR SWAP1 SSTORE JUMPDEST PUSH2 0x3CF0 PUSH3 0x2A300 TIMESTAMP PUSH2 0x5BA5 JUMP JUMPDEST PUSH1 0x3 DUP2 SWAP1 SSTORE PUSH1 0x40 MLOAD SWAP1 DUP2 MSTORE PUSH0 MLOAD PUSH1 0x20 PUSH2 0x5CDC PUSH0 CODECOPY PUSH0 MLOAD SWAP1 PUSH0 MSTORE SWAP1 PUSH1 0x20 ADD PUSH1 0x40 MLOAD DUP1 SWAP2 SUB SWAP1 LOG1 PUSH2 0x3D22 PUSH3 0x2A300 TIMESTAMP PUSH2 0x5BA5 JUMP JUMPDEST PUSH1 0x11 SSTORE PUSH1 0x40 MLOAD PUSH1 0x1 PUSH1 0x1 PUSH1 0xA0 SHL SUB DUP3 AND SWAP1 PUSH1 0xFF DUP5 AND SWAP1 PUSH32 0x55FA37C516338944FCC832B2FFDE413707862AF8395516E549C43AF435A58797 SWAP1 PUSH0 SWAP1 LOG3 POP POP JUMP JUMPDEST PUSH0 PUSH32 0x0 TIMESTAMP LT PUSH2 0x3D8E JUMPI POP PUSH0 SWAP1 JUMP JUMPDEST PUSH2 0x3855 TIMESTAMP PUSH32 0x0 PUSH2 0x5C44 JUMP JUMPDEST CALLER PUSH1 0x1 PUSH1 0x1 PUSH1 0xA0 SHL SUB PUSH32 0x0 AND EQ DUP1 PUSH2 0x3DF9 JUMPI POP PUSH1 0x4 SLOAD PUSH1 0x1 PUSH1 0x1 PUSH1 0xA0 SHL SUB AND CALLER EQ JUMPDEST DUP1 PUSH2 0x3E0E JUMPI POP PUSH1 0x5 SLOAD PUSH1 0x1 PUSH1 0x1 PUSH1 0xA0 SHL SUB AND CALLER EQ JUMPDEST DUP1 PUSH2 0x3E23 JUMPI POP PUSH1 0x6 SLOAD PUSH1 0x1 PUSH1 0x1 PUSH1 0xA0 SHL SUB AND CALLER EQ JUMPDEST DUP1 PUSH2 0x3E38 JUMPI POP PUSH1 0x7 SLOAD PUSH1 0x1 PUSH1 0x1 PUSH1 0xA0 SHL SUB AND CALLER EQ JUMPDEST DUP1 PUSH2 0x3E4D JUMPI POP PUSH1 0x8 SLOAD PUSH1 0x1 PUSH1 0x1 PUSH1 0xA0 SHL SUB AND CALLER EQ JUMPDEST DUP1 PUSH2 0x3E62 JUMPI POP PUSH1 0x9 SLOAD PUSH1 0x1 PUSH1 0x1 PUSH1 0xA0 SHL SUB AND CALLER EQ JUMPDEST DUP1 PUSH2 0x3E77 JUMPI POP PUSH1 0xA SLOAD PUSH1 0x1 PUSH1 0x1 PUSH1 0xA0 SHL SUB AND CALLER EQ JUMPDEST DUP1 PUSH2 0x3E8C JUMPI POP PUSH1 0xB SLOAD PUSH1 0x1 PUSH1 0x1 PUSH1 0xA0 SHL SUB AND CALLER EQ JUMPDEST DUP1 PUSH2 0x3EA1 JUMPI POP PUSH1 0xC SLOAD PUSH1 0x1 PUSH1 0x1 PUSH1 0xA0 SHL SUB AND CALLER EQ JUMPDEST DUP1 PUSH2 0x3EB6 JUMPI POP PUSH1 0xD SLOAD PUSH1 0x1 PUSH1 0x1 PUSH1 0xA0 SHL SUB AND CALLER EQ JUMPDEST DUP1 PUSH2 0x3ECB JUMPI POP PUSH1 0xE SLOAD PUSH1 0x1 PUSH1 0x1 PUSH1 0xA0 SHL SUB AND CALLER EQ JUMPDEST PUSH2 0x3EE7 JUMPI PUSH1 0x40 MLOAD PUSH3 0x461BCD PUSH1 0xE5 SHL DUP2 MSTORE PUSH1 0x4 ADD PUSH2 0x1154 SWAP1 PUSH2 0x5B11 JUMP JUMPDEST PUSH1 0xE SLOAD PUSH1 0x1 PUSH1 0x1 PUSH1 0xA0 SHL SUB AND CALLER EQ PUSH2 0x3F1C JUMPI PUSH1 0x13 SLOAD PUSH1 0xFF AND ISZERO PUSH2 0x3F1C JUMPI PUSH1 0x40 MLOAD PUSH3 0x461BCD PUSH1 0xE5 SHL DUP2 MSTORE PUSH1 0x4 ADD PUSH2 0x1154 SWAP1 PUSH2 0x5B34 JUMP JUMPDEST PUSH1 0xE SLOAD PUSH1 0x1 PUSH1 0x1 PUSH1 0xA0 SHL SUB AND CALLER EQ PUSH2 0x3F50 JUMPI PUSH1 0x11 SLOAD TIMESTAMP LT ISZERO PUSH2 0x3F50 JUMPI PUSH1 0x40 MLOAD PUSH3 0x461BCD PUSH1 0xE5 SHL DUP2 MSTORE PUSH1 0x4 ADD PUSH2 0x1154 SWAP1 PUSH2 0x5B5A JUMP JUMPDEST PUSH0 JUMPDEST DUP3 DUP2 LT ISZERO PUSH2 0x4056 JUMPI PUSH0 DUP5 DUP5 DUP4 DUP2 DUP2 LT PUSH2 0x3F6D JUMPI PUSH2 0x3F6D PUSH2 0x5BB8 JUMP JUMPDEST SWAP1 POP PUSH1 0x20 MUL ADD PUSH1 0x20 DUP2 ADD SWAP1 PUSH2 0x3F82 SWAP2 SWAP1 PUSH2 0x58B0 JUMP JUMPDEST PUSH1 0x1 PUSH1 0x1 PUSH1 0xA0 SHL SUB AND EQ PUSH2 0x404E JUMPI DUP2 PUSH1 0x12 PUSH0 DUP7 DUP7 DUP6 DUP2 DUP2 LT PUSH2 0x3FA6 JUMPI PUSH2 0x3FA6 PUSH2 0x5BB8 JUMP JUMPDEST SWAP1 POP PUSH1 0x20 MUL ADD PUSH1 0x20 DUP2 ADD SWAP1 PUSH2 0x3FBB SWAP2 SWAP1 PUSH2 0x58B0 JUMP JUMPDEST PUSH1 0x1 PUSH1 0x1 PUSH1 0xA0 SHL SUB AND DUP2 MSTORE PUSH1 0x20 DUP2 ADD SWAP2 SWAP1 SWAP2 MSTORE PUSH1 0x40 ADD PUSH0 KECCAK256 DUP1 SLOAD PUSH1 0xFF NOT AND SWAP2 ISZERO ISZERO SWAP2 SWAP1 SWAP2 OR SWAP1 SSTORE DUP4 DUP4 DUP3 DUP2 DUP2 LT PUSH2 0x3FF4 JUMPI PUSH2 0x3FF4 PUSH2 0x5BB8 JUMP JUMPDEST SWAP1 POP PUSH1 0x20 MUL ADD PUSH1 0x20 DUP2 ADD SWAP1 PUSH2 0x4009 SWAP2 SWAP1 PUSH2 0x58B0 JUMP JUMPDEST PUSH1 0x1 PUSH1 0x1 PUSH1 0xA0 SHL SUB AND PUSH32 0x7A2F4227DF0CE76D5D4187329FAAF8C53EB621FD92EDB868D331F292BB011344 DUP4 PUSH1 0x40 MLOAD PUSH2 0x4045 SWAP2 ISZERO ISZERO DUP2 MSTORE PUSH1 0x20 ADD SWAP1 JUMP JUMPDEST PUSH1 0x40 MLOAD DUP1 SWAP2 SUB SWAP1 LOG2 JUMPDEST PUSH1 0x1 ADD PUSH2 0x3F52 JUMP JUMPDEST POP PUSH2 0x4064 PUSH3 0x2A300 TIMESTAMP PUSH2 0x5BA5 JUMP JUMPDEST PUSH1 0x3 DUP2 SWAP1 SSTORE PUSH1 0x40 MLOAD SWAP1 DUP2 MSTORE PUSH0 MLOAD PUSH1 0x20 PUSH2 0x5CDC PUSH0 CODECOPY PUSH0 MLOAD SWAP1 PUSH0 MSTORE SWAP1 PUSH1 0x20 ADD PUSH1 0x40 MLOAD DUP1 SWAP2 SUB SWAP1 LOG1 PUSH2 0x4096 PUSH3 0x2A300 TIMESTAMP PUSH2 0x5BA5 JUMP JUMPDEST PUSH1 0x11 SSTORE POP POP POP JUMP JUMPDEST CALLER PUSH1 0x1 PUSH1 0x1 PUSH1 0xA0 SHL SUB PUSH32 0x0 AND EQ DUP1 PUSH2 0x40DF JUMPI POP PUSH1 0x4 SLOAD PUSH1 0x1 PUSH1 0x1 PUSH1 0xA0 SHL SUB AND CALLER EQ JUMPDEST DUP1 PUSH2 0x40F4 JUMPI POP PUSH1 0x5 SLOAD PUSH1 0x1 PUSH1 0x1 PUSH1 0xA0 SHL SUB AND CALLER EQ JUMPDEST DUP1 PUSH2 0x4109 JUMPI POP PUSH1 0x6 SLOAD PUSH1 0x1 PUSH1 0x1 PUSH1 0xA0 SHL SUB AND CALLER EQ JUMPDEST DUP1 PUSH2 0x411E JUMPI POP PUSH1 0x7 SLOAD PUSH1 0x1 PUSH1 0x1 PUSH1 0xA0 SHL SUB AND CALLER EQ JUMPDEST DUP1 PUSH2 0x4133 JUMPI POP PUSH1 0x8 SLOAD PUSH1 0x1 PUSH1 0x1 PUSH1 0xA0 SHL SUB AND CALLER EQ JUMPDEST DUP1 PUSH2 0x4148 JUMPI POP PUSH1 0x9 SLOAD PUSH1 0x1 PUSH1 0x1 PUSH1 0xA0 SHL SUB AND CALLER EQ JUMPDEST DUP1 PUSH2 0x415D JUMPI POP PUSH1 0xA SLOAD PUSH1 0x1 PUSH1 0x1 PUSH1 0xA0 SHL SUB AND CALLER EQ JUMPDEST DUP1 PUSH2 0x4172 JUMPI POP PUSH1 0xB SLOAD PUSH1 0x1 PUSH1 0x1 PUSH1 0xA0 SHL SUB AND CALLER EQ JUMPDEST DUP1 PUSH2 0x4187 JUMPI POP PUSH1 0xC SLOAD PUSH1 0x1 PUSH1 0x1 PUSH1 0xA0 SHL SUB AND CALLER EQ JUMPDEST DUP1 PUSH2 0x419C JUMPI POP PUSH1 0xD SLOAD PUSH1 0x1 PUSH1 0x1 PUSH1 0xA0 SHL SUB AND CALLER EQ JUMPDEST DUP1 PUSH2 0x41B1 JUMPI POP PUSH1 0xE SLOAD PUSH1 0x1 PUSH1 0x1 PUSH1 0xA0 SHL SUB AND CALLER EQ JUMPDEST PUSH2 0x41CD JUMPI PUSH1 0x40 MLOAD PUSH3 0x461BCD PUSH1 0xE5 SHL DUP2 MSTORE PUSH1 0x4 ADD PUSH2 0x1154 SWAP1 PUSH2 0x5B11 JUMP JUMPDEST PUSH1 0xE SLOAD PUSH1 0x1 PUSH1 0x1 PUSH1 0xA0 SHL SUB AND CALLER EQ PUSH2 0x4201 JUMPI PUSH1 0x11 SLOAD TIMESTAMP LT ISZERO PUSH2 0x4201 JUMPI PUSH1 0x40 MLOAD PUSH3 0x461BCD PUSH1 0xE5 SHL DUP2 MSTORE PUSH1 0x4 ADD PUSH2 0x1154 SWAP1 PUSH2 0x5B5A JUMP JUMPDEST PUSH0 DUP2 DUP2 MSTORE PUSH1 0x1A PUSH1 0x20 MSTORE PUSH1 0x40 SWAP1 KECCAK256 PUSH1 0x3 DUP2 ADD SLOAD PUSH1 0xFF AND ISZERO PUSH2 0x4256 JUMPI PUSH1 0x40 MLOAD PUSH3 0x461BCD PUSH1 0xE5 SHL DUP2 MSTORE PUSH1 0x20 PUSH1 0x4 DUP3 ADD MSTORE PUSH1 0x10 PUSH1 0x24 DUP3 ADD MSTORE PUSH16 0x105B1C9958591E48195E1958DD5D1959 PUSH1 0x82 SHL PUSH1 0x44 DUP3 ADD MSTORE PUSH1 0x64 ADD PUSH2 0x1154 JUMP JUMPDEST DUP1 SLOAD PUSH2 0x4297 JUMPI PUSH1 0x40 MLOAD PUSH3 0x461BCD PUSH1 0xE5 SHL DUP2 MSTORE PUSH1 0x20 PUSH1 0x4 DUP3 ADD MSTORE PUSH1 0x10 PUSH1 0x24 DUP3 ADD MSTORE PUSH16 0x125B9D985B1A59081C1C9BDC1BDCD85B PUSH1 0x82 SHL PUSH1 0x44 DUP3 ADD MSTORE PUSH1 0x64 ADD PUSH2 0x1154 JUMP JUMPDEST DUP1 PUSH1 0x2 ADD SLOAD TIMESTAMP LT ISZERO PUSH2 0x42E1 JUMPI PUSH1 0x40 MLOAD PUSH3 0x461BCD PUSH1 0xE5 SHL DUP2 MSTORE PUSH1 0x20 PUSH1 0x4 DUP3 ADD MSTORE PUSH1 0x13 PUSH1 0x24 DUP3 ADD MSTORE PUSH19 0x151A5B595B1BD8DAC81B9BDD081C185CDCD959 PUSH1 0x6A SHL PUSH1 0x44 DUP3 ADD MSTORE PUSH1 0x64 ADD PUSH2 0x1154 JUMP JUMPDEST PUSH1 0x3 DUP2 ADD DUP1 SLOAD PUSH1 0xFF NOT AND PUSH1 0x1 SWAP1 DUP2 OR SWAP1 SWAP2 SSTORE TIMESTAMP PUSH1 0x19 SSTORE DUP2 SLOAD DUP2 SLOAD ADD SWAP1 SSTORE DUP1 SLOAD PUSH1 0x1 PUSH1 0x1 PUSH1 0xA0 SHL SUB PUSH32 0x0 AND PUSH0 DUP2 DUP2 MSTORE PUSH1 0x14 PUSH1 0x20 MSTORE PUSH1 0x40 DUP1 DUP3 KECCAK256 DUP1 SLOAD SWAP1 SWAP5 ADD SWAP1 SWAP4 SSTORE DUP4 SLOAD SWAP3 MLOAD SWAP2 SWAP3 SWAP1 SWAP2 PUSH0 MLOAD PUSH1 0x20 PUSH2 0x5D1C PUSH0 CODECOPY PUSH0 MLOAD SWAP1 PUSH0 MSTORE SWAP2 PUSH2 0x4364 SWAP2 SWAP1 DUP2 MSTORE PUSH1 0x20 ADD SWAP1 JUMP JUMPDEST PUSH1 0x40 MLOAD DUP1 SWAP2 SUB SWAP1 LOG3 DUP1 SLOAD PUSH1 0x40 MLOAD SWAP1 DUP2 MSTORE DUP3 SWAP1 PUSH32 0x1C8450E81009BAE0B2DC2AF7E74559BB5A99E3C83EE6199C8822376295F958EA SWAP1 PUSH1 0x20 ADD PUSH2 0x14F6 JUMP JUMPDEST CALLER PUSH1 0x1 PUSH1 0x1 PUSH1 0xA0 SHL SUB PUSH32 0x0 AND EQ DUP1 PUSH2 0x43E1 JUMPI POP PUSH1 0x4 SLOAD PUSH1 0x1 PUSH1 0x1 PUSH1 0xA0 SHL SUB AND CALLER EQ JUMPDEST DUP1 PUSH2 0x43F6 JUMPI POP PUSH1 0x5 SLOAD PUSH1 0x1 PUSH1 0x1 PUSH1 0xA0 SHL SUB AND CALLER EQ JUMPDEST DUP1 PUSH2 0x440B JUMPI POP PUSH1 0x6 SLOAD PUSH1 0x1 PUSH1 0x1 PUSH1 0xA0 SHL SUB AND CALLER EQ JUMPDEST DUP1 PUSH2 0x4420 JUMPI POP PUSH1 0x7 SLOAD PUSH1 0x1 PUSH1 0x1 PUSH1 0xA0 SHL SUB AND CALLER EQ JUMPDEST DUP1 PUSH2 0x4435 JUMPI POP PUSH1 0x8 SLOAD PUSH1 0x1 PUSH1 0x1 PUSH1 0xA0 SHL SUB AND CALLER EQ JUMPDEST DUP1 PUSH2 0x444A JUMPI POP PUSH1 0x9 SLOAD PUSH1 0x1 PUSH1 0x1 PUSH1 0xA0 SHL SUB AND CALLER EQ JUMPDEST DUP1 PUSH2 0x445F JUMPI POP PUSH1 0xA SLOAD PUSH1 0x1 PUSH1 0x1 PUSH1 0xA0 SHL SUB AND CALLER EQ JUMPDEST DUP1 PUSH2 0x4474 JUMPI POP PUSH1 0xB SLOAD PUSH1 0x1 PUSH1 0x1 PUSH1 0xA0 SHL SUB AND CALLER EQ JUMPDEST DUP1 PUSH2 0x4489 JUMPI POP PUSH1 0xC SLOAD PUSH1 0x1 PUSH1 0x1 PUSH1 0xA0 SHL SUB AND CALLER EQ JUMPDEST DUP1 PUSH2 0x449E JUMPI POP PUSH1 0xD SLOAD PUSH1 0x1 PUSH1 0x1 PUSH1 0xA0 SHL SUB AND CALLER EQ JUMPDEST DUP1 PUSH2 0x44B3 JUMPI POP PUSH1 0xE SLOAD PUSH1 0x1 PUSH1 0x1 PUSH1 0xA0 SHL SUB AND CALLER EQ JUMPDEST PUSH2 0x44CF JUMPI PUSH1 0x40 MLOAD PUSH3 0x461BCD PUSH1 0xE5 SHL DUP2 MSTORE PUSH1 0x4 ADD PUSH2 0x1154 SWAP1 PUSH2 0x5B11 JUMP JUMPDEST ADDRESS PUSH0 SWAP1 DUP2 MSTORE PUSH1 0x14 PUSH1 0x20 MSTORE PUSH1 0x40 SWAP1 KECCAK256 SLOAD DUP2 GT ISZERO PUSH2 0x44FD JUMPI PUSH1 0x40 MLOAD PUSH3 0x461BCD PUSH1 0xE5 SHL DUP2 MSTORE PUSH1 0x4 ADD PUSH2 0x1154 SWAP1 PUSH2 0x5C1F JUMP JUMPDEST ADDRESS PUSH0 DUP2 DUP2 MSTORE PUSH1 0x14 PUSH1 0x20 SWAP1 DUP2 MSTORE PUSH1 0x40 DUP1 DUP4 KECCAK256 DUP1 SLOAD DUP7 SWAP1 SUB SWAP1 SSTORE PUSH1 0x1 PUSH1 0x1 PUSH1 0xA0 SHL SUB PUSH32 0x0 AND DUP1 DUP5 MSTORE SWAP3 DUP2 SWAP1 KECCAK256 DUP1 SLOAD DUP7 ADD SWAP1 SSTORE MLOAD DUP5 DUP2 MSTORE SWAP2 SWAP3 SWAP2 PUSH0 MLOAD PUSH1 0x20 PUSH2 0x5D1C PUSH0 CODECOPY PUSH0 MLOAD SWAP1 PUSH0 MSTORE SWAP2 ADD PUSH1 0x40 MLOAD DUP1 SWAP2 SUB SWAP1 LOG3 POP JUMP JUMPDEST CALLER PUSH1 0x1 PUSH1 0x1 PUSH1 0xA0 SHL SUB PUSH32 0x0 AND EQ DUP1 PUSH2 0x45AF JUMPI POP PUSH1 0x4 SLOAD PUSH1 0x1 PUSH1 0x1 PUSH1 0xA0 SHL SUB AND CALLER EQ JUMPDEST DUP1 PUSH2 0x45C4 JUMPI POP PUSH1 0x5 SLOAD PUSH1 0x1 PUSH1 0x1 PUSH1 0xA0 SHL SUB AND CALLER EQ JUMPDEST DUP1 PUSH2 0x45D9 JUMPI POP PUSH1 0x6 SLOAD PUSH1 0x1 PUSH1 0x1 PUSH1 0xA0 SHL SUB AND CALLER EQ JUMPDEST DUP1 PUSH2 0x45EE JUMPI POP PUSH1 0x7 SLOAD PUSH1 0x1 PUSH1 0x1 PUSH1 0xA0 SHL SUB AND CALLER EQ JUMPDEST DUP1 PUSH2 0x4603 JUMPI POP PUSH1 0x8 SLOAD PUSH1 0x1 PUSH1 0x1 PUSH1 0xA0 SHL SUB AND CALLER EQ JUMPDEST DUP1 PUSH2 0x4618 JUMPI POP PUSH1 0x9 SLOAD PUSH1 0x1 PUSH1 0x1 PUSH1 0xA0 SHL SUB AND CALLER EQ JUMPDEST DUP1 PUSH2 0x462D JUMPI POP PUSH1 0xA SLOAD PUSH1 0x1 PUSH1 0x1 PUSH1 0xA0 SHL SUB AND CALLER EQ JUMPDEST DUP1 PUSH2 0x4642 JUMPI POP PUSH1 0xB SLOAD PUSH1 0x1 PUSH1 0x1 PUSH1 0xA0 SHL SUB AND CALLER EQ JUMPDEST DUP1 PUSH2 0x4657 JUMPI POP PUSH1 0xC SLOAD PUSH1 0x1 PUSH1 0x1 PUSH1 0xA0 SHL SUB AND CALLER EQ JUMPDEST DUP1 PUSH2 0x466C JUMPI POP PUSH1 0xD SLOAD PUSH1 0x1 PUSH1 0x1 PUSH1 0xA0 SHL SUB AND CALLER EQ JUMPDEST DUP1 PUSH2 0x4681 JUMPI POP PUSH1 0xE SLOAD PUSH1 0x1 PUSH1 0x1 PUSH1 0xA0 SHL SUB AND CALLER EQ JUMPDEST PUSH2 0x469D JUMPI PUSH1 0x40 MLOAD PUSH3 0x461BCD PUSH1 0xE5 SHL DUP2 MSTORE PUSH1 0x4 ADD PUSH2 0x1154 SWAP1 PUSH2 0x5B11 JUMP JUMPDEST PUSH1 0x2 SLOAD PUSH1 0xFF AND ISZERO PUSH2 0x46E1 JUMPI PUSH1 0x40 MLOAD PUSH3 0x461BCD PUSH1 0xE5 SHL DUP2 MSTORE PUSH1 0x20 PUSH1 0x4 DUP3 ADD MSTORE PUSH1 0xE PUSH1 0x24 DUP3 ADD MSTORE PUSH14 0x111A5CDD0818DBDB5C1B195D1959 PUSH1 0x92 SHL PUSH1 0x44 DUP3 ADD MSTORE PUSH1 0x64 ADD PUSH2 0x1154 JUMP JUMPDEST ADDRESS PUSH0 SWAP1 DUP2 MSTORE PUSH1 0x14 PUSH1 0x20 MSTORE PUSH1 0x40 SWAP1 KECCAK256 SLOAD PUSH11 0x34F086F3B33B684000000 GT ISZERO PUSH2 0x4741 JUMPI PUSH1 0x40 MLOAD PUSH3 0x461BCD PUSH1 0xE5 SHL DUP2 MSTORE PUSH1 0x20 PUSH1 0x4 DUP3 ADD MSTORE PUSH1 0x14 PUSH1 0x24 DUP3 ADD MSTORE PUSH20 0x436F6E74726163742062616C616E6365206C6F77 PUSH1 0x60 SHL PUSH1 0x44 DUP3 ADD MSTORE PUSH1 0x64 ADD PUSH2 0x1154 JUMP JUMPDEST PUSH1 0x2 DUP1 SLOAD PUSH1 0xFF NOT AND PUSH1 0x1 OR SWAP1 SSTORE PUSH32 0x0 PUSH1 0x1 PUSH1 0x1 PUSH1 0xA0 SHL SUB AND ISZERO DUP1 ISZERO SWAP1 PUSH2 0x47D8 JUMPI POP PUSH32 0x0 PUSH1 0x1 PUSH1 0x1 PUSH1 0xA0 SHL SUB AND PUSH32 0x0 PUSH1 0x1 PUSH1 0x1 PUSH1 0xA0 SHL SUB AND EQ ISZERO JUMPDEST DUP1 ISZERO PUSH2 0x47E2 JUMPI POP PUSH1 0x1 JUMPDEST ISZERO PUSH2 0x4933 JUMPI ADDRESS PUSH0 SWAP1 DUP2 MSTORE PUSH1 0x14 PUSH1 0x20 MSTORE PUSH1 0x40 DUP2 KECCAK256 DUP1 SLOAD PUSH11 0x13DA329B6336471800000 SWAP3 SWAP1 PUSH2 0x4810 SWAP1 DUP5 SWAP1 PUSH2 0x5C44 JUMP JUMPDEST SWAP1 SWAP2 SSTORE POP POP PUSH1 0x1 PUSH1 0x1 PUSH1 0xA0 SHL SUB PUSH32 0x0 AND PUSH0 SWAP1 DUP2 MSTORE PUSH1 0x14 PUSH1 0x20 MSTORE PUSH1 0x40 DUP2 KECCAK256 DUP1 SLOAD PUSH11 0x13DA329B6336471800000 SWAP3 SWAP1 PUSH2 0x4867 SWAP1 DUP5 SWAP1 PUSH2 0x5BA5 JUMP JUMPDEST SWAP1 SWAP2 SSTORE POP POP PUSH1 0x40 MLOAD PUSH11 0x13DA329B6336471800000 DUP2 MSTORE PUSH32 0x0 PUSH1 0x1 PUSH1 0x1 PUSH1 0xA0 SHL SUB AND SWAP1 ADDRESS SWAP1 PUSH0 MLOAD PUSH1 0x20 PUSH2 0x5D1C PUSH0 CODECOPY PUSH0 MLOAD SWAP1 PUSH0 MSTORE SWAP1 PUSH1 0x20 ADD PUSH1 0x40 MLOAD DUP1 SWAP2 SUB SWAP1 LOG3 PUSH32 0x0 PUSH1 0x1 PUSH1 0x1 PUSH1 0xA0 SHL SUB AND PUSH32 0x78786C581DA76125B3C6C8A810ADB3D2DAB5D14B1273B8220661085F045E25CD PUSH11 0x13DA329B6336471800000 PUSH1 0x40 MLOAD PUSH2 0x492A SWAP2 DUP2 MSTORE PUSH1 0x20 ADD SWAP1 JUMP JUMPDEST PUSH1 0x40 MLOAD DUP1 SWAP2 SUB SWAP1 LOG2 JUMPDEST PUSH32 0x0 PUSH1 0x1 PUSH1 0x1 PUSH1 0xA0 SHL SUB AND ISZERO DUP1 ISZERO SWAP1 PUSH2 0x49BD JUMPI POP PUSH32 0x0 PUSH1 0x1 PUSH1 0x1 PUSH1 0xA0 SHL SUB AND PUSH32 0x0 PUSH1 0x1 PUSH1 0x1 PUSH1 0xA0 SHL SUB AND EQ ISZERO JUMPDEST DUP1 ISZERO PUSH2 0x49C7 JUMPI POP PUSH1 0x1 JUMPDEST ISZERO PUSH2 0x4B14 JUMPI ADDRESS PUSH0 SWAP1 DUP2 MSTORE PUSH1 0x14 PUSH1 0x20 MSTORE PUSH1 0x40 DUP2 KECCAK256 DUP1 SLOAD PUSH10 0xD3C21BCECCEDA1000000 SWAP3 SWAP1 PUSH2 0x49F4 SWAP1 DUP5 SWAP1 PUSH2 0x5C44 JUMP JUMPDEST SWAP1 SWAP2 SSTORE POP POP PUSH1 0x1 PUSH1 0x1 PUSH1 0xA0 SHL SUB PUSH32 0x0 AND PUSH0 SWAP1 DUP2 MSTORE PUSH1 0x14 PUSH1 0x20 MSTORE PUSH1 0x40 DUP2 KECCAK256 DUP1 SLOAD PUSH10 0xD3C21BCECCEDA1000000 SWAP3 SWAP1 PUSH2 0x4A4A SWAP1 DUP5 SWAP1 PUSH2 0x5BA5 JUMP JUMPDEST SWAP1 SWAP2 SSTORE POP POP PUSH1 0x40 MLOAD PUSH10 0xD3C21BCECCEDA1000000 DUP2 MSTORE PUSH32 0x0 PUSH1 0x1 PUSH1 0x1 PUSH1 0xA0 SHL SUB AND SWAP1 ADDRESS SWAP1 PUSH0 MLOAD PUSH1 0x20 PUSH2 0x5D1C PUSH0 CODECOPY PUSH0 MLOAD SWAP1 PUSH0 MSTORE SWAP1 PUSH1 0x20 ADD PUSH1 0x40 MLOAD DUP1 SWAP2 SUB SWAP1 LOG3 PUSH32 0x0 PUSH1 0x1 PUSH1 0x1 PUSH1 0xA0 SHL SUB AND PUSH32 0x78786C581DA76125B3C6C8A810ADB3D2DAB5D14B1273B8220661085F045E25CD PUSH10 0xD3C21BCECCEDA1000000 PUSH1 0x40 MLOAD PUSH2 0x4B0B SWAP2 DUP2 MSTORE PUSH1 0x20 ADD SWAP1 JUMP JUMPDEST PUSH1 0x40 MLOAD DUP1 SWAP2 SUB SWAP1 LOG2 JUMPDEST PUSH32 0x0 PUSH1 0x1 PUSH1 0x1 PUSH1 0xA0 SHL SUB AND ISZERO DUP1 ISZERO SWAP1 PUSH2 0x4B9E JUMPI POP PUSH32 0x0 PUSH1 0x1 PUSH1 0x1 PUSH1 0xA0 SHL SUB AND PUSH32 0x0 PUSH1 0x1 PUSH1 0x1 PUSH1 0xA0 SHL SUB AND EQ ISZERO JUMPDEST DUP1 ISZERO PUSH2 0x4BA8 JUMPI POP PUSH1 0x1 JUMPDEST ISZERO PUSH2 0x4CF9 JUMPI ADDRESS PUSH0 SWAP1 DUP2 MSTORE PUSH1 0x14 PUSH1 0x20 MSTORE PUSH1 0x40 DUP2 KECCAK256 DUP1 SLOAD PUSH11 0x13DA329B6336471800000 SWAP3 SWAP1 PUSH2 0x4BD6 SWAP1 DUP5 SWAP1 PUSH2 0x5C44 JUMP JUMPDEST SWAP1 SWAP2 SSTORE POP POP PUSH1 0x1 PUSH1 0x1 PUSH1 0xA0 SHL SUB PUSH32 0x0 AND PUSH0 SWAP1 DUP2 MSTORE PUSH1 0x14 PUSH1 0x20 MSTORE PUSH1 0x40 DUP2 KECCAK256 DUP1 SLOAD PUSH11 0x13DA329B6336471800000 SWAP3 SWAP1 PUSH2 0x4C2D SWAP1 DUP5 SWAP1 PUSH2 0x5BA5 JUMP JUMPDEST SWAP1 SWAP2 SSTORE POP POP PUSH1 0x40 MLOAD PUSH11 0x13DA329B6336471800000 DUP2 MSTORE PUSH32 0x0 PUSH1 0x1 PUSH1 0x1 PUSH1 0xA0 SHL SUB AND SWAP1 ADDRESS SWAP1 PUSH0 MLOAD PUSH1 0x20 PUSH2 0x5D1C PUSH0 CODECOPY PUSH0 MLOAD SWAP1 PUSH0 MSTORE SWAP1 PUSH1 0x20 ADD PUSH1 0x40 MLOAD DUP1 SWAP2 SUB SWAP1 LOG3 PUSH32 0x0 PUSH1 0x1 PUSH1 0x1 PUSH1 0xA0 SHL SUB AND PUSH32 0x78786C581DA76125B3C6C8A810ADB3D2DAB5D14B1273B8220661085F045E25CD PUSH11 0x13DA329B6336471800000 PUSH1 0x40 MLOAD PUSH2 0x4CF0 SWAP2 DUP2 MSTORE PUSH1 0x20 ADD SWAP1 JUMP JUMPDEST PUSH1 0x40 MLOAD DUP1 SWAP2 SUB SWAP1 LOG2 JUMPDEST PUSH1 0x40 MLOAD PUSH11 0x34F086F3B33B684000000 DUP2 MSTORE PUSH32 0x3A1079628069A11F368373DAD84D9CB2831368C6F4EA1A0E86FBDBE0145A899B SWAP1 PUSH1 0x20 ADD PUSH2 0x2D15 JUMP JUMPDEST PUSH1 0x1 PUSH1 0x1 PUSH1 0xA0 SHL SUB DUP4 AND PUSH2 0x4D76 JUMPI PUSH1 0x40 MLOAD PUSH3 0x461BCD PUSH1 0xE5 SHL DUP2 MSTORE PUSH1 0x20 PUSH1 0x4 DUP3 ADD MSTORE PUSH1 0x9 PUSH1 0x24 DUP3 ADD MSTORE PUSH9 0x46726F6D207A65726F PUSH1 0xB8 SHL PUSH1 0x44 DUP3 ADD MSTORE PUSH1 0x64 ADD PUSH2 0x1154 JUMP JUMPDEST PUSH1 0x1 PUSH1 0x1 PUSH1 0xA0 SHL SUB DUP3 AND PUSH2 0x4DB6 JUMPI PUSH1 0x40 MLOAD PUSH3 0x461BCD PUSH1 0xE5 SHL DUP2 MSTORE PUSH1 0x20 PUSH1 0x4 DUP3 ADD MSTORE PUSH1 0x7 PUSH1 0x24 DUP3 ADD MSTORE PUSH7 0x546F207A65726F PUSH1 0xC8 SHL PUSH1 0x44 DUP3 ADD MSTORE PUSH1 0x64 ADD PUSH2 0x1154 JUMP JUMPDEST PUSH1 0x1 PUSH1 0x1 PUSH1 0xA0 SHL SUB DUP4 DUP2 AND PUSH0 DUP2 DUP2 MSTORE PUSH1 0x15 PUSH1 0x20 SWAP1 DUP2 MSTORE PUSH1 0x40 DUP1 DUP4 KECCAK256 SWAP5 DUP8 AND DUP1 DUP5 MSTORE SWAP5 DUP3 MSTORE SWAP2 DUP3 SWAP1 KECCAK256 DUP6 SWAP1 SSTORE SWAP1 MLOAD DUP5 DUP2 MSTORE PUSH32 0x8C5BE1E5EBEC7D5BD14F71427D1E84F3DD0314C0F7B2291E5B200AC8C7C3B925 SWAP2 ADD PUSH1 0x40 MLOAD DUP1 SWAP2 SUB SWAP1 LOG3 POP POP POP JUMP JUMPDEST PUSH0 PUSH1 0x1 PUSH1 0x1 PUSH1 0xA0 SHL SUB DUP5 AND PUSH2 0x4E59 JUMPI PUSH1 0x40 MLOAD PUSH3 0x461BCD PUSH1 0xE5 SHL DUP2 MSTORE PUSH1 0x20 PUSH1 0x4 DUP3 ADD MSTORE PUSH1 0x9 PUSH1 0x24 DUP3 ADD MSTORE PUSH9 0x46726F6D207A65726F PUSH1 0xB8 SHL PUSH1 0x44 DUP3 ADD MSTORE PUSH1 0x64 ADD PUSH2 0x1154 JUMP JUMPDEST PUSH1 0x1 PUSH1 0x1 PUSH1 0xA0 SHL SUB DUP4 AND PUSH2 0x4E99 JUMPI PUSH1 0x40 MLOAD PUSH3 0x461BCD PUSH1 0xE5 SHL DUP2 MSTORE PUSH1 0x20 PUSH1 0x4 DUP3 ADD MSTORE PUSH1 0x7 PUSH1 0x24 DUP3 ADD MSTORE PUSH7 0x546F207A65726F PUSH1 0xC8 SHL PUSH1 0x44 DUP3 ADD MSTORE PUSH1 0x64 ADD PUSH2 0x1154 JUMP JUMPDEST PUSH1 0x1 PUSH1 0x1 PUSH1 0xA0 SHL SUB DUP5 AND PUSH0 SWAP1 DUP2 MSTORE PUSH1 0x14 PUSH1 0x20 MSTORE PUSH1 0x40 SWAP1 KECCAK256 SLOAD DUP3 GT ISZERO PUSH2 0x4ED0 JUMPI PUSH1 0x40 MLOAD PUSH3 0x461BCD PUSH1 0xE5 SHL DUP2 MSTORE PUSH1 0x4 ADD PUSH2 0x1154 SWAP1 PUSH2 0x5C1F JUMP JUMPDEST PUSH0 PUSH2 0x4EDA DUP6 PUSH2 0x2686 JUMP JUMPDEST SWAP1 POP PUSH0 PUSH2 0x4EE6 DUP6 PUSH2 0x2686 JUMP JUMPDEST SWAP1 POP PUSH0 PUSH2 0x4EF2 DUP8 PUSH2 0x3709 JUMP JUMPDEST PUSH1 0xF SLOAD SWAP1 SWAP2 POP PUSH0 SWAP1 PUSH1 0x1 PUSH1 0x1 PUSH1 0xA0 SHL SUB DUP10 DUP2 AND SWAP2 AND EQ DUP1 PUSH2 0x4F20 JUMPI POP PUSH1 0x10 SLOAD PUSH1 0x1 PUSH1 0x1 PUSH1 0xA0 SHL SUB DUP10 DUP2 AND SWAP2 AND EQ JUMPDEST SWAP1 POP DUP4 ISZERO DUP1 ISZERO PUSH2 0x4F47 JUMPI POP PUSH1 0x1 PUSH1 0x1 PUSH1 0xA0 SHL SUB DUP8 AND PUSH0 SWAP1 DUP2 MSTORE PUSH1 0x12 PUSH1 0x20 MSTORE PUSH1 0x40 SWAP1 KECCAK256 SLOAD PUSH1 0xFF AND JUMPDEST ISZERO PUSH2 0x4FA7 JUMPI PUSH1 0x40 MLOAD PUSH3 0x461BCD PUSH1 0xE5 SHL DUP2 MSTORE PUSH1 0x20 PUSH1 0x4 DUP3 ADD MSTORE PUSH1 0x2A PUSH1 0x24 DUP3 ADD MSTORE PUSH32 0x4E6F726D616C2075736572732063616E6E6F7420616464206C69717569646974 PUSH1 0x44 DUP3 ADD MSTORE PUSH10 0x79206469726563746C79 PUSH1 0xB0 SHL PUSH1 0x64 DUP3 ADD MSTORE PUSH1 0x84 ADD PUSH2 0x1154 JUMP JUMPDEST DUP3 ISZERO DUP1 ISZERO PUSH2 0x4FCC JUMPI POP PUSH1 0x1 PUSH1 0x1 PUSH1 0xA0 SHL SUB DUP9 AND PUSH0 SWAP1 DUP2 MSTORE PUSH1 0x12 PUSH1 0x20 MSTORE PUSH1 0x40 SWAP1 KECCAK256 SLOAD PUSH1 0xFF AND JUMPDEST DUP1 ISZERO PUSH2 0x4FE3 JUMPI POP PUSH1 0xF SLOAD PUSH1 0x1 PUSH1 0x1 PUSH1 0xA0 SHL SUB AND CALLER EQ ISZERO JUMPDEST ISZERO PUSH2 0x5046 JUMPI PUSH1 0x40 MLOAD PUSH3 0x461BCD PUSH1 0xE5 SHL DUP2 MSTORE PUSH1 0x20 PUSH1 0x4 DUP3 ADD MSTORE PUSH1 0x2D PUSH1 0x24 DUP3 ADD MSTORE PUSH32 0x4E6F726D616C2075736572732063616E6E6F742072656D6F7665206C69717569 PUSH1 0x44 DUP3 ADD MSTORE PUSH13 0x64697479206469726563746C79 PUSH1 0x98 SHL PUSH1 0x64 DUP3 ADD MSTORE PUSH1 0x84 ADD PUSH2 0x1154 JUMP JUMPDEST PUSH0 DUP5 ISZERO DUP1 PUSH2 0x5052 JUMPI POP DUP4 ISZERO JUMPDEST SWAP1 POP PUSH0 DUP4 DUP1 ISZERO PUSH2 0x5060 JUMPI POP DUP5 ISZERO JUMPDEST DUP1 ISZERO PUSH2 0x5077 JUMPI POP PUSH1 0xF SLOAD PUSH1 0x1 PUSH1 0x1 PUSH1 0xA0 SHL SUB AND CALLER EQ ISZERO JUMPDEST SWAP1 POP PUSH1 0x11 SLOAD TIMESTAMP LT ISZERO PUSH2 0x50BC JUMPI PUSH1 0x40 MLOAD PUSH3 0x461BCD PUSH1 0xE5 SHL DUP2 MSTORE PUSH1 0x20 PUSH1 0x4 DUP3 ADD MSTORE PUSH1 0xE PUSH1 0x24 DUP3 ADD MSTORE PUSH14 0x20B236B4B71031B7B7B63237BBB7 PUSH1 0x91 SHL PUSH1 0x44 DUP3 ADD MSTORE PUSH1 0x64 ADD PUSH2 0x1154 JUMP JUMPDEST DUP2 ISZERO PUSH2 0x50FD JUMPI PUSH1 0x3 SLOAD TIMESTAMP LT ISZERO PUSH2 0x50FD JUMPI PUSH1 0x40 MLOAD PUSH3 0x461BCD PUSH1 0xE5 SHL DUP2 MSTORE PUSH1 0x20 PUSH1 0x4 DUP3 ADD MSTORE PUSH1 0x6 PUSH1 0x24 DUP3 ADD MSTORE PUSH6 0x14185D5CD959 PUSH1 0xD2 SHL PUSH1 0x44 DUP3 ADD MSTORE PUSH1 0x64 ADD PUSH2 0x1154 JUMP JUMPDEST DUP6 PUSH2 0x5158 JUMPI PUSH1 0x1 PUSH1 0x1 PUSH1 0xA0 SHL SUB DUP11 AND PUSH0 SWAP1 DUP2 MSTORE PUSH1 0x18 PUSH1 0x20 MSTORE PUSH1 0x40 SWAP1 KECCAK256 SLOAD PUSH1 0xFF AND ISZERO PUSH2 0x5158 JUMPI PUSH1 0x40 MLOAD PUSH3 0x461BCD PUSH1 0xE5 SHL DUP2 MSTORE PUSH1 0x20 PUSH1 0x4 DUP3 ADD MSTORE PUSH1 0xB PUSH1 0x24 DUP3 ADD MSTORE PUSH11 0x109B1858DADB1A5CDD1959 PUSH1 0xAA SHL PUSH1 0x44 DUP3 ADD MSTORE PUSH1 0x64 ADD PUSH2 0x1154 JUMP JUMPDEST DUP5 PUSH2 0x51B3 JUMPI PUSH1 0x1 PUSH1 0x1 PUSH1 0xA0 SHL SUB DUP10 AND PUSH0 SWAP1 DUP2 MSTORE PUSH1 0x18 PUSH1 0x20 MSTORE PUSH1 0x40 SWAP1 KECCAK256 SLOAD PUSH1 0xFF AND ISZERO PUSH2 0x51B3 JUMPI PUSH1 0x40 MLOAD PUSH3 0x461BCD PUSH1 0xE5 SHL DUP2 MSTORE PUSH1 0x20 PUSH1 0x4 DUP3 ADD MSTORE PUSH1 0xB PUSH1 0x24 DUP3 ADD MSTORE PUSH11 0x109B1858DADB1A5CDD1959 PUSH1 0xAA SHL PUSH1 0x44 DUP3 ADD MSTORE PUSH1 0x64 ADD PUSH2 0x1154 JUMP JUMPDEST DUP6 PUSH2 0x5215 JUMPI PUSH32 0x0 TIMESTAMP LT ISZERO PUSH2 0x5215 JUMPI PUSH1 0x40 MLOAD PUSH3 0x461BCD PUSH1 0xE5 SHL DUP2 MSTORE PUSH1 0x20 PUSH1 0x4 DUP3 ADD MSTORE PUSH1 0xA PUSH1 0x24 DUP3 ADD MSTORE PUSH10 0x98DEC6D6CAC8406870D PUSH1 0xB3 SHL PUSH1 0x44 DUP3 ADD MSTORE PUSH1 0x64 ADD PUSH2 0x1154 JUMP JUMPDEST DUP1 ISZERO PUSH2 0x537A JUMPI PUSH9 0x56BC75E2D63100000 DUP9 GT ISZERO PUSH2 0x525E JUMPI PUSH1 0x40 MLOAD PUSH3 0x461BCD PUSH1 0xE5 SHL DUP2 MSTORE PUSH1 0x20 PUSH1 0x4 DUP3 ADD MSTORE PUSH1 0x7 PUSH1 0x24 DUP3 ADD MSTORE PUSH7 0x4D61782031303 PUSH1 0xCC SHL PUSH1 0x44 DUP3 ADD MSTORE PUSH1 0x64 ADD PUSH2 0x1154 JUMP JUMPDEST PUSH1 0x1 PUSH1 0x1 PUSH1 0xA0 SHL SUB DUP11 AND PUSH0 SWAP1 DUP2 MSTORE PUSH1 0x17 PUSH1 0x20 MSTORE PUSH1 0x40 SWAP1 KECCAK256 SLOAD DUP1 ISZERO PUSH2 0x52C3 JUMPI PUSH2 0x5289 PUSH3 0x15180 DUP3 PUSH2 0x5BA5 JUMP JUMPDEST TIMESTAMP LT ISZERO PUSH2 0x52C3 JUMPI PUSH1 0x40 MLOAD PUSH3 0x461BCD PUSH1 0xE5 SHL DUP2 MSTORE PUSH1 0x20 PUSH1 0x4 DUP3 ADD MSTORE PUSH1 0x8 PUSH1 0x24 DUP3 ADD MSTORE PUSH8 0xAEC2D2E8406468D PUSH1 0xC3 SHL PUSH1 0x44 DUP3 ADD MSTORE PUSH1 0x64 ADD PUSH2 0x1154 JUMP JUMPDEST PUSH1 0x1 PUSH1 0x1 PUSH1 0xA0 SHL SUB DUP11 AND PUSH0 SWAP1 DUP2 MSTORE PUSH1 0x14 PUSH1 0x20 MSTORE PUSH1 0x40 SWAP1 KECCAK256 SLOAD PUSH9 0xD8D726B7177A800000 PUSH3 0x186A0 PUSH2 0x52F4 PUSH1 0x32 DUP14 PUSH2 0x5C57 JUMP JUMPDEST PUSH2 0x52FE SWAP2 SWAP1 PUSH2 0x5C6E JUMP JUMPDEST PUSH3 0x186A0 PUSH2 0x530D PUSH1 0x1E DUP15 PUSH2 0x5C57 JUMP JUMPDEST PUSH2 0x5317 SWAP2 SWAP1 PUSH2 0x5C6E JUMP JUMPDEST PUSH2 0x5321 SWAP1 DUP14 PUSH2 0x5C44 JUMP JUMPDEST PUSH2 0x532B SWAP2 SWAP1 PUSH2 0x5C44 JUMP JUMPDEST PUSH2 0x5335 SWAP1 DUP4 PUSH2 0x5BA5 JUMP JUMPDEST GT ISZERO PUSH2 0x5373 JUMPI PUSH1 0x40 MLOAD PUSH3 0x461BCD PUSH1 0xE5 SHL DUP2 MSTORE PUSH1 0x20 PUSH1 0x4 DUP3 ADD MSTORE PUSH1 0xD PUSH1 0x24 DUP3 ADD MSTORE PUSH13 0x4D61782077616C6C657420346B PUSH1 0x98 SHL PUSH1 0x44 DUP3 ADD MSTORE PUSH1 0x64 ADD PUSH2 0x1154 JUMP JUMPDEST POP POP PUSH2 0x5550 JUMP JUMPDEST DUP2 ISZERO PUSH2 0x5550 JUMPI PUSH9 0x6C6B935B8BBD400000 DUP9 GT ISZERO PUSH2 0x53C4 JUMPI PUSH1 0x40 MLOAD PUSH3 0x461BCD PUSH1 0xE5 SHL DUP2 MSTORE PUSH1 0x20 PUSH1 0x4 DUP3 ADD MSTORE PUSH1 0x8 PUSH1 0x24 DUP3 ADD MSTORE PUSH8 0x4D6178203230303 PUSH1 0xC4 SHL PUSH1 0x44 DUP3 ADD MSTORE PUSH1 0x64 ADD PUSH2 0x1154 JUMP JUMPDEST DUP5 PUSH2 0x54E6 JUMPI PUSH1 0x1 PUSH1 0x1 PUSH1 0xA0 SHL SUB DUP10 AND PUSH0 SWAP1 DUP2 MSTORE PUSH1 0x14 PUSH1 0x20 MSTORE PUSH1 0x40 SWAP1 KECCAK256 SLOAD PUSH9 0xD8D726B7177A800000 PUSH3 0x186A0 PUSH2 0x53FA PUSH1 0x32 DUP13 PUSH2 0x5C57 JUMP JUMPDEST PUSH2 0x5404 SWAP2 SWAP1 PUSH2 0x5C6E JUMP JUMPDEST PUSH3 0x186A0 PUSH2 0x5413 PUSH1 0x1E DUP14 PUSH2 0x5C57 JUMP JUMPDEST PUSH2 0x541D SWAP2 SWAP1 PUSH2 0x5C6E JUMP JUMPDEST PUSH2 0x5427 SWAP1 DUP13 PUSH2 0x5C44 JUMP JUMPDEST PUSH2 0x5431 SWAP2 SWAP1 PUSH2 0x5C44 JUMP JUMPDEST PUSH2 0x543B SWAP1 DUP4 PUSH2 0x5BA5 JUMP JUMPDEST GT ISZERO PUSH2 0x5479 JUMPI PUSH1 0x40 MLOAD PUSH3 0x461BCD PUSH1 0xE5 SHL DUP2 MSTORE PUSH1 0x20 PUSH1 0x4 DUP3 ADD MSTORE PUSH1 0xD PUSH1 0x24 DUP3 ADD MSTORE PUSH13 0x4D61782077616C6C657420346B PUSH1 0x98 SHL PUSH1 0x44 DUP3 ADD MSTORE PUSH1 0x64 ADD PUSH2 0x1154 JUMP JUMPDEST DUP4 ISZERO PUSH2 0x54E4 JUMPI PUSH1 0x1 PUSH1 0x1 PUSH1 0xA0 SHL SUB DUP11 AND PUSH0 SWAP1 DUP2 MSTORE PUSH1 0x16 PUSH1 0x20 MSTORE PUSH1 0x40 SWAP1 KECCAK256 SLOAD DUP1 ISZERO PUSH2 0x54E2 JUMPI PUSH2 0x54A9 PUSH2 0x1C20 DUP3 PUSH2 0x5BA5 JUMP JUMPDEST TIMESTAMP LT ISZERO PUSH2 0x54E2 JUMPI PUSH1 0x40 MLOAD PUSH3 0x461BCD PUSH1 0xE5 SHL DUP2 MSTORE PUSH1 0x20 PUSH1 0x4 DUP3 ADD MSTORE PUSH1 0x7 PUSH1 0x24 DUP3 ADD MSTORE PUSH7 0xAEC2D2E84064D PUSH1 0xCB SHL PUSH1 0x44 DUP3 ADD MSTORE PUSH1 0x64 ADD PUSH2 0x1154 JUMP JUMPDEST POP JUMPDEST POP JUMPDEST DUP6 PUSH2 0x5550 JUMPI PUSH1 0x1 PUSH1 0x1 PUSH1 0xA0 SHL SUB DUP11 AND PUSH0 SWAP1 DUP2 MSTORE PUSH1 0x16 PUSH1 0x20 MSTORE PUSH1 0x40 SWAP1 KECCAK256 SLOAD DUP1 ISZERO PUSH2 0x554E JUMPI PUSH2 0x5515 PUSH2 0x1C20 DUP3 PUSH2 0x5BA5 JUMP JUMPDEST TIMESTAMP LT ISZERO PUSH2 0x554E JUMPI PUSH1 0x40 MLOAD PUSH3 0x461BCD PUSH1 0xE5 SHL DUP2 MSTORE PUSH1 0x20 PUSH1 0x4 DUP3 ADD MSTORE PUSH1 0x7 PUSH1 0x24 DUP3 ADD MSTORE PUSH7 0xAEC2D2E84064D PUSH1 0xCB SHL PUSH1 0x44 DUP3 ADD MSTORE PUSH1 0x64 ADD PUSH2 0x1154 JUMP JUMPDEST POP JUMPDEST DUP6 DUP1 ISZERO PUSH2 0x555A JUMPI POP DUP5 JUMPDEST ISZERO PUSH2 0x55BA JUMPI PUSH1 0x1 PUSH1 0x1 PUSH1 0xA0 SHL SUB DUP1 DUP12 AND PUSH0 DUP2 DUP2 MSTORE PUSH1 0x14 PUSH1 0x20 MSTORE PUSH1 0x40 DUP1 DUP3 KECCAK256 DUP1 SLOAD DUP14 SWAP1 SUB SWAP1 SSTORE SWAP3 DUP13 AND DUP1 DUP3 MSTORE SWAP1 DUP4 SWAP1 KECCAK256 DUP1 SLOAD DUP13 ADD SWAP1 SSTORE SWAP2 MLOAD PUSH0 MLOAD PUSH1 0x20 PUSH2 0x5D1C PUSH0 CODECOPY PUSH0 MLOAD SWAP1 PUSH0 MSTORE SWAP1 PUSH2 0x55AD SWAP1 DUP13 DUP2 MSTORE PUSH1 0x20 ADD SWAP1 JUMP JUMPDEST PUSH1 0x40 MLOAD DUP1 SWAP2 SUB SWAP1 LOG3 PUSH2 0x57C1 JUMP JUMPDEST PUSH0 PUSH3 0x186A0 PUSH2 0x55CA PUSH1 0x1E DUP12 PUSH2 0x5C57 JUMP JUMPDEST PUSH2 0x55D4 SWAP2 SWAP1 PUSH2 0x5C6E JUMP JUMPDEST SWAP1 POP PUSH0 PUSH3 0x186A0 PUSH2 0x55E6 PUSH1 0x32 DUP13 PUSH2 0x5C57 JUMP JUMPDEST PUSH2 0x55F0 SWAP2 SWAP1 PUSH2 0x5C6E JUMP JUMPDEST SWAP1 POP PUSH0 DUP2 PUSH2 0x55FE DUP5 DUP14 PUSH2 0x5C44 JUMP JUMPDEST PUSH2 0x5608 SWAP2 SWAP1 PUSH2 0x5C44 JUMP JUMPDEST SWAP1 POP DUP11 PUSH1 0x14 PUSH0 DUP16 PUSH1 0x1 PUSH1 0x1 PUSH1 0xA0 SHL SUB AND PUSH1 0x1 PUSH1 0x1 PUSH1 0xA0 SHL SUB AND DUP2 MSTORE PUSH1 0x20 ADD SWAP1 DUP2 MSTORE PUSH1 0x20 ADD PUSH0 KECCAK256 PUSH0 DUP3 DUP3 SLOAD SUB SWAP3 POP POP DUP2 SWAP1 SSTORE POP DUP1 PUSH1 0x14 PUSH0 DUP15 PUSH1 0x1 PUSH1 0x1 PUSH1 0xA0 SHL SUB AND PUSH1 0x1 PUSH1 0x1 PUSH1 0xA0 SHL SUB AND DUP2 MSTORE PUSH1 0x20 ADD SWAP1 DUP2 MSTORE PUSH1 0x20 ADD PUSH0 KECCAK256 PUSH0 DUP3 DUP3 SLOAD ADD SWAP3 POP POP DUP2 SWAP1 SSTORE POP DUP2 PUSH1 0x14 PUSH0 PUSH32 0x0 PUSH1 0x1 PUSH1 0x1 PUSH1 0xA0 SHL SUB AND PUSH1 0x1 PUSH1 0x1 PUSH1 0xA0 SHL SUB AND DUP2 MSTORE PUSH1 0x20 ADD SWAP1 DUP2 MSTORE PUSH1 0x20 ADD PUSH0 KECCAK256 PUSH0 DUP3 DUP3 SLOAD ADD SWAP3 POP POP DUP2 SWAP1 SSTORE POP DUP3 PUSH1 0x1 PUSH0 DUP3 DUP3 SLOAD SUB SWAP3 POP POP DUP2 SWAP1 SSTORE POP DUP12 PUSH1 0x1 PUSH1 0x1 PUSH1 0xA0 SHL SUB AND DUP14 PUSH1 0x1 PUSH1 0x1 PUSH1 0xA0 SHL SUB AND PUSH0 MLOAD PUSH1 0x20 PUSH2 0x5D1C PUSH0 CODECOPY PUSH0 MLOAD SWAP1 PUSH0 MSTORE DUP4 PUSH1 0x40 MLOAD PUSH2 0x56FB SWAP2 DUP2 MSTORE PUSH1 0x20 ADD SWAP1 JUMP JUMPDEST PUSH1 0x40 MLOAD DUP1 SWAP2 SUB SWAP1 LOG3 PUSH32 0x0 PUSH1 0x1 PUSH1 0x1 PUSH1 0xA0 SHL SUB AND DUP14 PUSH1 0x1 PUSH1 0x1 PUSH1 0xA0 SHL SUB AND PUSH0 MLOAD PUSH1 0x20 PUSH2 0x5D1C PUSH0 CODECOPY PUSH0 MLOAD SWAP1 PUSH0 MSTORE DUP5 PUSH1 0x40 MLOAD PUSH2 0x5755 SWAP2 DUP2 MSTORE PUSH1 0x20 ADD SWAP1 JUMP JUMPDEST PUSH1 0x40 MLOAD DUP1 SWAP2 SUB SWAP1 LOG3 PUSH1 0x40 MLOAD DUP4 DUP2 MSTORE PUSH0 SWAP1 PUSH1 0x1 PUSH1 0x1 PUSH1 0xA0 SHL SUB DUP16 AND SWAP1 PUSH0 MLOAD PUSH1 0x20 PUSH2 0x5D1C PUSH0 CODECOPY PUSH0 MLOAD SWAP1 PUSH0 MSTORE SWAP1 PUSH1 0x20 ADD PUSH1 0x40 MLOAD DUP1 SWAP2 SUB SWAP1 LOG3 PUSH1 0x40 MLOAD DUP4 DUP2 MSTORE PUSH32 0x6EF4855B666DCC7884561072E4358B28DFE01FEB1B7F4DCEBC00E62D50394AC7 SWAP1 PUSH1 0x20 ADD PUSH1 0x40 MLOAD DUP1 SWAP2 SUB SWAP1 LOG1 POP POP POP JUMPDEST DUP6 PUSH2 0x57E1 JUMPI PUSH1 0x1 PUSH1 0x1 PUSH1 0xA0 SHL SUB DUP11 AND PUSH0 SWAP1 DUP2 MSTORE PUSH1 0x16 PUSH1 0x20 MSTORE PUSH1 0x40 SWAP1 KECCAK256 TIMESTAMP SWAP1 SSTORE JUMPDEST DUP5 ISZERO DUP1 ISZERO PUSH2 0x57EC JUMPI POP DUP2 JUMPDEST DUP1 ISZERO PUSH2 0x57F5 JUMPI POP DUP3 JUMPDEST ISZERO PUSH2 0x5815 JUMPI PUSH1 0x1 PUSH1 0x1 PUSH1 0xA0 SHL SUB DUP10 AND PUSH0 SWAP1 DUP2 MSTORE PUSH1 0x16 PUSH1 0x20 MSTORE PUSH1 0x40 SWAP1 KECCAK256 TIMESTAMP SWAP1 SSTORE JUMPDEST DUP1 ISZERO PUSH2 0x5836 JUMPI PUSH1 0x1 PUSH1 0x1 PUSH1 0xA0 SHL SUB DUP11 AND PUSH0 SWAP1 DUP2 MSTORE PUSH1 0x17 PUSH1 0x20 MSTORE PUSH1 0x40 SWAP1 KECCAK256 TIMESTAMP SWAP1 SSTORE JUMPDEST POP PUSH1 0x1 SWAP10 SWAP9 POP POP POP POP POP POP POP POP POP JUMP JUMPDEST PUSH1 0x40 MLOAD DUP1 PUSH1 0x80 ADD PUSH1 0x40 MSTORE DUP1 PUSH1 0x4 SWAP1 PUSH1 0x20 DUP3 MUL DUP1 CALLDATASIZE DUP4 CALLDATACOPY POP SWAP2 SWAP3 SWAP2 POP POP JUMP JUMPDEST PUSH1 0x20 DUP2 MSTORE PUSH0 DUP3 MLOAD DUP1 PUSH1 0x20 DUP5 ADD MSTORE DUP1 PUSH1 0x20 DUP6 ADD PUSH1 0x40 DUP6 ADD MCOPY PUSH0 PUSH1 0x40 DUP3 DUP6 ADD ADD MSTORE PUSH1 0x40 PUSH1 0x1F NOT PUSH1 0x1F DUP4 ADD AND DUP5 ADD ADD SWAP2 POP POP SWAP3 SWAP2 POP POP JUMP JUMPDEST PUSH1 0x1 PUSH1 0x1 PUSH1 0xA0 SHL SUB DUP2 AND DUP2 EQ PUSH2 0x58AD JUMPI PUSH0 PUSH0 REVERT JUMPDEST POP JUMP JUMPDEST PUSH0 PUSH1 0x20 DUP3 DUP5 SUB SLT ISZERO PUSH2 0x58C0 JUMPI PUSH0 PUSH0 REVERT JUMPDEST DUP2 CALLDATALOAD PUSH2 0x2DF8 DUP2 PUSH2 0x5899 JUMP JUMPDEST PUSH0 PUSH0 PUSH1 0x40 DUP4 DUP6 SUB SLT ISZERO PUSH2 0x58DC JUMPI PUSH0 PUSH0 REVERT JUMPDEST DUP3 CALLDATALOAD PUSH2 0x58E7 DUP2 PUSH2 0x5899 JUMP JUMPDEST SWAP5 PUSH1 0x20 SWAP4 SWAP1 SWAP4 ADD CALLDATALOAD SWAP4 POP POP POP JUMP JUMPDEST DUP1 ISZERO ISZERO DUP2 EQ PUSH2 0x58AD JUMPI PUSH0 PUSH0 REVERT JUMPDEST PUSH0 PUSH0 PUSH1 0x40 DUP4 DUP6 SUB SLT ISZERO PUSH2 0x5913 JUMPI PUSH0 PUSH0 REVERT JUMPDEST DUP3 CALLDATALOAD PUSH2 0x591E DUP2 PUSH2 0x5899 JUMP JUMPDEST SWAP2 POP PUSH1 0x20 DUP4 ADD CALLDATALOAD PUSH2 0x592E DUP2 PUSH2 0x58F5 JUMP JUMPDEST DUP1 SWAP2 POP POP SWAP3 POP SWAP3 SWAP1 POP JUMP JUMPDEST PUSH0 PUSH0 PUSH0 PUSH1 0x60 DUP5 DUP7 SUB SLT ISZERO PUSH2 0x594B JUMPI PUSH0 PUSH0 REVERT JUMPDEST DUP4 CALLDATALOAD PUSH2 0x5956 DUP2 PUSH2 0x5899 JUMP JUMPDEST SWAP3 POP PUSH1 0x20 DUP5 ADD CALLDATALOAD PUSH2 0x5966 DUP2 PUSH2 0x5899 JUMP JUMPDEST SWAP3 SWAP6 SWAP3 SWAP5 POP POP POP PUSH1 0x40 SWAP2 SWAP1 SWAP2 ADD CALLDATALOAD SWAP1 JUMP JUMPDEST PUSH0 PUSH0 DUP4 PUSH1 0x1F DUP5 ADD SLT PUSH2 0x5987 JUMPI PUSH0 PUSH0 REVERT JUMPDEST POP DUP2 CALLDATALOAD PUSH8 0xFFFFFFFFFFFFFFFF DUP2 GT ISZERO PUSH2 0x599E JUMPI PUSH0 PUSH0 REVERT JUMPDEST PUSH1 0x20 DUP4 ADD SWAP2 POP DUP4 PUSH1 0x20 DUP3 PUSH1 0x5 SHL DUP6 ADD ADD GT ISZERO PUSH2 0x59B8 JUMPI PUSH0 PUSH0 REVERT JUMPDEST SWAP3 POP SWAP3 SWAP1 POP JUMP JUMPDEST PUSH0 PUSH0 PUSH0 PUSH1 0x40 DUP5 DUP7 SUB SLT ISZERO PUSH2 0x59D1 JUMPI PUSH0 PUSH0 REVERT JUMPDEST DUP4 CALLDATALOAD PUSH8 0xFFFFFFFFFFFFFFFF DUP2 GT ISZERO PUSH2 0x59E7 JUMPI PUSH0 PUSH0 REVERT JUMPDEST PUSH2 0x59F3 DUP7 DUP3 DUP8 ADD PUSH2 0x5977 JUMP JUMPDEST SWAP1 SWAP5 POP SWAP3 POP POP PUSH1 0x20 DUP5 ADD CALLDATALOAD PUSH2 0x5A07 DUP2 PUSH2 0x58F5 JUMP JUMPDEST DUP1 SWAP2 POP POP SWAP3 POP SWAP3 POP SWAP3 JUMP JUMPDEST PUSH0 PUSH1 0x20 DUP3 DUP5 SUB SLT ISZERO PUSH2 0x5A22 JUMPI PUSH0 PUSH0 REVERT JUMPDEST POP CALLDATALOAD SWAP2 SWAP1 POP JUMP JUMPDEST PUSH0 PUSH0 PUSH1 0x20 DUP4 DUP6 SUB SLT ISZERO PUSH2 0x5A3A JUMPI PUSH0 PUSH0 REVERT JUMPDEST DUP3 CALLDATALOAD PUSH8 0xFFFFFFFFFFFFFFFF DUP2 GT ISZERO PUSH2 0x5A50 JUMPI PUSH0 PUSH0 REVERT JUMPDEST PUSH2 0x5A5C DUP6 DUP3 DUP7 ADD PUSH2 0x5977 JUMP JUMPDEST SWAP1 SWAP7 SWAP1 SWAP6 POP SWAP4 POP POP POP POP JUMP JUMPDEST PUSH1 0xE0 DUP2 ADD DUP2 DUP7 PUSH0 JUMPDEST PUSH1 0x4 DUP2 LT ISZERO PUSH2 0x5A98 JUMPI DUP2 MLOAD PUSH1 0x1 PUSH1 0x1 PUSH1 0xA0 SHL SUB AND DUP4 MSTORE PUSH1 0x20 SWAP3 DUP4 ADD SWAP3 SWAP1 SWAP2 ADD SWAP1 PUSH1 0x1 ADD PUSH2 0x5A70 JUMP JUMPDEST POP POP POP PUSH1 0x1 PUSH1 0x1 PUSH1 0xA0 SHL SUB SWAP5 DUP6 AND PUSH1 0x80 DUP4 ADD MSTORE SWAP3 SWAP1 SWAP4 AND PUSH1 0xA0 DUP5 ADD MSTORE ISZERO ISZERO PUSH1 0xC0 SWAP1 SWAP3 ADD SWAP2 SWAP1 SWAP2 MSTORE SWAP2 SWAP1 POP JUMP JUMPDEST PUSH0 PUSH0 PUSH1 0x40 DUP4 DUP6 SUB SLT ISZERO PUSH2 0x5AD5 JUMPI PUSH0 PUSH0 REVERT JUMPDEST DUP3 CALLDATALOAD PUSH2 0x5AE0 DUP2 PUSH2 0x5899 JUMP JUMPDEST SWAP2 POP PUSH1 0x20 DUP4 ADD CALLDATALOAD PUSH2 0x592E DUP2 PUSH2 0x5899 JUMP JUMPDEST PUSH0 PUSH0 PUSH1 0x40 DUP4 DUP6 SUB SLT ISZERO PUSH2 0x5B01 JUMPI PUSH0 PUSH0 REVERT JUMPDEST DUP3 CALLDATALOAD PUSH1 0xFF DUP2 AND DUP2 EQ PUSH2 0x5AE0 JUMPI PUSH0 PUSH0 REVERT JUMPDEST PUSH1 0x20 DUP1 DUP3 MSTORE PUSH1 0x9 SWAP1 DUP3 ADD MSTORE PUSH9 0x2737BA1030B236B4B7 PUSH1 0xB9 SHL PUSH1 0x40 DUP3 ADD MSTORE PUSH1 0x60 ADD SWAP1 JUMP JUMPDEST PUSH1 0x20 DUP1 DUP3 MSTORE PUSH1 0xC SWAP1 DUP3 ADD MSTORE PUSH12 0x14185A5C9CC81B1BD8DAD959 PUSH1 0xA2 SHL PUSH1 0x40 DUP3 ADD MSTORE PUSH1 0x60 ADD SWAP1 JUMP JUMPDEST PUSH1 0x20 DUP1 DUP3 MSTORE PUSH1 0x19 SWAP1 DUP3 ADD MSTORE PUSH32 0x41646472657373206368616E6765727320636F6F6C646F776E00000000000000 PUSH1 0x40 DUP3 ADD MSTORE PUSH1 0x60 ADD SWAP1 JUMP JUMPDEST PUSH4 0x4E487B71 PUSH1 0xE0 SHL PUSH0 MSTORE PUSH1 0x11 PUSH1 0x4 MSTORE PUSH1 0x24 PUSH0 REVERT JUMPDEST DUP1 DUP3 ADD DUP1 DUP3 GT ISZERO PUSH2 0x128F JUMPI PUSH2 0x128F PUSH2 0x5B91 JUMP JUMPDEST PUSH4 0x4E487B71 PUSH1 0xE0 SHL PUSH0 MSTORE PUSH1 0x32 PUSH1 0x4 MSTORE PUSH1 0x24 PUSH0 REVERT JUMPDEST PUSH1 0x20 DUP1 DUP3 MSTORE PUSH1 0xE SWAP1 DUP3 ADD MSTORE PUSH14 0x4F6E6C79206D756C74692D736967 PUSH1 0x90 SHL PUSH1 0x40 DUP3 ADD MSTORE PUSH1 0x60 ADD SWAP1 JUMP JUMPDEST PUSH1 0x20 DUP1 DUP3 MSTORE PUSH1 0x11 SWAP1 DUP3 ADD MSTORE PUSH17 0x135D5B1D1A4B5CDA59C81B9BDD081CD95D PUSH1 0x7A SHL PUSH1 0x40 DUP3 ADD MSTORE PUSH1 0x60 ADD SWAP1 JUMP JUMPDEST PUSH1 0x20 DUP1 DUP3 MSTORE PUSH1 0xB SWAP1 DUP3 ADD MSTORE PUSH11 0x4C6F772062616C616E6365 PUSH1 0xA8 SHL PUSH1 0x40 DUP3 ADD MSTORE PUSH1 0x60 ADD SWAP1 JUMP JUMPDEST DUP2 DUP2 SUB DUP2 DUP2 GT ISZERO PUSH2 0x128F JUMPI PUSH2 0x128F PUSH2 0x5B91 JUMP JUMPDEST DUP1 DUP3 MUL DUP2 ISZERO DUP3 DUP3 DIV DUP5 EQ OR PUSH2 0x128F JUMPI PUSH2 0x128F PUSH2 0x5B91 JUMP JUMPDEST PUSH0 DUP3 PUSH2 0x5C88 JUMPI PUSH4 0x4E487B71 PUSH1 0xE0 SHL PUSH0 MSTORE PUSH1 0x12 PUSH1 0x4 MSTORE PUSH1 0x24 PUSH0 REVERT JUMPDEST POP DIV SWAP1 JUMP JUMPDEST PUSH0 PUSH1 0x20 DUP3 DUP5 SUB SLT ISZERO PUSH2 0x5C9D JUMPI PUSH0 PUSH0 REVERT JUMPDEST DUP2 MLOAD PUSH2 0x2DF8 DUP2 PUSH2 0x58F5 JUMP JUMPDEST PUSH0 PUSH1 0x20 DUP3 DUP5 SUB SLT ISZERO PUSH2 0x5CB8 JUMPI PUSH0 PUSH0 REVERT JUMPDEST DUP2 MLOAD PUSH2 0x2DF8 DUP2 PUSH2 0x5899 JUMP JUMPDEST PUSH0 PUSH1 0x1 DUP3 ADD PUSH2 0x5CD4 JUMPI PUSH2 0x5CD4 PUSH2 0x5B91 JUMP JUMPDEST POP PUSH1 0x1 ADD SWAP1 JUMP INVALID ORIGIN 0xFB PUSH29 0x9891BC4F963C7DE9F1186D2A7755C7D6E9F4604DABE1D8BB3027C2F49E 0xCF CALLVALUE PUSH20 0xB85DF1594D47B6958F29A32BEA0ABFF9DD68296F PUSH28 0xF33443646793CFD8DDF252AD1BE2C89B69C2B068FC378DAA952BA7F1 PUSH4 0xC4A11628 CREATE2 GAS 0x4D CREATE2 0x23 0xB3 0xEF LOG2 PUSH5 0x6970667358 0x22 SLT KECCAK256 ADDRESS EXTCODECOPY SWAP8 PUSH32 0x1FDA848288125E5A05C457DA980ACB78FE4DCB7ADF2985B29C627EBF64736F6C PUSH4 0x4300081C STOP CALLER 0xDD CALLCODE MSTORE 0xAD SHL 0xE2 0xC8 SWAP12 PUSH10 0xC2B068FC378DAA952BA7 CALL PUSH4 0xC4A11628 CREATE2 GAS 0x4D CREATE2 0x23 0xB3 0xEF "},"methodIdentifiers":{"BURN_FEE()":"480df058","COOLDOWN_PERIOD()":"6e99d52f","EXEMPT_TO_NORMAL_COOLDOWN()":"92fde373","FEE_DENOMINATOR()":"d73792a9","MAX_EXEMPT_TO_NORMAL()":"9d249a18","MAX_MINT_AMOUNT()":"fa9b7018","MAX_TRANSACTION()":"1451dd43","MAX_WALLET()":"df7787a4","MINT_COOLDOWN()":"f7ee7a43","MINT_TIMELOCK()":"f92142e2","NotExemptTradeTransferPausedUntil()":"b3670038","OWNER_FEE()":"5dab0fe3","PAUSE_DURATION()":"21b4deee","allowance(address,address)":"dd62ed3e","approve(address,uint256)":"095ea7b3","balanceOf(address)":"70a08231","burn(uint256)":"42966c68","decimals()":"313ce567","decreaseAllowance(address,uint256)":"a457c2d7","dexAddressesLocked()":"e5800210","distributeInitialAllocations()":"f8687091","eAddr1()":"a20cc635","eAddr10()":"f30afd72","eAddr2()":"0721842e","eAddr3()":"baee0bad","eAddr4()":"c58e186b","eAddr5()":"17e13952","eAddr6()":"aa719a3c","eAddr7()":"9f357d93","eAddr8()":"368f505c","eAddr9()":"975afbc0","executeMint(uint256)":"e7a486fb","exemptSlotsLocked()":"f455bcc2","getDistributionAddresses()":"2bf9db79","getExemptAddresses()":"a4fcd4c2","getLiquidityPairAddress(address)":"66716790","getMaxMintableNow()":"535cbfcd","getTimeUntilNextMint()":"44c781c9","increaseAllowance(address,uint256)":"39509351","initialDistributionCompleted()":"888933da","isBlacklisted(address)":"fe575a87","isExemptAddress(address)":"5a5759b4","isExemptSlot(address)":"c71e2825","isLiquidityPair(address)":"5c9a05b8","isPaused()":"b187bd26","isTestnet()":"92108c86","isTradingEnabled()":"064a59d0","lastExemptToNormalTime(address)":"16819578","lastMintTime()":"9d463520","lastTransactionTime(address)":"e75b2073","liquidityPairsLocked()":"8e519677","lockDEXAddresses()":"70330ae1","lockExemptSlotsForever()":"b51fddfb","lockLiquidityPairsForever()":"3ed44603","mainAddressChangersCooldown()":"107bd32f","mintProposals(uint256)":"b6ea231e","multiSigAddress()":"1516def7","name()":"06fdde03","owner()":"8da5cb5b","pause()":"8456cb59","pncswpFactory()":"79e8a2b7","pncswpRouter()":"8c846502","proposalCount()":"da35c664","proposeMint(uint256)":"b6cf146c","removeFromBlacklist(address)":"537df3b6","removeMULTIFromBlacklist(address[])":"77ebd0e9","rescueTokens(address,uint256)":"57376198","setBlacklist(address,bool)":"153b0d1e","setBlacklistBatch(address[],bool)":"3abc97e5","setLiquidityPair(address,bool)":"23876064","setLiquidityPairBatch(address[],bool)":"d859c5a6","setMultiSigAddress(address)":"077f2cfc","symbol()":"95d89b41","timeUntilTradingEnabled()":"cfe3989c","timeUntilUnpaused()":"c9b49c28","totalSupply()":"18160ddd","tradingEnabledTime()":"6fd8fb7a","transfer(address,uint256)":"a9059cbb","transferFrom(address,address,uint256)":"23b872dd","unlockDEXAddresses()":"c345adc7","unlockExemptSlots()":"3bf8fe4c","unlockLiquidityPairs()":"be597d3d","updateDEXAddresses(address,address)":"c0e5dada","updateExemptSlot(uint8,address)":"cab21623","website()":"beb0a416","withdrawBNB()":"1d111d13","withdrawCirculationTokens(uint256)":"ee81e622"}}}}}