{
  "_format": "hh-sol-artifact-1",
  "contractName": "KCY1Token",
  "sourceName": "contracts/kcy-meme-1.sol",
  "abi": [
    {
      "inputs": [],
      "stateMutability": "nonpayable",
      "type": "constructor"
    },
    {
      "anonymous": false,
      "inputs": [
        {
          "indexed": true,
          "internalType": "address",
          "name": "owner",
          "type": "address"
        },
        {
          "indexed": true,
          "internalType": "address",
          "name": "spender",
          "type": "address"
        },
        {
          "indexed": false,
          "internalType": "uint256",
          "name": "value",
          "type": "uint256"
        }
      ],
      "name": "Approval",
      "type": "event"
    },
    {
      "anonymous": false,
      "inputs": [
        {
          "indexed": false,
          "internalType": "uint256",
          "name": "amount",
          "type": "uint256"
        }
      ],
      "name": "BNBWithdrawn",
      "type": "event"
    },
    {
      "anonymous": false,
      "inputs": [
        {
          "indexed": true,
          "internalType": "address",
          "name": "account",
          "type": "address"
        },
        {
          "indexed": false,
          "internalType": "bool",
          "name": "status",
          "type": "bool"
        }
      ],
      "name": "Blacklisted",
      "type": "event"
    },
    {
      "anonymous": false,
      "inputs": [],
      "name": "DEXAddressesLocked",
      "type": "event"
    },
    {
      "anonymous": false,
      "inputs": [],
      "name": "DEXAddressesUnlocked",
      "type": "event"
    },
    {
      "anonymous": false,
      "inputs": [
        {
          "indexed": true,
          "internalType": "address",
          "name": "router",
          "type": "address"
        },
        {
          "indexed": true,
          "internalType": "address",
          "name": "factory",
          "type": "address"
        }
      ],
      "name": "DEXAddressesUpdated",
      "type": "event"
    },
    {
      "anonymous": false,
      "inputs": [
        {
          "indexed": true,
          "internalType": "address",
          "name": "recipient",
          "type": "address"
        },
        {
          "indexed": false,
          "internalType": "uint256",
          "name": "amount",
          "type": "uint256"
        }
      ],
      "name": "DistributionSent",
      "type": "event"
    },
    {
      "anonymous": false,
      "inputs": [
        {
          "indexed": true,
          "internalType": "address",
          "name": "token",
          "type": "address"
        },
        {
          "indexed": false,
          "internalType": "uint256",
          "name": "amount",
          "type": "uint256"
        }
      ],
      "name": "EmergencyTokensRescued",
      "type": "event"
    },
    {
      "anonymous": false,
      "inputs": [
        {
          "indexed": true,
          "internalType": "uint8",
          "name": "slotIndex",
          "type": "uint8"
        },
        {
          "indexed": true,
          "internalType": "address",
          "name": "newAddress",
          "type": "address"
        }
      ],
      "name": "ExemptSlotUpdated",
      "type": "event"
    },
    {
      "anonymous": false,
      "inputs": [],
      "name": "ExemptSlotsLocked",
      "type": "event"
    },
    {
      "anonymous": false,
      "inputs": [],
      "name": "ExemptSlotsUnlocked",
      "type": "event"
    },
    {
      "anonymous": false,
      "inputs": [
        {
          "indexed": false,
          "internalType": "uint256",
          "name": "totalDistributed",
          "type": "uint256"
        }
      ],
      "name": "InitialDistributionCompleted",
      "type": "event"
    },
    {
      "anonymous": false,
      "inputs": [
        {
          "indexed": true,
          "internalType": "address",
          "name": "pair",
          "type": "address"
        },
        {
          "indexed": false,
          "internalType": "bool",
          "name": "status",
          "type": "bool"
        }
      ],
      "name": "LiquidityPairUpdated",
      "type": "event"
    },
    {
      "anonymous": false,
      "inputs": [],
      "name": "LiquidityPairsLocked",
      "type": "event"
    },
    {
      "anonymous": false,
      "inputs": [],
      "name": "LiquidityPairsUnlocked",
      "type": "event"
    },
    {
      "anonymous": false,
      "inputs": [
        {
          "indexed": true,
          "internalType": "uint256",
          "name": "proposalId",
          "type": "uint256"
        },
        {
          "indexed": false,
          "internalType": "uint256",
          "name": "amount",
          "type": "uint256"
        }
      ],
      "name": "MintExecuted",
      "type": "event"
    },
    {
      "anonymous": false,
      "inputs": [
        {
          "indexed": true,
          "internalType": "uint256",
          "name": "proposalId",
          "type": "uint256"
        },
        {
          "indexed": false,
          "internalType": "uint256",
          "name": "amount",
          "type": "uint256"
        },
        {
          "indexed": false,
          "internalType": "uint256",
          "name": "executeAfter",
          "type": "uint256"
        }
      ],
      "name": "MintProposed",
      "type": "event"
    },
    {
      "anonymous": false,
      "inputs": [
        {
          "indexed": true,
          "internalType": "address",
          "name": "multiSigAddress",
          "type": "address"
        }
      ],
      "name": "MultiSigAddressSet",
      "type": "event"
    },
    {
      "anonymous": false,
      "inputs": [
        {
          "indexed": false,
          "internalType": "uint256",
          "name": "until",
          "type": "uint256"
        }
      ],
      "name": "Paused",
      "type": "event"
    },
    {
      "anonymous": false,
      "inputs": [
        {
          "indexed": false,
          "internalType": "uint256",
          "name": "amount",
          "type": "uint256"
        }
      ],
      "name": "TokensBurned",
      "type": "event"
    },
    {
      "anonymous": false,
      "inputs": [
        {
          "indexed": true,
          "internalType": "address",
          "name": "from",
          "type": "address"
        },
        {
          "indexed": true,
          "internalType": "address",
          "name": "to",
          "type": "address"
        },
        {
          "indexed": false,
          "internalType": "uint256",
          "name": "value",
          "type": "uint256"
        }
      ],
      "name": "Transfer",
      "type": "event"
    },
    {
      "inputs": [],
      "name": "BURN_FEE",
      "outputs": [
        {
          "internalType": "uint256",
          "name": "",
          "type": "uint256"
        }
      ],
      "stateMutability": "view",
      "type": "function"
    },
    {
      "inputs": [],
      "name": "COOLDOWN_PERIOD",
      "outputs": [
        {
          "internalType": "uint256",
          "name": "",
          "type": "uint256"
        }
      ],
      "stateMutability": "view",
      "type": "function"
    },
    {
      "inputs": [],
      "name": "EXEMPT_TO_NORMAL_COOLDOWN",
      "outputs": [
        {
          "internalType": "uint256",
          "name": "",
          "type": "uint256"
        }
      ],
      "stateMutability": "view",
      "type": "function"
    },
    {
      "inputs": [],
      "name": "FEE_DENOMINATOR",
      "outputs": [
        {
          "internalType": "uint256",
          "name": "",
          "type": "uint256"
        }
      ],
      "stateMutability": "view",
      "type": "function"
    },
    {
      "inputs": [],
      "name": "MAX_EXEMPT_TO_NORMAL",
      "outputs": [
        {
          "internalType": "uint256",
          "name": "",
          "type": "uint256"
        }
      ],
      "stateMutability": "view",
      "type": "function"
    },
    {
      "inputs": [],
      "name": "MAX_MINT_AMOUNT",
      "outputs": [
        {
          "internalType": "uint256",
          "name": "",
          "type": "uint256"
        }
      ],
      "stateMutability": "view",
      "type": "function"
    },
    {
      "inputs": [],
      "name": "MAX_TRANSACTION",
      "outputs": [
        {
          "internalType": "uint256",
          "name": "",
          "type": "uint256"
        }
      ],
      "stateMutability": "view",
      "type": "function"
    },
    {
      "inputs": [],
      "name": "MAX_WALLET",
      "outputs": [
        {
          "internalType": "uint256",
          "name": "",
          "type": "uint256"
        }
      ],
      "stateMutability": "view",
      "type": "function"
    },
    {
      "inputs": [],
      "name": "MINT_COOLDOWN",
      "outputs": [
        {
          "internalType": "uint256",
          "name": "",
          "type": "uint256"
        }
      ],
      "stateMutability": "view",
      "type": "function"
    },
    {
      "inputs": [],
      "name": "MINT_TIMELOCK",
      "outputs": [
        {
          "internalType": "uint256",
          "name": "",
          "type": "uint256"
        }
      ],
      "stateMutability": "view",
      "type": "function"
    },
    {
      "inputs": [],
      "name": "NotExemptTradeTransferPausedUntil",
      "outputs": [
        {
          "internalType": "uint256",
          "name": "",
          "type": "uint256"
        }
      ],
      "stateMutability": "view",
      "type": "function"
    },
    {
      "inputs": [],
      "name": "OWNER_FEE",
      "outputs": [
        {
          "internalType": "uint256",
          "name": "",
          "type": "uint256"
        }
      ],
      "stateMutability": "view",
      "type": "function"
    },
    {
      "inputs": [],
      "name": "PAUSE_DURATION",
      "outputs": [
        {
          "internalType": "uint256",
          "name": "",
          "type": "uint256"
        }
      ],
      "stateMutability": "view",
      "type": "function"
    },
    {
      "inputs": [
        {
          "internalType": "address",
          "name": "",
          "type": "address"
        },
        {
          "internalType": "address",
          "name": "",
          "type": "address"
        }
      ],
      "name": "allowance",
      "outputs": [
        {
          "internalType": "uint256",
          "name": "",
          "type": "uint256"
        }
      ],
      "stateMutability": "view",
      "type": "function"
    },
    {
      "inputs": [
        {
          "internalType": "address",
          "name": "spender",
          "type": "address"
        },
        {
          "internalType": "uint256",
          "name": "amount",
          "type": "uint256"
        }
      ],
      "name": "approve",
      "outputs": [
        {
          "internalType": "bool",
          "name": "",
          "type": "bool"
        }
      ],
      "stateMutability": "nonpayable",
      "type": "function"
    },
    {
      "inputs": [
        {
          "internalType": "address",
          "name": "",
          "type": "address"
        }
      ],
      "name": "balanceOf",
      "outputs": [
        {
          "internalType": "uint256",
          "name": "",
          "type": "uint256"
        }
      ],
      "stateMutability": "view",
      "type": "function"
    },
    {
      "inputs": [
        {
          "internalType": "uint256",
          "name": "amount",
          "type": "uint256"
        }
      ],
      "name": "burn",
      "outputs": [],
      "stateMutability": "nonpayable",
      "type": "function"
    },
    {
      "inputs": [],
      "name": "decimals",
      "outputs": [
        {
          "internalType": "uint8",
          "name": "",
          "type": "uint8"
        }
      ],
      "stateMutability": "view",
      "type": "function"
    },
    {
      "inputs": [
        {
          "internalType": "address",
          "name": "spender",
          "type": "address"
        },
        {
          "internalType": "uint256",
          "name": "subtractedValue",
          "type": "uint256"
        }
      ],
      "name": "decreaseAllowance",
      "outputs": [
        {
          "internalType": "bool",
          "name": "",
          "type": "bool"
        }
      ],
      "stateMutability": "nonpayable",
      "type": "function"
    },
    {
      "inputs": [],
      "name": "dexAddressesLocked",
      "outputs": [
        {
          "internalType": "bool",
          "name": "",
          "type": "bool"
        }
      ],
      "stateMutability": "view",
      "type": "function"
    },
    {
      "inputs": [],
      "name": "distributeInitialAllocations",
      "outputs": [],
      "stateMutability": "nonpayable",
      "type": "function"
    },
    {
      "inputs": [],
      "name": "eAddr1",
      "outputs": [
        {
          "internalType": "address",
          "name": "",
          "type": "address"
        }
      ],
      "stateMutability": "view",
      "type": "function"
    },
    {
      "inputs": [],
      "name": "eAddr10",
      "outputs": [
        {
          "internalType": "address",
          "name": "",
          "type": "address"
        }
      ],
      "stateMutability": "view",
      "type": "function"
    },
    {
      "inputs": [],
      "name": "eAddr2",
      "outputs": [
        {
          "internalType": "address",
          "name": "",
          "type": "address"
        }
      ],
      "stateMutability": "view",
      "type": "function"
    },
    {
      "inputs": [],
      "name": "eAddr3",
      "outputs": [
        {
          "internalType": "address",
          "name": "",
          "type": "address"
        }
      ],
      "stateMutability": "view",
      "type": "function"
    },
    {
      "inputs": [],
      "name": "eAddr4",
      "outputs": [
        {
          "internalType": "address",
          "name": "",
          "type": "address"
        }
      ],
      "stateMutability": "view",
      "type": "function"
    },
    {
      "inputs": [],
      "name": "eAddr5",
      "outputs": [
        {
          "internalType": "address",
          "name": "",
          "type": "address"
        }
      ],
      "stateMutability": "view",
      "type": "function"
    },
    {
      "inputs": [],
      "name": "eAddr6",
      "outputs": [
        {
          "internalType": "address",
          "name": "",
          "type": "address"
        }
      ],
      "stateMutability": "view",
      "type": "function"
    },
    {
      "inputs": [],
      "name": "eAddr7",
      "outputs": [
        {
          "internalType": "address",
          "name": "",
          "type": "address"
        }
      ],
      "stateMutability": "view",
      "type": "function"
    },
    {
      "inputs": [],
      "name": "eAddr8",
      "outputs": [
        {
          "internalType": "address",
          "name": "",
          "type": "address"
        }
      ],
      "stateMutability": "view",
      "type": "function"
    },
    {
      "inputs": [],
      "name": "eAddr9",
      "outputs": [
        {
          "internalType": "address",
          "name": "",
          "type": "address"
        }
      ],
      "stateMutability": "view",
      "type": "function"
    },
    {
      "inputs": [
        {
          "internalType": "uint256",
          "name": "proposalId",
          "type": "uint256"
        }
      ],
      "name": "executeMint",
      "outputs": [],
      "stateMutability": "nonpayable",
      "type": "function"
    },
    {
      "inputs": [],
      "name": "exemptSlotsLocked",
      "outputs": [
        {
          "internalType": "bool",
          "name": "",
          "type": "bool"
        }
      ],
      "stateMutability": "view",
      "type": "function"
    },
    {
      "inputs": [],
      "name": "getDistributionAddresses",
      "outputs": [
        {
          "internalType": "address",
          "name": "devWallet",
          "type": "address"
        },
        {
          "internalType": "address",
          "name": "marketingWallet",
          "type": "address"
        },
        {
          "internalType": "address",
          "name": "teamWallet",
          "type": "address"
        },
        {
          "internalType": "address",
          "name": "advisorWallet",
          "type": "address"
        }
      ],
      "stateMutability": "view",
      "type": "function"
    },
    {
      "inputs": [],
      "name": "getExemptAddresses",
      "outputs": [
        {
          "internalType": "address[4]",
          "name": "slots",
          "type": "address[4]"
        },
        {
          "internalType": "address",
          "name": "router",
          "type": "address"
        },
        {
          "internalType": "address",
          "name": "factory",
          "type": "address"
        },
        {
          "internalType": "bool",
          "name": "slotsLocked",
          "type": "bool"
        }
      ],
      "stateMutability": "view",
      "type": "function"
    },
    {
      "inputs": [
        {
          "internalType": "address",
          "name": "pairedToken",
          "type": "address"
        }
      ],
      "name": "getLiquidityPairAddress",
      "outputs": [
        {
          "internalType": "address",
          "name": "pairAddress",
          "type": "address"
        }
      ],
      "stateMutability": "view",
      "type": "function"
    },
    {
      "inputs": [],
      "name": "getMaxMintableNow",
      "outputs": [
        {
          "internalType": "uint256",
          "name": "",
          "type": "uint256"
        }
      ],
      "stateMutability": "view",
      "type": "function"
    },
    {
      "inputs": [],
      "name": "getTimeUntilNextMint",
      "outputs": [
        {
          "internalType": "uint256",
          "name": "",
          "type": "uint256"
        }
      ],
      "stateMutability": "view",
      "type": "function"
    },
    {
      "inputs": [
        {
          "internalType": "address",
          "name": "spender",
          "type": "address"
        },
        {
          "internalType": "uint256",
          "name": "addedValue",
          "type": "uint256"
        }
      ],
      "name": "increaseAllowance",
      "outputs": [
        {
          "internalType": "bool",
          "name": "",
          "type": "bool"
        }
      ],
      "stateMutability": "nonpayable",
      "type": "function"
    },
    {
      "inputs": [],
      "name": "initialDistributionCompleted",
      "outputs": [
        {
          "internalType": "bool",
          "name": "",
          "type": "bool"
        }
      ],
      "stateMutability": "view",
      "type": "function"
    },
    {
      "inputs": [
        {
          "internalType": "address",
          "name": "",
          "type": "address"
        }
      ],
      "name": "isBlacklisted",
      "outputs": [
        {
          "internalType": "bool",
          "name": "",
          "type": "bool"
        }
      ],
      "stateMutability": "view",
      "type": "function"
    },
    {
      "inputs": [
        {
          "internalType": "address",
          "name": "account",
          "type": "address"
        }
      ],
      "name": "isExemptAddress",
      "outputs": [
        {
          "internalType": "bool",
          "name": "",
          "type": "bool"
        }
      ],
      "stateMutability": "view",
      "type": "function"
    },
    {
      "inputs": [
        {
          "internalType": "address",
          "name": "account",
          "type": "address"
        }
      ],
      "name": "isExemptSlot",
      "outputs": [
        {
          "internalType": "bool",
          "name": "",
          "type": "bool"
        }
      ],
      "stateMutability": "view",
      "type": "function"
    },
    {
      "inputs": [
        {
          "internalType": "address",
          "name": "",
          "type": "address"
        }
      ],
      "name": "isLiquidityPair",
      "outputs": [
        {
          "internalType": "bool",
          "name": "",
          "type": "bool"
        }
      ],
      "stateMutability": "view",
      "type": "function"
    },
    {
      "inputs": [],
      "name": "isPaused",
      "outputs": [
        {
          "internalType": "bool",
          "name": "",
          "type": "bool"
        }
      ],
      "stateMutability": "view",
      "type": "function"
    },
    {
      "inputs": [],
      "name": "isTestnet",
      "outputs": [
        {
          "internalType": "bool",
          "name": "",
          "type": "bool"
        }
      ],
      "stateMutability": "view",
      "type": "function"
    },
    {
      "inputs": [],
      "name": "isTradingEnabled",
      "outputs": [
        {
          "internalType": "bool",
          "name": "",
          "type": "bool"
        }
      ],
      "stateMutability": "view",
      "type": "function"
    },
    {
      "inputs": [
        {
          "internalType": "address",
          "name": "",
          "type": "address"
        }
      ],
      "name": "lastExemptToNormalTime",
      "outputs": [
        {
          "internalType": "uint256",
          "name": "",
          "type": "uint256"
        }
      ],
      "stateMutability": "view",
      "type": "function"
    },
    {
      "inputs": [],
      "name": "lastMintTime",
      "outputs": [
        {
          "internalType": "uint256",
          "name": "",
          "type": "uint256"
        }
      ],
      "stateMutability": "view",
      "type": "function"
    },
    {
      "inputs": [
        {
          "internalType": "address",
          "name": "",
          "type": "address"
        }
      ],
      "name": "lastTransactionTime",
      "outputs": [
        {
          "internalType": "uint256",
          "name": "",
          "type": "uint256"
        }
      ],
      "stateMutability": "view",
      "type": "function"
    },
    {
      "inputs": [],
      "name": "liquidityPairsLocked",
      "outputs": [
        {
          "internalType": "bool",
          "name": "",
          "type": "bool"
        }
      ],
      "stateMutability": "view",
      "type": "function"
    },
    {
      "inputs": [],
      "name": "lockDEXAddresses",
      "outputs": [],
      "stateMutability": "nonpayable",
      "type": "function"
    },
    {
      "inputs": [],
      "name": "lockExemptSlotsForever",
      "outputs": [],
      "stateMutability": "nonpayable",
      "type": "function"
    },
    {
      "inputs": [],
      "name": "lockLiquidityPairsForever",
      "outputs": [],
      "stateMutability": "nonpayable",
      "type": "function"
    },
    {
      "inputs": [],
      "name": "mainAddressChangersCooldown",
      "outputs": [
        {
          "internalType": "uint256",
          "name": "",
          "type": "uint256"
        }
      ],
      "stateMutability": "view",
      "type": "function"
    },
    {
      "inputs": [
        {
          "internalType": "uint256",
          "name": "",
          "type": "uint256"
        }
      ],
      "name": "mintProposals",
      "outputs": [
        {
          "internalType": "uint256",
          "name": "amount",
          "type": "uint256"
        },
        {
          "internalType": "uint256",
          "name": "proposedAt",
          "type": "uint256"
        },
        {
          "internalType": "uint256",
          "name": "executeAfter",
          "type": "uint256"
        },
        {
          "internalType": "bool",
          "name": "executed",
          "type": "bool"
        }
      ],
      "stateMutability": "view",
      "type": "function"
    },
    {
      "inputs": [],
      "name": "multiSigAddress",
      "outputs": [
        {
          "internalType": "address",
          "name": "",
          "type": "address"
        }
      ],
      "stateMutability": "view",
      "type": "function"
    },
    {
      "inputs": [],
      "name": "name",
      "outputs": [
        {
          "internalType": "string",
          "name": "",
          "type": "string"
        }
      ],
      "stateMutability": "view",
      "type": "function"
    },
    {
      "inputs": [],
      "name": "owner",
      "outputs": [
        {
          "internalType": "address",
          "name": "",
          "type": "address"
        }
      ],
      "stateMutability": "view",
      "type": "function"
    },
    {
      "inputs": [],
      "name": "pause",
      "outputs": [],
      "stateMutability": "nonpayable",
      "type": "function"
    },
    {
      "inputs": [],
      "name": "pncswpFactory",
      "outputs": [
        {
          "internalType": "address",
          "name": "",
          "type": "address"
        }
      ],
      "stateMutability": "view",
      "type": "function"
    },
    {
      "inputs": [],
      "name": "pncswpRouter",
      "outputs": [
        {
          "internalType": "address",
          "name": "",
          "type": "address"
        }
      ],
      "stateMutability": "view",
      "type": "function"
    },
    {
      "inputs": [],
      "name": "proposalCount",
      "outputs": [
        {
          "internalType": "uint256",
          "name": "",
          "type": "uint256"
        }
      ],
      "stateMutability": "view",
      "type": "function"
    },
    {
      "inputs": [
        {
          "internalType": "uint256",
          "name": "amount",
          "type": "uint256"
        }
      ],
      "name": "proposeMint",
      "outputs": [],
      "stateMutability": "nonpayable",
      "type": "function"
    },
    {
      "inputs": [
        {
          "internalType": "address",
          "name": "account",
          "type": "address"
        }
      ],
      "name": "removeFromBlacklist",
      "outputs": [],
      "stateMutability": "nonpayable",
      "type": "function"
    },
    {
      "inputs": [
        {
          "internalType": "address[]",
          "name": "accounts",
          "type": "address[]"
        }
      ],
      "name": "removeMULTIFromBlacklist",
      "outputs": [],
      "stateMutability": "nonpayable",
      "type": "function"
    },
    {
      "inputs": [
        {
          "internalType": "address",
          "name": "tokenAddress",
          "type": "address"
        },
        {
          "internalType": "uint256",
          "name": "amount",
          "type": "uint256"
        }
      ],
      "name": "rescueTokens",
      "outputs": [],
      "stateMutability": "nonpayable",
      "type": "function"
    },
    {
      "inputs": [
        {
          "internalType": "address",
          "name": "account",
          "type": "address"
        },
        {
          "internalType": "bool",
          "name": "status",
          "type": "bool"
        }
      ],
      "name": "setBlacklist",
      "outputs": [],
      "stateMutability": "nonpayable",
      "type": "function"
    },
    {
      "inputs": [
        {
          "internalType": "address[]",
          "name": "accounts",
          "type": "address[]"
        },
        {
          "internalType": "bool",
          "name": "status",
          "type": "bool"
        }
      ],
      "name": "setBlacklistBatch",
      "outputs": [],
      "stateMutability": "nonpayable",
      "type": "function"
    },
    {
      "inputs": [
        {
          "internalType": "address",
          "name": "pair",
          "type": "address"
        },
        {
          "internalType": "bool",
          "name": "status",
          "type": "bool"
        }
      ],
      "name": "setLiquidityPair",
      "outputs": [],
      "stateMutability": "nonpayable",
      "type": "function"
    },
    {
      "inputs": [
        {
          "internalType": "address[]",
          "name": "pairs",
          "type": "address[]"
        },
        {
          "internalType": "bool",
          "name": "status",
          "type": "bool"
        }
      ],
      "name": "setLiquidityPairBatch",
      "outputs": [],
      "stateMutability": "nonpayable",
      "type": "function"
    },
    {
      "inputs": [
        {
          "internalType": "address",
          "name": "_multiSigAddress",
          "type": "address"
        }
      ],
      "name": "setMultiSigAddress",
      "outputs": [],
      "stateMutability": "nonpayable",
      "type": "function"
    },
    {
      "inputs": [],
      "name": "symbol",
      "outputs": [
        {
          "internalType": "string",
          "name": "",
          "type": "string"
        }
      ],
      "stateMutability": "view",
      "type": "function"
    },
    {
      "inputs": [],
      "name": "timeUntilTradingEnabled",
      "outputs": [
        {
          "internalType": "uint256",
          "name": "",
          "type": "uint256"
        }
      ],
      "stateMutability": "view",
      "type": "function"
    },
    {
      "inputs": [],
      "name": "timeUntilUnpaused",
      "outputs": [
        {
          "internalType": "uint256",
          "name": "",
          "type": "uint256"
        }
      ],
      "stateMutability": "view",
      "type": "function"
    },
    {
      "inputs": [],
      "name": "totalSupply",
      "outputs": [
        {
          "internalType": "uint256",
          "name": "",
          "type": "uint256"
        }
      ],
      "stateMutability": "view",
      "type": "function"
    },
    {
      "inputs": [],
      "name": "tradingEnabledTime",
      "outputs": [
        {
          "internalType": "uint256",
          "name": "",
          "type": "uint256"
        }
      ],
      "stateMutability": "view",
      "type": "function"
    },
    {
      "inputs": [
        {
          "internalType": "address",
          "name": "to",
          "type": "address"
        },
        {
          "internalType": "uint256",
          "name": "amount",
          "type": "uint256"
        }
      ],
      "name": "transfer",
      "outputs": [
        {
          "internalType": "bool",
          "name": "",
          "type": "bool"
        }
      ],
      "stateMutability": "nonpayable",
      "type": "function"
    },
    {
      "inputs": [
        {
          "internalType": "address",
          "name": "from",
          "type": "address"
        },
        {
          "internalType": "address",
          "name": "to",
          "type": "address"
        },
        {
          "internalType": "uint256",
          "name": "amount",
          "type": "uint256"
        }
      ],
      "name": "transferFrom",
      "outputs": [
        {
          "internalType": "bool",
          "name": "",
          "type": "bool"
        }
      ],
      "stateMutability": "nonpayable",
      "type": "function"
    },
    {
      "inputs": [],
      "name": "unlockDEXAddresses",
      "outputs": [],
      "stateMutability": "nonpayable",
      "type": "function"
    },
    {
      "inputs": [],
      "name": "unlockExemptSlots",
      "outputs": [],
      "stateMutability": "nonpayable",
      "type": "function"
    },
    {
      "inputs": [],
      "name": "unlockLiquidityPairs",
      "outputs": [],
      "stateMutability": "nonpayable",
      "type": "function"
    },
    {
      "inputs": [
        {
          "internalType": "address",
          "name": "router",
          "type": "address"
        },
        {
          "internalType": "address",
          "name": "factory",
          "type": "address"
        }
      ],
      "name": "updateDEXAddresses",
      "outputs": [],
      "stateMutability": "nonpayable",
      "type": "function"
    },
    {
      "inputs": [
        {
          "internalType": "uint8",
          "name": "slotIndex",
          "type": "uint8"
        },
        {
          "internalType": "address",
          "name": "newAddress",
          "type": "address"
        }
      ],
      "name": "updateExemptSlot",
      "outputs": [],
      "stateMutability": "nonpayable",
      "type": "function"
    },
    {
      "inputs": [],
      "name": "website",
      "outputs": [
        {
          "internalType": "string",
          "name": "",
          "type": "string"
        }
      ],
      "stateMutability": "view",
      "type": "function"
    },
    {
      "inputs": [],
      "name": "withdrawBNB",
      "outputs": [],
      "stateMutability": "nonpayable",
      "type": "function"
    },
    {
      "inputs": [
        {
          "internalType": "uint256",
          "name": "amount",
          "type": "uint256"
        }
      ],
      "name": "withdrawCirculationTokens",
      "outputs": [],
      "stateMutability": "nonpayable",
      "type": "function"
    },
    {
      "stateMutability": "payable",
      "type": "receive"
    }
  ],
  "bytecode": "0x610160604052348015610010575f5ffd5b5060015f5533608052610026426202a30061045e565b60a0526100356012600a61055a565b610043906305f5e10061056f565b6001556061461480610056575046617a69145b151560c052617a6946146100a057466061146100865773567c1c5e9026e04078f9b92dcf295a58355f60c76100a2565b73cbfa2d3612b7474ff89c0746ea6baeee06a617026100a2565b335b6001600160a01b031660e052617a6946146100f357466061146100d9577358ec63d31b8e4d6624b5c88338027a54be1ae28a6100f5565b7367edbe18ad6ab1ff0d57ccc511f56485effcabe76100f5565b335b6001600160a01b031661010052617a694614610147574660611461012d57736300811567bed7d69b5ac271060a7e298f99fddd610149565b73d1a7281fb1d1745c29dfed9c1af22b67a7403dd6610149565b335b6001600160a01b031661012052617a69461461019b574660611461018157738d95d56436eb58ee3f9209e8cc4bfd59cfbe8b8761019d565b73d1a7281fb1d1745c29dfed9c1af22b67a7403dd661019d565b335b6001600160a01b031661014052606146146101cc577310ed43c718714eb63d5aa57b78b54704e256024e6101e2565b73d99d1c33f9fc3444f8101754abc46c52416550d15b600f80546001600160a01b0319166001600160a01b0392909216919091179055466061146102245773ca143ce32fe78f1f7019d7d551a6402fc5350c7361023a565b736725f303b657a9451d8ba641348b6761a6cc7a175b601080546001600160a01b03929092166001600160a01b0319928316179055600480549091163317905546617a690361029e5760058054336001600160a01b0319918216811790925560068054821683179055600780549091169091179055610366565b466061036102ff57600580546001600160a01b03199081167367edbe18ad6ab1ff0d57ccc511f56485effcabe71790915560068054821673d1a7281fb1d1745c29dfed9c1af22b67a7403dd690811790915560078054909216179055610366565b600580546001600160a01b03199081167358ec63d31b8e4d6624b5c88338027a54be1ae28a17909155600680548216736300811567bed7d69b5ac271060a7e298f99fddd17905560078054909116738d95d56436eb58ee3f9209e8cc4bfd59cfbe8b871790555b6103726012600a61055a565b610380906305b8d80061056f565b60e0516001600160a01b03165f908152601460205260409020556103a66012600a61055a565b6103b390623d090061056f565b305f9081526014602052604081209190915560e0516001600160a01b0316905f5160206164a65f395f51905f526103ec6012600a61055a565b6103fa906305b8d80061056f565b60405190815260200160405180910390a3305f5f5160206164a65f395f51905f526104276012600a61055a565b61043490623d090061056f565b60405190815260200160405180910390a3610586565b634e487b7160e01b5f52601160045260245ffd5b808201808211156104715761047161044a565b92915050565b6001815b60018411156104b2578085048111156104965761049661044a565b60018416156104a457908102905b60019390931c92800261047b565b935093915050565b5f826104c857506001610471565b816104d457505f610471565b81600181146104ea57600281146104f457610510565b6001915050610471565b60ff8411156105055761050561044a565b50506001821b610471565b5060208310610133831016604e8410600b8410161715610533575081810a610471565b61053f5f198484610477565b805f19048211156105525761055261044a565b029392505050565b5f61056860ff8416836104ba565b9392505050565b80820281158282048414176104715761047161044a565b60805160a05160c05160e051610100516101205161014051615d716107355f395f818161079201528181614b1601528181614b7301528181614be501528181614c450152614c8c01525f8181610768015281816149350152818161499201528181614a0301528181614a610152614aa801525f818161074001528181614750015281816147ad0152818161481f0152818161487f01526148c601525f818161071b01528181614783015281816149680152614b4901525f610af401525f81816104cc015281816109ac01528181613d6401528181613d9401526151ba01525f8181610aa801528181611030015281816112a0015281816113c60152818161150d015281816116c0015281816117af01528181611b0701528181611c3701528181611e5901528181611ff40152818161236301528181612582015281816126890152818161290101528181612bc601528181612e0a01528181612fd1015281816133a20152818161370c01528181613a5501528181613dc3015281816140a90152818161430a015281816143ab0152818161451f015281816145790152818161567001526157050152615d715ff3fe6080604052600436106104b3575f3560e01c80638e5196771161026d578063c345adc71161014a578063e5800210116100be578063f455bcc211610083578063f455bcc214610f8f578063f7ee7a4314610faf578063f868709114610fc5578063f92142e214610b16578063fa9b701814610fd9578063fe575a8714610ff7575f5ffd5b8063e580021014610eee578063e75b207314610f07578063e7a486fb14610f32578063ee81e62214610f51578063f30afd7214610f70575f5ffd5b8063cfe3989c1161010f578063cfe3989c14610e3e578063d73792a914610e52578063d859c5a614610e68578063da35c66414610e87578063dd62ed3e14610e9c578063df7787a414610ed2575f5ffd5b8063c345adc714610db9578063c58e186b14610dcd578063c71e282514610dec578063c9b49c2814610e0b578063cab2162314610e1f575f5ffd5b8063a9059cbb116101e1578063b6cf146c116101a6578063b6cf146c14610ca9578063b6ea231e14610cc8578063baee0bad14610d2d578063be597d3d14610d4c578063beb0a41614610d60578063c0e5dada14610d9a575f5ffd5b8063a9059cbb14610c2c578063aa719a3c14610c4b578063b187bd2614610c6a578063b367003814610c80578063b51fddfb14610c95575f5ffd5b80639d249a18116102325780639d249a1814610b7a5780639d46352014610b965780639f357d9314610bab578063a20cc63514610bca578063a457c2d714610be9578063a4fcd4c214610c08575f5ffd5b80638e51967714610aca57806392108c8614610ae357806392fde37314610b1657806395d89b4114610b2c578063975afbc014610b5b575f5ffd5b80633bf8fe4c1161039b578063667167901161030f57806377ebd0e9116102d457806377ebd0e914610a0d57806379e8a2b714610a2c5780638456cb5914610a4b578063888933da14610a5f5780638c84650214610a785780638da5cb5b14610a97575f5ffd5b806366716790146109675780636e99d52f146109865780636fd8fb7a1461099b57806370330ae1146109ce57806370a08231146109e2575f5ffd5b8063535cbfcd11610360578063535cbfcd146108b4578063537df3b6146108c857806357376198146108e75780635a5759b4146109065780635c9a05b8146109255780635dab0fe314610953575f5ffd5b80633bf8fe4c146108455780633ed446031461085957806342966c681461086d57806344c781c91461088c578063480df058146108a0575f5ffd5b806317e139521161043257806323b872dd116103f757806323b872dd146106e25780632bf9db7914610701578063313ce567146107c2578063368f505c146107e857806339509351146108075780633abc97e514610826575f5ffd5b806317e139521461066557806318160ddd146106845780631d111d131461069957806321b4deee146106ad57806323876064146106c3575f5ffd5b8063107bd32f11610478578063107bd32f146105bd5780631451dd43146105e05780631516def7146105fc578063153b0d1e1461061b578063168195781461063a575f5ffd5b8063064a59d0146104be57806306fdde03146105045780630721842e14610546578063077f2cfc1461057d578063095ea7b31461059e575f5ffd5b366104ba57005b5f5ffd5b3480156104c9575f5ffd5b507f00000000000000000000000000000000000000000000000000000000000000004210155b60405190151581526020015b60405180910390f35b34801561050f575f5ffd5b506105396040518060400160405280600a8152602001694b43592d6d656d652d3160b01b81525081565b6040516104fb9190615864565b348015610551575f5ffd5b50600554610565906001600160a01b031681565b6040516001600160a01b0390911681526020016104fb565b348015610588575f5ffd5b5061059c6105973660046158b0565b611025565b005b3480156105a9575f5ffd5b506104ef6105b83660046158cb565b61123c565b3480156105c8575f5ffd5b506105d260115481565b6040519081526020016104fb565b3480156105eb575f5ffd5b506105d2686c6b935b8bbd40000081565b348015610607575f5ffd5b50600e54610565906001600160a01b031681565b348015610626575f5ffd5b5061059c610635366004615902565b611295565b348015610645575f5ffd5b506105d26106543660046158b0565b60176020525f908152604090205481565b348015610670575f5ffd5b50600854610565906001600160a01b031681565b34801561068f575f5ffd5b506105d260015481565b3480156106a4575f5ffd5b5061059c611502565b3480156106b8575f5ffd5b506105d26202a30081565b3480156106ce575f5ffd5b5061059c6106dd366004615902565b6117a4565b3480156106ed575f5ffd5b506104ef6106fc366004615939565b611a23565b34801561070c575f5ffd5b50604080516001600160a01b037f0000000000000000000000000000000000000000000000000000000000000000811682527f0000000000000000000000000000000000000000000000000000000000000000811660208301527f00000000000000000000000000000000000000000000000000000000000000008116928201929092527f00000000000000000000000000000000000000000000000000000000000000009190911660608201526080016104fb565b3480156107cd575f5ffd5b506107d6601281565b60405160ff90911681526020016104fb565b3480156107f3575f5ffd5b50600b54610565906001600160a01b031681565b348015610812575f5ffd5b506104ef6108213660046158cb565b611ac1565b348015610831575f5ffd5b5061059c6108403660046159bf565b611afc565b348015610850575f5ffd5b5061059c611dc5565b348015610864575f5ffd5b5061059c611e4e565b348015610878575f5ffd5b5061059c610887366004615a12565b611fe9565b348015610897575f5ffd5b506105d26121bc565b3480156108ab575f5ffd5b506105d2601e81565b3480156108bf575f5ffd5b506105d26121fd565b3480156108d3575f5ffd5b5061059c6108e23660046158b0565b61226c565b3480156108f2575f5ffd5b5061059c6109013660046158cb565b612358565b348015610911575f5ffd5b506104ef6109203660046158b0565b612686565b348015610930575f5ffd5b506104ef61093f3660046158b0565b60126020525f908152604090205460ff1681565b34801561095e575f5ffd5b506105d2603281565b348015610972575f5ffd5b506105656109813660046158b0565b6127f2565b348015610991575f5ffd5b506105d2611c2081565b3480156109a6575f5ffd5b506105d27f000000000000000000000000000000000000000000000000000000000000000081565b3480156109d9575f5ffd5b5061059c6128f6565b3480156109ed575f5ffd5b506105d26109fc3660046158b0565b60146020525f908152604090205481565b348015610a18575f5ffd5b5061059c610a27366004615a29565b612a5c565b348015610a37575f5ffd5b50601054610565906001600160a01b031681565b348015610a56575f5ffd5b5061059c612bbb565b348015610a6a575f5ffd5b506002546104ef9060ff1681565b348015610a83575f5ffd5b50600f54610565906001600160a01b031681565b348015610aa2575f5ffd5b506105657f000000000000000000000000000000000000000000000000000000000000000081565b348015610ad5575f5ffd5b506013546104ef9060ff1681565b348015610aee575f5ffd5b506104ef7f000000000000000000000000000000000000000000000000000000000000000081565b348015610b21575f5ffd5b506105d26201518081565b348015610b37575f5ffd5b50610539604051806040016040528060048152602001634b43593160e01b81525081565b348015610b66575f5ffd5b50600c54610565906001600160a01b031681565b348015610b85575f5ffd5b506105d268056bc75e2d6310000081565b348015610ba1575f5ffd5b506105d260195481565b348015610bb6575f5ffd5b50600a54610565906001600160a01b031681565b348015610bd5575f5ffd5b50600454610565906001600160a01b031681565b348015610bf4575f5ffd5b506104ef610c033660046158cb565b612d1f565b348015610c13575f5ffd5b50610c1c612d99565b6040516104fb9493929190615a68565b348015610c37575f5ffd5b506104ef610c463660046158cb565b612dec565b348015610c56575f5ffd5b50600954610565906001600160a01b031681565b348015610c75575f5ffd5b5060035442106104ef565b348015610c8b575f5ffd5b506105d260035481565b348015610ca0575f5ffd5b5061059c612dff565b348015610cb4575f5ffd5b5061059c610cc3366004615a12565b612fc6565b348015610cd3575f5ffd5b50610d0b610ce2366004615a12565b601a6020525f908152604090208054600182015460028301546003909301549192909160ff1684565b60408051948552602085019390935291830152151560608201526080016104fb565b348015610d38575f5ffd5b50600654610565906001600160a01b031681565b348015610d57575f5ffd5b5061059c613311565b348015610d6b575f5ffd5b506105396040518060400160405280600f81526020016e68747470733a2f2f6b6379312e696f60881b81525081565b348015610da5575f5ffd5b5061059c610db4366004615ac4565b613397565b348015610dc4575f5ffd5b5061059c613683565b348015610dd8575f5ffd5b50600754610565906001600160a01b031681565b348015610df7575f5ffd5b506104ef610e063660046158b0565b613709565b348015610e16575f5ffd5b506105d2613832565b348015610e2a575f5ffd5b5061059c610e39366004615af0565b61385a565b348015610e49575f5ffd5b506105d2613d61565b348015610e5d575f5ffd5b506105d2620186a081565b348015610e73575f5ffd5b5061059c610e823660046159bf565b613db8565b348015610e92575f5ffd5b506105d2601b5481565b348015610ea7575f5ffd5b506105d2610eb6366004615ac4565b601560209081525f928352604080842090915290825290205481565b348015610edd575f5ffd5b506105d268d8d726b7177a80000081565b348015610ef9575f5ffd5b50601c546104ef9060ff1681565b348015610f12575f5ffd5b506105d2610f213660046158b0565b60166020525f908152604090205481565b348015610f3d575f5ffd5b5061059c610f4c366004615a12565b61409e565b348015610f5c575f5ffd5b5061059c610f6b366004615a12565b6143a0565b348015610f7b575f5ffd5b50600d54610565906001600160a01b031681565b348015610f9a575f5ffd5b506010546104ef90600160a01b900460ff1681565b348015610fba575f5ffd5b506105d262093a8081565b348015610fd0575f5ffd5b5061059c61456e565b348015610fe4575f5ffd5b506105d26a0422ca8b0a00a42500000081565b348015611002575f5ffd5b506104ef6110113660046158b0565b60186020525f908152604090205460ff1681565b336001600160a01b037f000000000000000000000000000000000000000000000000000000000000000016148061106657506004546001600160a01b031633145b8061107b57506005546001600160a01b031633145b8061109057506006546001600160a01b031633145b806110a557506007546001600160a01b031633145b806110ba57506008546001600160a01b031633145b806110cf57506009546001600160a01b031633145b806110e45750600a546001600160a01b031633145b806110f95750600b546001600160a01b031633145b8061110e5750600c546001600160a01b031633145b806111235750600d546001600160a01b031633145b806111385750600e546001600160a01b031633145b61115d5760405162461bcd60e51b815260040161115490615b11565b60405180910390fd5b600e546001600160a01b0316156111ae5760405162461bcd60e51b8152602060048201526015602482015274135d5b1d1a4b5cda59c8185b1c9958591e481cd95d605a1b6044820152606401611154565b6001600160a01b0381166111f35760405162461bcd60e51b815260206004820152600c60248201526b5a65726f206164647265737360a01b6044820152606401611154565b600e80546001600160a01b0319166001600160a01b0383169081179091556040517f1c299868bdf884ac5c38c41dca1b8fa41a5c6a672e17319ec1c8d68e5066a99a905f90a250565b5f6011544210156112805760405162461bcd60e51b815260206004820152600e60248201526d20b236b4b71031b7b7b63237bbb760911b6044820152606401611154565b61128b338484614d34565b5060015b92915050565b336001600160a01b037f00000000000000000000000000000000000000000000000000000000000000001614806112d657506004546001600160a01b031633145b806112eb57506005546001600160a01b031633145b8061130057506006546001600160a01b031633145b8061131557506007546001600160a01b031633145b8061132a57506008546001600160a01b031633145b8061133f57506009546001600160a01b031633145b806113545750600a546001600160a01b031633145b806113695750600b546001600160a01b031633145b8061137e5750600c546001600160a01b031633145b806113935750600d546001600160a01b031633145b806113a85750600e546001600160a01b031633145b6113c45760405162461bcd60e51b815260040161115490615b11565b7f00000000000000000000000000000000000000000000000000000000000000006001600160a01b0316826001600160a01b0316036114305760405162461bcd60e51b815260206004820152600860248201526727379037bbb732b960c11b6044820152606401611154565b306001600160a01b038316036114765760405162461bcd60e51b815260206004820152600b60248201526a139bc818dbdb9d1c9858dd60aa1b6044820152606401611154565b6001600160a01b0382166114b65760405162461bcd60e51b81526020600482015260076024820152664e6f207a65726f60c81b6044820152606401611154565b6001600160a01b0382165f81815260186020908152604091829020805460ff191685151590811790915591519182525f516020615cfc5f395f51905f5291015b60405180910390a25050565b336001600160a01b037f000000000000000000000000000000000000000000000000000000000000000016148061154357506004546001600160a01b031633145b8061155857506005546001600160a01b031633145b8061156d57506006546001600160a01b031633145b8061158257506007546001600160a01b031633145b8061159757506008546001600160a01b031633145b806115ac57506009546001600160a01b031633145b806115c15750600a546001600160a01b031633145b806115d65750600b546001600160a01b031633145b806115eb5750600c546001600160a01b031633145b806116005750600d546001600160a01b031633145b806116155750600e546001600160a01b031633145b6116315760405162461bcd60e51b815260040161115490615b11565b60025f54036116825760405162461bcd60e51b815260206004820152601f60248201527f5265656e7472616e637947756172643a207265656e7472616e742063616c6c006044820152606401611154565b60025f5547806116bd5760405162461bcd60e51b815260206004820152600660248201526527379021272160d11b6044820152606401611154565b5f7f00000000000000000000000000000000000000000000000000000000000000006001600160a01b0316826040515f6040518083038185875af1925050503d805f8114611726576040519150601f19603f3d011682016040523d82523d5f602084013e61172b565b606091505b50509050806117695760405162461bcd60e51b815260206004820152600a6024820152691093908819985a5b195960b21b6044820152606401611154565b6040518281527f1680612e6c4ea6353232f90d9fc956e494bb8a63829af6cf07e3763061a780949060200160405180910390a1505060015f55565b336001600160a01b037f00000000000000000000000000000000000000000000000000000000000000001614806117e557506004546001600160a01b031633145b806117fa57506005546001600160a01b031633145b8061180f57506006546001600160a01b031633145b8061182457506007546001600160a01b031633145b8061183957506008546001600160a01b031633145b8061184e57506009546001600160a01b031633145b806118635750600a546001600160a01b031633145b806118785750600b546001600160a01b031633145b8061188d5750600c546001600160a01b031633145b806118a25750600d546001600160a01b031633145b806118b75750600e546001600160a01b031633145b6118d35760405162461bcd60e51b815260040161115490615b11565b600e546001600160a01b031633146119085760135460ff16156119085760405162461bcd60e51b815260040161115490615b34565b600e546001600160a01b0316331461193c5760115442101561193c5760405162461bcd60e51b815260040161115490615b5a565b6001600160a01b0382166119815760405162461bcd60e51b815260206004820152600c60248201526b24b73b30b634b2103830b4b960a11b6044820152606401611154565b6001600160a01b0382165f908152601260205260409020805460ff19168215151790556119b16202a30042615ba5565b60038190556040519081525f516020615cdc5f395f51905f529060200160405180910390a16119e36202a30042615ba5565b60115560405181151581526001600160a01b038316907f7a2f4227df0ce76d5d4187329faaf8c53eb621fd92edb868d331f292bb011344906020016114f6565b6001600160a01b0383165f90815260156020908152604080832033845290915281205482811015611a865760405162461bcd60e51b815260206004820152600d60248201526c4c6f7720616c6c6f77616e636560981b6044820152606401611154565b6001600160a01b0385165f90815260156020908152604080832033845290915290208382039055611ab8858585614e16565b95945050505050565b335f8181526015602090815260408083206001600160a01b0387168452909152812054909161128b918590611af7908690615ba5565b614d34565b336001600160a01b037f0000000000000000000000000000000000000000000000000000000000000000161480611b3d57506004546001600160a01b031633145b80611b5257506005546001600160a01b031633145b80611b6757506006546001600160a01b031633145b80611b7c57506007546001600160a01b031633145b80611b9157506008546001600160a01b031633145b80611ba657506009546001600160a01b031633145b80611bbb5750600a546001600160a01b031633145b80611bd05750600b546001600160a01b031633145b80611be55750600c546001600160a01b031633145b80611bfa5750600d546001600160a01b031633145b80611c0f5750600e546001600160a01b031633145b611c2b5760405162461bcd60e51b815260040161115490615b11565b5f5b82811015611dbf577f00000000000000000000000000000000000000000000000000000000000000006001600160a01b0316848483818110611c7157611c71615bb8565b9050602002016020810190611c8691906158b0565b6001600160a01b031614158015611ccc575030848483818110611cab57611cab615bb8565b9050602002016020810190611cc091906158b0565b6001600160a01b031614155b8015611d0757505f848483818110611ce657611ce6615bb8565b9050602002016020810190611cfb91906158b0565b6001600160a01b031614155b15611db7578160185f868685818110611d2257611d22615bb8565b9050602002016020810190611d3791906158b0565b6001600160a01b0316815260208101919091526040015f20805460ff1916911515919091179055838382818110611d7057611d70615bb8565b9050602002016020810190611d8591906158b0565b6001600160a01b03165f516020615cfc5f395f51905f5283604051611dae911515815260200190565b60405180910390a25b600101611c2d565b50505050565b600e546001600160a01b03163314611def5760405162461bcd60e51b815260040161115490615bcc565b600e546001600160a01b0316611e175760405162461bcd60e51b815260040161115490615bf4565b6010805460ff60a01b191690556040517fa51949d2a53f5e36f13f153e2a7b001fd7ed6556cef2866ac2f1b52ea9342c1d905f90a1565b336001600160a01b037f0000000000000000000000000000000000000000000000000000000000000000161480611e8f57506004546001600160a01b031633145b80611ea457506005546001600160a01b031633145b80611eb957506006546001600160a01b031633145b80611ece57506007546001600160a01b031633145b80611ee357506008546001600160a01b031633145b80611ef857506009546001600160a01b031633145b80611f0d5750600a546001600160a01b031633145b80611f225750600b546001600160a01b031633145b80611f375750600c546001600160a01b031633145b80611f4c5750600d546001600160a01b031633145b80611f615750600e546001600160a01b031633145b611f7d5760405162461bcd60e51b815260040161115490615b11565b600e546001600160a01b03163314611fb25760135460ff1615611fb25760405162461bcd60e51b815260040161115490615b34565b6013805460ff191660011790556040517f4796bf6ffaaa75b9dd6d018c2bd9c876b3483a4be62665b4630f698ac85c5f7e905f90a1565b336001600160a01b037f000000000000000000000000000000000000000000000000000000000000000016148061202a57506004546001600160a01b031633145b8061203f57506005546001600160a01b031633145b8061205457506006546001600160a01b031633145b8061206957506007546001600160a01b031633145b8061207e57506008546001600160a01b031633145b8061209357506009546001600160a01b031633145b806120a85750600a546001600160a01b031633145b806120bd5750600b546001600160a01b031633145b806120d25750600c546001600160a01b031633145b806120e75750600d546001600160a01b031633145b806120fc5750600e546001600160a01b031633145b6121185760405162461bcd60e51b815260040161115490615b11565b335f908152601460205260409020548111156121465760405162461bcd60e51b815260040161115490615c1f565b335f81815260146020908152604080832080548690039055600180548690039055518481529192915f516020615d1c5f395f51905f52910160405180910390a36040518181527f6ef4855b666dcc7884561072e4358b28dfe01feb1b7f4dcebc00e62d50394ac79060200160405180910390a150565b5f6019545f036121cb57505f90565b5f62093a806019546121dd9190615ba5565b90508042106121ed575f91505090565b6121f74282615c44565b91505090565b5f6019545f1415801561221f575062093a8060195461221c9190615ba5565b42105b1561222957505f90565b6001546a0422ca8b0a00a425000000905f906127109061224a906032615c57565b6122549190615c6e565b90508181106122635781612265565b805b9250505090565b600e546001600160a01b031633146122965760405162461bcd60e51b815260040161115490615bcc565b600e546001600160a01b03166122be5760405162461bcd60e51b815260040161115490615bf4565b6001600160a01b0381165f9081526018602052604090205460ff166123175760405162461bcd60e51b815260206004820152600f60248201526e139bdd08189b1858dadb1a5cdd1959608a1b6044820152606401611154565b6001600160a01b0381165f818152601860209081526040808320805460ff19169055519182525f516020615cfc5f395f51905f52910160405180910390a250565b336001600160a01b037f000000000000000000000000000000000000000000000000000000000000000016148061239957506004546001600160a01b031633145b806123ae57506005546001600160a01b031633145b806123c357506006546001600160a01b031633145b806123d857506007546001600160a01b031633145b806123ed57506008546001600160a01b031633145b8061240257506009546001600160a01b031633145b806124175750600a546001600160a01b031633145b8061242c5750600b546001600160a01b031633145b806124415750600c546001600160a01b031633145b806124565750600d546001600160a01b031633145b8061246b5750600e546001600160a01b031633145b6124875760405162461bcd60e51b815260040161115490615b11565b60025f54036124d85760405162461bcd60e51b815260206004820152601f60248201527f5265656e7472616e637947756172643a207265656e7472616e742063616c6c006044820152606401611154565b60025f556001600160a01b0382166125225760405162461bcd60e51b815260206004820152600d60248201526c24b73b30b634b2103a37b5b2b760991b6044820152606401611154565b306001600160a01b0383160361256b5760405162461bcd60e51b815260206004820152600e60248201526d4e6f20726573637565204b43593160901b6044820152606401611154565b60405163a9059cbb60e01b81526001600160a01b037f0000000000000000000000000000000000000000000000000000000000000000811660048301526024820183905283919082169063a9059cbb906044016020604051808303815f875af11580156125da573d5f5f3e3d5ffd5b505050506040513d601f19601f820116820180604052508101906125fe9190615c8d565b61263a5760405162461bcd60e51b815260206004820152600d60248201526c14995cd8dd594819985a5b1959609a1b6044820152606401611154565b826001600160a01b03167fe2ff149b1527ce73bc1113b8b0d5f0afffefac241473a371880d7510708ad4438360405161267591815260200190565b60405180910390a2505060015f5550565b5f7f00000000000000000000000000000000000000000000000000000000000000006001600160a01b0316826001600160a01b031614806126cf57506001600160a01b03821630145b806126e757506004546001600160a01b038381169116145b806126ff57506005546001600160a01b038381169116145b8061271757506006546001600160a01b038381169116145b8061272f57506007546001600160a01b038381169116145b8061274757506008546001600160a01b038381169116145b8061275f57506009546001600160a01b038381169116145b806127775750600a546001600160a01b038381169116145b8061278f5750600b546001600160a01b038381169116145b806127a75750600c546001600160a01b038381169116145b806127bf5750600d546001600160a01b038381169116145b806127d75750600f546001600160a01b038381169116145b8061128f5750506010546001600160a01b0390811691161490565b5f6001600160a01b0382166128395760405162461bcd60e51b815260206004820152600d60248201526c24b73b30b634b2103a37b5b2b760991b6044820152606401611154565b306001600160a01b038316036128845760405162461bcd60e51b815260206004820152601060248201526f21b0b73737ba103830b4b91039b2b63360811b6044820152606401611154565b60105460405163e6a4390560e01b81523060048201526001600160a01b0384811660248301529091169063e6a4390590604401602060405180830381865afa1580156128d2573d5f5f3e3d5ffd5b505050506040513d601f19601f8201168201806040525081019061128f9190615ca8565b336001600160a01b037f000000000000000000000000000000000000000000000000000000000000000016148061293757506004546001600160a01b031633145b8061294c57506005546001600160a01b031633145b8061296157506006546001600160a01b031633145b8061297657506007546001600160a01b031633145b8061298b57506008546001600160a01b031633145b806129a057506009546001600160a01b031633145b806129b55750600a546001600160a01b031633145b806129ca5750600b546001600160a01b031633145b806129df5750600c546001600160a01b031633145b806129f45750600d546001600160a01b031633145b80612a095750600e546001600160a01b031633145b612a255760405162461bcd60e51b815260040161115490615b11565b601c805460ff191660011790556040517f8626b5eba97cb663ee6bc23f6f1085d98d9ae2a677d0f785943aeb24557b0007905f90a1565b600e546001600160a01b03163314612a865760405162461bcd60e51b815260040161115490615bcc565b600e546001600160a01b0316612aae5760405162461bcd60e51b815260040161115490615bf4565b5f5b81811015612bb65760185f848484818110612acd57612acd615bb8565b9050602002016020810190612ae291906158b0565b6001600160a01b0316815260208101919091526040015f205460ff1615612bae575f60185f858585818110612b1957612b19615bb8565b9050602002016020810190612b2e91906158b0565b6001600160a01b0316815260208101919091526040015f20805460ff1916911515919091179055828282818110612b6757612b67615bb8565b9050602002016020810190612b7c91906158b0565b6001600160a01b03165f516020615cfc5f395f51905f525f604051612ba5911515815260200190565b60405180910390a25b600101612ab0565b505050565b336001600160a01b037f0000000000000000000000000000000000000000000000000000000000000000161480612bfc57506004546001600160a01b031633145b80612c1157506005546001600160a01b031633145b80612c2657506006546001600160a01b031633145b80612c3b57506007546001600160a01b031633145b80612c5057506008546001600160a01b031633145b80612c6557506009546001600160a01b031633145b80612c7a5750600a546001600160a01b031633145b80612c8f5750600b546001600160a01b031633145b80612ca45750600c546001600160a01b031633145b80612cb95750600d546001600160a01b031633145b80612cce5750600e546001600160a01b031633145b612cea5760405162461bcd60e51b815260040161115490615b11565b612cf76202a30042615ba5565b60038190556040519081525f516020615cdc5f395f51905f52906020015b60405180910390a1565b335f9081526015602090815260408083206001600160a01b038616845290915281205482811015612d825760405162461bcd60e51b815260206004820152600d60248201526c4c6f7720616c6c6f77616e636560981b6044820152606401611154565b612d8f3385858403614d34565b5060019392505050565b612da1615846565b6004546001600160a01b039081168252600554811660208301526006548116604083015260075481166060830152600f5460105492939082169291821691600160a01b900460ff1690565b5f612df8338484614e16565b9392505050565b336001600160a01b037f0000000000000000000000000000000000000000000000000000000000000000161480612e4057506004546001600160a01b031633145b80612e5557506005546001600160a01b031633145b80612e6a57506006546001600160a01b031633145b80612e7f57506007546001600160a01b031633145b80612e9457506008546001600160a01b031633145b80612ea957506009546001600160a01b031633145b80612ebe5750600a546001600160a01b031633145b80612ed35750600b546001600160a01b031633145b80612ee85750600c546001600160a01b031633145b80612efd5750600d546001600160a01b031633145b80612f125750600e546001600160a01b031633145b612f2e5760405162461bcd60e51b815260040161115490615b11565b600e546001600160a01b03163314612f8957601054600160a01b900460ff1615612f895760405162461bcd60e51b815260206004820152600c60248201526b14db1bdd1cc81b1bd8dad95960a21b6044820152606401611154565b6010805460ff60a01b1916600160a01b1790556040517f08234ccd0d49a6aa697f3793c5f51d1a67334aadd98b1a80978b14c42e4204c9905f90a1565b336001600160a01b037f000000000000000000000000000000000000000000000000000000000000000016148061300757506004546001600160a01b031633145b8061301c57506005546001600160a01b031633145b8061303157506006546001600160a01b031633145b8061304657506007546001600160a01b031633145b8061305b57506008546001600160a01b031633145b8061307057506009546001600160a01b031633145b806130855750600a546001600160a01b031633145b8061309a5750600b546001600160a01b031633145b806130af5750600c546001600160a01b031633145b806130c45750600d546001600160a01b031633145b806130d95750600e546001600160a01b031633145b6130f55760405162461bcd60e51b815260040161115490615b11565b600e546001600160a01b03163314613129576011544210156131295760405162461bcd60e51b815260040161115490615b5a565b5f811161316d5760405162461bcd60e51b81526020600482015260126024820152710416d6f756e74206d757374206265203e20360741b6044820152606401611154565b62093a8060195461317e9190615ba5565b4210156131c35760405162461bcd60e51b815260206004820152601360248201527210dbdbdb191bdddb881b9bdd081c185cdcd959606a1b6044820152606401611154565b6001546a0422ca8b0a00a425000000905f90612710906131e4906032615c57565b6131ee9190615c6e565b9050818110156131fc578091505b8183111561323f5760405162461bcd60e51b815260206004820152601060248201526f115e18d959591cc81b585e081b5a5b9d60821b6044820152606401611154565b601b8054905f61324e83615cc3565b9190505550604051806080016040528084815260200142815260200162015180426132799190615ba5565b81525f6020918201819052601b80548252601a8352604091829020845181559284015160018401559083015160028301556060909201516003909101805460ff1916911515919091179055547f647292d081eebcc7a2a611fa5a88554629f8fb2c089a593a8419c4f6dc7b91a3846132f46201518042615ba5565b6040805192835260208301919091520160405180910390a2505050565b600e546001600160a01b0316331461333b5760405162461bcd60e51b815260040161115490615bcc565b600e546001600160a01b03166133635760405162461bcd60e51b815260040161115490615bf4565b6013805460ff191690556040517fbb6c70ce316c154e62e01716ee643d3b433b5fd65f37f62e170411447251ac7a905f90a1565b336001600160a01b037f00000000000000000000000000000000000000000000000000000000000000001614806133d857506004546001600160a01b031633145b806133ed57506005546001600160a01b031633145b8061340257506006546001600160a01b031633145b8061341757506007546001600160a01b031633145b8061342c57506008546001600160a01b031633145b8061344157506009546001600160a01b031633145b806134565750600a546001600160a01b031633145b8061346b5750600b546001600160a01b031633145b806134805750600c546001600160a01b031633145b806134955750600d546001600160a01b031633145b806134aa5750600e546001600160a01b031633145b6134c65760405162461bcd60e51b815260040161115490615b11565b600e546001600160a01b0316331461351857601c5460ff16156135185760405162461bcd60e51b815260206004820152600a602482015269111156081b1bd8dad95960b21b6044820152606401611154565b600e546001600160a01b0316331461354c5760115442101561354c5760405162461bcd60e51b815260040161115490615b5a565b6001600160a01b0382166135905760405162461bcd60e51b815260206004820152600b60248201526a526f75746572207a65726f60a81b6044820152606401611154565b6001600160a01b0381166135d55760405162461bcd60e51b815260206004820152600c60248201526b466163746f7279207a65726f60a01b6044820152606401611154565b600f80546001600160a01b038085166001600160a01b03199283161790925560108054928416929091169190911790556136126202a30042615ba5565b60038190556040519081525f516020615cdc5f395f51905f529060200160405180910390a16136446202a30042615ba5565b6011556040516001600160a01b0380831691908416907f21baedc621b715a34ba27312a07d13d9fefd74e0fe7770fef56db94f3399e5ba905f90a35050565b600e546001600160a01b031633146136ad5760405162461bcd60e51b815260040161115490615bcc565b600e546001600160a01b03166136d55760405162461bcd60e51b815260040161115490615bf4565b601c805460ff191690556040517f2e33380adea2f285a9841bb8e9745e505ce81db299f34111d2ae1cff72d10c28905f90a1565b5f7f00000000000000000000000000000000000000000000000000000000000000006001600160a01b0316826001600160a01b0316148061375757506004546001600160a01b038381169116145b8061376f57506005546001600160a01b038381169116145b8061378757506006546001600160a01b038381169116145b8061379f57506007546001600160a01b038381169116145b806137b757506008546001600160a01b038381169116145b806137cf57506009546001600160a01b038381169116145b806137e75750600a546001600160a01b038381169116145b806137ff5750600b546001600160a01b038381169116145b806138175750600c546001600160a01b038381169116145b8061128f575050600d546001600160a01b0390811691161490565b5f61383e600354421090565b61384757505f90565b426003546138559190615c44565b905090565b600e546001600160a01b031633146138b557601054600160a01b900460ff16156138b55760405162461bcd60e51b815260206004820152600c60248201526b14db1bdd1cc81b1bd8dad95960a21b6044820152606401611154565b60018260ff16101580156138cd5750600a8260ff1611155b61390e5760405162461bcd60e51b8152602060048201526012602482015271092dcecc2d8d2c840e6d8dee840d2dcc8caf60731b6044820152606401611154565b6001600160a01b0381166139535760405162461bcd60e51b815260206004820152600c60248201526b5a65726f206164647265737360a01b6044820152606401611154565b8160ff166001036139a65760405162461bcd60e51b815260206004820152601f60248201527f536c6f742031206973206f776e6572202d2063616e6e6f74206368616e6765006044820152606401611154565b60028260ff16101580156139be575060058260ff1611155b15613a4a57600e546001600160a01b03163314613a1d5760405162461bcd60e51b815260206004820152601c60248201527f4f6e6c79206d756c74692d73696720666f7220736c6f747320312d35000000006044820152606401611154565b600e546001600160a01b0316613a455760405162461bcd60e51b815260040161115490615bf4565b613b64565b336001600160a01b037f0000000000000000000000000000000000000000000000000000000000000000161480613a8b57506004546001600160a01b031633145b80613aa057506005546001600160a01b031633145b80613ab557506006546001600160a01b031633145b80613aca57506007546001600160a01b031633145b80613adf57506008546001600160a01b031633145b80613af457506009546001600160a01b031633145b80613b095750600a546001600160a01b031633145b80613b1e5750600b546001600160a01b031633145b80613b335750600c546001600160a01b031633145b80613b485750600d546001600160a01b031633145b613b645760405162461bcd60e51b815260040161115490615b11565b8160ff16600203613b8f57600580546001600160a01b0319166001600160a01b038316179055613ce3565b8160ff16600303613bba57600680546001600160a01b0319166001600160a01b038316179055613ce3565b8160ff16600403613be557600780546001600160a01b0319166001600160a01b038316179055613ce3565b8160ff16600503613c1057600880546001600160a01b0319166001600160a01b038316179055613ce3565b8160ff16600603613c3b57600980546001600160a01b0319166001600160a01b038316179055613ce3565b8160ff16600703613c6657600a80546001600160a01b0319166001600160a01b038316179055613ce3565b8160ff16600803613c9157600b80546001600160a01b0319166001600160a01b038316179055613ce3565b8160ff16600903613cbc57600c80546001600160a01b0319166001600160a01b038316179055613ce3565b8160ff16600a03613ce357600d80546001600160a01b0319166001600160a01b0383161790555b613cf06202a30042615ba5565b60038190556040519081525f516020615cdc5f395f51905f529060200160405180910390a1613d226202a30042615ba5565b6011556040516001600160a01b0382169060ff8416907f55fa37c516338944fcc832b2ffde413707862af8395516e549c43af435a58797905f90a35050565b5f7f00000000000000000000000000000000000000000000000000000000000000004210613d8e57505f90565b613855427f0000000000000000000000000000000000000000000000000000000000000000615c44565b336001600160a01b037f0000000000000000000000000000000000000000000000000000000000000000161480613df957506004546001600160a01b031633145b80613e0e57506005546001600160a01b031633145b80613e2357506006546001600160a01b031633145b80613e3857506007546001600160a01b031633145b80613e4d57506008546001600160a01b031633145b80613e6257506009546001600160a01b031633145b80613e775750600a546001600160a01b031633145b80613e8c5750600b546001600160a01b031633145b80613ea15750600c546001600160a01b031633145b80613eb65750600d546001600160a01b031633145b80613ecb5750600e546001600160a01b031633145b613ee75760405162461bcd60e51b815260040161115490615b11565b600e546001600160a01b03163314613f1c5760135460ff1615613f1c5760405162461bcd60e51b815260040161115490615b34565b600e546001600160a01b03163314613f5057601154421015613f505760405162461bcd60e51b815260040161115490615b5a565b5f5b82811015614056575f848483818110613f6d57613f6d615bb8565b9050602002016020810190613f8291906158b0565b6001600160a01b03161461404e578160125f868685818110613fa657613fa6615bb8565b9050602002016020810190613fbb91906158b0565b6001600160a01b0316815260208101919091526040015f20805460ff1916911515919091179055838382818110613ff457613ff4615bb8565b905060200201602081019061400991906158b0565b6001600160a01b03167f7a2f4227df0ce76d5d4187329faaf8c53eb621fd92edb868d331f292bb01134483604051614045911515815260200190565b60405180910390a25b600101613f52565b506140646202a30042615ba5565b60038190556040519081525f516020615cdc5f395f51905f529060200160405180910390a16140966202a30042615ba5565b601155505050565b336001600160a01b037f00000000000000000000000000000000000000000000000000000000000000001614806140df57506004546001600160a01b031633145b806140f457506005546001600160a01b031633145b8061410957506006546001600160a01b031633145b8061411e57506007546001600160a01b031633145b8061413357506008546001600160a01b031633145b8061414857506009546001600160a01b031633145b8061415d5750600a546001600160a01b031633145b806141725750600b546001600160a01b031633145b806141875750600c546001600160a01b031633145b8061419c5750600d546001600160a01b031633145b806141b15750600e546001600160a01b031633145b6141cd5760405162461bcd60e51b815260040161115490615b11565b600e546001600160a01b03163314614201576011544210156142015760405162461bcd60e51b815260040161115490615b5a565b5f818152601a60205260409020600381015460ff16156142565760405162461bcd60e51b815260206004820152601060248201526f105b1c9958591e48195e1958dd5d195960821b6044820152606401611154565b80546142975760405162461bcd60e51b815260206004820152601060248201526f125b9d985b1a59081c1c9bdc1bdcd85b60821b6044820152606401611154565b80600201544210156142e15760405162461bcd60e51b8152602060048201526013602482015272151a5b595b1bd8dac81b9bdd081c185cdcd959606a1b6044820152606401611154565b60038101805460ff19166001908117909155426019558154815401905580546001600160a01b037f0000000000000000000000000000000000000000000000000000000000000000165f81815260146020526040808220805490940190935583549251919290915f516020615d1c5f395f51905f52916143649190815260200190565b60405180910390a3805460405190815282907f1c8450e81009bae0b2dc2af7e74559bb5a99e3c83ee6199c8822376295f958ea906020016114f6565b336001600160a01b037f00000000000000000000000000000000000000000000000000000000000000001614806143e157506004546001600160a01b031633145b806143f657506005546001600160a01b031633145b8061440b57506006546001600160a01b031633145b8061442057506007546001600160a01b031633145b8061443557506008546001600160a01b031633145b8061444a57506009546001600160a01b031633145b8061445f5750600a546001600160a01b031633145b806144745750600b546001600160a01b031633145b806144895750600c546001600160a01b031633145b8061449e5750600d546001600160a01b031633145b806144b35750600e546001600160a01b031633145b6144cf5760405162461bcd60e51b815260040161115490615b11565b305f908152601460205260409020548111156144fd5760405162461bcd60e51b815260040161115490615c1f565b305f818152601460209081526040808320805486900390556001600160a01b037f00000000000000000000000000000000000000000000000000000000000000001680845292819020805486019055518481529192915f516020615d1c5f395f51905f52910160405180910390a350565b336001600160a01b037f00000000000000000000000000000000000000000000000000000000000000001614806145af57506004546001600160a01b031633145b806145c457506005546001600160a01b031633145b806145d957506006546001600160a01b031633145b806145ee57506007546001600160a01b031633145b8061460357506008546001600160a01b031633145b8061461857506009546001600160a01b031633145b8061462d5750600a546001600160a01b031633145b806146425750600b546001600160a01b031633145b806146575750600c546001600160a01b031633145b8061466c5750600d546001600160a01b031633145b806146815750600e546001600160a01b031633145b61469d5760405162461bcd60e51b815260040161115490615b11565b60025460ff16156146e15760405162461bcd60e51b815260206004820152600e60248201526d111a5cdd0818dbdb5c1b195d195960921b6044820152606401611154565b305f908152601460205260409020546a034f086f3b33b68400000011156147415760405162461bcd60e51b8152602060048201526014602482015273436f6e74726163742062616c616e6365206c6f7760601b6044820152606401611154565b6002805460ff191660011790557f00000000000000000000000000000000000000000000000000000000000000006001600160a01b0316158015906147d857507f00000000000000000000000000000000000000000000000000000000000000006001600160a01b03167f00000000000000000000000000000000000000000000000000000000000000006001600160a01b031614155b80156147e2575060015b1561493357305f90815260146020526040812080546a013da329b63364718000009290614810908490615c44565b90915550506001600160a01b037f0000000000000000000000000000000000000000000000000000000000000000165f90815260146020526040812080546a013da329b63364718000009290614867908490615ba5565b90915550506040516a013da329b633647180000081527f00000000000000000000000000000000000000000000000000000000000000006001600160a01b03169030905f516020615d1c5f395f51905f529060200160405180910390a37f00000000000000000000000000000000000000000000000000000000000000006001600160a01b03167f78786c581da76125b3c6c8a810adb3d2dab5d14b1273b8220661085f045e25cd6a013da329b633647180000060405161492a91815260200190565b60405180910390a25b7f00000000000000000000000000000000000000000000000000000000000000006001600160a01b0316158015906149bd57507f00000000000000000000000000000000000000000000000000000000000000006001600160a01b03167f00000000000000000000000000000000000000000000000000000000000000006001600160a01b031614155b80156149c7575060015b15614b1457305f908152601460205260408120805469d3c21bcecceda100000092906149f4908490615c44565b90915550506001600160a01b037f0000000000000000000000000000000000000000000000000000000000000000165f908152601460205260408120805469d3c21bcecceda10000009290614a4a908490615ba5565b909155505060405169d3c21bcecceda100000081527f00000000000000000000000000000000000000000000000000000000000000006001600160a01b03169030905f516020615d1c5f395f51905f529060200160405180910390a37f00000000000000000000000000000000000000000000000000000000000000006001600160a01b03167f78786c581da76125b3c6c8a810adb3d2dab5d14b1273b8220661085f045e25cd69d3c21bcecceda1000000604051614b0b91815260200190565b60405180910390a25b7f00000000000000000000000000000000000000000000000000000000000000006001600160a01b031615801590614b9e57507f00000000000000000000000000000000000000000000000000000000000000006001600160a01b03167f00000000000000000000000000000000000000000000000000000000000000006001600160a01b031614155b8015614ba8575060015b15614cf957305f90815260146020526040812080546a013da329b63364718000009290614bd6908490615c44565b90915550506001600160a01b037f0000000000000000000000000000000000000000000000000000000000000000165f90815260146020526040812080546a013da329b63364718000009290614c2d908490615ba5565b90915550506040516a013da329b633647180000081527f00000000000000000000000000000000000000000000000000000000000000006001600160a01b03169030905f516020615d1c5f395f51905f529060200160405180910390a37f00000000000000000000000000000000000000000000000000000000000000006001600160a01b03167f78786c581da76125b3c6c8a810adb3d2dab5d14b1273b8220661085f045e25cd6a013da329b6336471800000604051614cf091815260200190565b60405180910390a25b6040516a034f086f3b33b68400000081527f3a1079628069a11f368373dad84d9cb2831368c6f4ea1a0e86fbdbe0145a899b90602001612d15565b6001600160a01b038316614d765760405162461bcd60e51b815260206004820152600960248201526846726f6d207a65726f60b81b6044820152606401611154565b6001600160a01b038216614db65760405162461bcd60e51b8152602060048201526007602482015266546f207a65726f60c81b6044820152606401611154565b6001600160a01b038381165f8181526015602090815260408083209487168084529482529182902085905590518481527f8c5be1e5ebec7d5bd14f71427d1e84f3dd0314c0f7b2291e5b200ac8c7c3b925910160405180910390a3505050565b5f6001600160a01b038416614e595760405162461bcd60e51b815260206004820152600960248201526846726f6d207a65726f60b81b6044820152606401611154565b6001600160a01b038316614e995760405162461bcd60e51b8152602060048201526007602482015266546f207a65726f60c81b6044820152606401611154565b6001600160a01b0384165f90815260146020526040902054821115614ed05760405162461bcd60e51b815260040161115490615c1f565b5f614eda85612686565b90505f614ee685612686565b90505f614ef287613709565b600f549091505f906001600160a01b0389811691161480614f2057506010546001600160a01b038981169116145b905083158015614f4757506001600160a01b0387165f9081526012602052604090205460ff165b15614fa75760405162461bcd60e51b815260206004820152602a60248201527f4e6f726d616c2075736572732063616e6e6f7420616464206c6971756964697460448201526979206469726563746c7960b01b6064820152608401611154565b82158015614fcc57506001600160a01b0388165f9081526012602052604090205460ff165b8015614fe35750600f546001600160a01b03163314155b156150465760405162461bcd60e51b815260206004820152602d60248201527f4e6f726d616c2075736572732063616e6e6f742072656d6f7665206c6971756960448201526c64697479206469726563746c7960981b6064820152608401611154565b5f841580615052575083155b90505f838015615060575084155b80156150775750600f546001600160a01b03163314155b90506011544210156150bc5760405162461bcd60e51b815260206004820152600e60248201526d20b236b4b71031b7b7b63237bbb760911b6044820152606401611154565b81156150fd576003544210156150fd5760405162461bcd60e51b815260206004820152600660248201526514185d5cd95960d21b6044820152606401611154565b85615158576001600160a01b038a165f9081526018602052604090205460ff16156151585760405162461bcd60e51b815260206004820152600b60248201526a109b1858dadb1a5cdd195960aa1b6044820152606401611154565b846151b3576001600160a01b0389165f9081526018602052604090205460ff16156151b35760405162461bcd60e51b815260206004820152600b60248201526a109b1858dadb1a5cdd195960aa1b6044820152606401611154565b85615215577f00000000000000000000000000000000000000000000000000000000000000004210156152155760405162461bcd60e51b815260206004820152600a602482015269098dec6d6cac8406870d60b31b6044820152606401611154565b801561537a5768056bc75e2d6310000088111561525e5760405162461bcd60e51b815260206004820152600760248201526604d6178203130360cc1b6044820152606401611154565b6001600160a01b038a165f9081526017602052604090205480156152c3576152896201518082615ba5565b4210156152c35760405162461bcd60e51b81526020600482015260086024820152670aec2d2e8406468d60c31b6044820152606401611154565b6001600160a01b038a165f9081526014602052604090205468d8d726b7177a800000620186a06152f460328d615c57565b6152fe9190615c6e565b620186a061530d601e8e615c57565b6153179190615c6e565b615321908d615c44565b61532b9190615c44565b6153359083615ba5565b11156153735760405162461bcd60e51b815260206004820152600d60248201526c4d61782077616c6c657420346b60981b6044820152606401611154565b5050615550565b811561555057686c6b935b8bbd4000008811156153c45760405162461bcd60e51b815260206004820152600860248201526704d617820323030360c41b6044820152606401611154565b846154e6576001600160a01b0389165f9081526014602052604090205468d8d726b7177a800000620186a06153fa60328c615c57565b6154049190615c6e565b620186a0615413601e8d615c57565b61541d9190615c6e565b615427908c615c44565b6154319190615c44565b61543b9083615ba5565b11156154795760405162461bcd60e51b815260206004820152600d60248201526c4d61782077616c6c657420346b60981b6044820152606401611154565b83156154e4576001600160a01b038a165f9081526016602052604090205480156154e2576154a9611c2082615ba5565b4210156154e25760405162461bcd60e51b81526020600482015260076024820152660aec2d2e84064d60cb1b6044820152606401611154565b505b505b85615550576001600160a01b038a165f90815260166020526040902054801561554e57615515611c2082615ba5565b42101561554e5760405162461bcd60e51b81526020600482015260076024820152660aec2d2e84064d60cb1b6044820152606401611154565b505b85801561555a5750845b156155ba576001600160a01b03808b165f8181526014602052604080822080548d90039055928c168082529083902080548c01905591515f516020615d1c5f395f51905f52906155ad908c815260200190565b60405180910390a36157c1565b5f620186a06155ca601e8b615c57565b6155d49190615c6e565b90505f620186a06155e660328c615c57565b6155f09190615c6e565b90505f816155fe848d615c44565b6156089190615c44565b90508a60145f8f6001600160a01b03166001600160a01b031681526020019081526020015f205f82825403925050819055508060145f8e6001600160a01b03166001600160a01b031681526020019081526020015f205f82825401925050819055508160145f7f00000000000000000000000000000000000000000000000000000000000000006001600160a01b03166001600160a01b031681526020019081526020015f205f82825401925050819055508260015f82825403925050819055508b6001600160a01b03168d6001600160a01b03165f516020615d1c5f395f51905f52836040516156fb91815260200190565b60405180910390a37f00000000000000000000000000000000000000000000000000000000000000006001600160a01b03168d6001600160a01b03165f516020615d1c5f395f51905f528460405161575591815260200190565b60405180910390a36040518381525f906001600160a01b038f16905f516020615d1c5f395f51905f529060200160405180910390a36040518381527f6ef4855b666dcc7884561072e4358b28dfe01feb1b7f4dcebc00e62d50394ac79060200160405180910390a15050505b856157e1576001600160a01b038a165f9081526016602052604090204290555b841580156157ec5750815b80156157f55750825b15615815576001600160a01b0389165f9081526016602052604090204290555b8015615836576001600160a01b038a165f9081526017602052604090204290555b5060019998505050505050505050565b60405180608001604052806004906020820280368337509192915050565b602081525f82518060208401528060208501604085015e5f604082850101526040601f19601f83011684010191505092915050565b6001600160a01b03811681146158ad575f5ffd5b50565b5f602082840312156158c0575f5ffd5b8135612df881615899565b5f5f604083850312156158dc575f5ffd5b82356158e781615899565b946020939093013593505050565b80151581146158ad575f5ffd5b5f5f60408385031215615913575f5ffd5b823561591e81615899565b9150602083013561592e816158f5565b809150509250929050565b5f5f5f6060848603121561594b575f5ffd5b833561595681615899565b9250602084013561596681615899565b929592945050506040919091013590565b5f5f83601f840112615987575f5ffd5b50813567ffffffffffffffff81111561599e575f5ffd5b6020830191508360208260051b85010111156159b8575f5ffd5b9250929050565b5f5f5f604084860312156159d1575f5ffd5b833567ffffffffffffffff8111156159e7575f5ffd5b6159f386828701615977565b9094509250506020840135615a07816158f5565b809150509250925092565b5f60208284031215615a22575f5ffd5b5035919050565b5f5f60208385031215615a3a575f5ffd5b823567ffffffffffffffff811115615a50575f5ffd5b615a5c85828601615977565b90969095509350505050565b60e0810181865f5b6004811015615a985781516001600160a01b0316835260209283019290910190600101615a70565b5050506001600160a01b0394851660808301529290931660a0840152151560c090920191909152919050565b5f5f60408385031215615ad5575f5ffd5b8235615ae081615899565b9150602083013561592e81615899565b5f5f60408385031215615b01575f5ffd5b823560ff81168114615ae0575f5ffd5b6020808252600990820152682737ba1030b236b4b760b91b604082015260600190565b6020808252600c908201526b14185a5c9cc81b1bd8dad95960a21b604082015260600190565b60208082526019908201527f41646472657373206368616e6765727320636f6f6c646f776e00000000000000604082015260600190565b634e487b7160e01b5f52601160045260245ffd5b8082018082111561128f5761128f615b91565b634e487b7160e01b5f52603260045260245ffd5b6020808252600e908201526d4f6e6c79206d756c74692d73696760901b604082015260600190565b602080825260119082015270135d5b1d1a4b5cda59c81b9bdd081cd95d607a1b604082015260600190565b6020808252600b908201526a4c6f772062616c616e636560a81b604082015260600190565b8181038181111561128f5761128f615b91565b808202811582820484141761128f5761128f615b91565b5f82615c8857634e487b7160e01b5f52601260045260245ffd5b500490565b5f60208284031215615c9d575f5ffd5b8151612df8816158f5565b5f60208284031215615cb8575f5ffd5b8151612df881615899565b5f60018201615cd457615cd4615b91565b506001019056fe32fb7c9891bc4f963c7de9f1186d2a7755c7d6e9f4604dabe1d8bb3027c2f49ecf3473b85df1594d47b6958f29a32bea0abff9dd68296f7bf33443646793cfd8ddf252ad1be2c89b69c2b068fc378daa952ba7f163c4a11628f55a4df523b3efa2646970667358221220303c977f1fda848288125e5a05c457da980acb78fe4dcb7adf2985b29c627ebf64736f6c634300081c0033ddf252ad1be2c89b69c2b068fc378daa952ba7f163c4a11628f55a4df523b3ef",
  "linkReferences": {},
  "deployedLinkReferences": {}
}