{
  "_format": "hh-sol-artifact-1",
  "contractName": "SimpleMultiSig",
  "sourceName": "contracts/SimpleMultiSig.sol",
  "abi": [
    {
      "inputs": [
        {
          "internalType": "address",
          "name": "owner1",
          "type": "address"
        },
        {
          "internalType": "address",
          "name": "owner2",
          "type": "address"
        },
        {
          "internalType": "address",
          "name": "owner3",
          "type": "address"
        },
        {
          "internalType": "address",
          "name": "owner4",
          "type": "address"
        },
        {
          "internalType": "address",
          "name": "owner5",
          "type": "address"
        }
      ],
      "stateMutability": "nonpayable",
      "type": "constructor"
    },
    {
      "anonymous": false,
      "inputs": [
        {
          "indexed": true,
          "internalType": "uint256",
          "name": "txId",
          "type": "uint256"
        },
        {
          "indexed": true,
          "internalType": "address",
          "name": "confirmer",
          "type": "address"
        }
      ],
      "name": "TransactionConfirmed",
      "type": "event"
    },
    {
      "anonymous": false,
      "inputs": [
        {
          "indexed": true,
          "internalType": "uint256",
          "name": "txId",
          "type": "uint256"
        }
      ],
      "name": "TransactionExecuted",
      "type": "event"
    },
    {
      "anonymous": false,
      "inputs": [
        {
          "indexed": true,
          "internalType": "uint256",
          "name": "txId",
          "type": "uint256"
        },
        {
          "indexed": true,
          "internalType": "address",
          "name": "submitter",
          "type": "address"
        },
        {
          "indexed": false,
          "internalType": "address",
          "name": "to",
          "type": "address"
        },
        {
          "indexed": false,
          "internalType": "bytes",
          "name": "data",
          "type": "bytes"
        }
      ],
      "name": "TransactionSubmitted",
      "type": "event"
    },
    {
      "inputs": [],
      "name": "REQUIRED",
      "outputs": [
        {
          "internalType": "uint256",
          "name": "",
          "type": "uint256"
        }
      ],
      "stateMutability": "view",
      "type": "function"
    },
    {
      "inputs": [
        {
          "internalType": "uint256",
          "name": "txId",
          "type": "uint256"
        }
      ],
      "name": "confirmTransaction",
      "outputs": [],
      "stateMutability": "nonpayable",
      "type": "function"
    },
    {
      "inputs": [
        {
          "internalType": "uint256",
          "name": "",
          "type": "uint256"
        },
        {
          "internalType": "address",
          "name": "",
          "type": "address"
        }
      ],
      "name": "confirmations",
      "outputs": [
        {
          "internalType": "bool",
          "name": "",
          "type": "bool"
        }
      ],
      "stateMutability": "view",
      "type": "function"
    },
    {
      "inputs": [
        {
          "internalType": "uint256",
          "name": "txId",
          "type": "uint256"
        }
      ],
      "name": "executeTransaction",
      "outputs": [],
      "stateMutability": "nonpayable",
      "type": "function"
    },
    {
      "inputs": [],
      "name": "getOwners",
      "outputs": [
        {
          "internalType": "address[5]",
          "name": "",
          "type": "address[5]"
        }
      ],
      "stateMutability": "view",
      "type": "function"
    },
    {
      "inputs": [],
      "name": "getPendingTransactions",
      "outputs": [
        {
          "internalType": "uint256[]",
          "name": "",
          "type": "uint256[]"
        }
      ],
      "stateMutability": "view",
      "type": "function"
    },
    {
      "inputs": [
        {
          "internalType": "uint256",
          "name": "txId",
          "type": "uint256"
        }
      ],
      "name": "getTransaction",
      "outputs": [
        {
          "internalType": "address",
          "name": "to",
          "type": "address"
        },
        {
          "internalType": "bytes",
          "name": "data",
          "type": "bytes"
        },
        {
          "internalType": "bool",
          "name": "executed",
          "type": "bool"
        },
        {
          "internalType": "uint256",
          "name": "confirmationCount",
          "type": "uint256"
        }
      ],
      "stateMutability": "view",
      "type": "function"
    },
    {
      "inputs": [
        {
          "internalType": "uint256",
          "name": "txId",
          "type": "uint256"
        },
        {
          "internalType": "address",
          "name": "owner",
          "type": "address"
        }
      ],
      "name": "hasConfirmed",
      "outputs": [
        {
          "internalType": "bool",
          "name": "",
          "type": "bool"
        }
      ],
      "stateMutability": "view",
      "type": "function"
    },
    {
      "inputs": [
        {
          "internalType": "address",
          "name": "account",
          "type": "address"
        }
      ],
      "name": "isOwner",
      "outputs": [
        {
          "internalType": "bool",
          "name": "",
          "type": "bool"
        }
      ],
      "stateMutability": "view",
      "type": "function"
    },
    {
      "inputs": [
        {
          "internalType": "uint256",
          "name": "",
          "type": "uint256"
        }
      ],
      "name": "owners",
      "outputs": [
        {
          "internalType": "address",
          "name": "",
          "type": "address"
        }
      ],
      "stateMutability": "view",
      "type": "function"
    },
    {
      "inputs": [
        {
          "internalType": "address",
          "name": "to",
          "type": "address"
        },
        {
          "internalType": "bytes",
          "name": "data",
          "type": "bytes"
        }
      ],
      "name": "submitTransaction",
      "outputs": [
        {
          "internalType": "uint256",
          "name": "txId",
          "type": "uint256"
        }
      ],
      "stateMutability": "nonpayable",
      "type": "function"
    },
    {
      "inputs": [],
      "name": "transactionCount",
      "outputs": [
        {
          "internalType": "uint256",
          "name": "",
          "type": "uint256"
        }
      ],
      "stateMutability": "view",
      "type": "function"
    },
    {
      "inputs": [
        {
          "internalType": "uint256",
          "name": "",
          "type": "uint256"
        }
      ],
      "name": "transactions",
      "outputs": [
        {
          "internalType": "address",
          "name": "to",
          "type": "address"
        },
        {
          "internalType": "bytes",
          "name": "data",
          "type": "bytes"
        },
        {
          "internalType": "bool",
          "name": "executed",
          "type": "bool"
        },
        {
          "internalType": "uint256",
          "name": "confirmations",
          "type": "uint256"
        }
      ],
      "stateMutability": "view",
      "type": "function"
    }
  ],
  "bytecode": "0x608060405234801561000f575f5ffd5b506040516111d83803806111d883398101604081905261002e91610212565b6001600160a01b03851661007a5760405162461bcd60e51b815260206004820152600e60248201526d496e76616c6964206f776e65723160901b60448201526064015b60405180910390fd5b6001600160a01b0384166100c15760405162461bcd60e51b815260206004820152600e60248201526d24b73b30b634b21037bbb732b91960911b6044820152606401610071565b6001600160a01b0383166101085760405162461bcd60e51b815260206004820152600e60248201526d496e76616c6964206f776e65723360901b6044820152606401610071565b6001600160a01b03821661014f5760405162461bcd60e51b815260206004820152600e60248201526d125b9d985b1a59081bdddb995c8d60921b6044820152606401610071565b6001600160a01b0381166101965760405162461bcd60e51b815260206004820152600e60248201526d496e76616c6964206f776e65723560901b6044820152606401610071565b5f80546001600160a01b03199081166001600160a01b03978816179091556001805482169587169590951790945560028054851693861693909317909255600380548416918516919091179055600480549092169216919091179055610273565b80516001600160a01b038116811461020d575f5ffd5b919050565b5f5f5f5f5f60a08688031215610226575f5ffd5b61022f866101f7565b945061023d602087016101f7565b935061024b604087016101f7565b9250610259606087016101f7565b9150610267608087016101f7565b90509295509295909350565b610f58806102805f395ff3fe608060405234801561000f575f5ffd5b50600436106100cb575f3560e01c80639ace38c211610088578063bbf1b2f111610063578063bbf1b2f1146101f1578063c01a8c8414610204578063d11db83f14610219578063ee22610b1461022e575f5ffd5b80639ace38c2146101c0578063a0e67e2b146101d3578063b77bf600146101e8575f5ffd5b8063025e7c27146100cf57806308aff933146100ff5780632f54bf6e1461014757806333ea3dc81461015a5780633411c81c1461017d57806367fdff26146101aa575b5f5ffd5b6100e26100dd366004610adf565b610241565b6040516001600160a01b0390911681526020015b60405180910390f35b61013761010d366004610b11565b5f9182526006602090815260408084206001600160a01b0393909316845291905290205460ff1690565b60405190151581526020016100f6565b610137610155366004610b3b565b61025f565b61016d610168366004610adf565b6102b0565b6040516100f69493929190610b89565b61013761018b366004610b11565b600660209081525f928352604080842090915290825290205460ff1681565b6101b2600381565b6040519081526020016100f6565b61016d6101ce366004610adf565b610384565b6101db610440565b6040516100f69190610bbf565b6101b260075481565b6101b26101ff366004610c0c565b610484565b610217610212366004610adf565b6105f7565b005b6102216107fc565b6040516100f69190610cd0565b61021761023c366004610adf565b6108e2565b5f816005811061024f575f80fd5b01546001600160a01b0316905081565b5f805b60058110156102a857826001600160a01b03165f826005811061028757610287610d12565b01546001600160a01b0316036102a05750600192915050565b600101610262565b505f92915050565b5f8181526005602052604081208054600282015460038301546001840180546060958795869591946001600160a01b03909116939260ff9092169183906102f690610d26565b80601f016020809104026020016040519081016040528092919081815260200182805461032290610d26565b801561036d5780601f106103445761010080835404028352916020019161036d565b820191905f5260205f20905b81548152906001019060200180831161035057829003601f168201915b505050505092509450945094509450509193509193565b60056020525f9081526040902080546001820180546001600160a01b0390921692916103af90610d26565b80601f01602080910402602001604051908101604052809291908181526020018280546103db90610d26565b80156104265780601f106103fd57610100808354040283529160200191610426565b820191905f5260205f20905b81548152906001019060200180831161040957829003601f168201915b505050506002830154600390930154919260ff1691905084565b610448610ac1565b6040805160a0810191829052905f9060059082845b81546001600160a01b0316815260019091019060200180831161045d575050505050905090565b5f80805b60058110156104c557335f82600581106104a4576104a4610d12565b01546001600160a01b0316036104bd57600191506104c5565b600101610488565b50806105045760405162461bcd60e51b81526020600482015260096024820152682737ba1037bbb732b960b91b60448201526064015b60405180910390fd5b600754604080516080810182526001600160a01b03878116825260208083018881525f848601819052606085018190528681526005909252939020825181546001600160a01b0319169216919091178155915192945091600182019061056a9082610da7565b50604082015160028201805460ff191691151591909117905560609091015160039091015560078054905f61059e83610e62565b9190505550336001600160a01b0316827f98c05d5d534f1e05804931f157e604800128fa08c13604e577c6b9d599dc56c186866040516105df929190610e86565b60405180910390a36105f0826105f7565b5092915050565b5f805b600581101561063757335f826005811061061657610616610d12565b01546001600160a01b03160361062f5760019150610637565b6001016105fa565b50806106715760405162461bcd60e51b81526020600482015260096024820152682737ba1037bbb732b960b91b60448201526064016104fb565b8160075481106106b25760405162461bcd60e51b815260206004820152600c60248201526b1516081b9bdd08195e1a5cdd60a21b60448201526064016104fb565b5f83815260056020526040902060020154839060ff16156107085760405162461bcd60e51b815260206004820152601060248201526f105b1c9958591e48195e1958dd5d195960821b60448201526064016104fb565b5f848152600660209081526040808320338452909152902054849060ff16156107675760405162461bcd60e51b8152602060048201526011602482015270105b1c9958591e4818dbdb999a5c9b5959607a1b60448201526064016104fb565b5f8581526006602090815260408083203384528252808320805460ff19166001179055878352600590915281206003018054916107a383610e62565b9091555050604051339086907f15c2f311c9e0f53b50388279894aeff029a3457884a6601e924fca879e12adcc905f90a35f858152600560205260409020600390810154106107f5576107f5856108e2565b5050505050565b60605f805b600754811015610839575f8181526005602052604090206002015460ff16610831578161082d81610e62565b9250505b600101610801565b505f8167ffffffffffffffff81111561085457610854610bf8565b60405190808252806020026020018201604052801561087d578160200160208202803683370190505b5090505f805b6007548110156108d9575f8181526005602052604090206002015460ff166108d157808383815181106108b8576108b8610d12565b6020908102919091010152816108cd81610e62565b9250505b600101610883565b50909392505050565b8060075481106109235760405162461bcd60e51b815260206004820152600c60248201526b1516081b9bdd08195e1a5cdd60a21b60448201526064016104fb565b5f82815260056020526040902060020154829060ff16156109795760405162461bcd60e51b815260206004820152601060248201526f105b1c9958591e48195e1958dd5d195960821b60448201526064016104fb565b5f83815260056020526040902060038082015410156109da5760405162461bcd60e51b815260206004820152601860248201527f4e6f7420656e6f75676820636f6e6669726d6174696f6e73000000000000000060448201526064016104fb565b60028101805460ff1916600190811790915581546040515f926001600160a01b0390921691610a0c9190850190610eb1565b5f604051808303815f865af19150503d805f8114610a45576040519150601f19603f3d011682016040523d82523d5f602084013e610a4a565b606091505b5050905080610a905760405162461bcd60e51b8152602060048201526012602482015271151c985b9cd858dd1a5bdb8819985a5b195960721b60448201526064016104fb565b60405185907f15ed165a284872ea7017f03df402a0cadfbfab588320ffaf83f160c2f82781c7905f90a25050505050565b6040518060a001604052806005906020820280368337509192915050565b5f60208284031215610aef575f5ffd5b5035919050565b80356001600160a01b0381168114610b0c575f5ffd5b919050565b5f5f60408385031215610b22575f5ffd5b82359150610b3260208401610af6565b90509250929050565b5f60208284031215610b4b575f5ffd5b610b5482610af6565b9392505050565b5f81518084528060208401602086015e5f602082860101526020601f19601f83011685010191505092915050565b6001600160a01b03851681526080602082018190525f90610bac90830186610b5b565b9315156040830152506060015292915050565b60a0810181835f5b6005811015610bef5781516001600160a01b0316835260209283019290910190600101610bc7565b50505092915050565b634e487b7160e01b5f52604160045260245ffd5b5f5f60408385031215610c1d575f5ffd5b610c2683610af6565b9150602083013567ffffffffffffffff811115610c41575f5ffd5b8301601f81018513610c51575f5ffd5b803567ffffffffffffffff811115610c6b57610c6b610bf8565b604051601f8201601f19908116603f0116810167ffffffffffffffff81118282101715610c9a57610c9a610bf8565b604052818152828201602001871015610cb1575f5ffd5b816020840160208301375f602083830101528093505050509250929050565b602080825282518282018190525f918401906040840190835b81811015610d07578351835260209384019390920191600101610ce9565b509095945050505050565b634e487b7160e01b5f52603260045260245ffd5b600181811c90821680610d3a57607f821691505b602082108103610d5857634e487b7160e01b5f52602260045260245ffd5b50919050565b601f821115610da257805f5260205f20601f840160051c81016020851015610d835750805b601f840160051c820191505b818110156107f5575f8155600101610d8f565b505050565b815167ffffffffffffffff811115610dc157610dc1610bf8565b610dd581610dcf8454610d26565b84610d5e565b6020601f821160018114610e07575f8315610df05750848201515b5f19600385901b1c1916600184901b1784556107f5565b5f84815260208120601f198516915b82811015610e365787850151825560209485019460019092019101610e16565b5084821015610e5357868401515f19600387901b60f8161c191681555b50505050600190811b01905550565b5f60018201610e7f57634e487b7160e01b5f52601160045260245ffd5b5060010190565b6001600160a01b03831681526040602082018190525f90610ea990830184610b5b565b949350505050565b5f5f8354610ebe81610d26565b600182168015610ed55760018114610eea57610f17565b60ff1983168652811515820286019350610f17565b865f5260205f205f5b83811015610f0f57815488820152600190910190602001610ef3565b505081860193505b50919594505050505056fea2646970667358221220b3ef1d2cf98cae522c5adc6f84490d99559e278bc81d3d0a6659c2bc5db9732564736f6c634300081c0033",
  "linkReferences": {},
  "deployedLinkReferences": {}
}