{"contracts/kcy-meme-1.sol":{"KCY1Token":{"abi":[{"inputs":[],"stateMutability":"nonpayable","type":"constructor"},{"anonymous":false,"inputs":[{"indexed":true,"internalType":"address","name":"owner","type":"address"},{"indexed":true,"internalType":"address","name":"spender","type":"address"},{"indexed":false,"internalType":"uint256","name":"value","type":"uint256"}],"name":"Approval","type":"event"},{"anonymous":false,"inputs":[{"indexed":false,"internalType":"uint256","name":"amount","type":"uint256"}],"name":"BNBWithdrawn","type":"event"},{"anonymous":false,"inputs":[{"indexed":true,"internalType":"address","name":"account","type":"address"},{"indexed":false,"internalType":"bool","name":"status","type":"bool"}],"name":"Blacklisted","type":"event"},{"anonymous":false,"inputs":[],"name":"DEXAddressesLocked","type":"event"},{"anonymous":false,"inputs":[],"name":"DEXAddressesUnlocked","type":"event"},{"anonymous":false,"inputs":[{"indexed":true,"internalType":"address","name":"router","type":"address"},{"indexed":true,"internalType":"address","name":"factory","type":"address"}],"name":"DEXAddressesUpdated","type":"event"},{"anonymous":false,"inputs":[{"indexed":true,"internalType":"address","name":"recipient","type":"address"},{"indexed":false,"internalType":"uint256","name":"amount","type":"uint256"}],"name":"DistributionSent","type":"event"},{"anonymous":false,"inputs":[{"indexed":true,"internalType":"address","name":"token","type":"address"},{"indexed":false,"internalType":"uint256","name":"amount","type":"uint256"}],"name":"EmergencyTokensRescued","type":"event"},{"anonymous":false,"inputs":[{"indexed":true,"internalType":"uint8","name":"slotIndex","type":"uint8"},{"indexed":true,"internalType":"address","name":"newAddress","type":"address"}],"name":"ExemptSlotUpdated","type":"event"},{"anonymous":false,"inputs":[],"name":"ExemptSlotsLocked","type":"event"},{"anonymous":false,"inputs":[],"name":"ExemptSlotsUnlocked","type":"event"},{"anonymous":false,"inputs":[{"indexed":false,"internalType":"uint256","name":"totalDistributed","type":"uint256"}],"name":"InitialDistributionCompleted","type":"event"},{"anonymous":false,"inputs":[{"indexed":true,"internalType":"address","name":"pair","type":"address"},{"indexed":false,"internalType":"bool","name":"status","type":"bool"}],"name":"LiquidityPairUpdated","type":"event"},{"anonymous":false,"inputs":[],"name":"LiquidityPairsLocked","type":"event"},{"anonymous":false,"inputs":[],"name":"LiquidityPairsUnlocked","type":"event"},{"anonymous":false,"inputs":[{"indexed":true,"internalType":"uint256","name":"proposalId","type":"uint256"},{"indexed":false,"internalType":"uint256","name":"amount","type":"uint256"}],"name":"MintExecuted","type":"event"},{"anonymous":false,"inputs":[{"indexed":true,"internalType":"uint256","name":"proposalId","type":"uint256"},{"indexed":false,"internalType":"uint256","name":"amount","type":"uint256"},{"indexed":false,"internalType":"uint256","name":"executeAfter","type":"uint256"}],"name":"MintProposed","type":"event"},{"anonymous":false,"inputs":[{"indexed":true,"internalType":"address","name":"multiSigAddress","type":"address"}],"name":"MultiSigAddressSet","type":"event"},{"anonymous":false,"inputs":[{"indexed":false,"internalType":"uint256","name":"until","type":"uint256"}],"name":"Paused","type":"event"},{"anonymous":false,"inputs":[{"indexed":false,"internalType":"uint256","name":"amount","type":"uint256"}],"name":"TokensBurned","type":"event"},{"anonymous":false,"inputs":[{"indexed":true,"internalType":"address","name":"from","type":"address"},{"indexed":true,"internalType":"address","name":"to","type":"address"},{"indexed":false,"internalType":"uint256","name":"value","type":"uint256"}],"name":"Transfer","type":"event"},{"inputs":[],"name":"BURN_FEE","outputs":[{"internalType":"uint256","name":"","type":"uint256"}],"stateMutability":"view","type":"function"},{"inputs":[],"name":"COOLDOWN_PERIOD","outputs":[{"internalType":"uint256","name":"","type":"uint256"}],"stateMutability":"view","type":"function"},{"inputs":[],"name":"EXEMPT_TO_NORMAL_COOLDOWN","outputs":[{"internalType":"uint256","name":"","type":"uint256"}],"stateMutability":"view","type":"function"},{"inputs":[],"name":"FEE_DENOMINATOR","outputs":[{"internalType":"uint256","name":"","type":"uint256"}],"stateMutability":"view","type":"function"},{"inputs":[],"name":"MAX_EXEMPT_TO_NORMAL","outputs":[{"internalType":"uint256","name":"","type":"uint256"}],"stateMutability":"view","type":"function"},{"inputs":[],"name":"MAX_MINT_AMOUNT","outputs":[{"internalType":"uint256","name":"","type":"uint256"}],"stateMutability":"view","type":"function"},{"inputs":[],"name":"MAX_TRANSACTION","outputs":[{"internalType":"uint256","name":"","type":"uint256"}],"stateMutability":"view","type":"function"},{"inputs":[],"name":"MAX_WALLET","outputs":[{"internalType":"uint256","name":"","type":"uint256"}],"stateMutability":"view","type":"function"},{"inputs":[],"name":"MINT_COOLDOWN","outputs":[{"internalType":"uint256","name":"","type":"uint256"}],"stateMutability":"view","type":"function"},{"inputs":[],"name":"MINT_TIMELOCK","outputs":[{"internalType":"uint256","name":"","type":"uint256"}],"stateMutability":"view","type":"function"},{"inputs":[],"name":"NotExemptTradeTransferPausedUntil","outputs":[{"internalType":"uint256","name":"","type":"uint256"}],"stateMutability":"view","type":"function"},{"inputs":[],"name":"OWNER_FEE","outputs":[{"internalType":"uint256","name":"","type":"uint256"}],"stateMutability":"view","type":"function"},{"inputs":[],"name":"PAUSE_DURATION","outputs":[{"internalType":"uint256","name":"","type":"uint256"}],"stateMutability":"view","type":"function"},{"inputs":[{"internalType":"address","name":"","type":"address"},{"internalType":"address","name":"","type":"address"}],"name":"allowance","outputs":[{"internalType":"uint256","name":"","type":"uint256"}],"stateMutability":"view","type":"function"},{"inputs":[{"internalType":"address","name":"spender","type":"address"},{"internalType":"uint256","name":"amount","type":"uint256"}],"name":"approve","outputs":[{"internalType":"bool","name":"","type":"bool"}],"stateMutability":"nonpayable","type":"function"},{"inputs":[{"internalType":"address","name":"","type":"address"}],"name":"balanceOf","outputs":[{"internalType":"uint256","name":"","type":"uint256"}],"stateMutability":"view","type":"function"},{"inputs":[{"internalType":"uint256","name":"amount","type":"uint256"}],"name":"burn","outputs":[],"stateMutability":"nonpayable","type":"function"},{"inputs":[],"name":"decimals","outputs":[{"internalType":"uint8","name":"","type":"uint8"}],"stateMutability":"view","type":"function"},{"inputs":[{"internalType":"address","name":"spender","type":"address"},{"internalType":"uint256","name":"subtractedValue","type":"uint256"}],"name":"decreaseAllowance","outputs":[{"internalType":"bool","name":"","type":"bool"}],"stateMutability":"nonpayable","type":"function"},{"inputs":[],"name":"dexAddressesLocked","outputs":[{"internalType":"bool","name":"","type":"bool"}],"stateMutability":"view","type":"function"},{"inputs":[],"name":"distributeInitialAllocations","outputs":[],"stateMutability":"nonpayable","type":"function"},{"inputs":[],"name":"eAddr1","outputs":[{"internalType":"address","name":"","type":"address"}],"stateMutability":"view","type":"function"},{"inputs":[],"name":"eAddr10","outputs":[{"internalType":"address","name":"","type":"address"}],"stateMutability":"view","type":"function"},{"inputs":[],"name":"eAddr2","outputs":[{"internalType":"address","name":"","type":"address"}],"stateMutability":"view","type":"function"},{"inputs":[],"name":"eAddr3","outputs":[{"internalType":"address","name":"","type":"address"}],"stateMutability":"view","type":"function"},{"inputs":[],"name":"eAddr4","outputs":[{"internalType":"address","name":"","type":"address"}],"stateMutability":"view","type":"function"},{"inputs":[],"name":"eAddr5","outputs":[{"internalType":"address","name":"","type":"address"}],"stateMutability":"view","type":"function"},{"inputs":[],"name":"eAddr6","outputs":[{"internalType":"address","name":"","type":"address"}],"stateMutability":"view","type":"function"},{"inputs":[],"name":"eAddr7","outputs":[{"internalType":"address","name":"","type":"address"}],"stateMutability":"view","type":"function"},{"inputs":[],"name":"eAddr8","outputs":[{"internalType":"address","name":"","type":"address"}],"stateMutability":"view","type":"function"},{"inputs":[],"name":"eAddr9","outputs":[{"internalType":"address","name":"","type":"address"}],"stateMutability":"view","type":"function"},{"inputs":[{"internalType":"uint256","name":"proposalId","type":"uint256"}],"name":"executeMint","outputs":[],"stateMutability":"nonpayable","type":"function"},{"inputs":[],"name":"exemptSlotsLocked","outputs":[{"internalType":"bool","name":"","type":"bool"}],"stateMutability":"view","type":"function"},{"inputs":[],"name":"getDistributionAddresses","outputs":[{"internalType":"address","name":"devWallet","type":"address"},{"internalType":"address","name":"marketingWallet","type":"address"},{"internalType":"address","name":"teamWallet","type":"address"},{"internalType":"address","name":"advisorWallet","type":"address"}],"stateMutability":"view","type":"function"},{"inputs":[],"name":"getExemptAddresses","outputs":[{"internalType":"address[4]","name":"slots","type":"address[4]"},{"internalType":"address","name":"router","type":"address"},{"internalType":"address","name":"factory","type":"address"},{"internalType":"bool","name":"slotsLocked","type":"bool"}],"stateMutability":"view","type":"function"},{"inputs":[{"internalType":"address","name":"pairedToken","type":"address"}],"name":"getLiquidityPairAddress","outputs":[{"internalType":"address","name":"pairAddress","type":"address"}],"stateMutability":"view","type":"function"},{"inputs":[],"name":"getMaxMintableNow","outputs":[{"internalType":"uint256","name":"","type":"uint256"}],"stateMutability":"view","type":"function"},{"inputs":[],"name":"getTimeUntilNextMint","outputs":[{"internalType":"uint256","name":"","type":"uint256"}],"stateMutability":"view","type":"function"},{"inputs":[{"internalType":"address","name":"spender","type":"address"},{"internalType":"uint256","name":"addedValue","type":"uint256"}],"name":"increaseAllowance","outputs":[{"internalType":"bool","name":"","type":"bool"}],"stateMutability":"nonpayable","type":"function"},{"inputs":[],"name":"initialDistributionCompleted","outputs":[{"internalType":"bool","name":"","type":"bool"}],"stateMutability":"view","type":"function"},{"inputs":[{"internalType":"address","name":"","type":"address"}],"name":"isBlacklisted","outputs":[{"internalType":"bool","name":"","type":"bool"}],"stateMutability":"view","type":"function"},{"inputs":[{"internalType":"address","name":"account","type":"address"}],"name":"isExemptAddress","outputs":[{"internalType":"bool","name":"","type":"bool"}],"stateMutability":"view","type":"function"},{"inputs":[{"internalType":"address","name":"account","type":"address"}],"name":"isExemptSlot","outputs":[{"internalType":"bool","name":"","type":"bool"}],"stateMutability":"view","type":"function"},{"inputs":[{"internalType":"address","name":"","type":"address"}],"name":"isLiquidityPair","outputs":[{"internalType":"bool","name":"","type":"bool"}],"stateMutability":"view","type":"function"},{"inputs":[],"name":"isPaused","outputs":[{"internalType":"bool","name":"","type":"bool"}],"stateMutability":"view","type":"function"},{"inputs":[],"name":"isTestnet","outputs":[{"internalType":"bool","name":"","type":"bool"}],"stateMutability":"view","type":"function"},{"inputs":[],"name":"isTradingEnabled","outputs":[{"internalType":"bool","name":"","type":"bool"}],"stateMutability":"view","type":"function"},{"inputs":[{"internalType":"address","name":"","type":"address"}],"name":"lastExemptToNormalTime","outputs":[{"internalType":"uint256","name":"","type":"uint256"}],"stateMutability":"view","type":"function"},{"inputs":[],"name":"lastMintTime","outputs":[{"internalType":"uint256","name":"","type":"uint256"}],"stateMutability":"view","type":"function"},{"inputs":[{"internalType":"address","name":"","type":"address"}],"name":"lastTransactionTime","outputs":[{"internalType":"uint256","name":"","type":"uint256"}],"stateMutability":"view","type":"function"},{"inputs":[],"name":"liquidityPairsLocked","outputs":[{"internalType":"bool","name":"","type":"bool"}],"stateMutability":"view","type":"function"},{"inputs":[],"name":"lockDEXAddresses","outputs":[],"stateMutability":"nonpayable","type":"function"},{"inputs":[],"name":"lockExemptSlotsForever","outputs":[],"stateMutability":"nonpayable","type":"function"},{"inputs":[],"name":"lockLiquidityPairsForever","outputs":[],"stateMutability":"nonpayable","type":"function"},{"inputs":[],"name":"mainAddressChangersCooldown","outputs":[{"internalType":"uint256","name":"","type":"uint256"}],"stateMutability":"view","type":"function"},{"inputs":[{"internalType":"uint256","name":"","type":"uint256"}],"name":"mintProposals","outputs":[{"internalType":"uint256","name":"amount","type":"uint256"},{"internalType":"uint256","name":"proposedAt","type":"uint256"},{"internalType":"uint256","name":"executeAfter","type":"uint256"},{"internalType":"bool","name":"executed","type":"bool"}],"stateMutability":"view","type":"function"},{"inputs":[],"name":"multiSigAddress","outputs":[{"internalType":"address","name":"","type":"address"}],"stateMutability":"view","type":"function"},{"inputs":[],"name":"name","outputs":[{"internalType":"string","name":"","type":"string"}],"stateMutability":"view","type":"function"},{"inputs":[],"name":"owner","outputs":[{"internalType":"address","name":"","type":"address"}],"stateMutability":"view","type":"function"},{"inputs":[],"name":"pause","outputs":[],"stateMutability":"nonpayable","type":"function"},{"inputs":[],"name":"pncswpFactory","outputs":[{"internalType":"address","name":"","type":"address"}],"stateMutability":"view","type":"function"},{"inputs":[],"name":"pncswpRouter","outputs":[{"internalType":"address","name":"","type":"address"}],"stateMutability":"view","type":"function"},{"inputs":[],"name":"proposalCount","outputs":[{"internalType":"uint256","name":"","type":"uint256"}],"stateMutability":"view","type":"function"},{"inputs":[{"internalType":"uint256","name":"amount","type":"uint256"}],"name":"proposeMint","outputs":[],"stateMutability":"nonpayable","type":"function"},{"inputs":[{"internalType":"address","name":"account","type":"address"}],"name":"removeFromBlacklist","outputs":[],"stateMutability":"nonpayable","type":"function"},{"inputs":[{"internalType":"address[]","name":"accounts","type":"address[]"}],"name":"removeMULTIFromBlacklist","outputs":[],"stateMutability":"nonpayable","type":"function"},{"inputs":[{"internalType":"address","name":"tokenAddress","type":"address"},{"internalType":"uint256","name":"amount","type":"uint256"}],"name":"rescueTokens","outputs":[],"stateMutability":"nonpayable","type":"function"},{"inputs":[{"internalType":"address","name":"account","type":"address"},{"internalType":"bool","name":"status","type":"bool"}],"name":"setBlacklist","outputs":[],"stateMutability":"nonpayable","type":"function"},{"inputs":[{"internalType":"address[]","name":"accounts","type":"address[]"},{"internalType":"bool","name":"status","type":"bool"}],"name":"setBlacklistBatch","outputs":[],"stateMutability":"nonpayable","type":"function"},{"inputs":[{"internalType":"address","name":"pair","type":"address"},{"internalType":"bool","name":"status","type":"bool"}],"name":"setLiquidityPair","outputs":[],"stateMutability":"nonpayable","type":"function"},{"inputs":[{"internalType":"address[]","name":"pairs","type":"address[]"},{"internalType":"bool","name":"status","type":"bool"}],"name":"setLiquidityPairBatch","outputs":[],"stateMutability":"nonpayable","type":"function"},{"inputs":[{"internalType":"address","name":"_multiSigAddress","type":"address"}],"name":"setMultiSigAddress","outputs":[],"stateMutability":"nonpayable","type":"function"},{"inputs":[],"name":"symbol","outputs":[{"internalType":"string","name":"","type":"string"}],"stateMutability":"view","type":"function"},{"inputs":[],"name":"timeUntilTradingEnabled","outputs":[{"internalType":"uint256","name":"","type":"uint256"}],"stateMutability":"view","type":"function"},{"inputs":[],"name":"timeUntilUnpaused","outputs":[{"internalType":"uint256","name":"","type":"uint256"}],"stateMutability":"view","type":"function"},{"inputs":[],"name":"totalSupply","outputs":[{"internalType":"uint256","name":"","type":"uint256"}],"stateMutability":"view","type":"function"},{"inputs":[],"name":"tradingEnabledTime","outputs":[{"internalType":"uint256","name":"","type":"uint256"}],"stateMutability":"view","type":"function"},{"inputs":[{"internalType":"address","name":"to","type":"address"},{"internalType":"uint256","name":"amount","type":"uint256"}],"name":"transfer","outputs":[{"internalType":"bool","name":"","type":"bool"}],"stateMutability":"nonpayable","type":"function"},{"inputs":[{"internalType":"address","name":"from","type":"address"},{"internalType":"address","name":"to","type":"address"},{"internalType":"uint256","name":"amount","type":"uint256"}],"name":"transferFrom","outputs":[{"internalType":"bool","name":"","type":"bool"}],"stateMutability":"nonpayable","type":"function"},{"inputs":[],"name":"unlockDEXAddresses","outputs":[],"stateMutability":"nonpayable","type":"function"},{"inputs":[],"name":"unlockExemptSlots","outputs":[],"stateMutability":"nonpayable","type":"function"},{"inputs":[],"name":"unlockLiquidityPairs","outputs":[],"stateMutability":"nonpayable","type":"function"},{"inputs":[{"internalType":"address","name":"router","type":"address"},{"internalType":"address","name":"factory","type":"address"}],"name":"updateDEXAddresses","outputs":[],"stateMutability":"nonpayable","type":"function"},{"inputs":[{"internalType":"uint8","name":"slotIndex","type":"uint8"},{"internalType":"address","name":"newAddress","type":"address"}],"name":"updateExemptSlot","outputs":[],"stateMutability":"nonpayable","type":"function"},{"inputs":[],"name":"website","outputs":[{"internalType":"string","name":"","type":"string"}],"stateMutability":"view","type":"function"},{"inputs":[],"name":"withdrawBNB","outputs":[],"stateMutability":"nonpayable","type":"function"},{"inputs":[{"internalType":"uint256","name":"amount","type":"uint256"}],"name":"withdrawCirculationTokens","outputs":[],"stateMutability":"nonpayable","type":"function"},{"stateMutability":"payable","type":"receive"}],"evm":{"bytecode":{"linkReferences":{},"object":"6101606040523480156200001257600080fd5b506001600055336080526200002b426202a3006200049a565b60a0526200003c6012600a620005b3565b6200004c906305f5e100620005cb565b600155606146148062000060575046617a69145b151560c052617a694614620000ae5746606114620000935773567c1c5e9026e04078f9b92dcf295a58355f60c7620000b0565b73cbfa2d3612b7474ff89c0746ea6baeee06a61702620000b0565b335b6001600160a01b031660e052617a694614620001055746606114620000ea577358ec63d31b8e4d6624b5c88338027a54be1ae28a62000107565b7367edbe18ad6ab1ff0d57ccc511f56485effcabe762000107565b335b6001600160a01b031661010052617a6946146200015d57466061146200014257736300811567bed7d69b5ac271060a7e298f99fddd6200015f565b73d1a7281fb1d1745c29dfed9c1af22b67a7403dd66200015f565b335b6001600160a01b031661012052617a694614620001b557466061146200019a57738d95d56436eb58ee3f9209e8cc4bfd59cfbe8b87620001b7565b73d1a7281fb1d1745c29dfed9c1af22b67a7403dd6620001b7565b335b6001600160a01b03166101405260614614620001e8577310ed43c718714eb63d5aa57b78b54704e256024e620001fe565b73d99d1c33f9fc3444f8101754abc46c52416550d15b600f80546001600160a01b0319166001600160a01b039290921691909117905546606114620002425773ca143ce32fe78f1f7019d7d551a6402fc5350c7362000258565b736725f303b657a9451d8ba641348b6761a6cc7a175b601080546001600160a01b03929092166001600160a01b0319928316179055600480549091163317905546617a6903620002be5760058054336001600160a01b031991821681179092556006805482168317905560078054909116909117905562000388565b466061036200032157600580546001600160a01b03199081167367edbe18ad6ab1ff0d57ccc511f56485effcabe71790915560068054821673d1a7281fb1d1745c29dfed9c1af22b67a7403dd69081179091556007805490921617905562000388565b600580546001600160a01b03199081167358ec63d31b8e4d6624b5c88338027a54be1ae28a17909155600680548216736300811567bed7d69b5ac271060a7e298f99fddd17905560078054909116738d95d56436eb58ee3f9209e8cc4bfd59cfbe8b871790555b620003966012600a620005b3565b620003a6906305b8d800620005cb565b60e0516001600160a01b0316600090815260146020526040902055620003cf6012600a620005b3565b620003de90623d0900620005cb565b3060009081526014602052604081209190915560e0516001600160a01b031690600080516020620066688339815191526200041c6012600a620005b3565b6200042c906305b8d800620005cb565b60405190815260200160405180910390a3306000600080516020620066688339815191526200045e6012600a620005b3565b6200046d90623d0900620005cb565b60405190815260200160405180910390a3620005e5565b634e487b7160e01b600052601160045260246000fd5b80820180821115620004b057620004b062000484565b92915050565b600181815b80851115620004f7578160001904821115620004db57620004db62000484565b80851615620004e957918102915b93841c9390800290620004bb565b509250929050565b6000826200051057506001620004b0565b816200051f57506000620004b0565b8160018114620005385760028114620005435762000563565b6001915050620004b0565b60ff84111562000557576200055762000484565b50506001821b620004b0565b5060208310610133831016604e8410600b841016171562000588575081810a620004b0565b620005948383620004b6565b8060001904821115620005ab57620005ab62000484565b029392505050565b6000620005c460ff841683620004ff565b9392505050565b8082028115828204841417620004b057620004b062000484565b60805160a05160c05160e051610100516101205161014051615eca6200079e600039600081816107b601528181614c0101528181614c5e01528181614cd101528181614d320152614d7a01526000818161078c01528181614a1d01528181614a7a01528181614aec01528181614b4b0152614b930152600081816107640152818161483501528181614892015281816149050152818161496601526149ae01526000818161073f0152818161486801528181614a500152614c3401526000610b360152600081816104df015281816109e301528181613e3201528181613e6301526152b5015260008181610ae80152818161109f015281816113110152818161143701528181611580015281816117360152818161182901528181611b8601528181611cb701528181611ee80152818161208401528181612402015281816126230152818161272f015281816129aa01528181612c8201528181612ec90152818161309101528181613467015281816137d501528181613b2001528181613e9201528181614187015281816143e90152818161448c015281816146020152818161465d0152818161577c01526158150152615eca6000f3fe6080604052600436106104c45760003560e01c80638e51967711610276578063c345adc71161014f578063e5800210116100c1578063f455bcc211610085578063f455bcc214610ff8578063f7ee7a4314611019578063f868709114611030578063f92142e214610b58578063fa9b701814611045578063fe575a871461106457600080fd5b8063e580021014610f51578063e75b207314610f6b578063e7a486fb14610f98578063ee81e62214610fb8578063f30afd7214610fd857600080fd5b8063cfe3989c11610113578063cfe3989c14610e9a578063d73792a914610eaf578063d859c5a614610ec6578063da35c66414610ee6578063dd62ed3e14610efc578063df7787a414610f3457600080fd5b8063c345adc714610e10578063c58e186b14610e25578063c71e282514610e45578063c9b49c2814610e65578063cab2162314610e7a57600080fd5b8063a9059cbb116101e8578063b6cf146c116101ac578063b6cf146c14610cf9578063b6ea231e14610d19578063baee0bad14610d80578063be597d3d14610da0578063beb0a41614610db5578063c0e5dada14610df057600080fd5b8063a9059cbb14610c77578063aa719a3c14610c97578063b187bd2614610cb7578063b367003814610cce578063b51fddfb14610ce457600080fd5b80639d249a181161023a5780639d249a1814610bbf5780639d46352014610bdc5780639f357d9314610bf2578063a20cc63514610c12578063a457c2d714610c32578063a4fcd4c214610c5257600080fd5b80638e51967714610b0a57806392108c8614610b2457806392fde37314610b5857806395d89b4114610b6f578063975afbc014610b9f57600080fd5b80633bf8fe4c116103a8578063667167901161031a57806377ebd0e9116102de57806377ebd0e914610a4757806379e8a2b714610a675780638456cb5914610a87578063888933da14610a9c5780638c84650214610ab65780638da5cb5b14610ad657600080fd5b8063667167901461099b5780636e99d52f146109bb5780636fd8fb7a146109d157806370330ae114610a0557806370a0823114610a1a57600080fd5b8063535cbfcd1161036c578063535cbfcd146108e1578063537df3b6146108f657806357376198146109165780635a5759b4146109365780635c9a05b8146109565780635dab0fe31461098657600080fd5b80633bf8fe4c1461086d5780633ed446031461088257806342966c681461089757806344c781c9146108b7578063480df058146108cc57600080fd5b806317e139521161044157806323b872dd1161040557806323b872dd146107045780632bf9db7914610724578063313ce567146107e6578063368f505c1461080d578063395093511461082d5780633abc97e51461084d57600080fd5b806317e139521461068257806318160ddd146106a25780631d111d13146106b857806321b4deee146106cd57806323876064146106e457600080fd5b8063107bd32f11610488578063107bd32f146105d45780631451dd43146105f85780631516def714610615578063153b0d1e14610635578063168195781461065557600080fd5b8063064a59d0146104d057806306fdde03146105175780630721842e1461055a578063077f2cfc14610592578063095ea7b3146105b457600080fd5b366104cb57005b600080fd5b3480156104dc57600080fd5b507f00000000000000000000000000000000000000000000000000000000000000004210155b60405190151581526020015b60405180910390f35b34801561052357600080fd5b5061054d6040518060400160405280600a8152602001694b43592d6d656d652d3160b01b81525081565b60405161050e919061597a565b34801561056657600080fd5b5060055461057a906001600160a01b031681565b6040516001600160a01b03909116815260200161050e565b34801561059e57600080fd5b506105b26105ad3660046159e0565b611094565b005b3480156105c057600080fd5b506105026105cf3660046159fd565b6112ac565b3480156105e057600080fd5b506105ea60115481565b60405190815260200161050e565b34801561060457600080fd5b506105ea686c6b935b8bbd40000081565b34801561062157600080fd5b50600e5461057a906001600160a01b031681565b34801561064157600080fd5b506105b2610650366004615a37565b611306565b34801561066157600080fd5b506105ea6106703660046159e0565b60176020526000908152604090205481565b34801561068e57600080fd5b5060085461057a906001600160a01b031681565b3480156106ae57600080fd5b506105ea60015481565b3480156106c457600080fd5b506105b2611575565b3480156106d957600080fd5b506105ea6202a30081565b3480156106f057600080fd5b506105b26106ff366004615a37565b61181e565b34801561071057600080fd5b5061050261071f366004615a70565b611a9f565b34801561073057600080fd5b50604080516001600160a01b037f0000000000000000000000000000000000000000000000000000000000000000811682527f0000000000000000000000000000000000000000000000000000000000000000811660208301527f00000000000000000000000000000000000000000000000000000000000000008116928201929092527f000000000000000000000000000000000000000000000000000000000000000091909116606082015260800161050e565b3480156107f257600080fd5b506107fb601281565b60405160ff909116815260200161050e565b34801561081957600080fd5b50600b5461057a906001600160a01b031681565b34801561083957600080fd5b506105026108483660046159fd565b611b3f565b34801561085957600080fd5b506105b2610868366004615afd565b611b7b565b34801561087957600080fd5b506105b2611e53565b34801561088e57600080fd5b506105b2611edd565b3480156108a357600080fd5b506105b26108b2366004615b54565b612079565b3480156108c357600080fd5b506105ea61224f565b3480156108d857600080fd5b506105ea601e81565b3480156108ed57600080fd5b506105ea612295565b34801561090257600080fd5b506105b26109113660046159e0565b612308565b34801561092257600080fd5b506105b26109313660046159fd565b6123f7565b34801561094257600080fd5b506105026109513660046159e0565b61272b565b34801561096257600080fd5b506105026109713660046159e0565b60126020526000908152604090205460ff1681565b34801561099257600080fd5b506105ea603281565b3480156109a757600080fd5b5061057a6109b63660046159e0565b612898565b3480156109c757600080fd5b506105ea611c2081565b3480156109dd57600080fd5b506105ea7f000000000000000000000000000000000000000000000000000000000000000081565b348015610a1157600080fd5b506105b261299f565b348015610a2657600080fd5b506105ea610a353660046159e0565b60146020526000908152604090205481565b348015610a5357600080fd5b506105b2610a62366004615b6d565b612b06565b348015610a7357600080fd5b5060105461057a906001600160a01b031681565b348015610a9357600080fd5b506105b2612c77565b348015610aa857600080fd5b506002546105029060ff1681565b348015610ac257600080fd5b50600f5461057a906001600160a01b031681565b348015610ae257600080fd5b5061057a7f000000000000000000000000000000000000000000000000000000000000000081565b348015610b1657600080fd5b506013546105029060ff1681565b348015610b3057600080fd5b506105027f000000000000000000000000000000000000000000000000000000000000000081565b348015610b6457600080fd5b506105ea6201518081565b348015610b7b57600080fd5b5061054d604051806040016040528060048152602001634b43593160e01b81525081565b348015610bab57600080fd5b50600c5461057a906001600160a01b031681565b348015610bcb57600080fd5b506105ea68056bc75e2d6310000081565b348015610be857600080fd5b506105ea60195481565b348015610bfe57600080fd5b50600a5461057a906001600160a01b031681565b348015610c1e57600080fd5b5060045461057a906001600160a01b031681565b348015610c3e57600080fd5b50610502610c4d3660046159fd565b612ddc565b348015610c5e57600080fd5b50610c67612e57565b60405161050e9493929190615baf565b348015610c8357600080fd5b50610502610c923660046159fd565b612eaa565b348015610ca357600080fd5b5060095461057a906001600160a01b031681565b348015610cc357600080fd5b506003544210610502565b348015610cda57600080fd5b506105ea60035481565b348015610cf057600080fd5b506105b2612ebe565b348015610d0557600080fd5b506105b2610d14366004615b54565b613086565b348015610d2557600080fd5b50610d5e610d34366004615b54565b601a6020526000908152604090208054600182015460028301546003909301549192909160ff1684565b604080519485526020850193909352918301521515606082015260800161050e565b348015610d8c57600080fd5b5060065461057a906001600160a01b031681565b348015610dac57600080fd5b506105b26133d5565b348015610dc157600080fd5b5061054d6040518060400160405280600f81526020016e68747470733a2f2f6b6379312e696f60881b81525081565b348015610dfc57600080fd5b506105b2610e0b366004615c0c565b61345c565b348015610e1c57600080fd5b506105b261374a565b348015610e3157600080fd5b5060075461057a906001600160a01b031681565b348015610e5157600080fd5b50610502610e603660046159e0565b6137d1565b348015610e7157600080fd5b506105ea6138fb565b348015610e8657600080fd5b506105b2610e95366004615c3a565b613925565b348015610ea657600080fd5b506105ea613e2e565b348015610ebb57600080fd5b506105ea620186a081565b348015610ed257600080fd5b506105b2610ee1366004615afd565b613e87565b348015610ef257600080fd5b506105ea601b5481565b348015610f0857600080fd5b506105ea610f17366004615c0c565b601560209081526000928352604080842090915290825290205481565b348015610f4057600080fd5b506105ea68d8d726b7177a80000081565b348015610f5d57600080fd5b50601c546105029060ff1681565b348015610f7757600080fd5b506105ea610f863660046159e0565b60166020526000908152604090205481565b348015610fa457600080fd5b506105b2610fb3366004615b54565b61417c565b348015610fc457600080fd5b506105b2610fd3366004615b54565b614481565b348015610fe457600080fd5b50600d5461057a906001600160a01b031681565b34801561100457600080fd5b5060105461050290600160a01b900460ff1681565b34801561102557600080fd5b506105ea62093a8081565b34801561103c57600080fd5b506105b2614652565b34801561105157600080fd5b506105ea6a0422ca8b0a00a42500000081565b34801561107057600080fd5b5061050261107f3660046159e0565b60186020526000908152604090205460ff1681565b336001600160a01b037f00000000000000000000000000000000000000000000000000000000000000001614806110d557506004546001600160a01b031633145b806110ea57506005546001600160a01b031633145b806110ff57506006546001600160a01b031633145b8061111457506007546001600160a01b031633145b8061112957506008546001600160a01b031633145b8061113e57506009546001600160a01b031633145b806111535750600a546001600160a01b031633145b806111685750600b546001600160a01b031633145b8061117d5750600c546001600160a01b031633145b806111925750600d546001600160a01b031633145b806111a75750600e546001600160a01b031633145b6111cc5760405162461bcd60e51b81526004016111c390615c5e565b60405180910390fd5b600e546001600160a01b03161561121d5760405162461bcd60e51b8152602060048201526015602482015274135d5b1d1a4b5cda59c8185b1c9958591e481cd95d605a1b60448201526064016111c3565b6001600160a01b0381166112625760405162461bcd60e51b815260206004820152600c60248201526b5a65726f206164647265737360a01b60448201526064016111c3565b600e80546001600160a01b0319166001600160a01b0383169081179091556040517f1c299868bdf884ac5c38c41dca1b8fa41a5c6a672e17319ec1c8d68e5066a99a90600090a250565b60006011544210156112f15760405162461bcd60e51b815260206004820152600e60248201526d20b236b4b71031b7b7b63237bbb760911b60448201526064016111c3565b6112fc338484614e22565b5060015b92915050565b336001600160a01b037f000000000000000000000000000000000000000000000000000000000000000016148061134757506004546001600160a01b031633145b8061135c57506005546001600160a01b031633145b8061137157506006546001600160a01b031633145b8061138657506007546001600160a01b031633145b8061139b57506008546001600160a01b031633145b806113b057506009546001600160a01b031633145b806113c55750600a546001600160a01b031633145b806113da5750600b546001600160a01b031633145b806113ef5750600c546001600160a01b031633145b806114045750600d546001600160a01b031633145b806114195750600e546001600160a01b031633145b6114355760405162461bcd60e51b81526004016111c390615c5e565b7f00000000000000000000000000000000000000000000000000000000000000006001600160a01b0316826001600160a01b0316036114a15760405162461bcd60e51b815260206004820152600860248201526727379037bbb732b960c11b60448201526064016111c3565b306001600160a01b038316036114e75760405162461bcd60e51b815260206004820152600b60248201526a139bc818dbdb9d1c9858dd60aa1b60448201526064016111c3565b6001600160a01b0382166115275760405162461bcd60e51b81526020600482015260076024820152664e6f207a65726f60c81b60448201526064016111c3565b6001600160a01b038216600081815260186020908152604091829020805460ff19168515159081179091559151918252600080516020615e5583398151915291015b60405180910390a25050565b336001600160a01b037f00000000000000000000000000000000000000000000000000000000000000001614806115b657506004546001600160a01b031633145b806115cb57506005546001600160a01b031633145b806115e057506006546001600160a01b031633145b806115f557506007546001600160a01b031633145b8061160a57506008546001600160a01b031633145b8061161f57506009546001600160a01b031633145b806116345750600a546001600160a01b031633145b806116495750600b546001600160a01b031633145b8061165e5750600c546001600160a01b031633145b806116735750600d546001600160a01b031633145b806116885750600e546001600160a01b031633145b6116a45760405162461bcd60e51b81526004016111c390615c5e565b6002600054036116f65760405162461bcd60e51b815260206004820152601f60248201527f5265656e7472616e637947756172643a207265656e7472616e742063616c6c0060448201526064016111c3565b600260005547806117325760405162461bcd60e51b815260206004820152600660248201526527379021272160d11b60448201526064016111c3565b60007f00000000000000000000000000000000000000000000000000000000000000006001600160a01b03168260405160006040518083038185875af1925050503d806000811461179f576040519150601f19603f3d011682016040523d82523d6000602084013e6117a4565b606091505b50509050806117e25760405162461bcd60e51b815260206004820152600a6024820152691093908819985a5b195960b21b60448201526064016111c3565b6040518281527f1680612e6c4ea6353232f90d9fc956e494bb8a63829af6cf07e3763061a780949060200160405180910390a150506001600055565b336001600160a01b037f000000000000000000000000000000000000000000000000000000000000000016148061185f57506004546001600160a01b031633145b8061187457506005546001600160a01b031633145b8061188957506006546001600160a01b031633145b8061189e57506007546001600160a01b031633145b806118b357506008546001600160a01b031633145b806118c857506009546001600160a01b031633145b806118dd5750600a546001600160a01b031633145b806118f25750600b546001600160a01b031633145b806119075750600c546001600160a01b031633145b8061191c5750600d546001600160a01b031633145b806119315750600e546001600160a01b031633145b61194d5760405162461bcd60e51b81526004016111c390615c5e565b600e546001600160a01b031633146119825760135460ff16156119825760405162461bcd60e51b81526004016111c390615c81565b600e546001600160a01b031633146119b6576011544210156119b65760405162461bcd60e51b81526004016111c390615ca7565b6001600160a01b0382166119fb5760405162461bcd60e51b815260206004820152600c60248201526b24b73b30b634b2103830b4b960a11b60448201526064016111c3565b6001600160a01b0382166000908152601260205260409020805460ff1916821515179055611a2c6202a30042615cf4565b6003819055604051908152600080516020615e358339815191529060200160405180910390a1611a5f6202a30042615cf4565b60115560405181151581526001600160a01b038316907f7a2f4227df0ce76d5d4187329faaf8c53eb621fd92edb868d331f292bb01134490602001611569565b6001600160a01b038316600090815260156020908152604080832033845290915281205482811015611b035760405162461bcd60e51b815260206004820152600d60248201526c4c6f7720616c6c6f77616e636560981b60448201526064016111c3565b6001600160a01b038516600090815260156020908152604080832033845290915290208382039055611b36858585614f05565b95945050505050565b3360008181526015602090815260408083206001600160a01b038716845290915281205490916112fc918590611b76908690615cf4565b614e22565b336001600160a01b037f0000000000000000000000000000000000000000000000000000000000000000161480611bbc57506004546001600160a01b031633145b80611bd157506005546001600160a01b031633145b80611be657506006546001600160a01b031633145b80611bfb57506007546001600160a01b031633145b80611c1057506008546001600160a01b031633145b80611c2557506009546001600160a01b031633145b80611c3a5750600a546001600160a01b031633145b80611c4f5750600b546001600160a01b031633145b80611c645750600c546001600160a01b031633145b80611c795750600d546001600160a01b031633145b80611c8e5750600e546001600160a01b031633145b611caa5760405162461bcd60e51b81526004016111c390615c5e565b60005b82811015611e4d577f00000000000000000000000000000000000000000000000000000000000000006001600160a01b0316848483818110611cf157611cf1615d07565b9050602002016020810190611d0691906159e0565b6001600160a01b031614158015611d4c575030848483818110611d2b57611d2b615d07565b9050602002016020810190611d4091906159e0565b6001600160a01b031614155b8015611d8857506000848483818110611d6757611d67615d07565b9050602002016020810190611d7c91906159e0565b6001600160a01b031614155b15611e3b578160186000868685818110611da457611da4615d07565b9050602002016020810190611db991906159e0565b6001600160a01b031681526020810191909152604001600020805460ff1916911515919091179055838382818110611df357611df3615d07565b9050602002016020810190611e0891906159e0565b6001600160a01b0316600080516020615e5583398151915283604051611e32911515815260200190565b60405180910390a25b80611e4581615d1d565b915050611cad565b50505050565b600e546001600160a01b03163314611e7d5760405162461bcd60e51b81526004016111c390615d36565b600e546001600160a01b0316611ea55760405162461bcd60e51b81526004016111c390615d5e565b6010805460ff60a01b191690556040517fa51949d2a53f5e36f13f153e2a7b001fd7ed6556cef2866ac2f1b52ea9342c1d90600090a1565b336001600160a01b037f0000000000000000000000000000000000000000000000000000000000000000161480611f1e57506004546001600160a01b031633145b80611f3357506005546001600160a01b031633145b80611f4857506006546001600160a01b031633145b80611f5d57506007546001600160a01b031633145b80611f7257506008546001600160a01b031633145b80611f8757506009546001600160a01b031633145b80611f9c5750600a546001600160a01b031633145b80611fb15750600b546001600160a01b031633145b80611fc65750600c546001600160a01b031633145b80611fdb5750600d546001600160a01b031633145b80611ff05750600e546001600160a01b031633145b61200c5760405162461bcd60e51b81526004016111c390615c5e565b600e546001600160a01b031633146120415760135460ff16156120415760405162461bcd60e51b81526004016111c390615c81565b6013805460ff191660011790556040517f4796bf6ffaaa75b9dd6d018c2bd9c876b3483a4be62665b4630f698ac85c5f7e90600090a1565b336001600160a01b037f00000000000000000000000000000000000000000000000000000000000000001614806120ba57506004546001600160a01b031633145b806120cf57506005546001600160a01b031633145b806120e457506006546001600160a01b031633145b806120f957506007546001600160a01b031633145b8061210e57506008546001600160a01b031633145b8061212357506009546001600160a01b031633145b806121385750600a546001600160a01b031633145b8061214d5750600b546001600160a01b031633145b806121625750600c546001600160a01b031633145b806121775750600d546001600160a01b031633145b8061218c5750600e546001600160a01b031633145b6121a85760405162461bcd60e51b81526004016111c390615c5e565b336000908152601460205260409020548111156121d75760405162461bcd60e51b81526004016111c390615d89565b3360008181526014602090815260408083208054869003905560018054869003905551848152919291600080516020615e75833981519152910160405180910390a36040518181527f6ef4855b666dcc7884561072e4358b28dfe01feb1b7f4dcebc00e62d50394ac79060200160405180910390a150565b60006019546000036122615750600090565b600062093a806019546122749190615cf4565b905080421061228557600091505090565b61228f4282615dae565b91505090565b60006019546000141580156122b9575062093a806019546122b69190615cf4565b42105b156122c45750600090565b6001546a0422ca8b0a00a42500000090600090612710906122e6906032615dc1565b6122f09190615dd8565b90508181106122ff5781612301565b805b9250505090565b600e546001600160a01b031633146123325760405162461bcd60e51b81526004016111c390615d36565b600e546001600160a01b031661235a5760405162461bcd60e51b81526004016111c390615d5e565b6001600160a01b03811660009081526018602052604090205460ff166123b45760405162461bcd60e51b815260206004820152600f60248201526e139bdd08189b1858dadb1a5cdd1959608a1b60448201526064016111c3565b6001600160a01b0381166000818152601860209081526040808320805460ff1916905551918252600080516020615e55833981519152910160405180910390a250565b336001600160a01b037f000000000000000000000000000000000000000000000000000000000000000016148061243857506004546001600160a01b031633145b8061244d57506005546001600160a01b031633145b8061246257506006546001600160a01b031633145b8061247757506007546001600160a01b031633145b8061248c57506008546001600160a01b031633145b806124a157506009546001600160a01b031633145b806124b65750600a546001600160a01b031633145b806124cb5750600b546001600160a01b031633145b806124e05750600c546001600160a01b031633145b806124f55750600d546001600160a01b031633145b8061250a5750600e546001600160a01b031633145b6125265760405162461bcd60e51b81526004016111c390615c5e565b6002600054036125785760405162461bcd60e51b815260206004820152601f60248201527f5265656e7472616e637947756172643a207265656e7472616e742063616c6c0060448201526064016111c3565b60026000556001600160a01b0382166125c35760405162461bcd60e51b815260206004820152600d60248201526c24b73b30b634b2103a37b5b2b760991b60448201526064016111c3565b306001600160a01b0383160361260c5760405162461bcd60e51b815260206004820152600e60248201526d4e6f20726573637565204b43593160901b60448201526064016111c3565b60405163a9059cbb60e01b81526001600160a01b037f0000000000000000000000000000000000000000000000000000000000000000811660048301526024820183905283919082169063a9059cbb906044016020604051808303816000875af115801561267e573d6000803e3d6000fd5b505050506040513d601f19601f820116820180604052508101906126a29190615dfa565b6126de5760405162461bcd60e51b815260206004820152600d60248201526c14995cd8dd594819985a5b1959609a1b60448201526064016111c3565b826001600160a01b03167fe2ff149b1527ce73bc1113b8b0d5f0afffefac241473a371880d7510708ad4438360405161271991815260200190565b60405180910390a25050600160005550565b60007f00000000000000000000000000000000000000000000000000000000000000006001600160a01b0316826001600160a01b0316148061277557506001600160a01b03821630145b8061278d57506004546001600160a01b038381169116145b806127a557506005546001600160a01b038381169116145b806127bd57506006546001600160a01b038381169116145b806127d557506007546001600160a01b038381169116145b806127ed57506008546001600160a01b038381169116145b8061280557506009546001600160a01b038381169116145b8061281d5750600a546001600160a01b038381169116145b806128355750600b546001600160a01b038381169116145b8061284d5750600c546001600160a01b038381169116145b806128655750600d546001600160a01b038381169116145b8061287d5750600f546001600160a01b038381169116145b806113005750506010546001600160a01b0390811691161490565b60006001600160a01b0382166128e05760405162461bcd60e51b815260206004820152600d60248201526c24b73b30b634b2103a37b5b2b760991b60448201526064016111c3565b306001600160a01b0383160361292b5760405162461bcd60e51b815260206004820152601060248201526f21b0b73737ba103830b4b91039b2b63360811b60448201526064016111c3565b60105460405163e6a4390560e01b81523060048201526001600160a01b0384811660248301529091169063e6a4390590604401602060405180830381865afa15801561297b573d6000803e3d6000fd5b505050506040513d601f19601f820116820180604052508101906113009190615e17565b336001600160a01b037f00000000000000000000000000000000000000000000000000000000000000001614806129e057506004546001600160a01b031633145b806129f557506005546001600160a01b031633145b80612a0a57506006546001600160a01b031633145b80612a1f57506007546001600160a01b031633145b80612a3457506008546001600160a01b031633145b80612a4957506009546001600160a01b031633145b80612a5e5750600a546001600160a01b031633145b80612a735750600b546001600160a01b031633145b80612a885750600c546001600160a01b031633145b80612a9d5750600d546001600160a01b031633145b80612ab25750600e546001600160a01b031633145b612ace5760405162461bcd60e51b81526004016111c390615c5e565b601c805460ff191660011790556040517f8626b5eba97cb663ee6bc23f6f1085d98d9ae2a677d0f785943aeb24557b000790600090a1565b600e546001600160a01b03163314612b305760405162461bcd60e51b81526004016111c390615d36565b600e546001600160a01b0316612b585760405162461bcd60e51b81526004016111c390615d5e565b60005b81811015612c725760186000848484818110612b7957612b79615d07565b9050602002016020810190612b8e91906159e0565b6001600160a01b0316815260208101919091526040016000205460ff1615612c6057600060186000858585818110612bc857612bc8615d07565b9050602002016020810190612bdd91906159e0565b6001600160a01b031681526020810191909152604001600020805460ff1916911515919091179055828282818110612c1757612c17615d07565b9050602002016020810190612c2c91906159e0565b6001600160a01b0316600080516020615e558339815191526000604051612c57911515815260200190565b60405180910390a25b80612c6a81615d1d565b915050612b5b565b505050565b336001600160a01b037f0000000000000000000000000000000000000000000000000000000000000000161480612cb857506004546001600160a01b031633145b80612ccd57506005546001600160a01b031633145b80612ce257506006546001600160a01b031633145b80612cf757506007546001600160a01b031633145b80612d0c57506008546001600160a01b031633145b80612d2157506009546001600160a01b031633145b80612d365750600a546001600160a01b031633145b80612d4b5750600b546001600160a01b031633145b80612d605750600c546001600160a01b031633145b80612d755750600d546001600160a01b031633145b80612d8a5750600e546001600160a01b031633145b612da65760405162461bcd60e51b81526004016111c390615c5e565b612db36202a30042615cf4565b6003819055604051908152600080516020615e35833981519152906020015b60405180910390a1565b3360009081526015602090815260408083206001600160a01b038616845290915281205482811015612e405760405162461bcd60e51b815260206004820152600d60248201526c4c6f7720616c6c6f77616e636560981b60448201526064016111c3565b612e4d3385858403614e22565b5060019392505050565b612e5f61595c565b6004546001600160a01b039081168252600554811660208301526006548116604083015260075481166060830152600f5460105492939082169291821691600160a01b900460ff1690565b6000612eb7338484614f05565b9392505050565b336001600160a01b037f0000000000000000000000000000000000000000000000000000000000000000161480612eff57506004546001600160a01b031633145b80612f1457506005546001600160a01b031633145b80612f2957506006546001600160a01b031633145b80612f3e57506007546001600160a01b031633145b80612f5357506008546001600160a01b031633145b80612f6857506009546001600160a01b031633145b80612f7d5750600a546001600160a01b031633145b80612f925750600b546001600160a01b031633145b80612fa75750600c546001600160a01b031633145b80612fbc5750600d546001600160a01b031633145b80612fd15750600e546001600160a01b031633145b612fed5760405162461bcd60e51b81526004016111c390615c5e565b600e546001600160a01b0316331461304857601054600160a01b900460ff16156130485760405162461bcd60e51b815260206004820152600c60248201526b14db1bdd1cc81b1bd8dad95960a21b60448201526064016111c3565b6010805460ff60a01b1916600160a01b1790556040517f08234ccd0d49a6aa697f3793c5f51d1a67334aadd98b1a80978b14c42e4204c990600090a1565b336001600160a01b037f00000000000000000000000000000000000000000000000000000000000000001614806130c757506004546001600160a01b031633145b806130dc57506005546001600160a01b031633145b806130f157506006546001600160a01b031633145b8061310657506007546001600160a01b031633145b8061311b57506008546001600160a01b031633145b8061313057506009546001600160a01b031633145b806131455750600a546001600160a01b031633145b8061315a5750600b546001600160a01b031633145b8061316f5750600c546001600160a01b031633145b806131845750600d546001600160a01b031633145b806131995750600e546001600160a01b031633145b6131b55760405162461bcd60e51b81526004016111c390615c5e565b600e546001600160a01b031633146131e9576011544210156131e95760405162461bcd60e51b81526004016111c390615ca7565b6000811161322e5760405162461bcd60e51b81526020600482015260126024820152710416d6f756e74206d757374206265203e20360741b60448201526064016111c3565b62093a8060195461323f9190615cf4565b4210156132845760405162461bcd60e51b815260206004820152601360248201527210dbdbdb191bdddb881b9bdd081c185cdcd959606a1b60448201526064016111c3565b6001546a0422ca8b0a00a42500000090600090612710906132a6906032615dc1565b6132b09190615dd8565b9050818110156132be578091505b818311156133015760405162461bcd60e51b815260206004820152601060248201526f115e18d959591cc81b585e081b5a5b9d60821b60448201526064016111c3565b601b805490600061331183615d1d565b91905055506040518060800160405280848152602001428152602001620151804261333c9190615cf4565b815260006020918201819052601b80548252601a8352604091829020845181559284015160018401559083015160028301556060909201516003909101805460ff1916911515919091179055547f647292d081eebcc7a2a611fa5a88554629f8fb2c089a593a8419c4f6dc7b91a3846133b86201518042615cf4565b6040805192835260208301919091520160405180910390a2505050565b600e546001600160a01b031633146133ff5760405162461bcd60e51b81526004016111c390615d36565b600e546001600160a01b03166134275760405162461bcd60e51b81526004016111c390615d5e565b6013805460ff191690556040517fbb6c70ce316c154e62e01716ee643d3b433b5fd65f37f62e170411447251ac7a90600090a1565b336001600160a01b037f000000000000000000000000000000000000000000000000000000000000000016148061349d57506004546001600160a01b031633145b806134b257506005546001600160a01b031633145b806134c757506006546001600160a01b031633145b806134dc57506007546001600160a01b031633145b806134f157506008546001600160a01b031633145b8061350657506009546001600160a01b031633145b8061351b5750600a546001600160a01b031633145b806135305750600b546001600160a01b031633145b806135455750600c546001600160a01b031633145b8061355a5750600d546001600160a01b031633145b8061356f5750600e546001600160a01b031633145b61358b5760405162461bcd60e51b81526004016111c390615c5e565b600e546001600160a01b031633146135dd57601c5460ff16156135dd5760405162461bcd60e51b815260206004820152600a602482015269111156081b1bd8dad95960b21b60448201526064016111c3565b600e546001600160a01b03163314613611576011544210156136115760405162461bcd60e51b81526004016111c390615ca7565b6001600160a01b0382166136555760405162461bcd60e51b815260206004820152600b60248201526a526f75746572207a65726f60a81b60448201526064016111c3565b6001600160a01b03811661369a5760405162461bcd60e51b815260206004820152600c60248201526b466163746f7279207a65726f60a01b60448201526064016111c3565b600f80546001600160a01b038085166001600160a01b03199283161790925560108054928416929091169190911790556136d76202a30042615cf4565b6003819055604051908152600080516020615e358339815191529060200160405180910390a161370a6202a30042615cf4565b6011556040516001600160a01b0380831691908416907f21baedc621b715a34ba27312a07d13d9fefd74e0fe7770fef56db94f3399e5ba90600090a35050565b600e546001600160a01b031633146137745760405162461bcd60e51b81526004016111c390615d36565b600e546001600160a01b031661379c5760405162461bcd60e51b81526004016111c390615d5e565b601c805460ff191690556040517f2e33380adea2f285a9841bb8e9745e505ce81db299f34111d2ae1cff72d10c2890600090a1565b60007f00000000000000000000000000000000000000000000000000000000000000006001600160a01b0316826001600160a01b0316148061382057506004546001600160a01b038381169116145b8061383857506005546001600160a01b038381169116145b8061385057506006546001600160a01b038381169116145b8061386857506007546001600160a01b038381169116145b8061388057506008546001600160a01b038381169116145b8061389857506009546001600160a01b038381169116145b806138b05750600a546001600160a01b038381169116145b806138c85750600b546001600160a01b038381169116145b806138e05750600c546001600160a01b038381169116145b80611300575050600d546001600160a01b0390811691161490565b6000613908600354421090565b6139125750600090565b426003546139209190615dae565b905090565b600e546001600160a01b0316331461398057601054600160a01b900460ff16156139805760405162461bcd60e51b815260206004820152600c60248201526b14db1bdd1cc81b1bd8dad95960a21b60448201526064016111c3565b60018260ff16101580156139985750600a8260ff1611155b6139d95760405162461bcd60e51b8152602060048201526012602482015271092dcecc2d8d2c840e6d8dee840d2dcc8caf60731b60448201526064016111c3565b6001600160a01b038116613a1e5760405162461bcd60e51b815260206004820152600c60248201526b5a65726f206164647265737360a01b60448201526064016111c3565b8160ff16600103613a715760405162461bcd60e51b815260206004820152601f60248201527f536c6f742031206973206f776e6572202d2063616e6e6f74206368616e67650060448201526064016111c3565b60028260ff1610158015613a89575060058260ff1611155b15613b1557600e546001600160a01b03163314613ae85760405162461bcd60e51b815260206004820152601c60248201527f4f6e6c79206d756c74692d73696720666f7220736c6f747320312d350000000060448201526064016111c3565b600e546001600160a01b0316613b105760405162461bcd60e51b81526004016111c390615d5e565b613c2f565b336001600160a01b037f0000000000000000000000000000000000000000000000000000000000000000161480613b5657506004546001600160a01b031633145b80613b6b57506005546001600160a01b031633145b80613b8057506006546001600160a01b031633145b80613b9557506007546001600160a01b031633145b80613baa57506008546001600160a01b031633145b80613bbf57506009546001600160a01b031633145b80613bd45750600a546001600160a01b031633145b80613be95750600b546001600160a01b031633145b80613bfe5750600c546001600160a01b031633145b80613c135750600d546001600160a01b031633145b613c2f5760405162461bcd60e51b81526004016111c390615c5e565b8160ff16600203613c5a57600580546001600160a01b0319166001600160a01b038316179055613dae565b8160ff16600303613c8557600680546001600160a01b0319166001600160a01b038316179055613dae565b8160ff16600403613cb057600780546001600160a01b0319166001600160a01b038316179055613dae565b8160ff16600503613cdb57600880546001600160a01b0319166001600160a01b038316179055613dae565b8160ff16600603613d0657600980546001600160a01b0319166001600160a01b038316179055613dae565b8160ff16600703613d3157600a80546001600160a01b0319166001600160a01b038316179055613dae565b8160ff16600803613d5c57600b80546001600160a01b0319166001600160a01b038316179055613dae565b8160ff16600903613d8757600c80546001600160a01b0319166001600160a01b038316179055613dae565b8160ff16600a03613dae57600d80546001600160a01b0319166001600160a01b0383161790555b613dbb6202a30042615cf4565b6003819055604051908152600080516020615e358339815191529060200160405180910390a1613dee6202a30042615cf4565b6011556040516001600160a01b0382169060ff8416907f55fa37c516338944fcc832b2ffde413707862af8395516e549c43af435a5879790600090a35050565b60007f00000000000000000000000000000000000000000000000000000000000000004210613e5d5750600090565b613920427f0000000000000000000000000000000000000000000000000000000000000000615dae565b336001600160a01b037f0000000000000000000000000000000000000000000000000000000000000000161480613ec857506004546001600160a01b031633145b80613edd57506005546001600160a01b031633145b80613ef257506006546001600160a01b031633145b80613f0757506007546001600160a01b031633145b80613f1c57506008546001600160a01b031633145b80613f3157506009546001600160a01b031633145b80613f465750600a546001600160a01b031633145b80613f5b5750600b546001600160a01b031633145b80613f705750600c546001600160a01b031633145b80613f855750600d546001600160a01b031633145b80613f9a5750600e546001600160a01b031633145b613fb65760405162461bcd60e51b81526004016111c390615c5e565b600e546001600160a01b03163314613feb5760135460ff1615613feb5760405162461bcd60e51b81526004016111c390615c81565b600e546001600160a01b0316331461401f5760115442101561401f5760405162461bcd60e51b81526004016111c390615ca7565b60005b8281101561413357600084848381811061403e5761403e615d07565b905060200201602081019061405391906159e0565b6001600160a01b03161461412157816012600086868581811061407857614078615d07565b905060200201602081019061408d91906159e0565b6001600160a01b031681526020810191909152604001600020805460ff19169115159190911790558383828181106140c7576140c7615d07565b90506020020160208101906140dc91906159e0565b6001600160a01b03167f7a2f4227df0ce76d5d4187329faaf8c53eb621fd92edb868d331f292bb01134483604051614118911515815260200190565b60405180910390a25b8061412b81615d1d565b915050614022565b506141416202a30042615cf4565b6003819055604051908152600080516020615e358339815191529060200160405180910390a16141746202a30042615cf4565b601155505050565b336001600160a01b037f00000000000000000000000000000000000000000000000000000000000000001614806141bd57506004546001600160a01b031633145b806141d257506005546001600160a01b031633145b806141e757506006546001600160a01b031633145b806141fc57506007546001600160a01b031633145b8061421157506008546001600160a01b031633145b8061422657506009546001600160a01b031633145b8061423b5750600a546001600160a01b031633145b806142505750600b546001600160a01b031633145b806142655750600c546001600160a01b031633145b8061427a5750600d546001600160a01b031633145b8061428f5750600e546001600160a01b031633145b6142ab5760405162461bcd60e51b81526004016111c390615c5e565b600e546001600160a01b031633146142df576011544210156142df5760405162461bcd60e51b81526004016111c390615ca7565b6000818152601a60205260409020600381015460ff16156143355760405162461bcd60e51b815260206004820152601060248201526f105b1c9958591e48195e1958dd5d195960821b60448201526064016111c3565b80546143765760405162461bcd60e51b815260206004820152601060248201526f125b9d985b1a59081c1c9bdc1bdcd85b60821b60448201526064016111c3565b80600201544210156143c05760405162461bcd60e51b8152602060048201526013602482015272151a5b595b1bd8dac81b9bdd081c185cdcd959606a1b60448201526064016111c3565b60038101805460ff19166001908117909155426019558154815401905580546001600160a01b037f00000000000000000000000000000000000000000000000000000000000000001660008181526014602052604080822080549094019093558354925191929091600080516020615e75833981519152916144459190815260200190565b60405180910390a3805460405190815282907f1c8450e81009bae0b2dc2af7e74559bb5a99e3c83ee6199c8822376295f958ea90602001611569565b336001600160a01b037f00000000000000000000000000000000000000000000000000000000000000001614806144c257506004546001600160a01b031633145b806144d757506005546001600160a01b031633145b806144ec57506006546001600160a01b031633145b8061450157506007546001600160a01b031633145b8061451657506008546001600160a01b031633145b8061452b57506009546001600160a01b031633145b806145405750600a546001600160a01b031633145b806145555750600b546001600160a01b031633145b8061456a5750600c546001600160a01b031633145b8061457f5750600d546001600160a01b031633145b806145945750600e546001600160a01b031633145b6145b05760405162461bcd60e51b81526004016111c390615c5e565b306000908152601460205260409020548111156145df5760405162461bcd60e51b81526004016111c390615d89565b306000818152601460209081526040808320805486900390556001600160a01b037f0000000000000000000000000000000000000000000000000000000000000000168084529281902080548601905551848152919291600080516020615e75833981519152910160405180910390a350565b336001600160a01b037f000000000000000000000000000000000000000000000000000000000000000016148061469357506004546001600160a01b031633145b806146a857506005546001600160a01b031633145b806146bd57506006546001600160a01b031633145b806146d257506007546001600160a01b031633145b806146e757506008546001600160a01b031633145b806146fc57506009546001600160a01b031633145b806147115750600a546001600160a01b031633145b806147265750600b546001600160a01b031633145b8061473b5750600c546001600160a01b031633145b806147505750600d546001600160a01b031633145b806147655750600e546001600160a01b031633145b6147815760405162461bcd60e51b81526004016111c390615c5e565b60025460ff16156147c55760405162461bcd60e51b815260206004820152600e60248201526d111a5cdd0818dbdb5c1b195d195960921b60448201526064016111c3565b306000908152601460205260409020546a034f086f3b33b68400000011156148265760405162461bcd60e51b8152602060048201526014602482015273436f6e74726163742062616c616e6365206c6f7760601b60448201526064016111c3565b6002805460ff191660011790557f00000000000000000000000000000000000000000000000000000000000000006001600160a01b0316158015906148bd57507f00000000000000000000000000000000000000000000000000000000000000006001600160a01b03167f00000000000000000000000000000000000000000000000000000000000000006001600160a01b031614155b80156148c7575060015b15614a1b5730600090815260146020526040812080546a013da329b633647180000092906148f6908490615dae565b90915550506001600160a01b037f000000000000000000000000000000000000000000000000000000000000000016600090815260146020526040812080546a013da329b6336471800000929061494e908490615cf4565b90915550506040516a013da329b633647180000081527f00000000000000000000000000000000000000000000000000000000000000006001600160a01b0316903090600080516020615e758339815191529060200160405180910390a37f00000000000000000000000000000000000000000000000000000000000000006001600160a01b03167f78786c581da76125b3c6c8a810adb3d2dab5d14b1273b8220661085f045e25cd6a013da329b6336471800000604051614a1291815260200190565b60405180910390a25b7f00000000000000000000000000000000000000000000000000000000000000006001600160a01b031615801590614aa557507f00000000000000000000000000000000000000000000000000000000000000006001600160a01b03167f00000000000000000000000000000000000000000000000000000000000000006001600160a01b031614155b8015614aaf575060015b15614bff57306000908152601460205260408120805469d3c21bcecceda10000009290614add908490615dae565b90915550506001600160a01b037f0000000000000000000000000000000000000000000000000000000000000000166000908152601460205260408120805469d3c21bcecceda10000009290614b34908490615cf4565b909155505060405169d3c21bcecceda100000081527f00000000000000000000000000000000000000000000000000000000000000006001600160a01b0316903090600080516020615e758339815191529060200160405180910390a37f00000000000000000000000000000000000000000000000000000000000000006001600160a01b03167f78786c581da76125b3c6c8a810adb3d2dab5d14b1273b8220661085f045e25cd69d3c21bcecceda1000000604051614bf691815260200190565b60405180910390a25b7f00000000000000000000000000000000000000000000000000000000000000006001600160a01b031615801590614c8957507f00000000000000000000000000000000000000000000000000000000000000006001600160a01b03167f00000000000000000000000000000000000000000000000000000000000000006001600160a01b031614155b8015614c93575060015b15614de75730600090815260146020526040812080546a013da329b63364718000009290614cc2908490615dae565b90915550506001600160a01b037f000000000000000000000000000000000000000000000000000000000000000016600090815260146020526040812080546a013da329b63364718000009290614d1a908490615cf4565b90915550506040516a013da329b633647180000081527f00000000000000000000000000000000000000000000000000000000000000006001600160a01b0316903090600080516020615e758339815191529060200160405180910390a37f00000000000000000000000000000000000000000000000000000000000000006001600160a01b03167f78786c581da76125b3c6c8a810adb3d2dab5d14b1273b8220661085f045e25cd6a013da329b6336471800000604051614dde91815260200190565b60405180910390a25b6040516a034f086f3b33b68400000081527f3a1079628069a11f368373dad84d9cb2831368c6f4ea1a0e86fbdbe0145a899b90602001612dd2565b6001600160a01b038316614e645760405162461bcd60e51b815260206004820152600960248201526846726f6d207a65726f60b81b60448201526064016111c3565b6001600160a01b038216614ea45760405162461bcd60e51b8152602060048201526007602482015266546f207a65726f60c81b60448201526064016111c3565b6001600160a01b0383811660008181526015602090815260408083209487168084529482529182902085905590518481527f8c5be1e5ebec7d5bd14f71427d1e84f3dd0314c0f7b2291e5b200ac8c7c3b925910160405180910390a3505050565b60006001600160a01b038416614f495760405162461bcd60e51b815260206004820152600960248201526846726f6d207a65726f60b81b60448201526064016111c3565b6001600160a01b038316614f895760405162461bcd60e51b8152602060048201526007602482015266546f207a65726f60c81b60448201526064016111c3565b6001600160a01b038416600090815260146020526040902054821115614fc15760405162461bcd60e51b81526004016111c390615d89565b6000614fcc8561272b565b90506000614fd98561272b565b90506000614fe6876137d1565b600f549091506000906001600160a01b038981169116148061501557506010546001600160a01b038981169116145b90508315801561503d57506001600160a01b03871660009081526012602052604090205460ff165b1561509d5760405162461bcd60e51b815260206004820152602a60248201527f4e6f726d616c2075736572732063616e6e6f7420616464206c6971756964697460448201526979206469726563746c7960b01b60648201526084016111c3565b821580156150c357506001600160a01b03881660009081526012602052604090205460ff165b80156150da5750600f546001600160a01b03163314155b1561513d5760405162461bcd60e51b815260206004820152602d60248201527f4e6f726d616c2075736572732063616e6e6f742072656d6f7665206c6971756960448201526c64697479206469726563746c7960981b60648201526084016111c3565b600084158061514a575083155b90506000838015615159575084155b80156151705750600f546001600160a01b03163314155b90506011544210156151b55760405162461bcd60e51b815260206004820152600e60248201526d20b236b4b71031b7b7b63237bbb760911b60448201526064016111c3565b81156151f6576003544210156151f65760405162461bcd60e51b815260206004820152600660248201526514185d5cd95960d21b60448201526064016111c3565b85615252576001600160a01b038a1660009081526018602052604090205460ff16156152525760405162461bcd60e51b815260206004820152600b60248201526a109b1858dadb1a5cdd195960aa1b60448201526064016111c3565b846152ae576001600160a01b03891660009081526018602052604090205460ff16156152ae5760405162461bcd60e51b815260206004820152600b60248201526a109b1858dadb1a5cdd195960aa1b60448201526064016111c3565b85615310577f00000000000000000000000000000000000000000000000000000000000000004210156153105760405162461bcd60e51b815260206004820152600a602482015269098dec6d6cac8406870d60b31b60448201526064016111c3565b80156154775768056bc75e2d631000008811156153595760405162461bcd60e51b815260206004820152600760248201526604d6178203130360cc1b60448201526064016111c3565b6001600160a01b038a1660009081526017602052604090205480156153bf576153856201518082615cf4565b4210156153bf5760405162461bcd60e51b81526020600482015260086024820152670aec2d2e8406468d60c31b60448201526064016111c3565b6001600160a01b038a1660009081526014602052604090205468d8d726b7177a800000620186a06153f160328d615dc1565b6153fb9190615dd8565b620186a061540a601e8e615dc1565b6154149190615dd8565b61541e908d615dae565b6154289190615dae565b6154329083615cf4565b11156154705760405162461bcd60e51b815260206004820152600d60248201526c4d61782077616c6c657420346b60981b60448201526064016111c3565b5050615650565b811561565057686c6b935b8bbd4000008811156154c15760405162461bcd60e51b815260206004820152600860248201526704d617820323030360c41b60448201526064016111c3565b846155e5576001600160a01b03891660009081526014602052604090205468d8d726b7177a800000620186a06154f860328c615dc1565b6155029190615dd8565b620186a0615511601e8d615dc1565b61551b9190615dd8565b615525908c615dae565b61552f9190615dae565b6155399083615cf4565b11156155775760405162461bcd60e51b815260206004820152600d60248201526c4d61782077616c6c657420346b60981b60448201526064016111c3565b83156155e3576001600160a01b038a1660009081526016602052604090205480156155e1576155a8611c2082615cf4565b4210156155e15760405162461bcd60e51b81526020600482015260076024820152660aec2d2e84064d60cb1b60448201526064016111c3565b505b505b85615650576001600160a01b038a16600090815260166020526040902054801561564e57615615611c2082615cf4565b42101561564e5760405162461bcd60e51b81526020600482015260076024820152660aec2d2e84064d60cb1b60448201526064016111c3565b505b85801561565a5750845b156156bc576001600160a01b03808b1660008181526014602052604080822080548d90039055928c168082529083902080548c0190559151600080516020615e75833981519152906156af908c815260200190565b60405180910390a36158d4565b6000620186a06156cd601e8b615dc1565b6156d79190615dd8565b90506000620186a06156ea60328c615dc1565b6156f49190615dd8565b9050600081615703848d615dae565b61570d9190615dae565b90508a601460008f6001600160a01b03166001600160a01b031681526020019081526020016000206000828254039250508190555080601460008e6001600160a01b03166001600160a01b031681526020019081526020016000206000828254019250508190555081601460007f00000000000000000000000000000000000000000000000000000000000000006001600160a01b03166001600160a01b0316815260200190815260200160002060008282540192505081905550826001600082825403925050819055508b6001600160a01b03168d6001600160a01b0316600080516020615e758339815191528360405161580b91815260200190565b60405180910390a37f00000000000000000000000000000000000000000000000000000000000000006001600160a01b03168d6001600160a01b0316600080516020615e758339815191528460405161586691815260200190565b60405180910390a36040518381526000906001600160a01b038f1690600080516020615e758339815191529060200160405180910390a36040518381527f6ef4855b666dcc7884561072e4358b28dfe01feb1b7f4dcebc00e62d50394ac79060200160405180910390a15050505b856158f5576001600160a01b038a1660009081526016602052604090204290555b841580156159005750815b80156159095750825b1561592a576001600160a01b03891660009081526016602052604090204290555b801561594c576001600160a01b038a1660009081526017602052604090204290555b5060019998505050505050505050565b60405180608001604052806004906020820280368337509192915050565b600060208083528351808285015260005b818110156159a75785810183015185820160400152820161598b565b506000604082860101526040601f19601f8301168501019250505092915050565b6001600160a01b03811681146159dd57600080fd5b50565b6000602082840312156159f257600080fd5b8135612eb7816159c8565b60008060408385031215615a1057600080fd5b8235615a1b816159c8565b946020939093013593505050565b80151581146159dd57600080fd5b60008060408385031215615a4a57600080fd5b8235615a55816159c8565b91506020830135615a6581615a29565b809150509250929050565b600080600060608486031215615a8557600080fd5b8335615a90816159c8565b92506020840135615aa0816159c8565b929592945050506040919091013590565b60008083601f840112615ac357600080fd5b50813567ffffffffffffffff811115615adb57600080fd5b6020830191508360208260051b8501011115615af657600080fd5b9250929050565b600080600060408486031215615b1257600080fd5b833567ffffffffffffffff811115615b2957600080fd5b615b3586828701615ab1565b9094509250506020840135615b4981615a29565b809150509250925092565b600060208284031215615b6657600080fd5b5035919050565b60008060208385031215615b8057600080fd5b823567ffffffffffffffff811115615b9757600080fd5b615ba385828601615ab1565b90969095509350505050565b60e08101818660005b6004811015615be05781516001600160a01b0316835260209283019290910190600101615bb8565b5050506001600160a01b0394851660808301529290931660a0840152151560c090920191909152919050565b60008060408385031215615c1f57600080fd5b8235615c2a816159c8565b91506020830135615a65816159c8565b60008060408385031215615c4d57600080fd5b823560ff81168114615c2a57600080fd5b6020808252600990820152682737ba1030b236b4b760b91b604082015260600190565b6020808252600c908201526b14185a5c9cc81b1bd8dad95960a21b604082015260600190565b60208082526019908201527f41646472657373206368616e6765727320636f6f6c646f776e00000000000000604082015260600190565b634e487b7160e01b600052601160045260246000fd5b8082018082111561130057611300615cde565b634e487b7160e01b600052603260045260246000fd5b600060018201615d2f57615d2f615cde565b5060010190565b6020808252600e908201526d4f6e6c79206d756c74692d73696760901b604082015260600190565b602080825260119082015270135d5b1d1a4b5cda59c81b9bdd081cd95d607a1b604082015260600190565b6020808252600b908201526a4c6f772062616c616e636560a81b604082015260600190565b8181038181111561130057611300615cde565b808202811582820484141761130057611300615cde565b600082615df557634e487b7160e01b600052601260045260246000fd5b500490565b600060208284031215615e0c57600080fd5b8151612eb781615a29565b600060208284031215615e2957600080fd5b8151612eb7816159c856fe32fb7c9891bc4f963c7de9f1186d2a7755c7d6e9f4604dabe1d8bb3027c2f49ecf3473b85df1594d47b6958f29a32bea0abff9dd68296f7bf33443646793cfd8ddf252ad1be2c89b69c2b068fc378daa952ba7f163c4a11628f55a4df523b3efa2646970667358221220a8d432267ae24d0ff112016a663b51349a3f9135e01d4384ca5702b1fb71d5a464736f6c63430008140033ddf252ad1be2c89b69c2b068fc378daa952ba7f163c4a11628f55a4df523b3ef","opcodes":"PUSH2 0x160 PUSH1 0x40 MSTORE CALLVALUE DUP1 ISZERO PUSH3 0x12 JUMPI PUSH1 0x0 DUP1 REVERT JUMPDEST POP PUSH1 0x1 PUSH1 0x0 SSTORE CALLER PUSH1 0x80 MSTORE PUSH3 0x2B TIMESTAMP PUSH3 0x2A300 PUSH3 0x49A JUMP JUMPDEST PUSH1 0xA0 MSTORE PUSH3 0x3C PUSH1 0x12 PUSH1 0xA PUSH3 0x5B3 JUMP JUMPDEST PUSH3 0x4C SWAP1 PUSH4 0x5F5E100 PUSH3 0x5CB JUMP JUMPDEST PUSH1 0x1 SSTORE PUSH1 0x61 CHAINID EQ DUP1 PUSH3 0x60 JUMPI POP CHAINID PUSH2 0x7A69 EQ JUMPDEST ISZERO ISZERO PUSH1 0xC0 MSTORE PUSH2 0x7A69 CHAINID EQ PUSH3 0xAE JUMPI CHAINID PUSH1 0x61 EQ PUSH3 0x93 JUMPI PUSH20 0x567C1C5E9026E04078F9B92DCF295A58355F60C7 PUSH3 0xB0 JUMP JUMPDEST PUSH20 0xCBFA2D3612B7474FF89C0746EA6BAEEE06A61702 PUSH3 0xB0 JUMP JUMPDEST CALLER JUMPDEST PUSH1 0x1 PUSH1 0x1 PUSH1 0xA0 SHL SUB AND PUSH1 0xE0 MSTORE PUSH2 0x7A69 CHAINID EQ PUSH3 0x105 JUMPI CHAINID PUSH1 0x61 EQ PUSH3 0xEA JUMPI PUSH20 0x58EC63D31B8E4D6624B5C88338027A54BE1AE28A PUSH3 0x107 JUMP JUMPDEST PUSH20 0x67EDBE18AD6AB1FF0D57CCC511F56485EFFCABE7 PUSH3 0x107 JUMP JUMPDEST CALLER JUMPDEST PUSH1 0x1 PUSH1 0x1 PUSH1 0xA0 SHL SUB AND PUSH2 0x100 MSTORE PUSH2 0x7A69 CHAINID EQ PUSH3 0x15D JUMPI CHAINID PUSH1 0x61 EQ PUSH3 0x142 JUMPI PUSH20 0x6300811567BED7D69B5AC271060A7E298F99FDDD PUSH3 0x15F JUMP JUMPDEST PUSH20 0xD1A7281FB1D1745C29DFED9C1AF22B67A7403DD6 PUSH3 0x15F JUMP JUMPDEST CALLER JUMPDEST PUSH1 0x1 PUSH1 0x1 PUSH1 0xA0 SHL SUB AND PUSH2 0x120 MSTORE PUSH2 0x7A69 CHAINID EQ PUSH3 0x1B5 JUMPI CHAINID PUSH1 0x61 EQ PUSH3 0x19A JUMPI PUSH20 0x8D95D56436EB58EE3F9209E8CC4BFD59CFBE8B87 PUSH3 0x1B7 JUMP JUMPDEST PUSH20 0xD1A7281FB1D1745C29DFED9C1AF22B67A7403DD6 PUSH3 0x1B7 JUMP JUMPDEST CALLER JUMPDEST PUSH1 0x1 PUSH1 0x1 PUSH1 0xA0 SHL SUB AND PUSH2 0x140 MSTORE PUSH1 0x61 CHAINID EQ PUSH3 0x1E8 JUMPI PUSH20 0x10ED43C718714EB63D5AA57B78B54704E256024E PUSH3 0x1FE JUMP JUMPDEST PUSH20 0xD99D1C33F9FC3444F8101754ABC46C52416550D1 JUMPDEST PUSH1 0xF DUP1 SLOAD PUSH1 0x1 PUSH1 0x1 PUSH1 0xA0 SHL SUB NOT AND PUSH1 0x1 PUSH1 0x1 PUSH1 0xA0 SHL SUB SWAP3 SWAP1 SWAP3 AND SWAP2 SWAP1 SWAP2 OR SWAP1 SSTORE CHAINID PUSH1 0x61 EQ PUSH3 0x242 JUMPI PUSH20 0xCA143CE32FE78F1F7019D7D551A6402FC5350C73 PUSH3 0x258 JUMP JUMPDEST PUSH20 0x6725F303B657A9451D8BA641348B6761A6CC7A17 JUMPDEST PUSH1 0x10 DUP1 SLOAD PUSH1 0x1 PUSH1 0x1 PUSH1 0xA0 SHL SUB SWAP3 SWAP1 SWAP3 AND PUSH1 0x1 PUSH1 0x1 PUSH1 0xA0 SHL SUB NOT SWAP3 DUP4 AND OR SWAP1 SSTORE PUSH1 0x4 DUP1 SLOAD SWAP1 SWAP2 AND CALLER OR SWAP1 SSTORE CHAINID PUSH2 0x7A69 SUB PUSH3 0x2BE JUMPI PUSH1 0x5 DUP1 SLOAD CALLER PUSH1 0x1 PUSH1 0x1 PUSH1 0xA0 SHL SUB NOT SWAP2 DUP3 AND DUP2 OR SWAP1 SWAP3 SSTORE PUSH1 0x6 DUP1 SLOAD DUP3 AND DUP4 OR SWAP1 SSTORE PUSH1 0x7 DUP1 SLOAD SWAP1 SWAP2 AND SWAP1 SWAP2 OR SWAP1 SSTORE PUSH3 0x388 JUMP JUMPDEST CHAINID PUSH1 0x61 SUB PUSH3 0x321 JUMPI PUSH1 0x5 DUP1 SLOAD PUSH1 0x1 PUSH1 0x1 PUSH1 0xA0 SHL SUB NOT SWAP1 DUP2 AND PUSH20 0x67EDBE18AD6AB1FF0D57CCC511F56485EFFCABE7 OR SWAP1 SWAP2 SSTORE PUSH1 0x6 DUP1 SLOAD DUP3 AND PUSH20 0xD1A7281FB1D1745C29DFED9C1AF22B67A7403DD6 SWAP1 DUP2 OR SWAP1 SWAP2 SSTORE PUSH1 0x7 DUP1 SLOAD SWAP1 SWAP3 AND OR SWAP1 SSTORE PUSH3 0x388 JUMP JUMPDEST PUSH1 0x5 DUP1 SLOAD PUSH1 0x1 PUSH1 0x1 PUSH1 0xA0 SHL SUB NOT SWAP1 DUP2 AND PUSH20 0x58EC63D31B8E4D6624B5C88338027A54BE1AE28A OR SWAP1 SWAP2 SSTORE PUSH1 0x6 DUP1 SLOAD DUP3 AND PUSH20 0x6300811567BED7D69B5AC271060A7E298F99FDDD OR SWAP1 SSTORE PUSH1 0x7 DUP1 SLOAD SWAP1 SWAP2 AND PUSH20 0x8D95D56436EB58EE3F9209E8CC4BFD59CFBE8B87 OR SWAP1 SSTORE JUMPDEST PUSH3 0x396 PUSH1 0x12 PUSH1 0xA PUSH3 0x5B3 JUMP JUMPDEST PUSH3 0x3A6 SWAP1 PUSH4 0x5B8D800 PUSH3 0x5CB JUMP JUMPDEST PUSH1 0xE0 MLOAD PUSH1 0x1 PUSH1 0x1 PUSH1 0xA0 SHL SUB AND PUSH1 0x0 SWAP1 DUP2 MSTORE PUSH1 0x14 PUSH1 0x20 MSTORE PUSH1 0x40 SWAP1 KECCAK256 SSTORE PUSH3 0x3CF PUSH1 0x12 PUSH1 0xA PUSH3 0x5B3 JUMP JUMPDEST PUSH3 0x3DE SWAP1 PUSH3 0x3D0900 PUSH3 0x5CB JUMP JUMPDEST ADDRESS PUSH1 0x0 SWAP1 DUP2 MSTORE PUSH1 0x14 PUSH1 0x20 MSTORE PUSH1 0x40 DUP2 KECCAK256 SWAP2 SWAP1 SWAP2 SSTORE PUSH1 0xE0 MLOAD PUSH1 0x1 PUSH1 0x1 PUSH1 0xA0 SHL SUB AND SWAP1 PUSH1 0x0 DUP1 MLOAD PUSH1 0x20 PUSH3 0x6668 DUP4 CODECOPY DUP2 MLOAD SWAP2 MSTORE PUSH3 0x41C PUSH1 0x12 PUSH1 0xA PUSH3 0x5B3 JUMP JUMPDEST PUSH3 0x42C SWAP1 PUSH4 0x5B8D800 PUSH3 0x5CB JUMP JUMPDEST PUSH1 0x40 MLOAD SWAP1 DUP2 MSTORE PUSH1 0x20 ADD PUSH1 0x40 MLOAD DUP1 SWAP2 SUB SWAP1 LOG3 ADDRESS PUSH1 0x0 PUSH1 0x0 DUP1 MLOAD PUSH1 0x20 PUSH3 0x6668 DUP4 CODECOPY DUP2 MLOAD SWAP2 MSTORE PUSH3 0x45E PUSH1 0x12 PUSH1 0xA PUSH3 0x5B3 JUMP JUMPDEST PUSH3 0x46D SWAP1 PUSH3 0x3D0900 PUSH3 0x5CB JUMP JUMPDEST PUSH1 0x40 MLOAD SWAP1 DUP2 MSTORE PUSH1 0x20 ADD PUSH1 0x40 MLOAD DUP1 SWAP2 SUB SWAP1 LOG3 PUSH3 0x5E5 JUMP JUMPDEST PUSH4 0x4E487B71 PUSH1 0xE0 SHL PUSH1 0x0 MSTORE PUSH1 0x11 PUSH1 0x4 MSTORE PUSH1 0x24 PUSH1 0x0 REVERT JUMPDEST DUP1 DUP3 ADD DUP1 DUP3 GT ISZERO PUSH3 0x4B0 JUMPI PUSH3 0x4B0 PUSH3 0x484 JUMP JUMPDEST SWAP3 SWAP2 POP POP JUMP JUMPDEST PUSH1 0x1 DUP2 DUP2 JUMPDEST DUP1 DUP6 GT ISZERO PUSH3 0x4F7 JUMPI DUP2 PUSH1 0x0 NOT DIV DUP3 GT ISZERO PUSH3 0x4DB JUMPI PUSH3 0x4DB PUSH3 0x484 JUMP JUMPDEST DUP1 DUP6 AND ISZERO PUSH3 0x4E9 JUMPI SWAP2 DUP2 MUL SWAP2 JUMPDEST SWAP4 DUP5 SHR SWAP4 SWAP1 DUP1 MUL SWAP1 PUSH3 0x4BB JUMP JUMPDEST POP SWAP3 POP SWAP3 SWAP1 POP JUMP JUMPDEST PUSH1 0x0 DUP3 PUSH3 0x510 JUMPI POP PUSH1 0x1 PUSH3 0x4B0 JUMP JUMPDEST DUP2 PUSH3 0x51F JUMPI POP PUSH1 0x0 PUSH3 0x4B0 JUMP JUMPDEST DUP2 PUSH1 0x1 DUP2 EQ PUSH3 0x538 JUMPI PUSH1 0x2 DUP2 EQ PUSH3 0x543 JUMPI PUSH3 0x563 JUMP JUMPDEST PUSH1 0x1 SWAP2 POP POP PUSH3 0x4B0 JUMP JUMPDEST PUSH1 0xFF DUP5 GT ISZERO PUSH3 0x557 JUMPI PUSH3 0x557 PUSH3 0x484 JUMP JUMPDEST POP POP PUSH1 0x1 DUP3 SHL PUSH3 0x4B0 JUMP JUMPDEST POP PUSH1 0x20 DUP4 LT PUSH2 0x133 DUP4 LT AND PUSH1 0x4E DUP5 LT PUSH1 0xB DUP5 LT AND OR ISZERO PUSH3 0x588 JUMPI POP DUP2 DUP2 EXP PUSH3 0x4B0 JUMP JUMPDEST PUSH3 0x594 DUP4 DUP4 PUSH3 0x4B6 JUMP JUMPDEST DUP1 PUSH1 0x0 NOT DIV DUP3 GT ISZERO PUSH3 0x5AB JUMPI PUSH3 0x5AB PUSH3 0x484 JUMP JUMPDEST MUL SWAP4 SWAP3 POP POP POP JUMP JUMPDEST PUSH1 0x0 PUSH3 0x5C4 PUSH1 0xFF DUP5 AND DUP4 PUSH3 0x4FF JUMP JUMPDEST SWAP4 SWAP3 POP POP POP JUMP JUMPDEST DUP1 DUP3 MUL DUP2 ISZERO DUP3 DUP3 DIV DUP5 EQ OR PUSH3 0x4B0 JUMPI PUSH3 0x4B0 PUSH3 0x484 JUMP JUMPDEST PUSH1 0x80 MLOAD PUSH1 0xA0 MLOAD PUSH1 0xC0 MLOAD PUSH1 0xE0 MLOAD PUSH2 0x100 MLOAD PUSH2 0x120 MLOAD PUSH2 0x140 MLOAD PUSH2 0x5ECA PUSH3 0x79E PUSH1 0x0 CODECOPY PUSH1 0x0 DUP2 DUP2 PUSH2 0x7B6 ADD MSTORE DUP2 DUP2 PUSH2 0x4C01 ADD MSTORE DUP2 DUP2 PUSH2 0x4C5E ADD MSTORE DUP2 DUP2 PUSH2 0x4CD1 ADD MSTORE DUP2 DUP2 PUSH2 0x4D32 ADD MSTORE PUSH2 0x4D7A ADD MSTORE PUSH1 0x0 DUP2 DUP2 PUSH2 0x78C ADD MSTORE DUP2 DUP2 PUSH2 0x4A1D ADD MSTORE DUP2 DUP2 PUSH2 0x4A7A ADD MSTORE DUP2 DUP2 PUSH2 0x4AEC ADD MSTORE DUP2 DUP2 PUSH2 0x4B4B ADD MSTORE PUSH2 0x4B93 ADD MSTORE PUSH1 0x0 DUP2 DUP2 PUSH2 0x764 ADD MSTORE DUP2 DUP2 PUSH2 0x4835 ADD MSTORE DUP2 DUP2 PUSH2 0x4892 ADD MSTORE DUP2 DUP2 PUSH2 0x4905 ADD MSTORE DUP2 DUP2 PUSH2 0x4966 ADD MSTORE PUSH2 0x49AE ADD MSTORE PUSH1 0x0 DUP2 DUP2 PUSH2 0x73F ADD MSTORE DUP2 DUP2 PUSH2 0x4868 ADD MSTORE DUP2 DUP2 PUSH2 0x4A50 ADD MSTORE PUSH2 0x4C34 ADD MSTORE PUSH1 0x0 PUSH2 0xB36 ADD MSTORE PUSH1 0x0 DUP2 DUP2 PUSH2 0x4DF ADD MSTORE DUP2 DUP2 PUSH2 0x9E3 ADD MSTORE DUP2 DUP2 PUSH2 0x3E32 ADD MSTORE DUP2 DUP2 PUSH2 0x3E63 ADD MSTORE PUSH2 0x52B5 ADD MSTORE PUSH1 0x0 DUP2 DUP2 PUSH2 0xAE8 ADD MSTORE DUP2 DUP2 PUSH2 0x109F ADD MSTORE DUP2 DUP2 PUSH2 0x1311 ADD MSTORE DUP2 DUP2 PUSH2 0x1437 ADD MSTORE DUP2 DUP2 PUSH2 0x1580 ADD MSTORE DUP2 DUP2 PUSH2 0x1736 ADD MSTORE DUP2 DUP2 PUSH2 0x1829 ADD MSTORE DUP2 DUP2 PUSH2 0x1B86 ADD MSTORE DUP2 DUP2 PUSH2 0x1CB7 ADD MSTORE DUP2 DUP2 PUSH2 0x1EE8 ADD MSTORE DUP2 DUP2 PUSH2 0x2084 ADD MSTORE DUP2 DUP2 PUSH2 0x2402 ADD MSTORE DUP2 DUP2 PUSH2 0x2623 ADD MSTORE DUP2 DUP2 PUSH2 0x272F ADD MSTORE DUP2 DUP2 PUSH2 0x29AA ADD MSTORE DUP2 DUP2 PUSH2 0x2C82 ADD MSTORE DUP2 DUP2 PUSH2 0x2EC9 ADD MSTORE DUP2 DUP2 PUSH2 0x3091 ADD MSTORE DUP2 DUP2 PUSH2 0x3467 ADD MSTORE DUP2 DUP2 PUSH2 0x37D5 ADD MSTORE DUP2 DUP2 PUSH2 0x3B20 ADD MSTORE DUP2 DUP2 PUSH2 0x3E92 ADD MSTORE DUP2 DUP2 PUSH2 0x4187 ADD MSTORE DUP2 DUP2 PUSH2 0x43E9 ADD MSTORE DUP2 DUP2 PUSH2 0x448C ADD MSTORE DUP2 DUP2 PUSH2 0x4602 ADD MSTORE DUP2 DUP2 PUSH2 0x465D ADD MSTORE DUP2 DUP2 PUSH2 0x577C ADD MSTORE PUSH2 0x5815 ADD MSTORE PUSH2 0x5ECA PUSH1 0x0 RETURN INVALID PUSH1 0x80 PUSH1 0x40 MSTORE PUSH1 0x4 CALLDATASIZE LT PUSH2 0x4C4 JUMPI PUSH1 0x0 CALLDATALOAD PUSH1 0xE0 SHR DUP1 PUSH4 0x8E519677 GT PUSH2 0x276 JUMPI DUP1 PUSH4 0xC345ADC7 GT PUSH2 0x14F JUMPI DUP1 PUSH4 0xE5800210 GT PUSH2 0xC1 JUMPI DUP1 PUSH4 0xF455BCC2 GT PUSH2 0x85 JUMPI DUP1 PUSH4 0xF455BCC2 EQ PUSH2 0xFF8 JUMPI DUP1 PUSH4 0xF7EE7A43 EQ PUSH2 0x1019 JUMPI DUP1 PUSH4 0xF8687091 EQ PUSH2 0x1030 JUMPI DUP1 PUSH4 0xF92142E2 EQ PUSH2 0xB58 JUMPI DUP1 PUSH4 0xFA9B7018 EQ PUSH2 0x1045 JUMPI DUP1 PUSH4 0xFE575A87 EQ PUSH2 0x1064 JUMPI PUSH1 0x0 DUP1 REVERT JUMPDEST DUP1 PUSH4 0xE5800210 EQ PUSH2 0xF51 JUMPI DUP1 PUSH4 0xE75B2073 EQ PUSH2 0xF6B JUMPI DUP1 PUSH4 0xE7A486FB EQ PUSH2 0xF98 JUMPI DUP1 PUSH4 0xEE81E622 EQ PUSH2 0xFB8 JUMPI DUP1 PUSH4 0xF30AFD72 EQ PUSH2 0xFD8 JUMPI PUSH1 0x0 DUP1 REVERT JUMPDEST DUP1 PUSH4 0xCFE3989C GT PUSH2 0x113 JUMPI DUP1 PUSH4 0xCFE3989C EQ PUSH2 0xE9A JUMPI DUP1 PUSH4 0xD73792A9 EQ PUSH2 0xEAF JUMPI DUP1 PUSH4 0xD859C5A6 EQ PUSH2 0xEC6 JUMPI DUP1 PUSH4 0xDA35C664 EQ PUSH2 0xEE6 JUMPI DUP1 PUSH4 0xDD62ED3E EQ PUSH2 0xEFC JUMPI DUP1 PUSH4 0xDF7787A4 EQ PUSH2 0xF34 JUMPI PUSH1 0x0 DUP1 REVERT JUMPDEST DUP1 PUSH4 0xC345ADC7 EQ PUSH2 0xE10 JUMPI DUP1 PUSH4 0xC58E186B EQ PUSH2 0xE25 JUMPI DUP1 PUSH4 0xC71E2825 EQ PUSH2 0xE45 JUMPI DUP1 PUSH4 0xC9B49C28 EQ PUSH2 0xE65 JUMPI DUP1 PUSH4 0xCAB21623 EQ PUSH2 0xE7A JUMPI PUSH1 0x0 DUP1 REVERT JUMPDEST DUP1 PUSH4 0xA9059CBB GT PUSH2 0x1E8 JUMPI DUP1 PUSH4 0xB6CF146C GT PUSH2 0x1AC JUMPI DUP1 PUSH4 0xB6CF146C EQ PUSH2 0xCF9 JUMPI DUP1 PUSH4 0xB6EA231E EQ PUSH2 0xD19 JUMPI DUP1 PUSH4 0xBAEE0BAD EQ PUSH2 0xD80 JUMPI DUP1 PUSH4 0xBE597D3D EQ PUSH2 0xDA0 JUMPI DUP1 PUSH4 0xBEB0A416 EQ PUSH2 0xDB5 JUMPI DUP1 PUSH4 0xC0E5DADA EQ PUSH2 0xDF0 JUMPI PUSH1 0x0 DUP1 REVERT JUMPDEST DUP1 PUSH4 0xA9059CBB EQ PUSH2 0xC77 JUMPI DUP1 PUSH4 0xAA719A3C EQ PUSH2 0xC97 JUMPI DUP1 PUSH4 0xB187BD26 EQ PUSH2 0xCB7 JUMPI DUP1 PUSH4 0xB3670038 EQ PUSH2 0xCCE JUMPI DUP1 PUSH4 0xB51FDDFB EQ PUSH2 0xCE4 JUMPI PUSH1 0x0 DUP1 REVERT JUMPDEST DUP1 PUSH4 0x9D249A18 GT PUSH2 0x23A JUMPI DUP1 PUSH4 0x9D249A18 EQ PUSH2 0xBBF JUMPI DUP1 PUSH4 0x9D463520 EQ PUSH2 0xBDC JUMPI DUP1 PUSH4 0x9F357D93 EQ PUSH2 0xBF2 JUMPI DUP1 PUSH4 0xA20CC635 EQ PUSH2 0xC12 JUMPI DUP1 PUSH4 0xA457C2D7 EQ PUSH2 0xC32 JUMPI DUP1 PUSH4 0xA4FCD4C2 EQ PUSH2 0xC52 JUMPI PUSH1 0x0 DUP1 REVERT JUMPDEST DUP1 PUSH4 0x8E519677 EQ PUSH2 0xB0A JUMPI DUP1 PUSH4 0x92108C86 EQ PUSH2 0xB24 JUMPI DUP1 PUSH4 0x92FDE373 EQ PUSH2 0xB58 JUMPI DUP1 PUSH4 0x95D89B41 EQ PUSH2 0xB6F JUMPI DUP1 PUSH4 0x975AFBC0 EQ PUSH2 0xB9F JUMPI PUSH1 0x0 DUP1 REVERT JUMPDEST DUP1 PUSH4 0x3BF8FE4C GT PUSH2 0x3A8 JUMPI DUP1 PUSH4 0x66716790 GT PUSH2 0x31A JUMPI DUP1 PUSH4 0x77EBD0E9 GT PUSH2 0x2DE JUMPI DUP1 PUSH4 0x77EBD0E9 EQ PUSH2 0xA47 JUMPI DUP1 PUSH4 0x79E8A2B7 EQ PUSH2 0xA67 JUMPI DUP1 PUSH4 0x8456CB59 EQ PUSH2 0xA87 JUMPI DUP1 PUSH4 0x888933DA EQ PUSH2 0xA9C JUMPI DUP1 PUSH4 0x8C846502 EQ PUSH2 0xAB6 JUMPI DUP1 PUSH4 0x8DA5CB5B EQ PUSH2 0xAD6 JUMPI PUSH1 0x0 DUP1 REVERT JUMPDEST DUP1 PUSH4 0x66716790 EQ PUSH2 0x99B JUMPI DUP1 PUSH4 0x6E99D52F EQ PUSH2 0x9BB JUMPI DUP1 PUSH4 0x6FD8FB7A EQ PUSH2 0x9D1 JUMPI DUP1 PUSH4 0x70330AE1 EQ PUSH2 0xA05 JUMPI DUP1 PUSH4 0x70A08231 EQ PUSH2 0xA1A JUMPI PUSH1 0x0 DUP1 REVERT JUMPDEST DUP1 PUSH4 0x535CBFCD GT PUSH2 0x36C JUMPI DUP1 PUSH4 0x535CBFCD EQ PUSH2 0x8E1 JUMPI DUP1 PUSH4 0x537DF3B6 EQ PUSH2 0x8F6 JUMPI DUP1 PUSH4 0x57376198 EQ PUSH2 0x916 JUMPI DUP1 PUSH4 0x5A5759B4 EQ PUSH2 0x936 JUMPI DUP1 PUSH4 0x5C9A05B8 EQ PUSH2 0x956 JUMPI DUP1 PUSH4 0x5DAB0FE3 EQ PUSH2 0x986 JUMPI PUSH1 0x0 DUP1 REVERT JUMPDEST DUP1 PUSH4 0x3BF8FE4C EQ PUSH2 0x86D JUMPI DUP1 PUSH4 0x3ED44603 EQ PUSH2 0x882 JUMPI DUP1 PUSH4 0x42966C68 EQ PUSH2 0x897 JUMPI DUP1 PUSH4 0x44C781C9 EQ PUSH2 0x8B7 JUMPI DUP1 PUSH4 0x480DF058 EQ PUSH2 0x8CC JUMPI PUSH1 0x0 DUP1 REVERT JUMPDEST DUP1 PUSH4 0x17E13952 GT PUSH2 0x441 JUMPI DUP1 PUSH4 0x23B872DD GT PUSH2 0x405 JUMPI DUP1 PUSH4 0x23B872DD EQ PUSH2 0x704 JUMPI DUP1 PUSH4 0x2BF9DB79 EQ PUSH2 0x724 JUMPI DUP1 PUSH4 0x313CE567 EQ PUSH2 0x7E6 JUMPI DUP1 PUSH4 0x368F505C EQ PUSH2 0x80D JUMPI DUP1 PUSH4 0x39509351 EQ PUSH2 0x82D JUMPI DUP1 PUSH4 0x3ABC97E5 EQ PUSH2 0x84D JUMPI PUSH1 0x0 DUP1 REVERT JUMPDEST DUP1 PUSH4 0x17E13952 EQ PUSH2 0x682 JUMPI DUP1 PUSH4 0x18160DDD EQ PUSH2 0x6A2 JUMPI DUP1 PUSH4 0x1D111D13 EQ PUSH2 0x6B8 JUMPI DUP1 PUSH4 0x21B4DEEE EQ PUSH2 0x6CD JUMPI DUP1 PUSH4 0x23876064 EQ PUSH2 0x6E4 JUMPI PUSH1 0x0 DUP1 REVERT JUMPDEST DUP1 PUSH4 0x107BD32F GT PUSH2 0x488 JUMPI DUP1 PUSH4 0x107BD32F EQ PUSH2 0x5D4 JUMPI DUP1 PUSH4 0x1451DD43 EQ PUSH2 0x5F8 JUMPI DUP1 PUSH4 0x1516DEF7 EQ PUSH2 0x615 JUMPI DUP1 PUSH4 0x153B0D1E EQ PUSH2 0x635 JUMPI DUP1 PUSH4 0x16819578 EQ PUSH2 0x655 JUMPI PUSH1 0x0 DUP1 REVERT JUMPDEST DUP1 PUSH4 0x64A59D0 EQ PUSH2 0x4D0 JUMPI DUP1 PUSH4 0x6FDDE03 EQ PUSH2 0x517 JUMPI DUP1 PUSH4 0x721842E EQ PUSH2 0x55A JUMPI DUP1 PUSH4 0x77F2CFC EQ PUSH2 0x592 JUMPI DUP1 PUSH4 0x95EA7B3 EQ PUSH2 0x5B4 JUMPI PUSH1 0x0 DUP1 REVERT JUMPDEST CALLDATASIZE PUSH2 0x4CB JUMPI STOP JUMPDEST PUSH1 0x0 DUP1 REVERT JUMPDEST CALLVALUE DUP1 ISZERO PUSH2 0x4DC JUMPI PUSH1 0x0 DUP1 REVERT JUMPDEST POP PUSH32 0x0 TIMESTAMP LT ISZERO JUMPDEST PUSH1 0x40 MLOAD SWAP1 ISZERO ISZERO DUP2 MSTORE PUSH1 0x20 ADD JUMPDEST PUSH1 0x40 MLOAD DUP1 SWAP2 SUB SWAP1 RETURN JUMPDEST CALLVALUE DUP1 ISZERO PUSH2 0x523 JUMPI PUSH1 0x0 DUP1 REVERT JUMPDEST POP PUSH2 0x54D PUSH1 0x40 MLOAD DUP1 PUSH1 0x40 ADD PUSH1 0x40 MSTORE DUP1 PUSH1 0xA DUP2 MSTORE PUSH1 0x20 ADD PUSH10 0x4B43592D6D656D652D31 PUSH1 0xB0 SHL DUP2 MSTORE POP DUP2 JUMP JUMPDEST PUSH1 0x40 MLOAD PUSH2 0x50E SWAP2 SWAP1 PUSH2 0x597A JUMP JUMPDEST CALLVALUE DUP1 ISZERO PUSH2 0x566 JUMPI PUSH1 0x0 DUP1 REVERT JUMPDEST POP PUSH1 0x5 SLOAD PUSH2 0x57A SWAP1 PUSH1 0x1 PUSH1 0x1 PUSH1 0xA0 SHL SUB AND DUP2 JUMP JUMPDEST PUSH1 0x40 MLOAD PUSH1 0x1 PUSH1 0x1 PUSH1 0xA0 SHL SUB SWAP1 SWAP2 AND DUP2 MSTORE PUSH1 0x20 ADD PUSH2 0x50E JUMP JUMPDEST CALLVALUE DUP1 ISZERO PUSH2 0x59E JUMPI PUSH1 0x0 DUP1 REVERT JUMPDEST POP PUSH2 0x5B2 PUSH2 0x5AD CALLDATASIZE PUSH1 0x4 PUSH2 0x59E0 JUMP JUMPDEST PUSH2 0x1094 JUMP JUMPDEST STOP JUMPDEST CALLVALUE DUP1 ISZERO PUSH2 0x5C0 JUMPI PUSH1 0x0 DUP1 REVERT JUMPDEST POP PUSH2 0x502 PUSH2 0x5CF CALLDATASIZE PUSH1 0x4 PUSH2 0x59FD JUMP JUMPDEST PUSH2 0x12AC JUMP JUMPDEST CALLVALUE DUP1 ISZERO PUSH2 0x5E0 JUMPI PUSH1 0x0 DUP1 REVERT JUMPDEST POP PUSH2 0x5EA PUSH1 0x11 SLOAD DUP2 JUMP JUMPDEST PUSH1 0x40 MLOAD SWAP1 DUP2 MSTORE PUSH1 0x20 ADD PUSH2 0x50E JUMP JUMPDEST CALLVALUE DUP1 ISZERO PUSH2 0x604 JUMPI PUSH1 0x0 DUP1 REVERT JUMPDEST POP PUSH2 0x5EA PUSH9 0x6C6B935B8BBD400000 DUP2 JUMP JUMPDEST CALLVALUE DUP1 ISZERO PUSH2 0x621 JUMPI PUSH1 0x0 DUP1 REVERT JUMPDEST POP PUSH1 0xE SLOAD PUSH2 0x57A SWAP1 PUSH1 0x1 PUSH1 0x1 PUSH1 0xA0 SHL SUB AND DUP2 JUMP JUMPDEST CALLVALUE DUP1 ISZERO PUSH2 0x641 JUMPI PUSH1 0x0 DUP1 REVERT JUMPDEST POP PUSH2 0x5B2 PUSH2 0x650 CALLDATASIZE PUSH1 0x4 PUSH2 0x5A37 JUMP JUMPDEST PUSH2 0x1306 JUMP JUMPDEST CALLVALUE DUP1 ISZERO PUSH2 0x661 JUMPI PUSH1 0x0 DUP1 REVERT JUMPDEST POP PUSH2 0x5EA PUSH2 0x670 CALLDATASIZE PUSH1 0x4 PUSH2 0x59E0 JUMP JUMPDEST PUSH1 0x17 PUSH1 0x20 MSTORE PUSH1 0x0 SWAP1 DUP2 MSTORE PUSH1 0x40 SWAP1 KECCAK256 SLOAD DUP2 JUMP JUMPDEST CALLVALUE DUP1 ISZERO PUSH2 0x68E JUMPI PUSH1 0x0 DUP1 REVERT JUMPDEST POP PUSH1 0x8 SLOAD PUSH2 0x57A SWAP1 PUSH1 0x1 PUSH1 0x1 PUSH1 0xA0 SHL SUB AND DUP2 JUMP JUMPDEST CALLVALUE DUP1 ISZERO PUSH2 0x6AE JUMPI PUSH1 0x0 DUP1 REVERT JUMPDEST POP PUSH2 0x5EA PUSH1 0x1 SLOAD DUP2 JUMP JUMPDEST CALLVALUE DUP1 ISZERO PUSH2 0x6C4 JUMPI PUSH1 0x0 DUP1 REVERT JUMPDEST POP PUSH2 0x5B2 PUSH2 0x1575 JUMP JUMPDEST CALLVALUE DUP1 ISZERO PUSH2 0x6D9 JUMPI PUSH1 0x0 DUP1 REVERT JUMPDEST POP PUSH2 0x5EA PUSH3 0x2A300 DUP2 JUMP JUMPDEST CALLVALUE DUP1 ISZERO PUSH2 0x6F0 JUMPI PUSH1 0x0 DUP1 REVERT JUMPDEST POP PUSH2 0x5B2 PUSH2 0x6FF CALLDATASIZE PUSH1 0x4 PUSH2 0x5A37 JUMP JUMPDEST PUSH2 0x181E JUMP JUMPDEST CALLVALUE DUP1 ISZERO PUSH2 0x710 JUMPI PUSH1 0x0 DUP1 REVERT JUMPDEST POP PUSH2 0x502 PUSH2 0x71F CALLDATASIZE PUSH1 0x4 PUSH2 0x5A70 JUMP JUMPDEST PUSH2 0x1A9F JUMP JUMPDEST CALLVALUE DUP1 ISZERO PUSH2 0x730 JUMPI PUSH1 0x0 DUP1 REVERT JUMPDEST POP PUSH1 0x40 DUP1 MLOAD PUSH1 0x1 PUSH1 0x1 PUSH1 0xA0 SHL SUB PUSH32 0x0 DUP2 AND DUP3 MSTORE PUSH32 0x0 DUP2 AND PUSH1 0x20 DUP4 ADD MSTORE PUSH32 0x0 DUP2 AND SWAP3 DUP3 ADD SWAP3 SWAP1 SWAP3 MSTORE PUSH32 0x0 SWAP2 SWAP1 SWAP2 AND PUSH1 0x60 DUP3 ADD MSTORE PUSH1 0x80 ADD PUSH2 0x50E JUMP JUMPDEST CALLVALUE DUP1 ISZERO PUSH2 0x7F2 JUMPI PUSH1 0x0 DUP1 REVERT JUMPDEST POP PUSH2 0x7FB PUSH1 0x12 DUP2 JUMP JUMPDEST PUSH1 0x40 MLOAD PUSH1 0xFF SWAP1 SWAP2 AND DUP2 MSTORE PUSH1 0x20 ADD PUSH2 0x50E JUMP JUMPDEST CALLVALUE DUP1 ISZERO PUSH2 0x819 JUMPI PUSH1 0x0 DUP1 REVERT JUMPDEST POP PUSH1 0xB SLOAD PUSH2 0x57A SWAP1 PUSH1 0x1 PUSH1 0x1 PUSH1 0xA0 SHL SUB AND DUP2 JUMP JUMPDEST CALLVALUE DUP1 ISZERO PUSH2 0x839 JUMPI PUSH1 0x0 DUP1 REVERT JUMPDEST POP PUSH2 0x502 PUSH2 0x848 CALLDATASIZE PUSH1 0x4 PUSH2 0x59FD JUMP JUMPDEST PUSH2 0x1B3F JUMP JUMPDEST CALLVALUE DUP1 ISZERO PUSH2 0x859 JUMPI PUSH1 0x0 DUP1 REVERT JUMPDEST POP PUSH2 0x5B2 PUSH2 0x868 CALLDATASIZE PUSH1 0x4 PUSH2 0x5AFD JUMP JUMPDEST PUSH2 0x1B7B JUMP JUMPDEST CALLVALUE DUP1 ISZERO PUSH2 0x879 JUMPI PUSH1 0x0 DUP1 REVERT JUMPDEST POP PUSH2 0x5B2 PUSH2 0x1E53 JUMP JUMPDEST CALLVALUE DUP1 ISZERO PUSH2 0x88E JUMPI PUSH1 0x0 DUP1 REVERT JUMPDEST POP PUSH2 0x5B2 PUSH2 0x1EDD JUMP JUMPDEST CALLVALUE DUP1 ISZERO PUSH2 0x8A3 JUMPI PUSH1 0x0 DUP1 REVERT JUMPDEST POP PUSH2 0x5B2 PUSH2 0x8B2 CALLDATASIZE PUSH1 0x4 PUSH2 0x5B54 JUMP JUMPDEST PUSH2 0x2079 JUMP JUMPDEST CALLVALUE DUP1 ISZERO PUSH2 0x8C3 JUMPI PUSH1 0x0 DUP1 REVERT JUMPDEST POP PUSH2 0x5EA PUSH2 0x224F JUMP JUMPDEST CALLVALUE DUP1 ISZERO PUSH2 0x8D8 JUMPI PUSH1 0x0 DUP1 REVERT JUMPDEST POP PUSH2 0x5EA PUSH1 0x1E DUP2 JUMP JUMPDEST CALLVALUE DUP1 ISZERO PUSH2 0x8ED JUMPI PUSH1 0x0 DUP1 REVERT JUMPDEST POP PUSH2 0x5EA PUSH2 0x2295 JUMP JUMPDEST CALLVALUE DUP1 ISZERO PUSH2 0x902 JUMPI PUSH1 0x0 DUP1 REVERT JUMPDEST POP PUSH2 0x5B2 PUSH2 0x911 CALLDATASIZE PUSH1 0x4 PUSH2 0x59E0 JUMP JUMPDEST PUSH2 0x2308 JUMP JUMPDEST CALLVALUE DUP1 ISZERO PUSH2 0x922 JUMPI PUSH1 0x0 DUP1 REVERT JUMPDEST POP PUSH2 0x5B2 PUSH2 0x931 CALLDATASIZE PUSH1 0x4 PUSH2 0x59FD JUMP JUMPDEST PUSH2 0x23F7 JUMP JUMPDEST CALLVALUE DUP1 ISZERO PUSH2 0x942 JUMPI PUSH1 0x0 DUP1 REVERT JUMPDEST POP PUSH2 0x502 PUSH2 0x951 CALLDATASIZE PUSH1 0x4 PUSH2 0x59E0 JUMP JUMPDEST PUSH2 0x272B JUMP JUMPDEST CALLVALUE DUP1 ISZERO PUSH2 0x962 JUMPI PUSH1 0x0 DUP1 REVERT JUMPDEST POP PUSH2 0x502 PUSH2 0x971 CALLDATASIZE PUSH1 0x4 PUSH2 0x59E0 JUMP JUMPDEST PUSH1 0x12 PUSH1 0x20 MSTORE PUSH1 0x0 SWAP1 DUP2 MSTORE PUSH1 0x40 SWAP1 KECCAK256 SLOAD PUSH1 0xFF AND DUP2 JUMP JUMPDEST CALLVALUE DUP1 ISZERO PUSH2 0x992 JUMPI PUSH1 0x0 DUP1 REVERT JUMPDEST POP PUSH2 0x5EA PUSH1 0x32 DUP2 JUMP JUMPDEST CALLVALUE DUP1 ISZERO PUSH2 0x9A7 JUMPI PUSH1 0x0 DUP1 REVERT JUMPDEST POP PUSH2 0x57A PUSH2 0x9B6 CALLDATASIZE PUSH1 0x4 PUSH2 0x59E0 JUMP JUMPDEST PUSH2 0x2898 JUMP JUMPDEST CALLVALUE DUP1 ISZERO PUSH2 0x9C7 JUMPI PUSH1 0x0 DUP1 REVERT JUMPDEST POP PUSH2 0x5EA PUSH2 0x1C20 DUP2 JUMP JUMPDEST CALLVALUE DUP1 ISZERO PUSH2 0x9DD JUMPI PUSH1 0x0 DUP1 REVERT JUMPDEST POP PUSH2 0x5EA PUSH32 0x0 DUP2 JUMP JUMPDEST CALLVALUE DUP1 ISZERO PUSH2 0xA11 JUMPI PUSH1 0x0 DUP1 REVERT JUMPDEST POP PUSH2 0x5B2 PUSH2 0x299F JUMP JUMPDEST CALLVALUE DUP1 ISZERO PUSH2 0xA26 JUMPI PUSH1 0x0 DUP1 REVERT JUMPDEST POP PUSH2 0x5EA PUSH2 0xA35 CALLDATASIZE PUSH1 0x4 PUSH2 0x59E0 JUMP JUMPDEST PUSH1 0x14 PUSH1 0x20 MSTORE PUSH1 0x0 SWAP1 DUP2 MSTORE PUSH1 0x40 SWAP1 KECCAK256 SLOAD DUP2 JUMP JUMPDEST CALLVALUE DUP1 ISZERO PUSH2 0xA53 JUMPI PUSH1 0x0 DUP1 REVERT JUMPDEST POP PUSH2 0x5B2 PUSH2 0xA62 CALLDATASIZE PUSH1 0x4 PUSH2 0x5B6D JUMP JUMPDEST PUSH2 0x2B06 JUMP JUMPDEST CALLVALUE DUP1 ISZERO PUSH2 0xA73 JUMPI PUSH1 0x0 DUP1 REVERT JUMPDEST POP PUSH1 0x10 SLOAD PUSH2 0x57A SWAP1 PUSH1 0x1 PUSH1 0x1 PUSH1 0xA0 SHL SUB AND DUP2 JUMP JUMPDEST CALLVALUE DUP1 ISZERO PUSH2 0xA93 JUMPI PUSH1 0x0 DUP1 REVERT JUMPDEST POP PUSH2 0x5B2 PUSH2 0x2C77 JUMP JUMPDEST CALLVALUE DUP1 ISZERO PUSH2 0xAA8 JUMPI PUSH1 0x0 DUP1 REVERT JUMPDEST POP PUSH1 0x2 SLOAD PUSH2 0x502 SWAP1 PUSH1 0xFF AND DUP2 JUMP JUMPDEST CALLVALUE DUP1 ISZERO PUSH2 0xAC2 JUMPI PUSH1 0x0 DUP1 REVERT JUMPDEST POP PUSH1 0xF SLOAD PUSH2 0x57A SWAP1 PUSH1 0x1 PUSH1 0x1 PUSH1 0xA0 SHL SUB AND DUP2 JUMP JUMPDEST CALLVALUE DUP1 ISZERO PUSH2 0xAE2 JUMPI PUSH1 0x0 DUP1 REVERT JUMPDEST POP PUSH2 0x57A PUSH32 0x0 DUP2 JUMP JUMPDEST CALLVALUE DUP1 ISZERO PUSH2 0xB16 JUMPI PUSH1 0x0 DUP1 REVERT JUMPDEST POP PUSH1 0x13 SLOAD PUSH2 0x502 SWAP1 PUSH1 0xFF AND DUP2 JUMP JUMPDEST CALLVALUE DUP1 ISZERO PUSH2 0xB30 JUMPI PUSH1 0x0 DUP1 REVERT JUMPDEST POP PUSH2 0x502 PUSH32 0x0 DUP2 JUMP JUMPDEST CALLVALUE DUP1 ISZERO PUSH2 0xB64 JUMPI PUSH1 0x0 DUP1 REVERT JUMPDEST POP PUSH2 0x5EA PUSH3 0x15180 DUP2 JUMP JUMPDEST CALLVALUE DUP1 ISZERO PUSH2 0xB7B JUMPI PUSH1 0x0 DUP1 REVERT JUMPDEST POP PUSH2 0x54D PUSH1 0x40 MLOAD DUP1 PUSH1 0x40 ADD PUSH1 0x40 MSTORE DUP1 PUSH1 0x4 DUP2 MSTORE PUSH1 0x20 ADD PUSH4 0x4B435931 PUSH1 0xE0 SHL DUP2 MSTORE POP DUP2 JUMP JUMPDEST CALLVALUE DUP1 ISZERO PUSH2 0xBAB JUMPI PUSH1 0x0 DUP1 REVERT JUMPDEST POP PUSH1 0xC SLOAD PUSH2 0x57A SWAP1 PUSH1 0x1 PUSH1 0x1 PUSH1 0xA0 SHL SUB AND DUP2 JUMP JUMPDEST CALLVALUE DUP1 ISZERO PUSH2 0xBCB JUMPI PUSH1 0x0 DUP1 REVERT JUMPDEST POP PUSH2 0x5EA PUSH9 0x56BC75E2D63100000 DUP2 JUMP JUMPDEST CALLVALUE DUP1 ISZERO PUSH2 0xBE8 JUMPI PUSH1 0x0 DUP1 REVERT JUMPDEST POP PUSH2 0x5EA PUSH1 0x19 SLOAD DUP2 JUMP JUMPDEST CALLVALUE DUP1 ISZERO PUSH2 0xBFE JUMPI PUSH1 0x0 DUP1 REVERT JUMPDEST POP PUSH1 0xA SLOAD PUSH2 0x57A SWAP1 PUSH1 0x1 PUSH1 0x1 PUSH1 0xA0 SHL SUB AND DUP2 JUMP JUMPDEST CALLVALUE DUP1 ISZERO PUSH2 0xC1E JUMPI PUSH1 0x0 DUP1 REVERT JUMPDEST POP PUSH1 0x4 SLOAD PUSH2 0x57A SWAP1 PUSH1 0x1 PUSH1 0x1 PUSH1 0xA0 SHL SUB AND DUP2 JUMP JUMPDEST CALLVALUE DUP1 ISZERO PUSH2 0xC3E JUMPI PUSH1 0x0 DUP1 REVERT JUMPDEST POP PUSH2 0x502 PUSH2 0xC4D CALLDATASIZE PUSH1 0x4 PUSH2 0x59FD JUMP JUMPDEST PUSH2 0x2DDC JUMP JUMPDEST CALLVALUE DUP1 ISZERO PUSH2 0xC5E JUMPI PUSH1 0x0 DUP1 REVERT JUMPDEST POP PUSH2 0xC67 PUSH2 0x2E57 JUMP JUMPDEST PUSH1 0x40 MLOAD PUSH2 0x50E SWAP5 SWAP4 SWAP3 SWAP2 SWAP1 PUSH2 0x5BAF JUMP JUMPDEST CALLVALUE DUP1 ISZERO PUSH2 0xC83 JUMPI PUSH1 0x0 DUP1 REVERT JUMPDEST POP PUSH2 0x502 PUSH2 0xC92 CALLDATASIZE PUSH1 0x4 PUSH2 0x59FD JUMP JUMPDEST PUSH2 0x2EAA JUMP JUMPDEST CALLVALUE DUP1 ISZERO PUSH2 0xCA3 JUMPI PUSH1 0x0 DUP1 REVERT JUMPDEST POP PUSH1 0x9 SLOAD PUSH2 0x57A SWAP1 PUSH1 0x1 PUSH1 0x1 PUSH1 0xA0 SHL SUB AND DUP2 JUMP JUMPDEST CALLVALUE DUP1 ISZERO PUSH2 0xCC3 JUMPI PUSH1 0x0 DUP1 REVERT JUMPDEST POP PUSH1 0x3 SLOAD TIMESTAMP LT PUSH2 0x502 JUMP JUMPDEST CALLVALUE DUP1 ISZERO PUSH2 0xCDA JUMPI PUSH1 0x0 DUP1 REVERT JUMPDEST POP PUSH2 0x5EA PUSH1 0x3 SLOAD DUP2 JUMP JUMPDEST CALLVALUE DUP1 ISZERO PUSH2 0xCF0 JUMPI PUSH1 0x0 DUP1 REVERT JUMPDEST POP PUSH2 0x5B2 PUSH2 0x2EBE JUMP JUMPDEST CALLVALUE DUP1 ISZERO PUSH2 0xD05 JUMPI PUSH1 0x0 DUP1 REVERT JUMPDEST POP PUSH2 0x5B2 PUSH2 0xD14 CALLDATASIZE PUSH1 0x4 PUSH2 0x5B54 JUMP JUMPDEST PUSH2 0x3086 JUMP JUMPDEST CALLVALUE DUP1 ISZERO PUSH2 0xD25 JUMPI PUSH1 0x0 DUP1 REVERT JUMPDEST POP PUSH2 0xD5E PUSH2 0xD34 CALLDATASIZE PUSH1 0x4 PUSH2 0x5B54 JUMP JUMPDEST PUSH1 0x1A PUSH1 0x20 MSTORE PUSH1 0x0 SWAP1 DUP2 MSTORE PUSH1 0x40 SWAP1 KECCAK256 DUP1 SLOAD PUSH1 0x1 DUP3 ADD SLOAD PUSH1 0x2 DUP4 ADD SLOAD PUSH1 0x3 SWAP1 SWAP4 ADD SLOAD SWAP2 SWAP3 SWAP1 SWAP2 PUSH1 0xFF AND DUP5 JUMP JUMPDEST PUSH1 0x40 DUP1 MLOAD SWAP5 DUP6 MSTORE PUSH1 0x20 DUP6 ADD SWAP4 SWAP1 SWAP4 MSTORE SWAP2 DUP4 ADD MSTORE ISZERO ISZERO PUSH1 0x60 DUP3 ADD MSTORE PUSH1 0x80 ADD PUSH2 0x50E JUMP JUMPDEST CALLVALUE DUP1 ISZERO PUSH2 0xD8C JUMPI PUSH1 0x0 DUP1 REVERT JUMPDEST POP PUSH1 0x6 SLOAD PUSH2 0x57A SWAP1 PUSH1 0x1 PUSH1 0x1 PUSH1 0xA0 SHL SUB AND DUP2 JUMP JUMPDEST CALLVALUE DUP1 ISZERO PUSH2 0xDAC JUMPI PUSH1 0x0 DUP1 REVERT JUMPDEST POP PUSH2 0x5B2 PUSH2 0x33D5 JUMP JUMPDEST CALLVALUE DUP1 ISZERO PUSH2 0xDC1 JUMPI PUSH1 0x0 DUP1 REVERT JUMPDEST POP PUSH2 0x54D PUSH1 0x40 MLOAD DUP1 PUSH1 0x40 ADD PUSH1 0x40 MSTORE DUP1 PUSH1 0xF DUP2 MSTORE PUSH1 0x20 ADD PUSH15 0x68747470733A2F2F6B6379312E696F PUSH1 0x88 SHL DUP2 MSTORE POP DUP2 JUMP JUMPDEST CALLVALUE DUP1 ISZERO PUSH2 0xDFC JUMPI PUSH1 0x0 DUP1 REVERT JUMPDEST POP PUSH2 0x5B2 PUSH2 0xE0B CALLDATASIZE PUSH1 0x4 PUSH2 0x5C0C JUMP JUMPDEST PUSH2 0x345C JUMP JUMPDEST CALLVALUE DUP1 ISZERO PUSH2 0xE1C JUMPI PUSH1 0x0 DUP1 REVERT JUMPDEST POP PUSH2 0x5B2 PUSH2 0x374A JUMP JUMPDEST CALLVALUE DUP1 ISZERO PUSH2 0xE31 JUMPI PUSH1 0x0 DUP1 REVERT JUMPDEST POP PUSH1 0x7 SLOAD PUSH2 0x57A SWAP1 PUSH1 0x1 PUSH1 0x1 PUSH1 0xA0 SHL SUB AND DUP2 JUMP JUMPDEST CALLVALUE DUP1 ISZERO PUSH2 0xE51 JUMPI PUSH1 0x0 DUP1 REVERT JUMPDEST POP PUSH2 0x502 PUSH2 0xE60 CALLDATASIZE PUSH1 0x4 PUSH2 0x59E0 JUMP JUMPDEST PUSH2 0x37D1 JUMP JUMPDEST CALLVALUE DUP1 ISZERO PUSH2 0xE71 JUMPI PUSH1 0x0 DUP1 REVERT JUMPDEST POP PUSH2 0x5EA PUSH2 0x38FB JUMP JUMPDEST CALLVALUE DUP1 ISZERO PUSH2 0xE86 JUMPI PUSH1 0x0 DUP1 REVERT JUMPDEST POP PUSH2 0x5B2 PUSH2 0xE95 CALLDATASIZE PUSH1 0x4 PUSH2 0x5C3A JUMP JUMPDEST PUSH2 0x3925 JUMP JUMPDEST CALLVALUE DUP1 ISZERO PUSH2 0xEA6 JUMPI PUSH1 0x0 DUP1 REVERT JUMPDEST POP PUSH2 0x5EA PUSH2 0x3E2E JUMP JUMPDEST CALLVALUE DUP1 ISZERO PUSH2 0xEBB JUMPI PUSH1 0x0 DUP1 REVERT JUMPDEST POP PUSH2 0x5EA PUSH3 0x186A0 DUP2 JUMP JUMPDEST CALLVALUE DUP1 ISZERO PUSH2 0xED2 JUMPI PUSH1 0x0 DUP1 REVERT JUMPDEST POP PUSH2 0x5B2 PUSH2 0xEE1 CALLDATASIZE PUSH1 0x4 PUSH2 0x5AFD JUMP JUMPDEST PUSH2 0x3E87 JUMP JUMPDEST CALLVALUE DUP1 ISZERO PUSH2 0xEF2 JUMPI PUSH1 0x0 DUP1 REVERT JUMPDEST POP PUSH2 0x5EA PUSH1 0x1B SLOAD DUP2 JUMP JUMPDEST CALLVALUE DUP1 ISZERO PUSH2 0xF08 JUMPI PUSH1 0x0 DUP1 REVERT JUMPDEST POP PUSH2 0x5EA PUSH2 0xF17 CALLDATASIZE PUSH1 0x4 PUSH2 0x5C0C JUMP JUMPDEST PUSH1 0x15 PUSH1 0x20 SWAP1 DUP2 MSTORE PUSH1 0x0 SWAP3 DUP4 MSTORE PUSH1 0x40 DUP1 DUP5 KECCAK256 SWAP1 SWAP2 MSTORE SWAP1 DUP3 MSTORE SWAP1 KECCAK256 SLOAD DUP2 JUMP JUMPDEST CALLVALUE DUP1 ISZERO PUSH2 0xF40 JUMPI PUSH1 0x0 DUP1 REVERT JUMPDEST POP PUSH2 0x5EA PUSH9 0xD8D726B7177A800000 DUP2 JUMP JUMPDEST CALLVALUE DUP1 ISZERO PUSH2 0xF5D JUMPI PUSH1 0x0 DUP1 REVERT JUMPDEST POP PUSH1 0x1C SLOAD PUSH2 0x502 SWAP1 PUSH1 0xFF AND DUP2 JUMP JUMPDEST CALLVALUE DUP1 ISZERO PUSH2 0xF77 JUMPI PUSH1 0x0 DUP1 REVERT JUMPDEST POP PUSH2 0x5EA PUSH2 0xF86 CALLDATASIZE PUSH1 0x4 PUSH2 0x59E0 JUMP JUMPDEST PUSH1 0x16 PUSH1 0x20 MSTORE PUSH1 0x0 SWAP1 DUP2 MSTORE PUSH1 0x40 SWAP1 KECCAK256 SLOAD DUP2 JUMP JUMPDEST CALLVALUE DUP1 ISZERO PUSH2 0xFA4 JUMPI PUSH1 0x0 DUP1 REVERT JUMPDEST POP PUSH2 0x5B2 PUSH2 0xFB3 CALLDATASIZE PUSH1 0x4 PUSH2 0x5B54 JUMP JUMPDEST PUSH2 0x417C JUMP JUMPDEST CALLVALUE DUP1 ISZERO PUSH2 0xFC4 JUMPI PUSH1 0x0 DUP1 REVERT JUMPDEST POP PUSH2 0x5B2 PUSH2 0xFD3 CALLDATASIZE PUSH1 0x4 PUSH2 0x5B54 JUMP JUMPDEST PUSH2 0x4481 JUMP JUMPDEST CALLVALUE DUP1 ISZERO PUSH2 0xFE4 JUMPI PUSH1 0x0 DUP1 REVERT JUMPDEST POP PUSH1 0xD SLOAD PUSH2 0x57A SWAP1 PUSH1 0x1 PUSH1 0x1 PUSH1 0xA0 SHL SUB AND DUP2 JUMP JUMPDEST CALLVALUE DUP1 ISZERO PUSH2 0x1004 JUMPI PUSH1 0x0 DUP1 REVERT JUMPDEST POP PUSH1 0x10 SLOAD PUSH2 0x502 SWAP1 PUSH1 0x1 PUSH1 0xA0 SHL SWAP1 DIV PUSH1 0xFF AND DUP2 JUMP JUMPDEST CALLVALUE DUP1 ISZERO PUSH2 0x1025 JUMPI PUSH1 0x0 DUP1 REVERT JUMPDEST POP PUSH2 0x5EA PUSH3 0x93A80 DUP2 JUMP JUMPDEST CALLVALUE DUP1 ISZERO PUSH2 0x103C JUMPI PUSH1 0x0 DUP1 REVERT JUMPDEST POP PUSH2 0x5B2 PUSH2 0x4652 JUMP JUMPDEST CALLVALUE DUP1 ISZERO PUSH2 0x1051 JUMPI PUSH1 0x0 DUP1 REVERT JUMPDEST POP PUSH2 0x5EA PUSH11 0x422CA8B0A00A425000000 DUP2 JUMP JUMPDEST CALLVALUE DUP1 ISZERO PUSH2 0x1070 JUMPI PUSH1 0x0 DUP1 REVERT JUMPDEST POP PUSH2 0x502 PUSH2 0x107F CALLDATASIZE PUSH1 0x4 PUSH2 0x59E0 JUMP JUMPDEST PUSH1 0x18 PUSH1 0x20 MSTORE PUSH1 0x0 SWAP1 DUP2 MSTORE PUSH1 0x40 SWAP1 KECCAK256 SLOAD PUSH1 0xFF AND DUP2 JUMP JUMPDEST CALLER PUSH1 0x1 PUSH1 0x1 PUSH1 0xA0 SHL SUB PUSH32 0x0 AND EQ DUP1 PUSH2 0x10D5 JUMPI POP PUSH1 0x4 SLOAD PUSH1 0x1 PUSH1 0x1 PUSH1 0xA0 SHL SUB AND CALLER EQ JUMPDEST DUP1 PUSH2 0x10EA JUMPI POP PUSH1 0x5 SLOAD PUSH1 0x1 PUSH1 0x1 PUSH1 0xA0 SHL SUB AND CALLER EQ JUMPDEST DUP1 PUSH2 0x10FF JUMPI POP PUSH1 0x6 SLOAD PUSH1 0x1 PUSH1 0x1 PUSH1 0xA0 SHL SUB AND CALLER EQ JUMPDEST DUP1 PUSH2 0x1114 JUMPI POP PUSH1 0x7 SLOAD PUSH1 0x1 PUSH1 0x1 PUSH1 0xA0 SHL SUB AND CALLER EQ JUMPDEST DUP1 PUSH2 0x1129 JUMPI POP PUSH1 0x8 SLOAD PUSH1 0x1 PUSH1 0x1 PUSH1 0xA0 SHL SUB AND CALLER EQ JUMPDEST DUP1 PUSH2 0x113E JUMPI POP PUSH1 0x9 SLOAD PUSH1 0x1 PUSH1 0x1 PUSH1 0xA0 SHL SUB AND CALLER EQ JUMPDEST DUP1 PUSH2 0x1153 JUMPI POP PUSH1 0xA SLOAD PUSH1 0x1 PUSH1 0x1 PUSH1 0xA0 SHL SUB AND CALLER EQ JUMPDEST DUP1 PUSH2 0x1168 JUMPI POP PUSH1 0xB SLOAD PUSH1 0x1 PUSH1 0x1 PUSH1 0xA0 SHL SUB AND CALLER EQ JUMPDEST DUP1 PUSH2 0x117D JUMPI POP PUSH1 0xC SLOAD PUSH1 0x1 PUSH1 0x1 PUSH1 0xA0 SHL SUB AND CALLER EQ JUMPDEST DUP1 PUSH2 0x1192 JUMPI POP PUSH1 0xD SLOAD PUSH1 0x1 PUSH1 0x1 PUSH1 0xA0 SHL SUB AND CALLER EQ JUMPDEST DUP1 PUSH2 0x11A7 JUMPI POP PUSH1 0xE SLOAD PUSH1 0x1 PUSH1 0x1 PUSH1 0xA0 SHL SUB AND CALLER EQ JUMPDEST PUSH2 0x11CC JUMPI PUSH1 0x40 MLOAD PUSH3 0x461BCD PUSH1 0xE5 SHL DUP2 MSTORE PUSH1 0x4 ADD PUSH2 0x11C3 SWAP1 PUSH2 0x5C5E JUMP JUMPDEST PUSH1 0x40 MLOAD DUP1 SWAP2 SUB SWAP1 REVERT JUMPDEST PUSH1 0xE SLOAD PUSH1 0x1 PUSH1 0x1 PUSH1 0xA0 SHL SUB AND ISZERO PUSH2 0x121D JUMPI PUSH1 0x40 MLOAD PUSH3 0x461BCD PUSH1 0xE5 SHL DUP2 MSTORE PUSH1 0x20 PUSH1 0x4 DUP3 ADD MSTORE PUSH1 0x15 PUSH1 0x24 DUP3 ADD MSTORE PUSH21 0x135D5B1D1A4B5CDA59C8185B1C9958591E481CD95D PUSH1 0x5A SHL PUSH1 0x44 DUP3 ADD MSTORE PUSH1 0x64 ADD PUSH2 0x11C3 JUMP JUMPDEST PUSH1 0x1 PUSH1 0x1 PUSH1 0xA0 SHL SUB DUP2 AND PUSH2 0x1262 JUMPI PUSH1 0x40 MLOAD PUSH3 0x461BCD PUSH1 0xE5 SHL DUP2 MSTORE PUSH1 0x20 PUSH1 0x4 DUP3 ADD MSTORE PUSH1 0xC PUSH1 0x24 DUP3 ADD MSTORE PUSH12 0x5A65726F2061646472657373 PUSH1 0xA0 SHL PUSH1 0x44 DUP3 ADD MSTORE PUSH1 0x64 ADD PUSH2 0x11C3 JUMP JUMPDEST PUSH1 0xE DUP1 SLOAD PUSH1 0x1 PUSH1 0x1 PUSH1 0xA0 SHL SUB NOT AND PUSH1 0x1 PUSH1 0x1 PUSH1 0xA0 SHL SUB DUP4 AND SWAP1 DUP2 OR SWAP1 SWAP2 SSTORE PUSH1 0x40 MLOAD PUSH32 0x1C299868BDF884AC5C38C41DCA1B8FA41A5C6A672E17319EC1C8D68E5066A99A SWAP1 PUSH1 0x0 SWAP1 LOG2 POP JUMP JUMPDEST PUSH1 0x0 PUSH1 0x11 SLOAD TIMESTAMP LT ISZERO PUSH2 0x12F1 JUMPI PUSH1 0x40 MLOAD PUSH3 0x461BCD PUSH1 0xE5 SHL DUP2 MSTORE PUSH1 0x20 PUSH1 0x4 DUP3 ADD MSTORE PUSH1 0xE PUSH1 0x24 DUP3 ADD MSTORE PUSH14 0x20B236B4B71031B7B7B63237BBB7 PUSH1 0x91 SHL PUSH1 0x44 DUP3 ADD MSTORE PUSH1 0x64 ADD PUSH2 0x11C3 JUMP JUMPDEST PUSH2 0x12FC CALLER DUP5 DUP5 PUSH2 0x4E22 JUMP JUMPDEST POP PUSH1 0x1 JUMPDEST SWAP3 SWAP2 POP POP JUMP JUMPDEST CALLER PUSH1 0x1 PUSH1 0x1 PUSH1 0xA0 SHL SUB PUSH32 0x0 AND EQ DUP1 PUSH2 0x1347 JUMPI POP PUSH1 0x4 SLOAD PUSH1 0x1 PUSH1 0x1 PUSH1 0xA0 SHL SUB AND CALLER EQ JUMPDEST DUP1 PUSH2 0x135C JUMPI POP PUSH1 0x5 SLOAD PUSH1 0x1 PUSH1 0x1 PUSH1 0xA0 SHL SUB AND CALLER EQ JUMPDEST DUP1 PUSH2 0x1371 JUMPI POP PUSH1 0x6 SLOAD PUSH1 0x1 PUSH1 0x1 PUSH1 0xA0 SHL SUB AND CALLER EQ JUMPDEST DUP1 PUSH2 0x1386 JUMPI POP PUSH1 0x7 SLOAD PUSH1 0x1 PUSH1 0x1 PUSH1 0xA0 SHL SUB AND CALLER EQ JUMPDEST DUP1 PUSH2 0x139B JUMPI POP PUSH1 0x8 SLOAD PUSH1 0x1 PUSH1 0x1 PUSH1 0xA0 SHL SUB AND CALLER EQ JUMPDEST DUP1 PUSH2 0x13B0 JUMPI POP PUSH1 0x9 SLOAD PUSH1 0x1 PUSH1 0x1 PUSH1 0xA0 SHL SUB AND CALLER EQ JUMPDEST DUP1 PUSH2 0x13C5 JUMPI POP PUSH1 0xA SLOAD PUSH1 0x1 PUSH1 0x1 PUSH1 0xA0 SHL SUB AND CALLER EQ JUMPDEST DUP1 PUSH2 0x13DA JUMPI POP PUSH1 0xB SLOAD PUSH1 0x1 PUSH1 0x1 PUSH1 0xA0 SHL SUB AND CALLER EQ JUMPDEST DUP1 PUSH2 0x13EF JUMPI POP PUSH1 0xC SLOAD PUSH1 0x1 PUSH1 0x1 PUSH1 0xA0 SHL SUB AND CALLER EQ JUMPDEST DUP1 PUSH2 0x1404 JUMPI POP PUSH1 0xD SLOAD PUSH1 0x1 PUSH1 0x1 PUSH1 0xA0 SHL SUB AND CALLER EQ JUMPDEST DUP1 PUSH2 0x1419 JUMPI POP PUSH1 0xE SLOAD PUSH1 0x1 PUSH1 0x1 PUSH1 0xA0 SHL SUB AND CALLER EQ JUMPDEST PUSH2 0x1435 JUMPI PUSH1 0x40 MLOAD PUSH3 0x461BCD PUSH1 0xE5 SHL DUP2 MSTORE PUSH1 0x4 ADD PUSH2 0x11C3 SWAP1 PUSH2 0x5C5E JUMP JUMPDEST PUSH32 0x0 PUSH1 0x1 PUSH1 0x1 PUSH1 0xA0 SHL SUB AND DUP3 PUSH1 0x1 PUSH1 0x1 PUSH1 0xA0 SHL SUB AND SUB PUSH2 0x14A1 JUMPI PUSH1 0x40 MLOAD PUSH3 0x461BCD PUSH1 0xE5 SHL DUP2 MSTORE PUSH1 0x20 PUSH1 0x4 DUP3 ADD MSTORE PUSH1 0x8 PUSH1 0x24 DUP3 ADD MSTORE PUSH8 0x27379037BBB732B9 PUSH1 0xC1 SHL PUSH1 0x44 DUP3 ADD MSTORE PUSH1 0x64 ADD PUSH2 0x11C3 JUMP JUMPDEST ADDRESS PUSH1 0x1 PUSH1 0x1 PUSH1 0xA0 SHL SUB DUP4 AND SUB PUSH2 0x14E7 JUMPI PUSH1 0x40 MLOAD PUSH3 0x461BCD PUSH1 0xE5 SHL DUP2 MSTORE PUSH1 0x20 PUSH1 0x4 DUP3 ADD MSTORE PUSH1 0xB PUSH1 0x24 DUP3 ADD MSTORE PUSH11 0x139BC818DBDB9D1C9858DD PUSH1 0xAA SHL PUSH1 0x44 DUP3 ADD MSTORE PUSH1 0x64 ADD PUSH2 0x11C3 JUMP JUMPDEST PUSH1 0x1 PUSH1 0x1 PUSH1 0xA0 SHL SUB DUP3 AND PUSH2 0x1527 JUMPI PUSH1 0x40 MLOAD PUSH3 0x461BCD PUSH1 0xE5 SHL DUP2 MSTORE PUSH1 0x20 PUSH1 0x4 DUP3 ADD MSTORE PUSH1 0x7 PUSH1 0x24 DUP3 ADD MSTORE PUSH7 0x4E6F207A65726F PUSH1 0xC8 SHL PUSH1 0x44 DUP3 ADD MSTORE PUSH1 0x64 ADD PUSH2 0x11C3 JUMP JUMPDEST PUSH1 0x1 PUSH1 0x1 PUSH1 0xA0 SHL SUB DUP3 AND PUSH1 0x0 DUP2 DUP2 MSTORE PUSH1 0x18 PUSH1 0x20 SWAP1 DUP2 MSTORE PUSH1 0x40 SWAP2 DUP3 SWAP1 KECCAK256 DUP1 SLOAD PUSH1 0xFF NOT AND DUP6 ISZERO ISZERO SWAP1 DUP2 OR SWAP1 SWAP2 SSTORE SWAP2 MLOAD SWAP2 DUP3 MSTORE PUSH1 0x0 DUP1 MLOAD PUSH1 0x20 PUSH2 0x5E55 DUP4 CODECOPY DUP2 MLOAD SWAP2 MSTORE SWAP2 ADD JUMPDEST PUSH1 0x40 MLOAD DUP1 SWAP2 SUB SWAP1 LOG2 POP POP JUMP JUMPDEST CALLER PUSH1 0x1 PUSH1 0x1 PUSH1 0xA0 SHL SUB PUSH32 0x0 AND EQ DUP1 PUSH2 0x15B6 JUMPI POP PUSH1 0x4 SLOAD PUSH1 0x1 PUSH1 0x1 PUSH1 0xA0 SHL SUB AND CALLER EQ JUMPDEST DUP1 PUSH2 0x15CB JUMPI POP PUSH1 0x5 SLOAD PUSH1 0x1 PUSH1 0x1 PUSH1 0xA0 SHL SUB AND CALLER EQ JUMPDEST DUP1 PUSH2 0x15E0 JUMPI POP PUSH1 0x6 SLOAD PUSH1 0x1 PUSH1 0x1 PUSH1 0xA0 SHL SUB AND CALLER EQ JUMPDEST DUP1 PUSH2 0x15F5 JUMPI POP PUSH1 0x7 SLOAD PUSH1 0x1 PUSH1 0x1 PUSH1 0xA0 SHL SUB AND CALLER EQ JUMPDEST DUP1 PUSH2 0x160A JUMPI POP PUSH1 0x8 SLOAD PUSH1 0x1 PUSH1 0x1 PUSH1 0xA0 SHL SUB AND CALLER EQ JUMPDEST DUP1 PUSH2 0x161F JUMPI POP PUSH1 0x9 SLOAD PUSH1 0x1 PUSH1 0x1 PUSH1 0xA0 SHL SUB AND CALLER EQ JUMPDEST DUP1 PUSH2 0x1634 JUMPI POP PUSH1 0xA SLOAD PUSH1 0x1 PUSH1 0x1 PUSH1 0xA0 SHL SUB AND CALLER EQ JUMPDEST DUP1 PUSH2 0x1649 JUMPI POP PUSH1 0xB SLOAD PUSH1 0x1 PUSH1 0x1 PUSH1 0xA0 SHL SUB AND CALLER EQ JUMPDEST DUP1 PUSH2 0x165E JUMPI POP PUSH1 0xC SLOAD PUSH1 0x1 PUSH1 0x1 PUSH1 0xA0 SHL SUB AND CALLER EQ JUMPDEST DUP1 PUSH2 0x1673 JUMPI POP PUSH1 0xD SLOAD PUSH1 0x1 PUSH1 0x1 PUSH1 0xA0 SHL SUB AND CALLER EQ JUMPDEST DUP1 PUSH2 0x1688 JUMPI POP PUSH1 0xE SLOAD PUSH1 0x1 PUSH1 0x1 PUSH1 0xA0 SHL SUB AND CALLER EQ JUMPDEST PUSH2 0x16A4 JUMPI PUSH1 0x40 MLOAD PUSH3 0x461BCD PUSH1 0xE5 SHL DUP2 MSTORE PUSH1 0x4 ADD PUSH2 0x11C3 SWAP1 PUSH2 0x5C5E JUMP JUMPDEST PUSH1 0x2 PUSH1 0x0 SLOAD SUB PUSH2 0x16F6 JUMPI PUSH1 0x40 MLOAD PUSH3 0x461BCD PUSH1 0xE5 SHL DUP2 MSTORE PUSH1 0x20 PUSH1 0x4 DUP3 ADD MSTORE PUSH1 0x1F PUSH1 0x24 DUP3 ADD MSTORE PUSH32 0x5265656E7472616E637947756172643A207265656E7472616E742063616C6C00 PUSH1 0x44 DUP3 ADD MSTORE PUSH1 0x64 ADD PUSH2 0x11C3 JUMP JUMPDEST PUSH1 0x2 PUSH1 0x0 SSTORE SELFBALANCE DUP1 PUSH2 0x1732 JUMPI PUSH1 0x40 MLOAD PUSH3 0x461BCD PUSH1 0xE5 SHL DUP2 MSTORE PUSH1 0x20 PUSH1 0x4 DUP3 ADD MSTORE PUSH1 0x6 PUSH1 0x24 DUP3 ADD MSTORE PUSH6 0x273790212721 PUSH1 0xD1 SHL PUSH1 0x44 DUP3 ADD MSTORE PUSH1 0x64 ADD PUSH2 0x11C3 JUMP JUMPDEST PUSH1 0x0 PUSH32 0x0 PUSH1 0x1 PUSH1 0x1 PUSH1 0xA0 SHL SUB AND DUP3 PUSH1 0x40 MLOAD PUSH1 0x0 PUSH1 0x40 MLOAD DUP1 DUP4 SUB DUP2 DUP6 DUP8 GAS CALL SWAP3 POP POP POP RETURNDATASIZE DUP1 PUSH1 0x0 DUP2 EQ PUSH2 0x179F JUMPI PUSH1 0x40 MLOAD SWAP2 POP PUSH1 0x1F NOT PUSH1 0x3F RETURNDATASIZE ADD AND DUP3 ADD PUSH1 0x40 MSTORE RETURNDATASIZE DUP3 MSTORE RETURNDATASIZE PUSH1 0x0 PUSH1 0x20 DUP5 ADD RETURNDATACOPY PUSH2 0x17A4 JUMP JUMPDEST PUSH1 0x60 SWAP2 POP JUMPDEST POP POP SWAP1 POP DUP1 PUSH2 0x17E2 JUMPI PUSH1 0x40 MLOAD PUSH3 0x461BCD PUSH1 0xE5 SHL DUP2 MSTORE PUSH1 0x20 PUSH1 0x4 DUP3 ADD MSTORE PUSH1 0xA PUSH1 0x24 DUP3 ADD MSTORE PUSH10 0x1093908819985A5B1959 PUSH1 0xB2 SHL PUSH1 0x44 DUP3 ADD MSTORE PUSH1 0x64 ADD PUSH2 0x11C3 JUMP JUMPDEST PUSH1 0x40 MLOAD DUP3 DUP2 MSTORE PUSH32 0x1680612E6C4EA6353232F90D9FC956E494BB8A63829AF6CF07E3763061A78094 SWAP1 PUSH1 0x20 ADD PUSH1 0x40 MLOAD DUP1 SWAP2 SUB SWAP1 LOG1 POP POP PUSH1 0x1 PUSH1 0x0 SSTORE JUMP JUMPDEST CALLER PUSH1 0x1 PUSH1 0x1 PUSH1 0xA0 SHL SUB PUSH32 0x0 AND EQ DUP1 PUSH2 0x185F JUMPI POP PUSH1 0x4 SLOAD PUSH1 0x1 PUSH1 0x1 PUSH1 0xA0 SHL SUB AND CALLER EQ JUMPDEST DUP1 PUSH2 0x1874 JUMPI POP PUSH1 0x5 SLOAD PUSH1 0x1 PUSH1 0x1 PUSH1 0xA0 SHL SUB AND CALLER EQ JUMPDEST DUP1 PUSH2 0x1889 JUMPI POP PUSH1 0x6 SLOAD PUSH1 0x1 PUSH1 0x1 PUSH1 0xA0 SHL SUB AND CALLER EQ JUMPDEST DUP1 PUSH2 0x189E JUMPI POP PUSH1 0x7 SLOAD PUSH1 0x1 PUSH1 0x1 PUSH1 0xA0 SHL SUB AND CALLER EQ JUMPDEST DUP1 PUSH2 0x18B3 JUMPI POP PUSH1 0x8 SLOAD PUSH1 0x1 PUSH1 0x1 PUSH1 0xA0 SHL SUB AND CALLER EQ JUMPDEST DUP1 PUSH2 0x18C8 JUMPI POP PUSH1 0x9 SLOAD PUSH1 0x1 PUSH1 0x1 PUSH1 0xA0 SHL SUB AND CALLER EQ JUMPDEST DUP1 PUSH2 0x18DD JUMPI POP PUSH1 0xA SLOAD PUSH1 0x1 PUSH1 0x1 PUSH1 0xA0 SHL SUB AND CALLER EQ JUMPDEST DUP1 PUSH2 0x18F2 JUMPI POP PUSH1 0xB SLOAD PUSH1 0x1 PUSH1 0x1 PUSH1 0xA0 SHL SUB AND CALLER EQ JUMPDEST DUP1 PUSH2 0x1907 JUMPI POP PUSH1 0xC SLOAD PUSH1 0x1 PUSH1 0x1 PUSH1 0xA0 SHL SUB AND CALLER EQ JUMPDEST DUP1 PUSH2 0x191C JUMPI POP PUSH1 0xD SLOAD PUSH1 0x1 PUSH1 0x1 PUSH1 0xA0 SHL SUB AND CALLER EQ JUMPDEST DUP1 PUSH2 0x1931 JUMPI POP PUSH1 0xE SLOAD PUSH1 0x1 PUSH1 0x1 PUSH1 0xA0 SHL SUB AND CALLER EQ JUMPDEST PUSH2 0x194D JUMPI PUSH1 0x40 MLOAD PUSH3 0x461BCD PUSH1 0xE5 SHL DUP2 MSTORE PUSH1 0x4 ADD PUSH2 0x11C3 SWAP1 PUSH2 0x5C5E JUMP JUMPDEST PUSH1 0xE SLOAD PUSH1 0x1 PUSH1 0x1 PUSH1 0xA0 SHL SUB AND CALLER EQ PUSH2 0x1982 JUMPI PUSH1 0x13 SLOAD PUSH1 0xFF AND ISZERO PUSH2 0x1982 JUMPI PUSH1 0x40 MLOAD PUSH3 0x461BCD PUSH1 0xE5 SHL DUP2 MSTORE PUSH1 0x4 ADD PUSH2 0x11C3 SWAP1 PUSH2 0x5C81 JUMP JUMPDEST PUSH1 0xE SLOAD PUSH1 0x1 PUSH1 0x1 PUSH1 0xA0 SHL SUB AND CALLER EQ PUSH2 0x19B6 JUMPI PUSH1 0x11 SLOAD TIMESTAMP LT ISZERO PUSH2 0x19B6 JUMPI PUSH1 0x40 MLOAD PUSH3 0x461BCD PUSH1 0xE5 SHL DUP2 MSTORE PUSH1 0x4 ADD PUSH2 0x11C3 SWAP1 PUSH2 0x5CA7 JUMP JUMPDEST PUSH1 0x1 PUSH1 0x1 PUSH1 0xA0 SHL SUB DUP3 AND PUSH2 0x19FB JUMPI PUSH1 0x40 MLOAD PUSH3 0x461BCD PUSH1 0xE5 SHL DUP2 MSTORE PUSH1 0x20 PUSH1 0x4 DUP3 ADD MSTORE PUSH1 0xC PUSH1 0x24 DUP3 ADD MSTORE PUSH12 0x24B73B30B634B2103830B4B9 PUSH1 0xA1 SHL PUSH1 0x44 DUP3 ADD MSTORE PUSH1 0x64 ADD PUSH2 0x11C3 JUMP JUMPDEST PUSH1 0x1 PUSH1 0x1 PUSH1 0xA0 SHL SUB DUP3 AND PUSH1 0x0 SWAP1 DUP2 MSTORE PUSH1 0x12 PUSH1 0x20 MSTORE PUSH1 0x40 SWAP1 KECCAK256 DUP1 SLOAD PUSH1 0xFF NOT AND DUP3 ISZERO ISZERO OR SWAP1 SSTORE PUSH2 0x1A2C PUSH3 0x2A300 TIMESTAMP PUSH2 0x5CF4 JUMP JUMPDEST PUSH1 0x3 DUP2 SWAP1 SSTORE PUSH1 0x40 MLOAD SWAP1 DUP2 MSTORE PUSH1 0x0 DUP1 MLOAD PUSH1 0x20 PUSH2 0x5E35 DUP4 CODECOPY DUP2 MLOAD SWAP2 MSTORE SWAP1 PUSH1 0x20 ADD PUSH1 0x40 MLOAD DUP1 SWAP2 SUB SWAP1 LOG1 PUSH2 0x1A5F PUSH3 0x2A300 TIMESTAMP PUSH2 0x5CF4 JUMP JUMPDEST PUSH1 0x11 SSTORE PUSH1 0x40 MLOAD DUP2 ISZERO ISZERO DUP2 MSTORE PUSH1 0x1 PUSH1 0x1 PUSH1 0xA0 SHL SUB DUP4 AND SWAP1 PUSH32 0x7A2F4227DF0CE76D5D4187329FAAF8C53EB621FD92EDB868D331F292BB011344 SWAP1 PUSH1 0x20 ADD PUSH2 0x1569 JUMP JUMPDEST PUSH1 0x1 PUSH1 0x1 PUSH1 0xA0 SHL SUB DUP4 AND PUSH1 0x0 SWAP1 DUP2 MSTORE PUSH1 0x15 PUSH1 0x20 SWAP1 DUP2 MSTORE PUSH1 0x40 DUP1 DUP4 KECCAK256 CALLER DUP5 MSTORE SWAP1 SWAP2 MSTORE DUP2 KECCAK256 SLOAD DUP3 DUP2 LT ISZERO PUSH2 0x1B03 JUMPI PUSH1 0x40 MLOAD PUSH3 0x461BCD PUSH1 0xE5 SHL DUP2 MSTORE PUSH1 0x20 PUSH1 0x4 DUP3 ADD MSTORE PUSH1 0xD PUSH1 0x24 DUP3 ADD MSTORE PUSH13 0x4C6F7720616C6C6F77616E6365 PUSH1 0x98 SHL PUSH1 0x44 DUP3 ADD MSTORE PUSH1 0x64 ADD PUSH2 0x11C3 JUMP JUMPDEST PUSH1 0x1 PUSH1 0x1 PUSH1 0xA0 SHL SUB DUP6 AND PUSH1 0x0 SWAP1 DUP2 MSTORE PUSH1 0x15 PUSH1 0x20 SWAP1 DUP2 MSTORE PUSH1 0x40 DUP1 DUP4 KECCAK256 CALLER DUP5 MSTORE SWAP1 SWAP2 MSTORE SWAP1 KECCAK256 DUP4 DUP3 SUB SWAP1 SSTORE PUSH2 0x1B36 DUP6 DUP6 DUP6 PUSH2 0x4F05 JUMP JUMPDEST SWAP6 SWAP5 POP POP POP POP POP JUMP JUMPDEST CALLER PUSH1 0x0 DUP2 DUP2 MSTORE PUSH1 0x15 PUSH1 0x20 SWAP1 DUP2 MSTORE PUSH1 0x40 DUP1 DUP4 KECCAK256 PUSH1 0x1 PUSH1 0x1 PUSH1 0xA0 SHL SUB DUP8 AND DUP5 MSTORE SWAP1 SWAP2 MSTORE DUP2 KECCAK256 SLOAD SWAP1 SWAP2 PUSH2 0x12FC SWAP2 DUP6 SWAP1 PUSH2 0x1B76 SWAP1 DUP7 SWAP1 PUSH2 0x5CF4 JUMP JUMPDEST PUSH2 0x4E22 JUMP JUMPDEST CALLER PUSH1 0x1 PUSH1 0x1 PUSH1 0xA0 SHL SUB PUSH32 0x0 AND EQ DUP1 PUSH2 0x1BBC JUMPI POP PUSH1 0x4 SLOAD PUSH1 0x1 PUSH1 0x1 PUSH1 0xA0 SHL SUB AND CALLER EQ JUMPDEST DUP1 PUSH2 0x1BD1 JUMPI POP PUSH1 0x5 SLOAD PUSH1 0x1 PUSH1 0x1 PUSH1 0xA0 SHL SUB AND CALLER EQ JUMPDEST DUP1 PUSH2 0x1BE6 JUMPI POP PUSH1 0x6 SLOAD PUSH1 0x1 PUSH1 0x1 PUSH1 0xA0 SHL SUB AND CALLER EQ JUMPDEST DUP1 PUSH2 0x1BFB JUMPI POP PUSH1 0x7 SLOAD PUSH1 0x1 PUSH1 0x1 PUSH1 0xA0 SHL SUB AND CALLER EQ JUMPDEST DUP1 PUSH2 0x1C10 JUMPI POP PUSH1 0x8 SLOAD PUSH1 0x1 PUSH1 0x1 PUSH1 0xA0 SHL SUB AND CALLER EQ JUMPDEST DUP1 PUSH2 0x1C25 JUMPI POP PUSH1 0x9 SLOAD PUSH1 0x1 PUSH1 0x1 PUSH1 0xA0 SHL SUB AND CALLER EQ JUMPDEST DUP1 PUSH2 0x1C3A JUMPI POP PUSH1 0xA SLOAD PUSH1 0x1 PUSH1 0x1 PUSH1 0xA0 SHL SUB AND CALLER EQ JUMPDEST DUP1 PUSH2 0x1C4F JUMPI POP PUSH1 0xB SLOAD PUSH1 0x1 PUSH1 0x1 PUSH1 0xA0 SHL SUB AND CALLER EQ JUMPDEST DUP1 PUSH2 0x1C64 JUMPI POP PUSH1 0xC SLOAD PUSH1 0x1 PUSH1 0x1 PUSH1 0xA0 SHL SUB AND CALLER EQ JUMPDEST DUP1 PUSH2 0x1C79 JUMPI POP PUSH1 0xD SLOAD PUSH1 0x1 PUSH1 0x1 PUSH1 0xA0 SHL SUB AND CALLER EQ JUMPDEST DUP1 PUSH2 0x1C8E JUMPI POP PUSH1 0xE SLOAD PUSH1 0x1 PUSH1 0x1 PUSH1 0xA0 SHL SUB AND CALLER EQ JUMPDEST PUSH2 0x1CAA JUMPI PUSH1 0x40 MLOAD PUSH3 0x461BCD PUSH1 0xE5 SHL DUP2 MSTORE PUSH1 0x4 ADD PUSH2 0x11C3 SWAP1 PUSH2 0x5C5E JUMP JUMPDEST PUSH1 0x0 JUMPDEST DUP3 DUP2 LT ISZERO PUSH2 0x1E4D JUMPI PUSH32 0x0 PUSH1 0x1 PUSH1 0x1 PUSH1 0xA0 SHL SUB AND DUP5 DUP5 DUP4 DUP2 DUP2 LT PUSH2 0x1CF1 JUMPI PUSH2 0x1CF1 PUSH2 0x5D07 JUMP JUMPDEST SWAP1 POP PUSH1 0x20 MUL ADD PUSH1 0x20 DUP2 ADD SWAP1 PUSH2 0x1D06 SWAP2 SWAP1 PUSH2 0x59E0 JUMP JUMPDEST PUSH1 0x1 PUSH1 0x1 PUSH1 0xA0 SHL SUB AND EQ ISZERO DUP1 ISZERO PUSH2 0x1D4C JUMPI POP ADDRESS DUP5 DUP5 DUP4 DUP2 DUP2 LT PUSH2 0x1D2B JUMPI PUSH2 0x1D2B PUSH2 0x5D07 JUMP JUMPDEST SWAP1 POP PUSH1 0x20 MUL ADD PUSH1 0x20 DUP2 ADD SWAP1 PUSH2 0x1D40 SWAP2 SWAP1 PUSH2 0x59E0 JUMP JUMPDEST PUSH1 0x1 PUSH1 0x1 PUSH1 0xA0 SHL SUB AND EQ ISZERO JUMPDEST DUP1 ISZERO PUSH2 0x1D88 JUMPI POP PUSH1 0x0 DUP5 DUP5 DUP4 DUP2 DUP2 LT PUSH2 0x1D67 JUMPI PUSH2 0x1D67 PUSH2 0x5D07 JUMP JUMPDEST SWAP1 POP PUSH1 0x20 MUL ADD PUSH1 0x20 DUP2 ADD SWAP1 PUSH2 0x1D7C SWAP2 SWAP1 PUSH2 0x59E0 JUMP JUMPDEST PUSH1 0x1 PUSH1 0x1 PUSH1 0xA0 SHL SUB AND EQ ISZERO JUMPDEST ISZERO PUSH2 0x1E3B JUMPI DUP2 PUSH1 0x18 PUSH1 0x0 DUP7 DUP7 DUP6 DUP2 DUP2 LT PUSH2 0x1DA4 JUMPI PUSH2 0x1DA4 PUSH2 0x5D07 JUMP JUMPDEST SWAP1 POP PUSH1 0x20 MUL ADD PUSH1 0x20 DUP2 ADD SWAP1 PUSH2 0x1DB9 SWAP2 SWAP1 PUSH2 0x59E0 JUMP JUMPDEST PUSH1 0x1 PUSH1 0x1 PUSH1 0xA0 SHL SUB AND DUP2 MSTORE PUSH1 0x20 DUP2 ADD SWAP2 SWAP1 SWAP2 MSTORE PUSH1 0x40 ADD PUSH1 0x0 KECCAK256 DUP1 SLOAD PUSH1 0xFF NOT AND SWAP2 ISZERO ISZERO SWAP2 SWAP1 SWAP2 OR SWAP1 SSTORE DUP4 DUP4 DUP3 DUP2 DUP2 LT PUSH2 0x1DF3 JUMPI PUSH2 0x1DF3 PUSH2 0x5D07 JUMP JUMPDEST SWAP1 POP PUSH1 0x20 MUL ADD PUSH1 0x20 DUP2 ADD SWAP1 PUSH2 0x1E08 SWAP2 SWAP1 PUSH2 0x59E0 JUMP JUMPDEST PUSH1 0x1 PUSH1 0x1 PUSH1 0xA0 SHL SUB AND PUSH1 0x0 DUP1 MLOAD PUSH1 0x20 PUSH2 0x5E55 DUP4 CODECOPY DUP2 MLOAD SWAP2 MSTORE DUP4 PUSH1 0x40 MLOAD PUSH2 0x1E32 SWAP2 ISZERO ISZERO DUP2 MSTORE PUSH1 0x20 ADD SWAP1 JUMP JUMPDEST PUSH1 0x40 MLOAD DUP1 SWAP2 SUB SWAP1 LOG2 JUMPDEST DUP1 PUSH2 0x1E45 DUP2 PUSH2 0x5D1D JUMP JUMPDEST SWAP2 POP POP PUSH2 0x1CAD JUMP JUMPDEST POP POP POP POP JUMP JUMPDEST PUSH1 0xE SLOAD PUSH1 0x1 PUSH1 0x1 PUSH1 0xA0 SHL SUB AND CALLER EQ PUSH2 0x1E7D JUMPI PUSH1 0x40 MLOAD PUSH3 0x461BCD PUSH1 0xE5 SHL DUP2 MSTORE PUSH1 0x4 ADD PUSH2 0x11C3 SWAP1 PUSH2 0x5D36 JUMP JUMPDEST PUSH1 0xE SLOAD PUSH1 0x1 PUSH1 0x1 PUSH1 0xA0 SHL SUB AND PUSH2 0x1EA5 JUMPI PUSH1 0x40 MLOAD PUSH3 0x461BCD PUSH1 0xE5 SHL DUP2 MSTORE PUSH1 0x4 ADD PUSH2 0x11C3 SWAP1 PUSH2 0x5D5E JUMP JUMPDEST PUSH1 0x10 DUP1 SLOAD PUSH1 0xFF PUSH1 0xA0 SHL NOT AND SWAP1 SSTORE PUSH1 0x40 MLOAD PUSH32 0xA51949D2A53F5E36F13F153E2A7B001FD7ED6556CEF2866AC2F1B52EA9342C1D SWAP1 PUSH1 0x0 SWAP1 LOG1 JUMP JUMPDEST CALLER PUSH1 0x1 PUSH1 0x1 PUSH1 0xA0 SHL SUB PUSH32 0x0 AND EQ DUP1 PUSH2 0x1F1E JUMPI POP PUSH1 0x4 SLOAD PUSH1 0x1 PUSH1 0x1 PUSH1 0xA0 SHL SUB AND CALLER EQ JUMPDEST DUP1 PUSH2 0x1F33 JUMPI POP PUSH1 0x5 SLOAD PUSH1 0x1 PUSH1 0x1 PUSH1 0xA0 SHL SUB AND CALLER EQ JUMPDEST DUP1 PUSH2 0x1F48 JUMPI POP PUSH1 0x6 SLOAD PUSH1 0x1 PUSH1 0x1 PUSH1 0xA0 SHL SUB AND CALLER EQ JUMPDEST DUP1 PUSH2 0x1F5D JUMPI POP PUSH1 0x7 SLOAD PUSH1 0x1 PUSH1 0x1 PUSH1 0xA0 SHL SUB AND CALLER EQ JUMPDEST DUP1 PUSH2 0x1F72 JUMPI POP PUSH1 0x8 SLOAD PUSH1 0x1 PUSH1 0x1 PUSH1 0xA0 SHL SUB AND CALLER EQ JUMPDEST DUP1 PUSH2 0x1F87 JUMPI POP PUSH1 0x9 SLOAD PUSH1 0x1 PUSH1 0x1 PUSH1 0xA0 SHL SUB AND CALLER EQ JUMPDEST DUP1 PUSH2 0x1F9C JUMPI POP PUSH1 0xA SLOAD PUSH1 0x1 PUSH1 0x1 PUSH1 0xA0 SHL SUB AND CALLER EQ JUMPDEST DUP1 PUSH2 0x1FB1 JUMPI POP PUSH1 0xB SLOAD PUSH1 0x1 PUSH1 0x1 PUSH1 0xA0 SHL SUB AND CALLER EQ JUMPDEST DUP1 PUSH2 0x1FC6 JUMPI POP PUSH1 0xC SLOAD PUSH1 0x1 PUSH1 0x1 PUSH1 0xA0 SHL SUB AND CALLER EQ JUMPDEST DUP1 PUSH2 0x1FDB JUMPI POP PUSH1 0xD SLOAD PUSH1 0x1 PUSH1 0x1 PUSH1 0xA0 SHL SUB AND CALLER EQ JUMPDEST DUP1 PUSH2 0x1FF0 JUMPI POP PUSH1 0xE SLOAD PUSH1 0x1 PUSH1 0x1 PUSH1 0xA0 SHL SUB AND CALLER EQ JUMPDEST PUSH2 0x200C JUMPI PUSH1 0x40 MLOAD PUSH3 0x461BCD PUSH1 0xE5 SHL DUP2 MSTORE PUSH1 0x4 ADD PUSH2 0x11C3 SWAP1 PUSH2 0x5C5E JUMP JUMPDEST PUSH1 0xE SLOAD PUSH1 0x1 PUSH1 0x1 PUSH1 0xA0 SHL SUB AND CALLER EQ PUSH2 0x2041 JUMPI PUSH1 0x13 SLOAD PUSH1 0xFF AND ISZERO PUSH2 0x2041 JUMPI PUSH1 0x40 MLOAD PUSH3 0x461BCD PUSH1 0xE5 SHL DUP2 MSTORE PUSH1 0x4 ADD PUSH2 0x11C3 SWAP1 PUSH2 0x5C81 JUMP JUMPDEST PUSH1 0x13 DUP1 SLOAD PUSH1 0xFF NOT AND PUSH1 0x1 OR SWAP1 SSTORE PUSH1 0x40 MLOAD PUSH32 0x4796BF6FFAAA75B9DD6D018C2BD9C876B3483A4BE62665B4630F698AC85C5F7E SWAP1 PUSH1 0x0 SWAP1 LOG1 JUMP JUMPDEST CALLER PUSH1 0x1 PUSH1 0x1 PUSH1 0xA0 SHL SUB PUSH32 0x0 AND EQ DUP1 PUSH2 0x20BA JUMPI POP PUSH1 0x4 SLOAD PUSH1 0x1 PUSH1 0x1 PUSH1 0xA0 SHL SUB AND CALLER EQ JUMPDEST DUP1 PUSH2 0x20CF JUMPI POP PUSH1 0x5 SLOAD PUSH1 0x1 PUSH1 0x1 PUSH1 0xA0 SHL SUB AND CALLER EQ JUMPDEST DUP1 PUSH2 0x20E4 JUMPI POP PUSH1 0x6 SLOAD PUSH1 0x1 PUSH1 0x1 PUSH1 0xA0 SHL SUB AND CALLER EQ JUMPDEST DUP1 PUSH2 0x20F9 JUMPI POP PUSH1 0x7 SLOAD PUSH1 0x1 PUSH1 0x1 PUSH1 0xA0 SHL SUB AND CALLER EQ JUMPDEST DUP1 PUSH2 0x210E JUMPI POP PUSH1 0x8 SLOAD PUSH1 0x1 PUSH1 0x1 PUSH1 0xA0 SHL SUB AND CALLER EQ JUMPDEST DUP1 PUSH2 0x2123 JUMPI POP PUSH1 0x9 SLOAD PUSH1 0x1 PUSH1 0x1 PUSH1 0xA0 SHL SUB AND CALLER EQ JUMPDEST DUP1 PUSH2 0x2138 JUMPI POP PUSH1 0xA SLOAD PUSH1 0x1 PUSH1 0x1 PUSH1 0xA0 SHL SUB AND CALLER EQ JUMPDEST DUP1 PUSH2 0x214D JUMPI POP PUSH1 0xB SLOAD PUSH1 0x1 PUSH1 0x1 PUSH1 0xA0 SHL SUB AND CALLER EQ JUMPDEST DUP1 PUSH2 0x2162 JUMPI POP PUSH1 0xC SLOAD PUSH1 0x1 PUSH1 0x1 PUSH1 0xA0 SHL SUB AND CALLER EQ JUMPDEST DUP1 PUSH2 0x2177 JUMPI POP PUSH1 0xD SLOAD PUSH1 0x1 PUSH1 0x1 PUSH1 0xA0 SHL SUB AND CALLER EQ JUMPDEST DUP1 PUSH2 0x218C JUMPI POP PUSH1 0xE SLOAD PUSH1 0x1 PUSH1 0x1 PUSH1 0xA0 SHL SUB AND CALLER EQ JUMPDEST PUSH2 0x21A8 JUMPI PUSH1 0x40 MLOAD PUSH3 0x461BCD PUSH1 0xE5 SHL DUP2 MSTORE PUSH1 0x4 ADD PUSH2 0x11C3 SWAP1 PUSH2 0x5C5E JUMP JUMPDEST CALLER PUSH1 0x0 SWAP1 DUP2 MSTORE PUSH1 0x14 PUSH1 0x20 MSTORE PUSH1 0x40 SWAP1 KECCAK256 SLOAD DUP2 GT ISZERO PUSH2 0x21D7 JUMPI PUSH1 0x40 MLOAD PUSH3 0x461BCD PUSH1 0xE5 SHL DUP2 MSTORE PUSH1 0x4 ADD PUSH2 0x11C3 SWAP1 PUSH2 0x5D89 JUMP JUMPDEST CALLER PUSH1 0x0 DUP2 DUP2 MSTORE PUSH1 0x14 PUSH1 0x20 SWAP1 DUP2 MSTORE PUSH1 0x40 DUP1 DUP4 KECCAK256 DUP1 SLOAD DUP7 SWAP1 SUB SWAP1 SSTORE PUSH1 0x1 DUP1 SLOAD DUP7 SWAP1 SUB SWAP1 SSTORE MLOAD DUP5 DUP2 MSTORE SWAP2 SWAP3 SWAP2 PUSH1 0x0 DUP1 MLOAD PUSH1 0x20 PUSH2 0x5E75 DUP4 CODECOPY DUP2 MLOAD SWAP2 MSTORE SWAP2 ADD PUSH1 0x40 MLOAD DUP1 SWAP2 SUB SWAP1 LOG3 PUSH1 0x40 MLOAD DUP2 DUP2 MSTORE PUSH32 0x6EF4855B666DCC7884561072E4358B28DFE01FEB1B7F4DCEBC00E62D50394AC7 SWAP1 PUSH1 0x20 ADD PUSH1 0x40 MLOAD DUP1 SWAP2 SUB SWAP1 LOG1 POP JUMP JUMPDEST PUSH1 0x0 PUSH1 0x19 SLOAD PUSH1 0x0 SUB PUSH2 0x2261 JUMPI POP PUSH1 0x0 SWAP1 JUMP JUMPDEST PUSH1 0x0 PUSH3 0x93A80 PUSH1 0x19 SLOAD PUSH2 0x2274 SWAP2 SWAP1 PUSH2 0x5CF4 JUMP JUMPDEST SWAP1 POP DUP1 TIMESTAMP LT PUSH2 0x2285 JUMPI PUSH1 0x0 SWAP2 POP POP SWAP1 JUMP JUMPDEST PUSH2 0x228F TIMESTAMP DUP3 PUSH2 0x5DAE JUMP JUMPDEST SWAP2 POP POP SWAP1 JUMP JUMPDEST PUSH1 0x0 PUSH1 0x19 SLOAD PUSH1 0x0 EQ ISZERO DUP1 ISZERO PUSH2 0x22B9 JUMPI POP PUSH3 0x93A80 PUSH1 0x19 SLOAD PUSH2 0x22B6 SWAP2 SWAP1 PUSH2 0x5CF4 JUMP JUMPDEST TIMESTAMP LT JUMPDEST ISZERO PUSH2 0x22C4 JUMPI POP PUSH1 0x0 SWAP1 JUMP JUMPDEST PUSH1 0x1 SLOAD PUSH11 0x422CA8B0A00A425000000 SWAP1 PUSH1 0x0 SWAP1 PUSH2 0x2710 SWAP1 PUSH2 0x22E6 SWAP1 PUSH1 0x32 PUSH2 0x5DC1 JUMP JUMPDEST PUSH2 0x22F0 SWAP2 SWAP1 PUSH2 0x5DD8 JUMP JUMPDEST SWAP1 POP DUP2 DUP2 LT PUSH2 0x22FF JUMPI DUP2 PUSH2 0x2301 JUMP JUMPDEST DUP1 JUMPDEST SWAP3 POP POP POP SWAP1 JUMP JUMPDEST PUSH1 0xE SLOAD PUSH1 0x1 PUSH1 0x1 PUSH1 0xA0 SHL SUB AND CALLER EQ PUSH2 0x2332 JUMPI PUSH1 0x40 MLOAD PUSH3 0x461BCD PUSH1 0xE5 SHL DUP2 MSTORE PUSH1 0x4 ADD PUSH2 0x11C3 SWAP1 PUSH2 0x5D36 JUMP JUMPDEST PUSH1 0xE SLOAD PUSH1 0x1 PUSH1 0x1 PUSH1 0xA0 SHL SUB AND PUSH2 0x235A JUMPI PUSH1 0x40 MLOAD PUSH3 0x461BCD PUSH1 0xE5 SHL DUP2 MSTORE PUSH1 0x4 ADD PUSH2 0x11C3 SWAP1 PUSH2 0x5D5E JUMP JUMPDEST PUSH1 0x1 PUSH1 0x1 PUSH1 0xA0 SHL SUB DUP2 AND PUSH1 0x0 SWAP1 DUP2 MSTORE PUSH1 0x18 PUSH1 0x20 MSTORE PUSH1 0x40 SWAP1 KECCAK256 SLOAD PUSH1 0xFF AND PUSH2 0x23B4 JUMPI PUSH1 0x40 MLOAD PUSH3 0x461BCD PUSH1 0xE5 SHL DUP2 MSTORE PUSH1 0x20 PUSH1 0x4 DUP3 ADD MSTORE PUSH1 0xF PUSH1 0x24 DUP3 ADD MSTORE PUSH15 0x139BDD08189B1858DADB1A5CDD1959 PUSH1 0x8A SHL PUSH1 0x44 DUP3 ADD MSTORE PUSH1 0x64 ADD PUSH2 0x11C3 JUMP JUMPDEST PUSH1 0x1 PUSH1 0x1 PUSH1 0xA0 SHL SUB DUP2 AND PUSH1 0x0 DUP2 DUP2 MSTORE PUSH1 0x18 PUSH1 0x20 SWAP1 DUP2 MSTORE PUSH1 0x40 DUP1 DUP4 KECCAK256 DUP1 SLOAD PUSH1 0xFF NOT AND SWAP1 SSTORE MLOAD SWAP2 DUP3 MSTORE PUSH1 0x0 DUP1 MLOAD PUSH1 0x20 PUSH2 0x5E55 DUP4 CODECOPY DUP2 MLOAD SWAP2 MSTORE SWAP2 ADD PUSH1 0x40 MLOAD DUP1 SWAP2 SUB SWAP1 LOG2 POP JUMP JUMPDEST CALLER PUSH1 0x1 PUSH1 0x1 PUSH1 0xA0 SHL SUB PUSH32 0x0 AND EQ DUP1 PUSH2 0x2438 JUMPI POP PUSH1 0x4 SLOAD PUSH1 0x1 PUSH1 0x1 PUSH1 0xA0 SHL SUB AND CALLER EQ JUMPDEST DUP1 PUSH2 0x244D JUMPI POP PUSH1 0x5 SLOAD PUSH1 0x1 PUSH1 0x1 PUSH1 0xA0 SHL SUB AND CALLER EQ JUMPDEST DUP1 PUSH2 0x2462 JUMPI POP PUSH1 0x6 SLOAD PUSH1 0x1 PUSH1 0x1 PUSH1 0xA0 SHL SUB AND CALLER EQ JUMPDEST DUP1 PUSH2 0x2477 JUMPI POP PUSH1 0x7 SLOAD PUSH1 0x1 PUSH1 0x1 PUSH1 0xA0 SHL SUB AND CALLER EQ JUMPDEST DUP1 PUSH2 0x248C JUMPI POP PUSH1 0x8 SLOAD PUSH1 0x1 PUSH1 0x1 PUSH1 0xA0 SHL SUB AND CALLER EQ JUMPDEST DUP1 PUSH2 0x24A1 JUMPI POP PUSH1 0x9 SLOAD PUSH1 0x1 PUSH1 0x1 PUSH1 0xA0 SHL SUB AND CALLER EQ JUMPDEST DUP1 PUSH2 0x24B6 JUMPI POP PUSH1 0xA SLOAD PUSH1 0x1 PUSH1 0x1 PUSH1 0xA0 SHL SUB AND CALLER EQ JUMPDEST DUP1 PUSH2 0x24CB JUMPI POP PUSH1 0xB SLOAD PUSH1 0x1 PUSH1 0x1 PUSH1 0xA0 SHL SUB AND CALLER EQ JUMPDEST DUP1 PUSH2 0x24E0 JUMPI POP PUSH1 0xC SLOAD PUSH1 0x1 PUSH1 0x1 PUSH1 0xA0 SHL SUB AND CALLER EQ JUMPDEST DUP1 PUSH2 0x24F5 JUMPI POP PUSH1 0xD SLOAD PUSH1 0x1 PUSH1 0x1 PUSH1 0xA0 SHL SUB AND CALLER EQ JUMPDEST DUP1 PUSH2 0x250A JUMPI POP PUSH1 0xE SLOAD PUSH1 0x1 PUSH1 0x1 PUSH1 0xA0 SHL SUB AND CALLER EQ JUMPDEST PUSH2 0x2526 JUMPI PUSH1 0x40 MLOAD PUSH3 0x461BCD PUSH1 0xE5 SHL DUP2 MSTORE PUSH1 0x4 ADD PUSH2 0x11C3 SWAP1 PUSH2 0x5C5E JUMP JUMPDEST PUSH1 0x2 PUSH1 0x0 SLOAD SUB PUSH2 0x2578 JUMPI PUSH1 0x40 MLOAD PUSH3 0x461BCD PUSH1 0xE5 SHL DUP2 MSTORE PUSH1 0x20 PUSH1 0x4 DUP3 ADD MSTORE PUSH1 0x1F PUSH1 0x24 DUP3 ADD MSTORE PUSH32 0x5265656E7472616E637947756172643A207265656E7472616E742063616C6C00 PUSH1 0x44 DUP3 ADD MSTORE PUSH1 0x64 ADD PUSH2 0x11C3 JUMP JUMPDEST PUSH1 0x2 PUSH1 0x0 SSTORE PUSH1 0x1 PUSH1 0x1 PUSH1 0xA0 SHL SUB DUP3 AND PUSH2 0x25C3 JUMPI PUSH1 0x40 MLOAD PUSH3 0x461BCD PUSH1 0xE5 SHL DUP2 MSTORE PUSH1 0x20 PUSH1 0x4 DUP3 ADD MSTORE PUSH1 0xD PUSH1 0x24 DUP3 ADD MSTORE PUSH13 0x24B73B30B634B2103A37B5B2B7 PUSH1 0x99 SHL PUSH1 0x44 DUP3 ADD MSTORE PUSH1 0x64 ADD PUSH2 0x11C3 JUMP JUMPDEST ADDRESS PUSH1 0x1 PUSH1 0x1 PUSH1 0xA0 SHL SUB DUP4 AND SUB PUSH2 0x260C JUMPI PUSH1 0x40 MLOAD PUSH3 0x461BCD PUSH1 0xE5 SHL DUP2 MSTORE PUSH1 0x20 PUSH1 0x4 DUP3 ADD MSTORE PUSH1 0xE PUSH1 0x24 DUP3 ADD MSTORE PUSH14 0x4E6F20726573637565204B435931 PUSH1 0x90 SHL PUSH1 0x44 DUP3 ADD MSTORE PUSH1 0x64 ADD PUSH2 0x11C3 JUMP JUMPDEST PUSH1 0x40 MLOAD PUSH4 0xA9059CBB PUSH1 0xE0 SHL DUP2 MSTORE PUSH1 0x1 PUSH1 0x1 PUSH1 0xA0 SHL SUB PUSH32 0x0 DUP2 AND PUSH1 0x4 DUP4 ADD MSTORE PUSH1 0x24 DUP3 ADD DUP4 SWAP1 MSTORE DUP4 SWAP2 SWAP1 DUP3 AND SWAP1 PUSH4 0xA9059CBB SWAP1 PUSH1 0x44 ADD PUSH1 0x20 PUSH1 0x40 MLOAD DUP1 DUP4 SUB DUP2 PUSH1 0x0 DUP8 GAS CALL ISZERO DUP1 ISZERO PUSH2 0x267E JUMPI RETURNDATASIZE PUSH1 0x0 DUP1 RETURNDATACOPY RETURNDATASIZE PUSH1 0x0 REVERT JUMPDEST POP POP POP POP PUSH1 0x40 MLOAD RETURNDATASIZE PUSH1 0x1F NOT PUSH1 0x1F DUP3 ADD AND DUP3 ADD DUP1 PUSH1 0x40 MSTORE POP DUP2 ADD SWAP1 PUSH2 0x26A2 SWAP2 SWAP1 PUSH2 0x5DFA JUMP JUMPDEST PUSH2 0x26DE JUMPI PUSH1 0x40 MLOAD PUSH3 0x461BCD PUSH1 0xE5 SHL DUP2 MSTORE PUSH1 0x20 PUSH1 0x4 DUP3 ADD MSTORE PUSH1 0xD PUSH1 0x24 DUP3 ADD MSTORE PUSH13 0x14995CD8DD594819985A5B1959 PUSH1 0x9A SHL PUSH1 0x44 DUP3 ADD MSTORE PUSH1 0x64 ADD PUSH2 0x11C3 JUMP JUMPDEST DUP3 PUSH1 0x1 PUSH1 0x1 PUSH1 0xA0 SHL SUB AND PUSH32 0xE2FF149B1527CE73BC1113B8B0D5F0AFFFEFAC241473A371880D7510708AD443 DUP4 PUSH1 0x40 MLOAD PUSH2 0x2719 SWAP2 DUP2 MSTORE PUSH1 0x20 ADD SWAP1 JUMP JUMPDEST PUSH1 0x40 MLOAD DUP1 SWAP2 SUB SWAP1 LOG2 POP POP PUSH1 0x1 PUSH1 0x0 SSTORE POP JUMP JUMPDEST PUSH1 0x0 PUSH32 0x0 PUSH1 0x1 PUSH1 0x1 PUSH1 0xA0 SHL SUB AND DUP3 PUSH1 0x1 PUSH1 0x1 PUSH1 0xA0 SHL SUB AND EQ DUP1 PUSH2 0x2775 JUMPI POP PUSH1 0x1 PUSH1 0x1 PUSH1 0xA0 SHL SUB DUP3 AND ADDRESS EQ JUMPDEST DUP1 PUSH2 0x278D JUMPI POP PUSH1 0x4 SLOAD PUSH1 0x1 PUSH1 0x1 PUSH1 0xA0 SHL SUB DUP4 DUP2 AND SWAP2 AND EQ JUMPDEST DUP1 PUSH2 0x27A5 JUMPI POP PUSH1 0x5 SLOAD PUSH1 0x1 PUSH1 0x1 PUSH1 0xA0 SHL SUB DUP4 DUP2 AND SWAP2 AND EQ JUMPDEST DUP1 PUSH2 0x27BD JUMPI POP PUSH1 0x6 SLOAD PUSH1 0x1 PUSH1 0x1 PUSH1 0xA0 SHL SUB DUP4 DUP2 AND SWAP2 AND EQ JUMPDEST DUP1 PUSH2 0x27D5 JUMPI POP PUSH1 0x7 SLOAD PUSH1 0x1 PUSH1 0x1 PUSH1 0xA0 SHL SUB DUP4 DUP2 AND SWAP2 AND EQ JUMPDEST DUP1 PUSH2 0x27ED JUMPI POP PUSH1 0x8 SLOAD PUSH1 0x1 PUSH1 0x1 PUSH1 0xA0 SHL SUB DUP4 DUP2 AND SWAP2 AND EQ JUMPDEST DUP1 PUSH2 0x2805 JUMPI POP PUSH1 0x9 SLOAD PUSH1 0x1 PUSH1 0x1 PUSH1 0xA0 SHL SUB DUP4 DUP2 AND SWAP2 AND EQ JUMPDEST DUP1 PUSH2 0x281D JUMPI POP PUSH1 0xA SLOAD PUSH1 0x1 PUSH1 0x1 PUSH1 0xA0 SHL SUB DUP4 DUP2 AND SWAP2 AND EQ JUMPDEST DUP1 PUSH2 0x2835 JUMPI POP PUSH1 0xB SLOAD PUSH1 0x1 PUSH1 0x1 PUSH1 0xA0 SHL SUB DUP4 DUP2 AND SWAP2 AND EQ JUMPDEST DUP1 PUSH2 0x284D JUMPI POP PUSH1 0xC SLOAD PUSH1 0x1 PUSH1 0x1 PUSH1 0xA0 SHL SUB DUP4 DUP2 AND SWAP2 AND EQ JUMPDEST DUP1 PUSH2 0x2865 JUMPI POP PUSH1 0xD SLOAD PUSH1 0x1 PUSH1 0x1 PUSH1 0xA0 SHL SUB DUP4 DUP2 AND SWAP2 AND EQ JUMPDEST DUP1 PUSH2 0x287D JUMPI POP PUSH1 0xF SLOAD PUSH1 0x1 PUSH1 0x1 PUSH1 0xA0 SHL SUB DUP4 DUP2 AND SWAP2 AND EQ JUMPDEST DUP1 PUSH2 0x1300 JUMPI POP POP PUSH1 0x10 SLOAD PUSH1 0x1 PUSH1 0x1 PUSH1 0xA0 SHL SUB SWAP1 DUP2 AND SWAP2 AND EQ SWAP1 JUMP JUMPDEST PUSH1 0x0 PUSH1 0x1 PUSH1 0x1 PUSH1 0xA0 SHL SUB DUP3 AND PUSH2 0x28E0 JUMPI PUSH1 0x40 MLOAD PUSH3 0x461BCD PUSH1 0xE5 SHL DUP2 MSTORE PUSH1 0x20 PUSH1 0x4 DUP3 ADD MSTORE PUSH1 0xD PUSH1 0x24 DUP3 ADD MSTORE PUSH13 0x24B73B30B634B2103A37B5B2B7 PUSH1 0x99 SHL PUSH1 0x44 DUP3 ADD MSTORE PUSH1 0x64 ADD PUSH2 0x11C3 JUMP JUMPDEST ADDRESS PUSH1 0x1 PUSH1 0x1 PUSH1 0xA0 SHL SUB DUP4 AND SUB PUSH2 0x292B JUMPI PUSH1 0x40 MLOAD PUSH3 0x461BCD PUSH1 0xE5 SHL DUP2 MSTORE PUSH1 0x20 PUSH1 0x4 DUP3 ADD MSTORE PUSH1 0x10 PUSH1 0x24 DUP3 ADD MSTORE PUSH16 0x21B0B73737BA103830B4B91039B2B633 PUSH1 0x81 SHL PUSH1 0x44 DUP3 ADD MSTORE PUSH1 0x64 ADD PUSH2 0x11C3 JUMP JUMPDEST PUSH1 0x10 SLOAD PUSH1 0x40 MLOAD PUSH4 0xE6A43905 PUSH1 0xE0 SHL DUP2 MSTORE ADDRESS PUSH1 0x4 DUP3 ADD MSTORE PUSH1 0x1 PUSH1 0x1 PUSH1 0xA0 SHL SUB DUP5 DUP2 AND PUSH1 0x24 DUP4 ADD MSTORE SWAP1 SWAP2 AND SWAP1 PUSH4 0xE6A43905 SWAP1 PUSH1 0x44 ADD PUSH1 0x20 PUSH1 0x40 MLOAD DUP1 DUP4 SUB DUP2 DUP7 GAS STATICCALL ISZERO DUP1 ISZERO PUSH2 0x297B JUMPI RETURNDATASIZE PUSH1 0x0 DUP1 RETURNDATACOPY RETURNDATASIZE PUSH1 0x0 REVERT JUMPDEST POP POP POP POP PUSH1 0x40 MLOAD RETURNDATASIZE PUSH1 0x1F NOT PUSH1 0x1F DUP3 ADD AND DUP3 ADD DUP1 PUSH1 0x40 MSTORE POP DUP2 ADD SWAP1 PUSH2 0x1300 SWAP2 SWAP1 PUSH2 0x5E17 JUMP JUMPDEST CALLER PUSH1 0x1 PUSH1 0x1 PUSH1 0xA0 SHL SUB PUSH32 0x0 AND EQ DUP1 PUSH2 0x29E0 JUMPI POP PUSH1 0x4 SLOAD PUSH1 0x1 PUSH1 0x1 PUSH1 0xA0 SHL SUB AND CALLER EQ JUMPDEST DUP1 PUSH2 0x29F5 JUMPI POP PUSH1 0x5 SLOAD PUSH1 0x1 PUSH1 0x1 PUSH1 0xA0 SHL SUB AND CALLER EQ JUMPDEST DUP1 PUSH2 0x2A0A JUMPI POP PUSH1 0x6 SLOAD PUSH1 0x1 PUSH1 0x1 PUSH1 0xA0 SHL SUB AND CALLER EQ JUMPDEST DUP1 PUSH2 0x2A1F JUMPI POP PUSH1 0x7 SLOAD PUSH1 0x1 PUSH1 0x1 PUSH1 0xA0 SHL SUB AND CALLER EQ JUMPDEST DUP1 PUSH2 0x2A34 JUMPI POP PUSH1 0x8 SLOAD PUSH1 0x1 PUSH1 0x1 PUSH1 0xA0 SHL SUB AND CALLER EQ JUMPDEST DUP1 PUSH2 0x2A49 JUMPI POP PUSH1 0x9 SLOAD PUSH1 0x1 PUSH1 0x1 PUSH1 0xA0 SHL SUB AND CALLER EQ JUMPDEST DUP1 PUSH2 0x2A5E JUMPI POP PUSH1 0xA SLOAD PUSH1 0x1 PUSH1 0x1 PUSH1 0xA0 SHL SUB AND CALLER EQ JUMPDEST DUP1 PUSH2 0x2A73 JUMPI POP PUSH1 0xB SLOAD PUSH1 0x1 PUSH1 0x1 PUSH1 0xA0 SHL SUB AND CALLER EQ JUMPDEST DUP1 PUSH2 0x2A88 JUMPI POP PUSH1 0xC SLOAD PUSH1 0x1 PUSH1 0x1 PUSH1 0xA0 SHL SUB AND CALLER EQ JUMPDEST DUP1 PUSH2 0x2A9D JUMPI POP PUSH1 0xD SLOAD PUSH1 0x1 PUSH1 0x1 PUSH1 0xA0 SHL SUB AND CALLER EQ JUMPDEST DUP1 PUSH2 0x2AB2 JUMPI POP PUSH1 0xE SLOAD PUSH1 0x1 PUSH1 0x1 PUSH1 0xA0 SHL SUB AND CALLER EQ JUMPDEST PUSH2 0x2ACE JUMPI PUSH1 0x40 MLOAD PUSH3 0x461BCD PUSH1 0xE5 SHL DUP2 MSTORE PUSH1 0x4 ADD PUSH2 0x11C3 SWAP1 PUSH2 0x5C5E JUMP JUMPDEST PUSH1 0x1C DUP1 SLOAD PUSH1 0xFF NOT AND PUSH1 0x1 OR SWAP1 SSTORE PUSH1 0x40 MLOAD PUSH32 0x8626B5EBA97CB663EE6BC23F6F1085D98D9AE2A677D0F785943AEB24557B0007 SWAP1 PUSH1 0x0 SWAP1 LOG1 JUMP JUMPDEST PUSH1 0xE SLOAD PUSH1 0x1 PUSH1 0x1 PUSH1 0xA0 SHL SUB AND CALLER EQ PUSH2 0x2B30 JUMPI PUSH1 0x40 MLOAD PUSH3 0x461BCD PUSH1 0xE5 SHL DUP2 MSTORE PUSH1 0x4 ADD PUSH2 0x11C3 SWAP1 PUSH2 0x5D36 JUMP JUMPDEST PUSH1 0xE SLOAD PUSH1 0x1 PUSH1 0x1 PUSH1 0xA0 SHL SUB AND PUSH2 0x2B58 JUMPI PUSH1 0x40 MLOAD PUSH3 0x461BCD PUSH1 0xE5 SHL DUP2 MSTORE PUSH1 0x4 ADD PUSH2 0x11C3 SWAP1 PUSH2 0x5D5E JUMP JUMPDEST PUSH1 0x0 JUMPDEST DUP2 DUP2 LT ISZERO PUSH2 0x2C72 JUMPI PUSH1 0x18 PUSH1 0x0 DUP5 DUP5 DUP5 DUP2 DUP2 LT PUSH2 0x2B79 JUMPI PUSH2 0x2B79 PUSH2 0x5D07 JUMP JUMPDEST SWAP1 POP PUSH1 0x20 MUL ADD PUSH1 0x20 DUP2 ADD SWAP1 PUSH2 0x2B8E SWAP2 SWAP1 PUSH2 0x59E0 JUMP JUMPDEST PUSH1 0x1 PUSH1 0x1 PUSH1 0xA0 SHL SUB AND DUP2 MSTORE PUSH1 0x20 DUP2 ADD SWAP2 SWAP1 SWAP2 MSTORE PUSH1 0x40 ADD PUSH1 0x0 KECCAK256 SLOAD PUSH1 0xFF AND ISZERO PUSH2 0x2C60 JUMPI PUSH1 0x0 PUSH1 0x18 PUSH1 0x0 DUP6 DUP6 DUP6 DUP2 DUP2 LT PUSH2 0x2BC8 JUMPI PUSH2 0x2BC8 PUSH2 0x5D07 JUMP JUMPDEST SWAP1 POP PUSH1 0x20 MUL ADD PUSH1 0x20 DUP2 ADD SWAP1 PUSH2 0x2BDD SWAP2 SWAP1 PUSH2 0x59E0 JUMP JUMPDEST PUSH1 0x1 PUSH1 0x1 PUSH1 0xA0 SHL SUB AND DUP2 MSTORE PUSH1 0x20 DUP2 ADD SWAP2 SWAP1 SWAP2 MSTORE PUSH1 0x40 ADD PUSH1 0x0 KECCAK256 DUP1 SLOAD PUSH1 0xFF NOT AND SWAP2 ISZERO ISZERO SWAP2 SWAP1 SWAP2 OR SWAP1 SSTORE DUP3 DUP3 DUP3 DUP2 DUP2 LT PUSH2 0x2C17 JUMPI PUSH2 0x2C17 PUSH2 0x5D07 JUMP JUMPDEST SWAP1 POP PUSH1 0x20 MUL ADD PUSH1 0x20 DUP2 ADD SWAP1 PUSH2 0x2C2C SWAP2 SWAP1 PUSH2 0x59E0 JUMP JUMPDEST PUSH1 0x1 PUSH1 0x1 PUSH1 0xA0 SHL SUB AND PUSH1 0x0 DUP1 MLOAD PUSH1 0x20 PUSH2 0x5E55 DUP4 CODECOPY DUP2 MLOAD SWAP2 MSTORE PUSH1 0x0 PUSH1 0x40 MLOAD PUSH2 0x2C57 SWAP2 ISZERO ISZERO DUP2 MSTORE PUSH1 0x20 ADD SWAP1 JUMP JUMPDEST PUSH1 0x40 MLOAD DUP1 SWAP2 SUB SWAP1 LOG2 JUMPDEST DUP1 PUSH2 0x2C6A DUP2 PUSH2 0x5D1D JUMP JUMPDEST SWAP2 POP POP PUSH2 0x2B5B JUMP JUMPDEST POP POP POP JUMP JUMPDEST CALLER PUSH1 0x1 PUSH1 0x1 PUSH1 0xA0 SHL SUB PUSH32 0x0 AND EQ DUP1 PUSH2 0x2CB8 JUMPI POP PUSH1 0x4 SLOAD PUSH1 0x1 PUSH1 0x1 PUSH1 0xA0 SHL SUB AND CALLER EQ JUMPDEST DUP1 PUSH2 0x2CCD JUMPI POP PUSH1 0x5 SLOAD PUSH1 0x1 PUSH1 0x1 PUSH1 0xA0 SHL SUB AND CALLER EQ JUMPDEST DUP1 PUSH2 0x2CE2 JUMPI POP PUSH1 0x6 SLOAD PUSH1 0x1 PUSH1 0x1 PUSH1 0xA0 SHL SUB AND CALLER EQ JUMPDEST DUP1 PUSH2 0x2CF7 JUMPI POP PUSH1 0x7 SLOAD PUSH1 0x1 PUSH1 0x1 PUSH1 0xA0 SHL SUB AND CALLER EQ JUMPDEST DUP1 PUSH2 0x2D0C JUMPI POP PUSH1 0x8 SLOAD PUSH1 0x1 PUSH1 0x1 PUSH1 0xA0 SHL SUB AND CALLER EQ JUMPDEST DUP1 PUSH2 0x2D21 JUMPI POP PUSH1 0x9 SLOAD PUSH1 0x1 PUSH1 0x1 PUSH1 0xA0 SHL SUB AND CALLER EQ JUMPDEST DUP1 PUSH2 0x2D36 JUMPI POP PUSH1 0xA SLOAD PUSH1 0x1 PUSH1 0x1 PUSH1 0xA0 SHL SUB AND CALLER EQ JUMPDEST DUP1 PUSH2 0x2D4B JUMPI POP PUSH1 0xB SLOAD PUSH1 0x1 PUSH1 0x1 PUSH1 0xA0 SHL SUB AND CALLER EQ JUMPDEST DUP1 PUSH2 0x2D60 JUMPI POP PUSH1 0xC SLOAD PUSH1 0x1 PUSH1 0x1 PUSH1 0xA0 SHL SUB AND CALLER EQ JUMPDEST DUP1 PUSH2 0x2D75 JUMPI POP PUSH1 0xD SLOAD PUSH1 0x1 PUSH1 0x1 PUSH1 0xA0 SHL SUB AND CALLER EQ JUMPDEST DUP1 PUSH2 0x2D8A JUMPI POP PUSH1 0xE SLOAD PUSH1 0x1 PUSH1 0x1 PUSH1 0xA0 SHL SUB AND CALLER EQ JUMPDEST PUSH2 0x2DA6 JUMPI PUSH1 0x40 MLOAD PUSH3 0x461BCD PUSH1 0xE5 SHL DUP2 MSTORE PUSH1 0x4 ADD PUSH2 0x11C3 SWAP1 PUSH2 0x5C5E JUMP JUMPDEST PUSH2 0x2DB3 PUSH3 0x2A300 TIMESTAMP PUSH2 0x5CF4 JUMP JUMPDEST PUSH1 0x3 DUP2 SWAP1 SSTORE PUSH1 0x40 MLOAD SWAP1 DUP2 MSTORE PUSH1 0x0 DUP1 MLOAD PUSH1 0x20 PUSH2 0x5E35 DUP4 CODECOPY DUP2 MLOAD SWAP2 MSTORE SWAP1 PUSH1 0x20 ADD JUMPDEST PUSH1 0x40 MLOAD DUP1 SWAP2 SUB SWAP1 LOG1 JUMP JUMPDEST CALLER PUSH1 0x0 SWAP1 DUP2 MSTORE PUSH1 0x15 PUSH1 0x20 SWAP1 DUP2 MSTORE PUSH1 0x40 DUP1 DUP4 KECCAK256 PUSH1 0x1 PUSH1 0x1 PUSH1 0xA0 SHL SUB DUP7 AND DUP5 MSTORE SWAP1 SWAP2 MSTORE DUP2 KECCAK256 SLOAD DUP3 DUP2 LT ISZERO PUSH2 0x2E40 JUMPI PUSH1 0x40 MLOAD PUSH3 0x461BCD PUSH1 0xE5 SHL DUP2 MSTORE PUSH1 0x20 PUSH1 0x4 DUP3 ADD MSTORE PUSH1 0xD PUSH1 0x24 DUP3 ADD MSTORE PUSH13 0x4C6F7720616C6C6F77616E6365 PUSH1 0x98 SHL PUSH1 0x44 DUP3 ADD MSTORE PUSH1 0x64 ADD PUSH2 0x11C3 JUMP JUMPDEST PUSH2 0x2E4D CALLER DUP6 DUP6 DUP5 SUB PUSH2 0x4E22 JUMP JUMPDEST POP PUSH1 0x1 SWAP4 SWAP3 POP POP POP JUMP JUMPDEST PUSH2 0x2E5F PUSH2 0x595C JUMP JUMPDEST PUSH1 0x4 SLOAD PUSH1 0x1 PUSH1 0x1 PUSH1 0xA0 SHL SUB SWAP1 DUP2 AND DUP3 MSTORE PUSH1 0x5 SLOAD DUP2 AND PUSH1 0x20 DUP4 ADD MSTORE PUSH1 0x6 SLOAD DUP2 AND PUSH1 0x40 DUP4 ADD MSTORE PUSH1 0x7 SLOAD DUP2 AND PUSH1 0x60 DUP4 ADD MSTORE PUSH1 0xF SLOAD PUSH1 0x10 SLOAD SWAP3 SWAP4 SWAP1 DUP3 AND SWAP3 SWAP2 DUP3 AND SWAP2 PUSH1 0x1 PUSH1 0xA0 SHL SWAP1 DIV PUSH1 0xFF AND SWAP1 JUMP JUMPDEST PUSH1 0x0 PUSH2 0x2EB7 CALLER DUP5 DUP5 PUSH2 0x4F05 JUMP JUMPDEST SWAP4 SWAP3 POP POP POP JUMP JUMPDEST CALLER PUSH1 0x1 PUSH1 0x1 PUSH1 0xA0 SHL SUB PUSH32 0x0 AND EQ DUP1 PUSH2 0x2EFF JUMPI POP PUSH1 0x4 SLOAD PUSH1 0x1 PUSH1 0x1 PUSH1 0xA0 SHL SUB AND CALLER EQ JUMPDEST DUP1 PUSH2 0x2F14 JUMPI POP PUSH1 0x5 SLOAD PUSH1 0x1 PUSH1 0x1 PUSH1 0xA0 SHL SUB AND CALLER EQ JUMPDEST DUP1 PUSH2 0x2F29 JUMPI POP PUSH1 0x6 SLOAD PUSH1 0x1 PUSH1 0x1 PUSH1 0xA0 SHL SUB AND CALLER EQ JUMPDEST DUP1 PUSH2 0x2F3E JUMPI POP PUSH1 0x7 SLOAD PUSH1 0x1 PUSH1 0x1 PUSH1 0xA0 SHL SUB AND CALLER EQ JUMPDEST DUP1 PUSH2 0x2F53 JUMPI POP PUSH1 0x8 SLOAD PUSH1 0x1 PUSH1 0x1 PUSH1 0xA0 SHL SUB AND CALLER EQ JUMPDEST DUP1 PUSH2 0x2F68 JUMPI POP PUSH1 0x9 SLOAD PUSH1 0x1 PUSH1 0x1 PUSH1 0xA0 SHL SUB AND CALLER EQ JUMPDEST DUP1 PUSH2 0x2F7D JUMPI POP PUSH1 0xA SLOAD PUSH1 0x1 PUSH1 0x1 PUSH1 0xA0 SHL SUB AND CALLER EQ JUMPDEST DUP1 PUSH2 0x2F92 JUMPI POP PUSH1 0xB SLOAD PUSH1 0x1 PUSH1 0x1 PUSH1 0xA0 SHL SUB AND CALLER EQ JUMPDEST DUP1 PUSH2 0x2FA7 JUMPI POP PUSH1 0xC SLOAD PUSH1 0x1 PUSH1 0x1 PUSH1 0xA0 SHL SUB AND CALLER EQ JUMPDEST DUP1 PUSH2 0x2FBC JUMPI POP PUSH1 0xD SLOAD PUSH1 0x1 PUSH1 0x1 PUSH1 0xA0 SHL SUB AND CALLER EQ JUMPDEST DUP1 PUSH2 0x2FD1 JUMPI POP PUSH1 0xE SLOAD PUSH1 0x1 PUSH1 0x1 PUSH1 0xA0 SHL SUB AND CALLER EQ JUMPDEST PUSH2 0x2FED JUMPI PUSH1 0x40 MLOAD PUSH3 0x461BCD PUSH1 0xE5 SHL DUP2 MSTORE PUSH1 0x4 ADD PUSH2 0x11C3 SWAP1 PUSH2 0x5C5E JUMP JUMPDEST PUSH1 0xE SLOAD PUSH1 0x1 PUSH1 0x1 PUSH1 0xA0 SHL SUB AND CALLER EQ PUSH2 0x3048 JUMPI PUSH1 0x10 SLOAD PUSH1 0x1 PUSH1 0xA0 SHL SWAP1 DIV PUSH1 0xFF AND ISZERO PUSH2 0x3048 JUMPI PUSH1 0x40 MLOAD PUSH3 0x461BCD PUSH1 0xE5 SHL DUP2 MSTORE PUSH1 0x20 PUSH1 0x4 DUP3 ADD MSTORE PUSH1 0xC PUSH1 0x24 DUP3 ADD MSTORE PUSH12 0x14DB1BDD1CC81B1BD8DAD959 PUSH1 0xA2 SHL PUSH1 0x44 DUP3 ADD MSTORE PUSH1 0x64 ADD PUSH2 0x11C3 JUMP JUMPDEST PUSH1 0x10 DUP1 SLOAD PUSH1 0xFF PUSH1 0xA0 SHL NOT AND PUSH1 0x1 PUSH1 0xA0 SHL OR SWAP1 SSTORE PUSH1 0x40 MLOAD PUSH32 0x8234CCD0D49A6AA697F3793C5F51D1A67334AADD98B1A80978B14C42E4204C9 SWAP1 PUSH1 0x0 SWAP1 LOG1 JUMP JUMPDEST CALLER PUSH1 0x1 PUSH1 0x1 PUSH1 0xA0 SHL SUB PUSH32 0x0 AND EQ DUP1 PUSH2 0x30C7 JUMPI POP PUSH1 0x4 SLOAD PUSH1 0x1 PUSH1 0x1 PUSH1 0xA0 SHL SUB AND CALLER EQ JUMPDEST DUP1 PUSH2 0x30DC JUMPI POP PUSH1 0x5 SLOAD PUSH1 0x1 PUSH1 0x1 PUSH1 0xA0 SHL SUB AND CALLER EQ JUMPDEST DUP1 PUSH2 0x30F1 JUMPI POP PUSH1 0x6 SLOAD PUSH1 0x1 PUSH1 0x1 PUSH1 0xA0 SHL SUB AND CALLER EQ JUMPDEST DUP1 PUSH2 0x3106 JUMPI POP PUSH1 0x7 SLOAD PUSH1 0x1 PUSH1 0x1 PUSH1 0xA0 SHL SUB AND CALLER EQ JUMPDEST DUP1 PUSH2 0x311B JUMPI POP PUSH1 0x8 SLOAD PUSH1 0x1 PUSH1 0x1 PUSH1 0xA0 SHL SUB AND CALLER EQ JUMPDEST DUP1 PUSH2 0x3130 JUMPI POP PUSH1 0x9 SLOAD PUSH1 0x1 PUSH1 0x1 PUSH1 0xA0 SHL SUB AND CALLER EQ JUMPDEST DUP1 PUSH2 0x3145 JUMPI POP PUSH1 0xA SLOAD PUSH1 0x1 PUSH1 0x1 PUSH1 0xA0 SHL SUB AND CALLER EQ JUMPDEST DUP1 PUSH2 0x315A JUMPI POP PUSH1 0xB SLOAD PUSH1 0x1 PUSH1 0x1 PUSH1 0xA0 SHL SUB AND CALLER EQ JUMPDEST DUP1 PUSH2 0x316F JUMPI POP PUSH1 0xC SLOAD PUSH1 0x1 PUSH1 0x1 PUSH1 0xA0 SHL SUB AND CALLER EQ JUMPDEST DUP1 PUSH2 0x3184 JUMPI POP PUSH1 0xD SLOAD PUSH1 0x1 PUSH1 0x1 PUSH1 0xA0 SHL SUB AND CALLER EQ JUMPDEST DUP1 PUSH2 0x3199 JUMPI POP PUSH1 0xE SLOAD PUSH1 0x1 PUSH1 0x1 PUSH1 0xA0 SHL SUB AND CALLER EQ JUMPDEST PUSH2 0x31B5 JUMPI PUSH1 0x40 MLOAD PUSH3 0x461BCD PUSH1 0xE5 SHL DUP2 MSTORE PUSH1 0x4 ADD PUSH2 0x11C3 SWAP1 PUSH2 0x5C5E JUMP JUMPDEST PUSH1 0xE SLOAD PUSH1 0x1 PUSH1 0x1 PUSH1 0xA0 SHL SUB AND CALLER EQ PUSH2 0x31E9 JUMPI PUSH1 0x11 SLOAD TIMESTAMP LT ISZERO PUSH2 0x31E9 JUMPI PUSH1 0x40 MLOAD PUSH3 0x461BCD PUSH1 0xE5 SHL DUP2 MSTORE PUSH1 0x4 ADD PUSH2 0x11C3 SWAP1 PUSH2 0x5CA7 JUMP JUMPDEST PUSH1 0x0 DUP2 GT PUSH2 0x322E JUMPI PUSH1 0x40 MLOAD PUSH3 0x461BCD PUSH1 0xE5 SHL DUP2 MSTORE PUSH1 0x20 PUSH1 0x4 DUP3 ADD MSTORE PUSH1 0x12 PUSH1 0x24 DUP3 ADD MSTORE PUSH18 0x416D6F756E74206D757374206265203E203 PUSH1 0x74 SHL PUSH1 0x44 DUP3 ADD MSTORE PUSH1 0x64 ADD PUSH2 0x11C3 JUMP JUMPDEST PUSH3 0x93A80 PUSH1 0x19 SLOAD PUSH2 0x323F SWAP2 SWAP1 PUSH2 0x5CF4 JUMP JUMPDEST TIMESTAMP LT ISZERO PUSH2 0x3284 JUMPI PUSH1 0x40 MLOAD PUSH3 0x461BCD PUSH1 0xE5 SHL DUP2 MSTORE PUSH1 0x20 PUSH1 0x4 DUP3 ADD MSTORE PUSH1 0x13 PUSH1 0x24 DUP3 ADD MSTORE PUSH19 0x10DBDBDB191BDDDB881B9BDD081C185CDCD959 PUSH1 0x6A SHL PUSH1 0x44 DUP3 ADD MSTORE PUSH1 0x64 ADD PUSH2 0x11C3 JUMP JUMPDEST PUSH1 0x1 SLOAD PUSH11 0x422CA8B0A00A425000000 SWAP1 PUSH1 0x0 SWAP1 PUSH2 0x2710 SWAP1 PUSH2 0x32A6 SWAP1 PUSH1 0x32 PUSH2 0x5DC1 JUMP JUMPDEST PUSH2 0x32B0 SWAP2 SWAP1 PUSH2 0x5DD8 JUMP JUMPDEST SWAP1 POP DUP2 DUP2 LT ISZERO PUSH2 0x32BE JUMPI DUP1 SWAP2 POP JUMPDEST DUP2 DUP4 GT ISZERO PUSH2 0x3301 JUMPI PUSH1 0x40 MLOAD PUSH3 0x461BCD PUSH1 0xE5 SHL DUP2 MSTORE PUSH1 0x20 PUSH1 0x4 DUP3 ADD MSTORE PUSH1 0x10 PUSH1 0x24 DUP3 ADD MSTORE PUSH16 0x115E18D959591CC81B585E081B5A5B9D PUSH1 0x82 SHL PUSH1 0x44 DUP3 ADD MSTORE PUSH1 0x64 ADD PUSH2 0x11C3 JUMP JUMPDEST PUSH1 0x1B DUP1 SLOAD SWAP1 PUSH1 0x0 PUSH2 0x3311 DUP4 PUSH2 0x5D1D JUMP JUMPDEST SWAP2 SWAP1 POP SSTORE POP PUSH1 0x40 MLOAD DUP1 PUSH1 0x80 ADD PUSH1 0x40 MSTORE DUP1 DUP5 DUP2 MSTORE PUSH1 0x20 ADD TIMESTAMP DUP2 MSTORE PUSH1 0x20 ADD PUSH3 0x15180 TIMESTAMP PUSH2 0x333C SWAP2 SWAP1 PUSH2 0x5CF4 JUMP JUMPDEST DUP2 MSTORE PUSH1 0x0 PUSH1 0x20 SWAP2 DUP3 ADD DUP2 SWAP1 MSTORE PUSH1 0x1B DUP1 SLOAD DUP3 MSTORE PUSH1 0x1A DUP4 MSTORE PUSH1 0x40 SWAP2 DUP3 SWAP1 KECCAK256 DUP5 MLOAD DUP2 SSTORE SWAP3 DUP5 ADD MLOAD PUSH1 0x1 DUP5 ADD SSTORE SWAP1 DUP4 ADD MLOAD PUSH1 0x2 DUP4 ADD SSTORE PUSH1 0x60 SWAP1 SWAP3 ADD MLOAD PUSH1 0x3 SWAP1 SWAP2 ADD DUP1 SLOAD PUSH1 0xFF NOT AND SWAP2 ISZERO ISZERO SWAP2 SWAP1 SWAP2 OR SWAP1 SSTORE SLOAD PUSH32 0x647292D081EEBCC7A2A611FA5A88554629F8FB2C089A593A8419C4F6DC7B91A3 DUP5 PUSH2 0x33B8 PUSH3 0x15180 TIMESTAMP PUSH2 0x5CF4 JUMP JUMPDEST PUSH1 0x40 DUP1 MLOAD SWAP3 DUP4 MSTORE PUSH1 0x20 DUP4 ADD SWAP2 SWAP1 SWAP2 MSTORE ADD PUSH1 0x40 MLOAD DUP1 SWAP2 SUB SWAP1 LOG2 POP POP POP JUMP JUMPDEST PUSH1 0xE SLOAD PUSH1 0x1 PUSH1 0x1 PUSH1 0xA0 SHL SUB AND CALLER EQ PUSH2 0x33FF JUMPI PUSH1 0x40 MLOAD PUSH3 0x461BCD PUSH1 0xE5 SHL DUP2 MSTORE PUSH1 0x4 ADD PUSH2 0x11C3 SWAP1 PUSH2 0x5D36 JUMP JUMPDEST PUSH1 0xE SLOAD PUSH1 0x1 PUSH1 0x1 PUSH1 0xA0 SHL SUB AND PUSH2 0x3427 JUMPI PUSH1 0x40 MLOAD PUSH3 0x461BCD PUSH1 0xE5 SHL DUP2 MSTORE PUSH1 0x4 ADD PUSH2 0x11C3 SWAP1 PUSH2 0x5D5E JUMP JUMPDEST PUSH1 0x13 DUP1 SLOAD PUSH1 0xFF NOT AND SWAP1 SSTORE PUSH1 0x40 MLOAD PUSH32 0xBB6C70CE316C154E62E01716EE643D3B433B5FD65F37F62E170411447251AC7A SWAP1 PUSH1 0x0 SWAP1 LOG1 JUMP JUMPDEST CALLER PUSH1 0x1 PUSH1 0x1 PUSH1 0xA0 SHL SUB PUSH32 0x0 AND EQ DUP1 PUSH2 0x349D JUMPI POP PUSH1 0x4 SLOAD PUSH1 0x1 PUSH1 0x1 PUSH1 0xA0 SHL SUB AND CALLER EQ JUMPDEST DUP1 PUSH2 0x34B2 JUMPI POP PUSH1 0x5 SLOAD PUSH1 0x1 PUSH1 0x1 PUSH1 0xA0 SHL SUB AND CALLER EQ JUMPDEST DUP1 PUSH2 0x34C7 JUMPI POP PUSH1 0x6 SLOAD PUSH1 0x1 PUSH1 0x1 PUSH1 0xA0 SHL SUB AND CALLER EQ JUMPDEST DUP1 PUSH2 0x34DC JUMPI POP PUSH1 0x7 SLOAD PUSH1 0x1 PUSH1 0x1 PUSH1 0xA0 SHL SUB AND CALLER EQ JUMPDEST DUP1 PUSH2 0x34F1 JUMPI POP PUSH1 0x8 SLOAD PUSH1 0x1 PUSH1 0x1 PUSH1 0xA0 SHL SUB AND CALLER EQ JUMPDEST DUP1 PUSH2 0x3506 JUMPI POP PUSH1 0x9 SLOAD PUSH1 0x1 PUSH1 0x1 PUSH1 0xA0 SHL SUB AND CALLER EQ JUMPDEST DUP1 PUSH2 0x351B JUMPI POP PUSH1 0xA SLOAD PUSH1 0x1 PUSH1 0x1 PUSH1 0xA0 SHL SUB AND CALLER EQ JUMPDEST DUP1 PUSH2 0x3530 JUMPI POP PUSH1 0xB SLOAD PUSH1 0x1 PUSH1 0x1 PUSH1 0xA0 SHL SUB AND CALLER EQ JUMPDEST DUP1 PUSH2 0x3545 JUMPI POP PUSH1 0xC SLOAD PUSH1 0x1 PUSH1 0x1 PUSH1 0xA0 SHL SUB AND CALLER EQ JUMPDEST DUP1 PUSH2 0x355A JUMPI POP PUSH1 0xD SLOAD PUSH1 0x1 PUSH1 0x1 PUSH1 0xA0 SHL SUB AND CALLER EQ JUMPDEST DUP1 PUSH2 0x356F JUMPI POP PUSH1 0xE SLOAD PUSH1 0x1 PUSH1 0x1 PUSH1 0xA0 SHL SUB AND CALLER EQ JUMPDEST PUSH2 0x358B JUMPI PUSH1 0x40 MLOAD PUSH3 0x461BCD PUSH1 0xE5 SHL DUP2 MSTORE PUSH1 0x4 ADD PUSH2 0x11C3 SWAP1 PUSH2 0x5C5E JUMP JUMPDEST PUSH1 0xE SLOAD PUSH1 0x1 PUSH1 0x1 PUSH1 0xA0 SHL SUB AND CALLER EQ PUSH2 0x35DD JUMPI PUSH1 0x1C SLOAD PUSH1 0xFF AND ISZERO PUSH2 0x35DD JUMPI PUSH1 0x40 MLOAD PUSH3 0x461BCD PUSH1 0xE5 SHL DUP2 MSTORE PUSH1 0x20 PUSH1 0x4 DUP3 ADD MSTORE PUSH1 0xA PUSH1 0x24 DUP3 ADD MSTORE PUSH10 0x111156081B1BD8DAD959 PUSH1 0xB2 SHL PUSH1 0x44 DUP3 ADD MSTORE PUSH1 0x64 ADD PUSH2 0x11C3 JUMP JUMPDEST PUSH1 0xE SLOAD PUSH1 0x1 PUSH1 0x1 PUSH1 0xA0 SHL SUB AND CALLER EQ PUSH2 0x3611 JUMPI PUSH1 0x11 SLOAD TIMESTAMP LT ISZERO PUSH2 0x3611 JUMPI PUSH1 0x40 MLOAD PUSH3 0x461BCD PUSH1 0xE5 SHL DUP2 MSTORE PUSH1 0x4 ADD PUSH2 0x11C3 SWAP1 PUSH2 0x5CA7 JUMP JUMPDEST PUSH1 0x1 PUSH1 0x1 PUSH1 0xA0 SHL SUB DUP3 AND PUSH2 0x3655 JUMPI PUSH1 0x40 MLOAD PUSH3 0x461BCD PUSH1 0xE5 SHL DUP2 MSTORE PUSH1 0x20 PUSH1 0x4 DUP3 ADD MSTORE PUSH1 0xB PUSH1 0x24 DUP3 ADD MSTORE PUSH11 0x526F75746572207A65726F PUSH1 0xA8 SHL PUSH1 0x44 DUP3 ADD MSTORE PUSH1 0x64 ADD PUSH2 0x11C3 JUMP JUMPDEST PUSH1 0x1 PUSH1 0x1 PUSH1 0xA0 SHL SUB DUP2 AND PUSH2 0x369A JUMPI PUSH1 0x40 MLOAD PUSH3 0x461BCD PUSH1 0xE5 SHL DUP2 MSTORE PUSH1 0x20 PUSH1 0x4 DUP3 ADD MSTORE PUSH1 0xC PUSH1 0x24 DUP3 ADD MSTORE PUSH12 0x466163746F7279207A65726F PUSH1 0xA0 SHL PUSH1 0x44 DUP3 ADD MSTORE PUSH1 0x64 ADD PUSH2 0x11C3 JUMP JUMPDEST PUSH1 0xF DUP1 SLOAD PUSH1 0x1 PUSH1 0x1 PUSH1 0xA0 SHL SUB DUP1 DUP6 AND PUSH1 0x1 PUSH1 0x1 PUSH1 0xA0 SHL SUB NOT SWAP3 DUP4 AND OR SWAP1 SWAP3 SSTORE PUSH1 0x10 DUP1 SLOAD SWAP3 DUP5 AND SWAP3 SWAP1 SWAP2 AND SWAP2 SWAP1 SWAP2 OR SWAP1 SSTORE PUSH2 0x36D7 PUSH3 0x2A300 TIMESTAMP PUSH2 0x5CF4 JUMP JUMPDEST PUSH1 0x3 DUP2 SWAP1 SSTORE PUSH1 0x40 MLOAD SWAP1 DUP2 MSTORE PUSH1 0x0 DUP1 MLOAD PUSH1 0x20 PUSH2 0x5E35 DUP4 CODECOPY DUP2 MLOAD SWAP2 MSTORE SWAP1 PUSH1 0x20 ADD PUSH1 0x40 MLOAD DUP1 SWAP2 SUB SWAP1 LOG1 PUSH2 0x370A PUSH3 0x2A300 TIMESTAMP PUSH2 0x5CF4 JUMP JUMPDEST PUSH1 0x11 SSTORE PUSH1 0x40 MLOAD PUSH1 0x1 PUSH1 0x1 PUSH1 0xA0 SHL SUB DUP1 DUP4 AND SWAP2 SWAP1 DUP5 AND SWAP1 PUSH32 0x21BAEDC621B715A34BA27312A07D13D9FEFD74E0FE7770FEF56DB94F3399E5BA SWAP1 PUSH1 0x0 SWAP1 LOG3 POP POP JUMP JUMPDEST PUSH1 0xE SLOAD PUSH1 0x1 PUSH1 0x1 PUSH1 0xA0 SHL SUB AND CALLER EQ PUSH2 0x3774 JUMPI PUSH1 0x40 MLOAD PUSH3 0x461BCD PUSH1 0xE5 SHL DUP2 MSTORE PUSH1 0x4 ADD PUSH2 0x11C3 SWAP1 PUSH2 0x5D36 JUMP JUMPDEST PUSH1 0xE SLOAD PUSH1 0x1 PUSH1 0x1 PUSH1 0xA0 SHL SUB AND PUSH2 0x379C JUMPI PUSH1 0x40 MLOAD PUSH3 0x461BCD PUSH1 0xE5 SHL DUP2 MSTORE PUSH1 0x4 ADD PUSH2 0x11C3 SWAP1 PUSH2 0x5D5E JUMP JUMPDEST PUSH1 0x1C DUP1 SLOAD PUSH1 0xFF NOT AND SWAP1 SSTORE PUSH1 0x40 MLOAD PUSH32 0x2E33380ADEA2F285A9841BB8E9745E505CE81DB299F34111D2AE1CFF72D10C28 SWAP1 PUSH1 0x0 SWAP1 LOG1 JUMP JUMPDEST PUSH1 0x0 PUSH32 0x0 PUSH1 0x1 PUSH1 0x1 PUSH1 0xA0 SHL SUB AND DUP3 PUSH1 0x1 PUSH1 0x1 PUSH1 0xA0 SHL SUB AND EQ DUP1 PUSH2 0x3820 JUMPI POP PUSH1 0x4 SLOAD PUSH1 0x1 PUSH1 0x1 PUSH1 0xA0 SHL SUB DUP4 DUP2 AND SWAP2 AND EQ JUMPDEST DUP1 PUSH2 0x3838 JUMPI POP PUSH1 0x5 SLOAD PUSH1 0x1 PUSH1 0x1 PUSH1 0xA0 SHL SUB DUP4 DUP2 AND SWAP2 AND EQ JUMPDEST DUP1 PUSH2 0x3850 JUMPI POP PUSH1 0x6 SLOAD PUSH1 0x1 PUSH1 0x1 PUSH1 0xA0 SHL SUB DUP4 DUP2 AND SWAP2 AND EQ JUMPDEST DUP1 PUSH2 0x3868 JUMPI POP PUSH1 0x7 SLOAD PUSH1 0x1 PUSH1 0x1 PUSH1 0xA0 SHL SUB DUP4 DUP2 AND SWAP2 AND EQ JUMPDEST DUP1 PUSH2 0x3880 JUMPI POP PUSH1 0x8 SLOAD PUSH1 0x1 PUSH1 0x1 PUSH1 0xA0 SHL SUB DUP4 DUP2 AND SWAP2 AND EQ JUMPDEST DUP1 PUSH2 0x3898 JUMPI POP PUSH1 0x9 SLOAD PUSH1 0x1 PUSH1 0x1 PUSH1 0xA0 SHL SUB DUP4 DUP2 AND SWAP2 AND EQ JUMPDEST DUP1 PUSH2 0x38B0 JUMPI POP PUSH1 0xA SLOAD PUSH1 0x1 PUSH1 0x1 PUSH1 0xA0 SHL SUB DUP4 DUP2 AND SWAP2 AND EQ JUMPDEST DUP1 PUSH2 0x38C8 JUMPI POP PUSH1 0xB SLOAD PUSH1 0x1 PUSH1 0x1 PUSH1 0xA0 SHL SUB DUP4 DUP2 AND SWAP2 AND EQ JUMPDEST DUP1 PUSH2 0x38E0 JUMPI POP PUSH1 0xC SLOAD PUSH1 0x1 PUSH1 0x1 PUSH1 0xA0 SHL SUB DUP4 DUP2 AND SWAP2 AND EQ JUMPDEST DUP1 PUSH2 0x1300 JUMPI POP POP PUSH1 0xD SLOAD PUSH1 0x1 PUSH1 0x1 PUSH1 0xA0 SHL SUB SWAP1 DUP2 AND SWAP2 AND EQ SWAP1 JUMP JUMPDEST PUSH1 0x0 PUSH2 0x3908 PUSH1 0x3 SLOAD TIMESTAMP LT SWAP1 JUMP JUMPDEST PUSH2 0x3912 JUMPI POP PUSH1 0x0 SWAP1 JUMP JUMPDEST TIMESTAMP PUSH1 0x3 SLOAD PUSH2 0x3920 SWAP2 SWAP1 PUSH2 0x5DAE JUMP JUMPDEST SWAP1 POP SWAP1 JUMP JUMPDEST PUSH1 0xE SLOAD PUSH1 0x1 PUSH1 0x1 PUSH1 0xA0 SHL SUB AND CALLER EQ PUSH2 0x3980 JUMPI PUSH1 0x10 SLOAD PUSH1 0x1 PUSH1 0xA0 SHL SWAP1 DIV PUSH1 0xFF AND ISZERO PUSH2 0x3980 JUMPI PUSH1 0x40 MLOAD PUSH3 0x461BCD PUSH1 0xE5 SHL DUP2 MSTORE PUSH1 0x20 PUSH1 0x4 DUP3 ADD MSTORE PUSH1 0xC PUSH1 0x24 DUP3 ADD MSTORE PUSH12 0x14DB1BDD1CC81B1BD8DAD959 PUSH1 0xA2 SHL PUSH1 0x44 DUP3 ADD MSTORE PUSH1 0x64 ADD PUSH2 0x11C3 JUMP JUMPDEST PUSH1 0x1 DUP3 PUSH1 0xFF AND LT ISZERO DUP1 ISZERO PUSH2 0x3998 JUMPI POP PUSH1 0xA DUP3 PUSH1 0xFF AND GT ISZERO JUMPDEST PUSH2 0x39D9 JUMPI PUSH1 0x40 MLOAD PUSH3 0x461BCD PUSH1 0xE5 SHL DUP2 MSTORE PUSH1 0x20 PUSH1 0x4 DUP3 ADD MSTORE PUSH1 0x12 PUSH1 0x24 DUP3 ADD MSTORE PUSH18 0x92DCECC2D8D2C840E6D8DEE840D2DCC8CAF PUSH1 0x73 SHL PUSH1 0x44 DUP3 ADD MSTORE PUSH1 0x64 ADD PUSH2 0x11C3 JUMP JUMPDEST PUSH1 0x1 PUSH1 0x1 PUSH1 0xA0 SHL SUB DUP2 AND PUSH2 0x3A1E JUMPI PUSH1 0x40 MLOAD PUSH3 0x461BCD PUSH1 0xE5 SHL DUP2 MSTORE PUSH1 0x20 PUSH1 0x4 DUP3 ADD MSTORE PUSH1 0xC PUSH1 0x24 DUP3 ADD MSTORE PUSH12 0x5A65726F2061646472657373 PUSH1 0xA0 SHL PUSH1 0x44 DUP3 ADD MSTORE PUSH1 0x64 ADD PUSH2 0x11C3 JUMP JUMPDEST DUP2 PUSH1 0xFF AND PUSH1 0x1 SUB PUSH2 0x3A71 JUMPI PUSH1 0x40 MLOAD PUSH3 0x461BCD PUSH1 0xE5 SHL DUP2 MSTORE PUSH1 0x20 PUSH1 0x4 DUP3 ADD MSTORE PUSH1 0x1F PUSH1 0x24 DUP3 ADD MSTORE PUSH32 0x536C6F742031206973206F776E6572202D2063616E6E6F74206368616E676500 PUSH1 0x44 DUP3 ADD MSTORE PUSH1 0x64 ADD PUSH2 0x11C3 JUMP JUMPDEST PUSH1 0x2 DUP3 PUSH1 0xFF AND LT ISZERO DUP1 ISZERO PUSH2 0x3A89 JUMPI POP PUSH1 0x5 DUP3 PUSH1 0xFF AND GT ISZERO JUMPDEST ISZERO PUSH2 0x3B15 JUMPI PUSH1 0xE SLOAD PUSH1 0x1 PUSH1 0x1 PUSH1 0xA0 SHL SUB AND CALLER EQ PUSH2 0x3AE8 JUMPI PUSH1 0x40 MLOAD PUSH3 0x461BCD PUSH1 0xE5 SHL DUP2 MSTORE PUSH1 0x20 PUSH1 0x4 DUP3 ADD MSTORE PUSH1 0x1C PUSH1 0x24 DUP3 ADD MSTORE PUSH32 0x4F6E6C79206D756C74692D73696720666F7220736C6F747320312D3500000000 PUSH1 0x44 DUP3 ADD MSTORE PUSH1 0x64 ADD PUSH2 0x11C3 JUMP JUMPDEST PUSH1 0xE SLOAD PUSH1 0x1 PUSH1 0x1 PUSH1 0xA0 SHL SUB AND PUSH2 0x3B10 JUMPI PUSH1 0x40 MLOAD PUSH3 0x461BCD PUSH1 0xE5 SHL DUP2 MSTORE PUSH1 0x4 ADD PUSH2 0x11C3 SWAP1 PUSH2 0x5D5E JUMP JUMPDEST PUSH2 0x3C2F JUMP JUMPDEST CALLER PUSH1 0x1 PUSH1 0x1 PUSH1 0xA0 SHL SUB PUSH32 0x0 AND EQ DUP1 PUSH2 0x3B56 JUMPI POP PUSH1 0x4 SLOAD PUSH1 0x1 PUSH1 0x1 PUSH1 0xA0 SHL SUB AND CALLER EQ JUMPDEST DUP1 PUSH2 0x3B6B JUMPI POP PUSH1 0x5 SLOAD PUSH1 0x1 PUSH1 0x1 PUSH1 0xA0 SHL SUB AND CALLER EQ JUMPDEST DUP1 PUSH2 0x3B80 JUMPI POP PUSH1 0x6 SLOAD PUSH1 0x1 PUSH1 0x1 PUSH1 0xA0 SHL SUB AND CALLER EQ JUMPDEST DUP1 PUSH2 0x3B95 JUMPI POP PUSH1 0x7 SLOAD PUSH1 0x1 PUSH1 0x1 PUSH1 0xA0 SHL SUB AND CALLER EQ JUMPDEST DUP1 PUSH2 0x3BAA JUMPI POP PUSH1 0x8 SLOAD PUSH1 0x1 PUSH1 0x1 PUSH1 0xA0 SHL SUB AND CALLER EQ JUMPDEST DUP1 PUSH2 0x3BBF JUMPI POP PUSH1 0x9 SLOAD PUSH1 0x1 PUSH1 0x1 PUSH1 0xA0 SHL SUB AND CALLER EQ JUMPDEST DUP1 PUSH2 0x3BD4 JUMPI POP PUSH1 0xA SLOAD PUSH1 0x1 PUSH1 0x1 PUSH1 0xA0 SHL SUB AND CALLER EQ JUMPDEST DUP1 PUSH2 0x3BE9 JUMPI POP PUSH1 0xB SLOAD PUSH1 0x1 PUSH1 0x1 PUSH1 0xA0 SHL SUB AND CALLER EQ JUMPDEST DUP1 PUSH2 0x3BFE JUMPI POP PUSH1 0xC SLOAD PUSH1 0x1 PUSH1 0x1 PUSH1 0xA0 SHL SUB AND CALLER EQ JUMPDEST DUP1 PUSH2 0x3C13 JUMPI POP PUSH1 0xD SLOAD PUSH1 0x1 PUSH1 0x1 PUSH1 0xA0 SHL SUB AND CALLER EQ JUMPDEST PUSH2 0x3C2F JUMPI PUSH1 0x40 MLOAD PUSH3 0x461BCD PUSH1 0xE5 SHL DUP2 MSTORE PUSH1 0x4 ADD PUSH2 0x11C3 SWAP1 PUSH2 0x5C5E JUMP JUMPDEST DUP2 PUSH1 0xFF AND PUSH1 0x2 SUB PUSH2 0x3C5A JUMPI PUSH1 0x5 DUP1 SLOAD PUSH1 0x1 PUSH1 0x1 PUSH1 0xA0 SHL SUB NOT AND PUSH1 0x1 PUSH1 0x1 PUSH1 0xA0 SHL SUB DUP4 AND OR SWAP1 SSTORE PUSH2 0x3DAE JUMP JUMPDEST DUP2 PUSH1 0xFF AND PUSH1 0x3 SUB PUSH2 0x3C85 JUMPI PUSH1 0x6 DUP1 SLOAD PUSH1 0x1 PUSH1 0x1 PUSH1 0xA0 SHL SUB NOT AND PUSH1 0x1 PUSH1 0x1 PUSH1 0xA0 SHL SUB DUP4 AND OR SWAP1 SSTORE PUSH2 0x3DAE JUMP JUMPDEST DUP2 PUSH1 0xFF AND PUSH1 0x4 SUB PUSH2 0x3CB0 JUMPI PUSH1 0x7 DUP1 SLOAD PUSH1 0x1 PUSH1 0x1 PUSH1 0xA0 SHL SUB NOT AND PUSH1 0x1 PUSH1 0x1 PUSH1 0xA0 SHL SUB DUP4 AND OR SWAP1 SSTORE PUSH2 0x3DAE JUMP JUMPDEST DUP2 PUSH1 0xFF AND PUSH1 0x5 SUB PUSH2 0x3CDB JUMPI PUSH1 0x8 DUP1 SLOAD PUSH1 0x1 PUSH1 0x1 PUSH1 0xA0 SHL SUB NOT AND PUSH1 0x1 PUSH1 0x1 PUSH1 0xA0 SHL SUB DUP4 AND OR SWAP1 SSTORE PUSH2 0x3DAE JUMP JUMPDEST DUP2 PUSH1 0xFF AND PUSH1 0x6 SUB PUSH2 0x3D06 JUMPI PUSH1 0x9 DUP1 SLOAD PUSH1 0x1 PUSH1 0x1 PUSH1 0xA0 SHL SUB NOT AND PUSH1 0x1 PUSH1 0x1 PUSH1 0xA0 SHL SUB DUP4 AND OR SWAP1 SSTORE PUSH2 0x3DAE JUMP JUMPDEST DUP2 PUSH1 0xFF AND PUSH1 0x7 SUB PUSH2 0x3D31 JUMPI PUSH1 0xA DUP1 SLOAD PUSH1 0x1 PUSH1 0x1 PUSH1 0xA0 SHL SUB NOT AND PUSH1 0x1 PUSH1 0x1 PUSH1 0xA0 SHL SUB DUP4 AND OR SWAP1 SSTORE PUSH2 0x3DAE JUMP JUMPDEST DUP2 PUSH1 0xFF AND PUSH1 0x8 SUB PUSH2 0x3D5C JUMPI PUSH1 0xB DUP1 SLOAD PUSH1 0x1 PUSH1 0x1 PUSH1 0xA0 SHL SUB NOT AND PUSH1 0x1 PUSH1 0x1 PUSH1 0xA0 SHL SUB DUP4 AND OR SWAP1 SSTORE PUSH2 0x3DAE JUMP JUMPDEST DUP2 PUSH1 0xFF AND PUSH1 0x9 SUB PUSH2 0x3D87 JUMPI PUSH1 0xC DUP1 SLOAD PUSH1 0x1 PUSH1 0x1 PUSH1 0xA0 SHL SUB NOT AND PUSH1 0x1 PUSH1 0x1 PUSH1 0xA0 SHL SUB DUP4 AND OR SWAP1 SSTORE PUSH2 0x3DAE JUMP JUMPDEST DUP2 PUSH1 0xFF AND PUSH1 0xA SUB PUSH2 0x3DAE JUMPI PUSH1 0xD DUP1 SLOAD PUSH1 0x1 PUSH1 0x1 PUSH1 0xA0 SHL SUB NOT AND PUSH1 0x1 PUSH1 0x1 PUSH1 0xA0 SHL SUB DUP4 AND OR SWAP1 SSTORE JUMPDEST PUSH2 0x3DBB PUSH3 0x2A300 TIMESTAMP PUSH2 0x5CF4 JUMP JUMPDEST PUSH1 0x3 DUP2 SWAP1 SSTORE PUSH1 0x40 MLOAD SWAP1 DUP2 MSTORE PUSH1 0x0 DUP1 MLOAD PUSH1 0x20 PUSH2 0x5E35 DUP4 CODECOPY DUP2 MLOAD SWAP2 MSTORE SWAP1 PUSH1 0x20 ADD PUSH1 0x40 MLOAD DUP1 SWAP2 SUB SWAP1 LOG1 PUSH2 0x3DEE PUSH3 0x2A300 TIMESTAMP PUSH2 0x5CF4 JUMP JUMPDEST PUSH1 0x11 SSTORE PUSH1 0x40 MLOAD PUSH1 0x1 PUSH1 0x1 PUSH1 0xA0 SHL SUB DUP3 AND SWAP1 PUSH1 0xFF DUP5 AND SWAP1 PUSH32 0x55FA37C516338944FCC832B2FFDE413707862AF8395516E549C43AF435A58797 SWAP1 PUSH1 0x0 SWAP1 LOG3 POP POP JUMP JUMPDEST PUSH1 0x0 PUSH32 0x0 TIMESTAMP LT PUSH2 0x3E5D JUMPI POP PUSH1 0x0 SWAP1 JUMP JUMPDEST PUSH2 0x3920 TIMESTAMP PUSH32 0x0 PUSH2 0x5DAE JUMP JUMPDEST CALLER PUSH1 0x1 PUSH1 0x1 PUSH1 0xA0 SHL SUB PUSH32 0x0 AND EQ DUP1 PUSH2 0x3EC8 JUMPI POP PUSH1 0x4 SLOAD PUSH1 0x1 PUSH1 0x1 PUSH1 0xA0 SHL SUB AND CALLER EQ JUMPDEST DUP1 PUSH2 0x3EDD JUMPI POP PUSH1 0x5 SLOAD PUSH1 0x1 PUSH1 0x1 PUSH1 0xA0 SHL SUB AND CALLER EQ JUMPDEST DUP1 PUSH2 0x3EF2 JUMPI POP PUSH1 0x6 SLOAD PUSH1 0x1 PUSH1 0x1 PUSH1 0xA0 SHL SUB AND CALLER EQ JUMPDEST DUP1 PUSH2 0x3F07 JUMPI POP PUSH1 0x7 SLOAD PUSH1 0x1 PUSH1 0x1 PUSH1 0xA0 SHL SUB AND CALLER EQ JUMPDEST DUP1 PUSH2 0x3F1C JUMPI POP PUSH1 0x8 SLOAD PUSH1 0x1 PUSH1 0x1 PUSH1 0xA0 SHL SUB AND CALLER EQ JUMPDEST DUP1 PUSH2 0x3F31 JUMPI POP PUSH1 0x9 SLOAD PUSH1 0x1 PUSH1 0x1 PUSH1 0xA0 SHL SUB AND CALLER EQ JUMPDEST DUP1 PUSH2 0x3F46 JUMPI POP PUSH1 0xA SLOAD PUSH1 0x1 PUSH1 0x1 PUSH1 0xA0 SHL SUB AND CALLER EQ JUMPDEST DUP1 PUSH2 0x3F5B JUMPI POP PUSH1 0xB SLOAD PUSH1 0x1 PUSH1 0x1 PUSH1 0xA0 SHL SUB AND CALLER EQ JUMPDEST DUP1 PUSH2 0x3F70 JUMPI POP PUSH1 0xC SLOAD PUSH1 0x1 PUSH1 0x1 PUSH1 0xA0 SHL SUB AND CALLER EQ JUMPDEST DUP1 PUSH2 0x3F85 JUMPI POP PUSH1 0xD SLOAD PUSH1 0x1 PUSH1 0x1 PUSH1 0xA0 SHL SUB AND CALLER EQ JUMPDEST DUP1 PUSH2 0x3F9A JUMPI POP PUSH1 0xE SLOAD PUSH1 0x1 PUSH1 0x1 PUSH1 0xA0 SHL SUB AND CALLER EQ JUMPDEST PUSH2 0x3FB6 JUMPI PUSH1 0x40 MLOAD PUSH3 0x461BCD PUSH1 0xE5 SHL DUP2 MSTORE PUSH1 0x4 ADD PUSH2 0x11C3 SWAP1 PUSH2 0x5C5E JUMP JUMPDEST PUSH1 0xE SLOAD PUSH1 0x1 PUSH1 0x1 PUSH1 0xA0 SHL SUB AND CALLER EQ PUSH2 0x3FEB JUMPI PUSH1 0x13 SLOAD PUSH1 0xFF AND ISZERO PUSH2 0x3FEB JUMPI PUSH1 0x40 MLOAD PUSH3 0x461BCD PUSH1 0xE5 SHL DUP2 MSTORE PUSH1 0x4 ADD PUSH2 0x11C3 SWAP1 PUSH2 0x5C81 JUMP JUMPDEST PUSH1 0xE SLOAD PUSH1 0x1 PUSH1 0x1 PUSH1 0xA0 SHL SUB AND CALLER EQ PUSH2 0x401F JUMPI PUSH1 0x11 SLOAD TIMESTAMP LT ISZERO PUSH2 0x401F JUMPI PUSH1 0x40 MLOAD PUSH3 0x461BCD PUSH1 0xE5 SHL DUP2 MSTORE PUSH1 0x4 ADD PUSH2 0x11C3 SWAP1 PUSH2 0x5CA7 JUMP JUMPDEST PUSH1 0x0 JUMPDEST DUP3 DUP2 LT ISZERO PUSH2 0x4133 JUMPI PUSH1 0x0 DUP5 DUP5 DUP4 DUP2 DUP2 LT PUSH2 0x403E JUMPI PUSH2 0x403E PUSH2 0x5D07 JUMP JUMPDEST SWAP1 POP PUSH1 0x20 MUL ADD PUSH1 0x20 DUP2 ADD SWAP1 PUSH2 0x4053 SWAP2 SWAP1 PUSH2 0x59E0 JUMP JUMPDEST PUSH1 0x1 PUSH1 0x1 PUSH1 0xA0 SHL SUB AND EQ PUSH2 0x4121 JUMPI DUP2 PUSH1 0x12 PUSH1 0x0 DUP7 DUP7 DUP6 DUP2 DUP2 LT PUSH2 0x4078 JUMPI PUSH2 0x4078 PUSH2 0x5D07 JUMP JUMPDEST SWAP1 POP PUSH1 0x20 MUL ADD PUSH1 0x20 DUP2 ADD SWAP1 PUSH2 0x408D SWAP2 SWAP1 PUSH2 0x59E0 JUMP JUMPDEST PUSH1 0x1 PUSH1 0x1 PUSH1 0xA0 SHL SUB AND DUP2 MSTORE PUSH1 0x20 DUP2 ADD SWAP2 SWAP1 SWAP2 MSTORE PUSH1 0x40 ADD PUSH1 0x0 KECCAK256 DUP1 SLOAD PUSH1 0xFF NOT AND SWAP2 ISZERO ISZERO SWAP2 SWAP1 SWAP2 OR SWAP1 SSTORE DUP4 DUP4 DUP3 DUP2 DUP2 LT PUSH2 0x40C7 JUMPI PUSH2 0x40C7 PUSH2 0x5D07 JUMP JUMPDEST SWAP1 POP PUSH1 0x20 MUL ADD PUSH1 0x20 DUP2 ADD SWAP1 PUSH2 0x40DC SWAP2 SWAP1 PUSH2 0x59E0 JUMP JUMPDEST PUSH1 0x1 PUSH1 0x1 PUSH1 0xA0 SHL SUB AND PUSH32 0x7A2F4227DF0CE76D5D4187329FAAF8C53EB621FD92EDB868D331F292BB011344 DUP4 PUSH1 0x40 MLOAD PUSH2 0x4118 SWAP2 ISZERO ISZERO DUP2 MSTORE PUSH1 0x20 ADD SWAP1 JUMP JUMPDEST PUSH1 0x40 MLOAD DUP1 SWAP2 SUB SWAP1 LOG2 JUMPDEST DUP1 PUSH2 0x412B DUP2 PUSH2 0x5D1D JUMP JUMPDEST SWAP2 POP POP PUSH2 0x4022 JUMP JUMPDEST POP PUSH2 0x4141 PUSH3 0x2A300 TIMESTAMP PUSH2 0x5CF4 JUMP JUMPDEST PUSH1 0x3 DUP2 SWAP1 SSTORE PUSH1 0x40 MLOAD SWAP1 DUP2 MSTORE PUSH1 0x0 DUP1 MLOAD PUSH1 0x20 PUSH2 0x5E35 DUP4 CODECOPY DUP2 MLOAD SWAP2 MSTORE SWAP1 PUSH1 0x20 ADD PUSH1 0x40 MLOAD DUP1 SWAP2 SUB SWAP1 LOG1 PUSH2 0x4174 PUSH3 0x2A300 TIMESTAMP PUSH2 0x5CF4 JUMP JUMPDEST PUSH1 0x11 SSTORE POP POP POP JUMP JUMPDEST CALLER PUSH1 0x1 PUSH1 0x1 PUSH1 0xA0 SHL SUB PUSH32 0x0 AND EQ DUP1 PUSH2 0x41BD JUMPI POP PUSH1 0x4 SLOAD PUSH1 0x1 PUSH1 0x1 PUSH1 0xA0 SHL SUB AND CALLER EQ JUMPDEST DUP1 PUSH2 0x41D2 JUMPI POP PUSH1 0x5 SLOAD PUSH1 0x1 PUSH1 0x1 PUSH1 0xA0 SHL SUB AND CALLER EQ JUMPDEST DUP1 PUSH2 0x41E7 JUMPI POP PUSH1 0x6 SLOAD PUSH1 0x1 PUSH1 0x1 PUSH1 0xA0 SHL SUB AND CALLER EQ JUMPDEST DUP1 PUSH2 0x41FC JUMPI POP PUSH1 0x7 SLOAD PUSH1 0x1 PUSH1 0x1 PUSH1 0xA0 SHL SUB AND CALLER EQ JUMPDEST DUP1 PUSH2 0x4211 JUMPI POP PUSH1 0x8 SLOAD PUSH1 0x1 PUSH1 0x1 PUSH1 0xA0 SHL SUB AND CALLER EQ JUMPDEST DUP1 PUSH2 0x4226 JUMPI POP PUSH1 0x9 SLOAD PUSH1 0x1 PUSH1 0x1 PUSH1 0xA0 SHL SUB AND CALLER EQ JUMPDEST DUP1 PUSH2 0x423B JUMPI POP PUSH1 0xA SLOAD PUSH1 0x1 PUSH1 0x1 PUSH1 0xA0 SHL SUB AND CALLER EQ JUMPDEST DUP1 PUSH2 0x4250 JUMPI POP PUSH1 0xB SLOAD PUSH1 0x1 PUSH1 0x1 PUSH1 0xA0 SHL SUB AND CALLER EQ JUMPDEST DUP1 PUSH2 0x4265 JUMPI POP PUSH1 0xC SLOAD PUSH1 0x1 PUSH1 0x1 PUSH1 0xA0 SHL SUB AND CALLER EQ JUMPDEST DUP1 PUSH2 0x427A JUMPI POP PUSH1 0xD SLOAD PUSH1 0x1 PUSH1 0x1 PUSH1 0xA0 SHL SUB AND CALLER EQ JUMPDEST DUP1 PUSH2 0x428F JUMPI POP PUSH1 0xE SLOAD PUSH1 0x1 PUSH1 0x1 PUSH1 0xA0 SHL SUB AND CALLER EQ JUMPDEST PUSH2 0x42AB JUMPI PUSH1 0x40 MLOAD PUSH3 0x461BCD PUSH1 0xE5 SHL DUP2 MSTORE PUSH1 0x4 ADD PUSH2 0x11C3 SWAP1 PUSH2 0x5C5E JUMP JUMPDEST PUSH1 0xE SLOAD PUSH1 0x1 PUSH1 0x1 PUSH1 0xA0 SHL SUB AND CALLER EQ PUSH2 0x42DF JUMPI PUSH1 0x11 SLOAD TIMESTAMP LT ISZERO PUSH2 0x42DF JUMPI PUSH1 0x40 MLOAD PUSH3 0x461BCD PUSH1 0xE5 SHL DUP2 MSTORE PUSH1 0x4 ADD PUSH2 0x11C3 SWAP1 PUSH2 0x5CA7 JUMP JUMPDEST PUSH1 0x0 DUP2 DUP2 MSTORE PUSH1 0x1A PUSH1 0x20 MSTORE PUSH1 0x40 SWAP1 KECCAK256 PUSH1 0x3 DUP2 ADD SLOAD PUSH1 0xFF AND ISZERO PUSH2 0x4335 JUMPI PUSH1 0x40 MLOAD PUSH3 0x461BCD PUSH1 0xE5 SHL DUP2 MSTORE PUSH1 0x20 PUSH1 0x4 DUP3 ADD MSTORE PUSH1 0x10 PUSH1 0x24 DUP3 ADD MSTORE PUSH16 0x105B1C9958591E48195E1958DD5D1959 PUSH1 0x82 SHL PUSH1 0x44 DUP3 ADD MSTORE PUSH1 0x64 ADD PUSH2 0x11C3 JUMP JUMPDEST DUP1 SLOAD PUSH2 0x4376 JUMPI PUSH1 0x40 MLOAD PUSH3 0x461BCD PUSH1 0xE5 SHL DUP2 MSTORE PUSH1 0x20 PUSH1 0x4 DUP3 ADD MSTORE PUSH1 0x10 PUSH1 0x24 DUP3 ADD MSTORE PUSH16 0x125B9D985B1A59081C1C9BDC1BDCD85B PUSH1 0x82 SHL PUSH1 0x44 DUP3 ADD MSTORE PUSH1 0x64 ADD PUSH2 0x11C3 JUMP JUMPDEST DUP1 PUSH1 0x2 ADD SLOAD TIMESTAMP LT ISZERO PUSH2 0x43C0 JUMPI PUSH1 0x40 MLOAD PUSH3 0x461BCD PUSH1 0xE5 SHL DUP2 MSTORE PUSH1 0x20 PUSH1 0x4 DUP3 ADD MSTORE PUSH1 0x13 PUSH1 0x24 DUP3 ADD MSTORE PUSH19 0x151A5B595B1BD8DAC81B9BDD081C185CDCD959 PUSH1 0x6A SHL PUSH1 0x44 DUP3 ADD MSTORE PUSH1 0x64 ADD PUSH2 0x11C3 JUMP JUMPDEST PUSH1 0x3 DUP2 ADD DUP1 SLOAD PUSH1 0xFF NOT AND PUSH1 0x1 SWAP1 DUP2 OR SWAP1 SWAP2 SSTORE TIMESTAMP PUSH1 0x19 SSTORE DUP2 SLOAD DUP2 SLOAD ADD SWAP1 SSTORE DUP1 SLOAD PUSH1 0x1 PUSH1 0x1 PUSH1 0xA0 SHL SUB PUSH32 0x0 AND PUSH1 0x0 DUP2 DUP2 MSTORE PUSH1 0x14 PUSH1 0x20 MSTORE PUSH1 0x40 DUP1 DUP3 KECCAK256 DUP1 SLOAD SWAP1 SWAP5 ADD SWAP1 SWAP4 SSTORE DUP4 SLOAD SWAP3 MLOAD SWAP2 SWAP3 SWAP1 SWAP2 PUSH1 0x0 DUP1 MLOAD PUSH1 0x20 PUSH2 0x5E75 DUP4 CODECOPY DUP2 MLOAD SWAP2 MSTORE SWAP2 PUSH2 0x4445 SWAP2 SWAP1 DUP2 MSTORE PUSH1 0x20 ADD SWAP1 JUMP JUMPDEST PUSH1 0x40 MLOAD DUP1 SWAP2 SUB SWAP1 LOG3 DUP1 SLOAD PUSH1 0x40 MLOAD SWAP1 DUP2 MSTORE DUP3 SWAP1 PUSH32 0x1C8450E81009BAE0B2DC2AF7E74559BB5A99E3C83EE6199C8822376295F958EA SWAP1 PUSH1 0x20 ADD PUSH2 0x1569 JUMP JUMPDEST CALLER PUSH1 0x1 PUSH1 0x1 PUSH1 0xA0 SHL SUB PUSH32 0x0 AND EQ DUP1 PUSH2 0x44C2 JUMPI POP PUSH1 0x4 SLOAD PUSH1 0x1 PUSH1 0x1 PUSH1 0xA0 SHL SUB AND CALLER EQ JUMPDEST DUP1 PUSH2 0x44D7 JUMPI POP PUSH1 0x5 SLOAD PUSH1 0x1 PUSH1 0x1 PUSH1 0xA0 SHL SUB AND CALLER EQ JUMPDEST DUP1 PUSH2 0x44EC JUMPI POP PUSH1 0x6 SLOAD PUSH1 0x1 PUSH1 0x1 PUSH1 0xA0 SHL SUB AND CALLER EQ JUMPDEST DUP1 PUSH2 0x4501 JUMPI POP PUSH1 0x7 SLOAD PUSH1 0x1 PUSH1 0x1 PUSH1 0xA0 SHL SUB AND CALLER EQ JUMPDEST DUP1 PUSH2 0x4516 JUMPI POP PUSH1 0x8 SLOAD PUSH1 0x1 PUSH1 0x1 PUSH1 0xA0 SHL SUB AND CALLER EQ JUMPDEST DUP1 PUSH2 0x452B JUMPI POP PUSH1 0x9 SLOAD PUSH1 0x1 PUSH1 0x1 PUSH1 0xA0 SHL SUB AND CALLER EQ JUMPDEST DUP1 PUSH2 0x4540 JUMPI POP PUSH1 0xA SLOAD PUSH1 0x1 PUSH1 0x1 PUSH1 0xA0 SHL SUB AND CALLER EQ JUMPDEST DUP1 PUSH2 0x4555 JUMPI POP PUSH1 0xB SLOAD PUSH1 0x1 PUSH1 0x1 PUSH1 0xA0 SHL SUB AND CALLER EQ JUMPDEST DUP1 PUSH2 0x456A JUMPI POP PUSH1 0xC SLOAD PUSH1 0x1 PUSH1 0x1 PUSH1 0xA0 SHL SUB AND CALLER EQ JUMPDEST DUP1 PUSH2 0x457F JUMPI POP PUSH1 0xD SLOAD PUSH1 0x1 PUSH1 0x1 PUSH1 0xA0 SHL SUB AND CALLER EQ JUMPDEST DUP1 PUSH2 0x4594 JUMPI POP PUSH1 0xE SLOAD PUSH1 0x1 PUSH1 0x1 PUSH1 0xA0 SHL SUB AND CALLER EQ JUMPDEST PUSH2 0x45B0 JUMPI PUSH1 0x40 MLOAD PUSH3 0x461BCD PUSH1 0xE5 SHL DUP2 MSTORE PUSH1 0x4 ADD PUSH2 0x11C3 SWAP1 PUSH2 0x5C5E JUMP JUMPDEST ADDRESS PUSH1 0x0 SWAP1 DUP2 MSTORE PUSH1 0x14 PUSH1 0x20 MSTORE PUSH1 0x40 SWAP1 KECCAK256 SLOAD DUP2 GT ISZERO PUSH2 0x45DF JUMPI PUSH1 0x40 MLOAD PUSH3 0x461BCD PUSH1 0xE5 SHL DUP2 MSTORE PUSH1 0x4 ADD PUSH2 0x11C3 SWAP1 PUSH2 0x5D89 JUMP JUMPDEST ADDRESS PUSH1 0x0 DUP2 DUP2 MSTORE PUSH1 0x14 PUSH1 0x20 SWAP1 DUP2 MSTORE PUSH1 0x40 DUP1 DUP4 KECCAK256 DUP1 SLOAD DUP7 SWAP1 SUB SWAP1 SSTORE PUSH1 0x1 PUSH1 0x1 PUSH1 0xA0 SHL SUB PUSH32 0x0 AND DUP1 DUP5 MSTORE SWAP3 DUP2 SWAP1 KECCAK256 DUP1 SLOAD DUP7 ADD SWAP1 SSTORE MLOAD DUP5 DUP2 MSTORE SWAP2 SWAP3 SWAP2 PUSH1 0x0 DUP1 MLOAD PUSH1 0x20 PUSH2 0x5E75 DUP4 CODECOPY DUP2 MLOAD SWAP2 MSTORE SWAP2 ADD PUSH1 0x40 MLOAD DUP1 SWAP2 SUB SWAP1 LOG3 POP JUMP JUMPDEST CALLER PUSH1 0x1 PUSH1 0x1 PUSH1 0xA0 SHL SUB PUSH32 0x0 AND EQ DUP1 PUSH2 0x4693 JUMPI POP PUSH1 0x4 SLOAD PUSH1 0x1 PUSH1 0x1 PUSH1 0xA0 SHL SUB AND CALLER EQ JUMPDEST DUP1 PUSH2 0x46A8 JUMPI POP PUSH1 0x5 SLOAD PUSH1 0x1 PUSH1 0x1 PUSH1 0xA0 SHL SUB AND CALLER EQ JUMPDEST DUP1 PUSH2 0x46BD JUMPI POP PUSH1 0x6 SLOAD PUSH1 0x1 PUSH1 0x1 PUSH1 0xA0 SHL SUB AND CALLER EQ JUMPDEST DUP1 PUSH2 0x46D2 JUMPI POP PUSH1 0x7 SLOAD PUSH1 0x1 PUSH1 0x1 PUSH1 0xA0 SHL SUB AND CALLER EQ JUMPDEST DUP1 PUSH2 0x46E7 JUMPI POP PUSH1 0x8 SLOAD PUSH1 0x1 PUSH1 0x1 PUSH1 0xA0 SHL SUB AND CALLER EQ JUMPDEST DUP1 PUSH2 0x46FC JUMPI POP PUSH1 0x9 SLOAD PUSH1 0x1 PUSH1 0x1 PUSH1 0xA0 SHL SUB AND CALLER EQ JUMPDEST DUP1 PUSH2 0x4711 JUMPI POP PUSH1 0xA SLOAD PUSH1 0x1 PUSH1 0x1 PUSH1 0xA0 SHL SUB AND CALLER EQ JUMPDEST DUP1 PUSH2 0x4726 JUMPI POP PUSH1 0xB SLOAD PUSH1 0x1 PUSH1 0x1 PUSH1 0xA0 SHL SUB AND CALLER EQ JUMPDEST DUP1 PUSH2 0x473B JUMPI POP PUSH1 0xC SLOAD PUSH1 0x1 PUSH1 0x1 PUSH1 0xA0 SHL SUB AND CALLER EQ JUMPDEST DUP1 PUSH2 0x4750 JUMPI POP PUSH1 0xD SLOAD PUSH1 0x1 PUSH1 0x1 PUSH1 0xA0 SHL SUB AND CALLER EQ JUMPDEST DUP1 PUSH2 0x4765 JUMPI POP PUSH1 0xE SLOAD PUSH1 0x1 PUSH1 0x1 PUSH1 0xA0 SHL SUB AND CALLER EQ JUMPDEST PUSH2 0x4781 JUMPI PUSH1 0x40 MLOAD PUSH3 0x461BCD PUSH1 0xE5 SHL DUP2 MSTORE PUSH1 0x4 ADD PUSH2 0x11C3 SWAP1 PUSH2 0x5C5E JUMP JUMPDEST PUSH1 0x2 SLOAD PUSH1 0xFF AND ISZERO PUSH2 0x47C5 JUMPI PUSH1 0x40 MLOAD PUSH3 0x461BCD PUSH1 0xE5 SHL DUP2 MSTORE PUSH1 0x20 PUSH1 0x4 DUP3 ADD MSTORE PUSH1 0xE PUSH1 0x24 DUP3 ADD MSTORE PUSH14 0x111A5CDD0818DBDB5C1B195D1959 PUSH1 0x92 SHL PUSH1 0x44 DUP3 ADD MSTORE PUSH1 0x64 ADD PUSH2 0x11C3 JUMP JUMPDEST ADDRESS PUSH1 0x0 SWAP1 DUP2 MSTORE PUSH1 0x14 PUSH1 0x20 MSTORE PUSH1 0x40 SWAP1 KECCAK256 SLOAD PUSH11 0x34F086F3B33B684000000 GT ISZERO PUSH2 0x4826 JUMPI PUSH1 0x40 MLOAD PUSH3 0x461BCD PUSH1 0xE5 SHL DUP2 MSTORE PUSH1 0x20 PUSH1 0x4 DUP3 ADD MSTORE PUSH1 0x14 PUSH1 0x24 DUP3 ADD MSTORE PUSH20 0x436F6E74726163742062616C616E6365206C6F77 PUSH1 0x60 SHL PUSH1 0x44 DUP3 ADD MSTORE PUSH1 0x64 ADD PUSH2 0x11C3 JUMP JUMPDEST PUSH1 0x2 DUP1 SLOAD PUSH1 0xFF NOT AND PUSH1 0x1 OR SWAP1 SSTORE PUSH32 0x0 PUSH1 0x1 PUSH1 0x1 PUSH1 0xA0 SHL SUB AND ISZERO DUP1 ISZERO SWAP1 PUSH2 0x48BD JUMPI POP PUSH32 0x0 PUSH1 0x1 PUSH1 0x1 PUSH1 0xA0 SHL SUB AND PUSH32 0x0 PUSH1 0x1 PUSH1 0x1 PUSH1 0xA0 SHL SUB AND EQ ISZERO JUMPDEST DUP1 ISZERO PUSH2 0x48C7 JUMPI POP PUSH1 0x1 JUMPDEST ISZERO PUSH2 0x4A1B JUMPI ADDRESS PUSH1 0x0 SWAP1 DUP2 MSTORE PUSH1 0x14 PUSH1 0x20 MSTORE PUSH1 0x40 DUP2 KECCAK256 DUP1 SLOAD PUSH11 0x13DA329B6336471800000 SWAP3 SWAP1 PUSH2 0x48F6 SWAP1 DUP5 SWAP1 PUSH2 0x5DAE JUMP JUMPDEST SWAP1 SWAP2 SSTORE POP POP PUSH1 0x1 PUSH1 0x1 PUSH1 0xA0 SHL SUB PUSH32 0x0 AND PUSH1 0x0 SWAP1 DUP2 MSTORE PUSH1 0x14 PUSH1 0x20 MSTORE PUSH1 0x40 DUP2 KECCAK256 DUP1 SLOAD PUSH11 0x13DA329B6336471800000 SWAP3 SWAP1 PUSH2 0x494E SWAP1 DUP5 SWAP1 PUSH2 0x5CF4 JUMP JUMPDEST SWAP1 SWAP2 SSTORE POP POP PUSH1 0x40 MLOAD PUSH11 0x13DA329B6336471800000 DUP2 MSTORE PUSH32 0x0 PUSH1 0x1 PUSH1 0x1 PUSH1 0xA0 SHL SUB AND SWAP1 ADDRESS SWAP1 PUSH1 0x0 DUP1 MLOAD PUSH1 0x20 PUSH2 0x5E75 DUP4 CODECOPY DUP2 MLOAD SWAP2 MSTORE SWAP1 PUSH1 0x20 ADD PUSH1 0x40 MLOAD DUP1 SWAP2 SUB SWAP1 LOG3 PUSH32 0x0 PUSH1 0x1 PUSH1 0x1 PUSH1 0xA0 SHL SUB AND PUSH32 0x78786C581DA76125B3C6C8A810ADB3D2DAB5D14B1273B8220661085F045E25CD PUSH11 0x13DA329B6336471800000 PUSH1 0x40 MLOAD PUSH2 0x4A12 SWAP2 DUP2 MSTORE PUSH1 0x20 ADD SWAP1 JUMP JUMPDEST PUSH1 0x40 MLOAD DUP1 SWAP2 SUB SWAP1 LOG2 JUMPDEST PUSH32 0x0 PUSH1 0x1 PUSH1 0x1 PUSH1 0xA0 SHL SUB AND ISZERO DUP1 ISZERO SWAP1 PUSH2 0x4AA5 JUMPI POP PUSH32 0x0 PUSH1 0x1 PUSH1 0x1 PUSH1 0xA0 SHL SUB AND PUSH32 0x0 PUSH1 0x1 PUSH1 0x1 PUSH1 0xA0 SHL SUB AND EQ ISZERO JUMPDEST DUP1 ISZERO PUSH2 0x4AAF JUMPI POP PUSH1 0x1 JUMPDEST ISZERO PUSH2 0x4BFF JUMPI ADDRESS PUSH1 0x0 SWAP1 DUP2 MSTORE PUSH1 0x14 PUSH1 0x20 MSTORE PUSH1 0x40 DUP2 KECCAK256 DUP1 SLOAD PUSH10 0xD3C21BCECCEDA1000000 SWAP3 SWAP1 PUSH2 0x4ADD SWAP1 DUP5 SWAP1 PUSH2 0x5DAE JUMP JUMPDEST SWAP1 SWAP2 SSTORE POP POP PUSH1 0x1 PUSH1 0x1 PUSH1 0xA0 SHL SUB PUSH32 0x0 AND PUSH1 0x0 SWAP1 DUP2 MSTORE PUSH1 0x14 PUSH1 0x20 MSTORE PUSH1 0x40 DUP2 KECCAK256 DUP1 SLOAD PUSH10 0xD3C21BCECCEDA1000000 SWAP3 SWAP1 PUSH2 0x4B34 SWAP1 DUP5 SWAP1 PUSH2 0x5CF4 JUMP JUMPDEST SWAP1 SWAP2 SSTORE POP POP PUSH1 0x40 MLOAD PUSH10 0xD3C21BCECCEDA1000000 DUP2 MSTORE PUSH32 0x0 PUSH1 0x1 PUSH1 0x1 PUSH1 0xA0 SHL SUB AND SWAP1 ADDRESS SWAP1 PUSH1 0x0 DUP1 MLOAD PUSH1 0x20 PUSH2 0x5E75 DUP4 CODECOPY DUP2 MLOAD SWAP2 MSTORE SWAP1 PUSH1 0x20 ADD PUSH1 0x40 MLOAD DUP1 SWAP2 SUB SWAP1 LOG3 PUSH32 0x0 PUSH1 0x1 PUSH1 0x1 PUSH1 0xA0 SHL SUB AND PUSH32 0x78786C581DA76125B3C6C8A810ADB3D2DAB5D14B1273B8220661085F045E25CD PUSH10 0xD3C21BCECCEDA1000000 PUSH1 0x40 MLOAD PUSH2 0x4BF6 SWAP2 DUP2 MSTORE PUSH1 0x20 ADD SWAP1 JUMP JUMPDEST PUSH1 0x40 MLOAD DUP1 SWAP2 SUB SWAP1 LOG2 JUMPDEST PUSH32 0x0 PUSH1 0x1 PUSH1 0x1 PUSH1 0xA0 SHL SUB AND ISZERO DUP1 ISZERO SWAP1 PUSH2 0x4C89 JUMPI POP PUSH32 0x0 PUSH1 0x1 PUSH1 0x1 PUSH1 0xA0 SHL SUB AND PUSH32 0x0 PUSH1 0x1 PUSH1 0x1 PUSH1 0xA0 SHL SUB AND EQ ISZERO JUMPDEST DUP1 ISZERO PUSH2 0x4C93 JUMPI POP PUSH1 0x1 JUMPDEST ISZERO PUSH2 0x4DE7 JUMPI ADDRESS PUSH1 0x0 SWAP1 DUP2 MSTORE PUSH1 0x14 PUSH1 0x20 MSTORE PUSH1 0x40 DUP2 KECCAK256 DUP1 SLOAD PUSH11 0x13DA329B6336471800000 SWAP3 SWAP1 PUSH2 0x4CC2 SWAP1 DUP5 SWAP1 PUSH2 0x5DAE JUMP JUMPDEST SWAP1 SWAP2 SSTORE POP POP PUSH1 0x1 PUSH1 0x1 PUSH1 0xA0 SHL SUB PUSH32 0x0 AND PUSH1 0x0 SWAP1 DUP2 MSTORE PUSH1 0x14 PUSH1 0x20 MSTORE PUSH1 0x40 DUP2 KECCAK256 DUP1 SLOAD PUSH11 0x13DA329B6336471800000 SWAP3 SWAP1 PUSH2 0x4D1A SWAP1 DUP5 SWAP1 PUSH2 0x5CF4 JUMP JUMPDEST SWAP1 SWAP2 SSTORE POP POP PUSH1 0x40 MLOAD PUSH11 0x13DA329B6336471800000 DUP2 MSTORE PUSH32 0x0 PUSH1 0x1 PUSH1 0x1 PUSH1 0xA0 SHL SUB AND SWAP1 ADDRESS SWAP1 PUSH1 0x0 DUP1 MLOAD PUSH1 0x20 PUSH2 0x5E75 DUP4 CODECOPY DUP2 MLOAD SWAP2 MSTORE SWAP1 PUSH1 0x20 ADD PUSH1 0x40 MLOAD DUP1 SWAP2 SUB SWAP1 LOG3 PUSH32 0x0 PUSH1 0x1 PUSH1 0x1 PUSH1 0xA0 SHL SUB AND PUSH32 0x78786C581DA76125B3C6C8A810ADB3D2DAB5D14B1273B8220661085F045E25CD PUSH11 0x13DA329B6336471800000 PUSH1 0x40 MLOAD PUSH2 0x4DDE SWAP2 DUP2 MSTORE PUSH1 0x20 ADD SWAP1 JUMP JUMPDEST PUSH1 0x40 MLOAD DUP1 SWAP2 SUB SWAP1 LOG2 JUMPDEST PUSH1 0x40 MLOAD PUSH11 0x34F086F3B33B684000000 DUP2 MSTORE PUSH32 0x3A1079628069A11F368373DAD84D9CB2831368C6F4EA1A0E86FBDBE0145A899B SWAP1 PUSH1 0x20 ADD PUSH2 0x2DD2 JUMP JUMPDEST PUSH1 0x1 PUSH1 0x1 PUSH1 0xA0 SHL SUB DUP4 AND PUSH2 0x4E64 JUMPI PUSH1 0x40 MLOAD PUSH3 0x461BCD PUSH1 0xE5 SHL DUP2 MSTORE PUSH1 0x20 PUSH1 0x4 DUP3 ADD MSTORE PUSH1 0x9 PUSH1 0x24 DUP3 ADD MSTORE PUSH9 0x46726F6D207A65726F PUSH1 0xB8 SHL PUSH1 0x44 DUP3 ADD MSTORE PUSH1 0x64 ADD PUSH2 0x11C3 JUMP JUMPDEST PUSH1 0x1 PUSH1 0x1 PUSH1 0xA0 SHL SUB DUP3 AND PUSH2 0x4EA4 JUMPI PUSH1 0x40 MLOAD PUSH3 0x461BCD PUSH1 0xE5 SHL DUP2 MSTORE PUSH1 0x20 PUSH1 0x4 DUP3 ADD MSTORE PUSH1 0x7 PUSH1 0x24 DUP3 ADD MSTORE PUSH7 0x546F207A65726F PUSH1 0xC8 SHL PUSH1 0x44 DUP3 ADD MSTORE PUSH1 0x64 ADD PUSH2 0x11C3 JUMP JUMPDEST PUSH1 0x1 PUSH1 0x1 PUSH1 0xA0 SHL SUB DUP4 DUP2 AND PUSH1 0x0 DUP2 DUP2 MSTORE PUSH1 0x15 PUSH1 0x20 SWAP1 DUP2 MSTORE PUSH1 0x40 DUP1 DUP4 KECCAK256 SWAP5 DUP8 AND DUP1 DUP5 MSTORE SWAP5 DUP3 MSTORE SWAP2 DUP3 SWAP1 KECCAK256 DUP6 SWAP1 SSTORE SWAP1 MLOAD DUP5 DUP2 MSTORE PUSH32 0x8C5BE1E5EBEC7D5BD14F71427D1E84F3DD0314C0F7B2291E5B200AC8C7C3B925 SWAP2 ADD PUSH1 0x40 MLOAD DUP1 SWAP2 SUB SWAP1 LOG3 POP POP POP JUMP JUMPDEST PUSH1 0x0 PUSH1 0x1 PUSH1 0x1 PUSH1 0xA0 SHL SUB DUP5 AND PUSH2 0x4F49 JUMPI PUSH1 0x40 MLOAD PUSH3 0x461BCD PUSH1 0xE5 SHL DUP2 MSTORE PUSH1 0x20 PUSH1 0x4 DUP3 ADD MSTORE PUSH1 0x9 PUSH1 0x24 DUP3 ADD MSTORE PUSH9 0x46726F6D207A65726F PUSH1 0xB8 SHL PUSH1 0x44 DUP3 ADD MSTORE PUSH1 0x64 ADD PUSH2 0x11C3 JUMP JUMPDEST PUSH1 0x1 PUSH1 0x1 PUSH1 0xA0 SHL SUB DUP4 AND PUSH2 0x4F89 JUMPI PUSH1 0x40 MLOAD PUSH3 0x461BCD PUSH1 0xE5 SHL DUP2 MSTORE PUSH1 0x20 PUSH1 0x4 DUP3 ADD MSTORE PUSH1 0x7 PUSH1 0x24 DUP3 ADD MSTORE PUSH7 0x546F207A65726F PUSH1 0xC8 SHL PUSH1 0x44 DUP3 ADD MSTORE PUSH1 0x64 ADD PUSH2 0x11C3 JUMP JUMPDEST PUSH1 0x1 PUSH1 0x1 PUSH1 0xA0 SHL SUB DUP5 AND PUSH1 0x0 SWAP1 DUP2 MSTORE PUSH1 0x14 PUSH1 0x20 MSTORE PUSH1 0x40 SWAP1 KECCAK256 SLOAD DUP3 GT ISZERO PUSH2 0x4FC1 JUMPI PUSH1 0x40 MLOAD PUSH3 0x461BCD PUSH1 0xE5 SHL DUP2 MSTORE PUSH1 0x4 ADD PUSH2 0x11C3 SWAP1 PUSH2 0x5D89 JUMP JUMPDEST PUSH1 0x0 PUSH2 0x4FCC DUP6 PUSH2 0x272B JUMP JUMPDEST SWAP1 POP PUSH1 0x0 PUSH2 0x4FD9 DUP6 PUSH2 0x272B JUMP JUMPDEST SWAP1 POP PUSH1 0x0 PUSH2 0x4FE6 DUP8 PUSH2 0x37D1 JUMP JUMPDEST PUSH1 0xF SLOAD SWAP1 SWAP2 POP PUSH1 0x0 SWAP1 PUSH1 0x1 PUSH1 0x1 PUSH1 0xA0 SHL SUB DUP10 DUP2 AND SWAP2 AND EQ DUP1 PUSH2 0x5015 JUMPI POP PUSH1 0x10 SLOAD PUSH1 0x1 PUSH1 0x1 PUSH1 0xA0 SHL SUB DUP10 DUP2 AND SWAP2 AND EQ JUMPDEST SWAP1 POP DUP4 ISZERO DUP1 ISZERO PUSH2 0x503D JUMPI POP PUSH1 0x1 PUSH1 0x1 PUSH1 0xA0 SHL SUB DUP8 AND PUSH1 0x0 SWAP1 DUP2 MSTORE PUSH1 0x12 PUSH1 0x20 MSTORE PUSH1 0x40 SWAP1 KECCAK256 SLOAD PUSH1 0xFF AND JUMPDEST ISZERO PUSH2 0x509D JUMPI PUSH1 0x40 MLOAD PUSH3 0x461BCD PUSH1 0xE5 SHL DUP2 MSTORE PUSH1 0x20 PUSH1 0x4 DUP3 ADD MSTORE PUSH1 0x2A PUSH1 0x24 DUP3 ADD MSTORE PUSH32 0x4E6F726D616C2075736572732063616E6E6F7420616464206C69717569646974 PUSH1 0x44 DUP3 ADD MSTORE PUSH10 0x79206469726563746C79 PUSH1 0xB0 SHL PUSH1 0x64 DUP3 ADD MSTORE PUSH1 0x84 ADD PUSH2 0x11C3 JUMP JUMPDEST DUP3 ISZERO DUP1 ISZERO PUSH2 0x50C3 JUMPI POP PUSH1 0x1 PUSH1 0x1 PUSH1 0xA0 SHL SUB DUP9 AND PUSH1 0x0 SWAP1 DUP2 MSTORE PUSH1 0x12 PUSH1 0x20 MSTORE PUSH1 0x40 SWAP1 KECCAK256 SLOAD PUSH1 0xFF AND JUMPDEST DUP1 ISZERO PUSH2 0x50DA JUMPI POP PUSH1 0xF SLOAD PUSH1 0x1 PUSH1 0x1 PUSH1 0xA0 SHL SUB AND CALLER EQ ISZERO JUMPDEST ISZERO PUSH2 0x513D JUMPI PUSH1 0x40 MLOAD PUSH3 0x461BCD PUSH1 0xE5 SHL DUP2 MSTORE PUSH1 0x20 PUSH1 0x4 DUP3 ADD MSTORE PUSH1 0x2D PUSH1 0x24 DUP3 ADD MSTORE PUSH32 0x4E6F726D616C2075736572732063616E6E6F742072656D6F7665206C69717569 PUSH1 0x44 DUP3 ADD MSTORE PUSH13 0x64697479206469726563746C79 PUSH1 0x98 SHL PUSH1 0x64 DUP3 ADD MSTORE PUSH1 0x84 ADD PUSH2 0x11C3 JUMP JUMPDEST PUSH1 0x0 DUP5 ISZERO DUP1 PUSH2 0x514A JUMPI POP DUP4 ISZERO JUMPDEST SWAP1 POP PUSH1 0x0 DUP4 DUP1 ISZERO PUSH2 0x5159 JUMPI POP DUP5 ISZERO JUMPDEST DUP1 ISZERO PUSH2 0x5170 JUMPI POP PUSH1 0xF SLOAD PUSH1 0x1 PUSH1 0x1 PUSH1 0xA0 SHL SUB AND CALLER EQ ISZERO JUMPDEST SWAP1 POP PUSH1 0x11 SLOAD TIMESTAMP LT ISZERO PUSH2 0x51B5 JUMPI PUSH1 0x40 MLOAD PUSH3 0x461BCD PUSH1 0xE5 SHL DUP2 MSTORE PUSH1 0x20 PUSH1 0x4 DUP3 ADD MSTORE PUSH1 0xE PUSH1 0x24 DUP3 ADD MSTORE PUSH14 0x20B236B4B71031B7B7B63237BBB7 PUSH1 0x91 SHL PUSH1 0x44 DUP3 ADD MSTORE PUSH1 0x64 ADD PUSH2 0x11C3 JUMP JUMPDEST DUP2 ISZERO PUSH2 0x51F6 JUMPI PUSH1 0x3 SLOAD TIMESTAMP LT ISZERO PUSH2 0x51F6 JUMPI PUSH1 0x40 MLOAD PUSH3 0x461BCD PUSH1 0xE5 SHL DUP2 MSTORE PUSH1 0x20 PUSH1 0x4 DUP3 ADD MSTORE PUSH1 0x6 PUSH1 0x24 DUP3 ADD MSTORE PUSH6 0x14185D5CD959 PUSH1 0xD2 SHL PUSH1 0x44 DUP3 ADD MSTORE PUSH1 0x64 ADD PUSH2 0x11C3 JUMP JUMPDEST DUP6 PUSH2 0x5252 JUMPI PUSH1 0x1 PUSH1 0x1 PUSH1 0xA0 SHL SUB DUP11 AND PUSH1 0x0 SWAP1 DUP2 MSTORE PUSH1 0x18 PUSH1 0x20 MSTORE PUSH1 0x40 SWAP1 KECCAK256 SLOAD PUSH1 0xFF AND ISZERO PUSH2 0x5252 JUMPI PUSH1 0x40 MLOAD PUSH3 0x461BCD PUSH1 0xE5 SHL DUP2 MSTORE PUSH1 0x20 PUSH1 0x4 DUP3 ADD MSTORE PUSH1 0xB PUSH1 0x24 DUP3 ADD MSTORE PUSH11 0x109B1858DADB1A5CDD1959 PUSH1 0xAA SHL PUSH1 0x44 DUP3 ADD MSTORE PUSH1 0x64 ADD PUSH2 0x11C3 JUMP JUMPDEST DUP5 PUSH2 0x52AE JUMPI PUSH1 0x1 PUSH1 0x1 PUSH1 0xA0 SHL SUB DUP10 AND PUSH1 0x0 SWAP1 DUP2 MSTORE PUSH1 0x18 PUSH1 0x20 MSTORE PUSH1 0x40 SWAP1 KECCAK256 SLOAD PUSH1 0xFF AND ISZERO PUSH2 0x52AE JUMPI PUSH1 0x40 MLOAD PUSH3 0x461BCD PUSH1 0xE5 SHL DUP2 MSTORE PUSH1 0x20 PUSH1 0x4 DUP3 ADD MSTORE PUSH1 0xB PUSH1 0x24 DUP3 ADD MSTORE PUSH11 0x109B1858DADB1A5CDD1959 PUSH1 0xAA SHL PUSH1 0x44 DUP3 ADD MSTORE PUSH1 0x64 ADD PUSH2 0x11C3 JUMP JUMPDEST DUP6 PUSH2 0x5310 JUMPI PUSH32 0x0 TIMESTAMP LT ISZERO PUSH2 0x5310 JUMPI PUSH1 0x40 MLOAD PUSH3 0x461BCD PUSH1 0xE5 SHL DUP2 MSTORE PUSH1 0x20 PUSH1 0x4 DUP3 ADD MSTORE PUSH1 0xA PUSH1 0x24 DUP3 ADD MSTORE PUSH10 0x98DEC6D6CAC8406870D PUSH1 0xB3 SHL PUSH1 0x44 DUP3 ADD MSTORE PUSH1 0x64 ADD PUSH2 0x11C3 JUMP JUMPDEST DUP1 ISZERO PUSH2 0x5477 JUMPI PUSH9 0x56BC75E2D63100000 DUP9 GT ISZERO PUSH2 0x5359 JUMPI PUSH1 0x40 MLOAD PUSH3 0x461BCD PUSH1 0xE5 SHL DUP2 MSTORE PUSH1 0x20 PUSH1 0x4 DUP3 ADD MSTORE PUSH1 0x7 PUSH1 0x24 DUP3 ADD MSTORE PUSH7 0x4D61782031303 PUSH1 0xCC SHL PUSH1 0x44 DUP3 ADD MSTORE PUSH1 0x64 ADD PUSH2 0x11C3 JUMP JUMPDEST PUSH1 0x1 PUSH1 0x1 PUSH1 0xA0 SHL SUB DUP11 AND PUSH1 0x0 SWAP1 DUP2 MSTORE PUSH1 0x17 PUSH1 0x20 MSTORE PUSH1 0x40 SWAP1 KECCAK256 SLOAD DUP1 ISZERO PUSH2 0x53BF JUMPI PUSH2 0x5385 PUSH3 0x15180 DUP3 PUSH2 0x5CF4 JUMP JUMPDEST TIMESTAMP LT ISZERO PUSH2 0x53BF JUMPI PUSH1 0x40 MLOAD PUSH3 0x461BCD PUSH1 0xE5 SHL DUP2 MSTORE PUSH1 0x20 PUSH1 0x4 DUP3 ADD MSTORE PUSH1 0x8 PUSH1 0x24 DUP3 ADD MSTORE PUSH8 0xAEC2D2E8406468D PUSH1 0xC3 SHL PUSH1 0x44 DUP3 ADD MSTORE PUSH1 0x64 ADD PUSH2 0x11C3 JUMP JUMPDEST PUSH1 0x1 PUSH1 0x1 PUSH1 0xA0 SHL SUB DUP11 AND PUSH1 0x0 SWAP1 DUP2 MSTORE PUSH1 0x14 PUSH1 0x20 MSTORE PUSH1 0x40 SWAP1 KECCAK256 SLOAD PUSH9 0xD8D726B7177A800000 PUSH3 0x186A0 PUSH2 0x53F1 PUSH1 0x32 DUP14 PUSH2 0x5DC1 JUMP JUMPDEST PUSH2 0x53FB SWAP2 SWAP1 PUSH2 0x5DD8 JUMP JUMPDEST PUSH3 0x186A0 PUSH2 0x540A PUSH1 0x1E DUP15 PUSH2 0x5DC1 JUMP JUMPDEST PUSH2 0x5414 SWAP2 SWAP1 PUSH2 0x5DD8 JUMP JUMPDEST PUSH2 0x541E SWAP1 DUP14 PUSH2 0x5DAE JUMP JUMPDEST PUSH2 0x5428 SWAP2 SWAP1 PUSH2 0x5DAE JUMP JUMPDEST PUSH2 0x5432 SWAP1 DUP4 PUSH2 0x5CF4 JUMP JUMPDEST GT ISZERO PUSH2 0x5470 JUMPI PUSH1 0x40 MLOAD PUSH3 0x461BCD PUSH1 0xE5 SHL DUP2 MSTORE PUSH1 0x20 PUSH1 0x4 DUP3 ADD MSTORE PUSH1 0xD PUSH1 0x24 DUP3 ADD MSTORE PUSH13 0x4D61782077616C6C657420346B PUSH1 0x98 SHL PUSH1 0x44 DUP3 ADD MSTORE PUSH1 0x64 ADD PUSH2 0x11C3 JUMP JUMPDEST POP POP PUSH2 0x5650 JUMP JUMPDEST DUP2 ISZERO PUSH2 0x5650 JUMPI PUSH9 0x6C6B935B8BBD400000 DUP9 GT ISZERO PUSH2 0x54C1 JUMPI PUSH1 0x40 MLOAD PUSH3 0x461BCD PUSH1 0xE5 SHL DUP2 MSTORE PUSH1 0x20 PUSH1 0x4 DUP3 ADD MSTORE PUSH1 0x8 PUSH1 0x24 DUP3 ADD MSTORE PUSH8 0x4D6178203230303 PUSH1 0xC4 SHL PUSH1 0x44 DUP3 ADD MSTORE PUSH1 0x64 ADD PUSH2 0x11C3 JUMP JUMPDEST DUP5 PUSH2 0x55E5 JUMPI PUSH1 0x1 PUSH1 0x1 PUSH1 0xA0 SHL SUB DUP10 AND PUSH1 0x0 SWAP1 DUP2 MSTORE PUSH1 0x14 PUSH1 0x20 MSTORE PUSH1 0x40 SWAP1 KECCAK256 SLOAD PUSH9 0xD8D726B7177A800000 PUSH3 0x186A0 PUSH2 0x54F8 PUSH1 0x32 DUP13 PUSH2 0x5DC1 JUMP JUMPDEST PUSH2 0x5502 SWAP2 SWAP1 PUSH2 0x5DD8 JUMP JUMPDEST PUSH3 0x186A0 PUSH2 0x5511 PUSH1 0x1E DUP14 PUSH2 0x5DC1 JUMP JUMPDEST PUSH2 0x551B SWAP2 SWAP1 PUSH2 0x5DD8 JUMP JUMPDEST PUSH2 0x5525 SWAP1 DUP13 PUSH2 0x5DAE JUMP JUMPDEST PUSH2 0x552F SWAP2 SWAP1 PUSH2 0x5DAE JUMP JUMPDEST PUSH2 0x5539 SWAP1 DUP4 PUSH2 0x5CF4 JUMP JUMPDEST GT ISZERO PUSH2 0x5577 JUMPI PUSH1 0x40 MLOAD PUSH3 0x461BCD PUSH1 0xE5 SHL DUP2 MSTORE PUSH1 0x20 PUSH1 0x4 DUP3 ADD MSTORE PUSH1 0xD PUSH1 0x24 DUP3 ADD MSTORE PUSH13 0x4D61782077616C6C657420346B PUSH1 0x98 SHL PUSH1 0x44 DUP3 ADD MSTORE PUSH1 0x64 ADD PUSH2 0x11C3 JUMP JUMPDEST DUP4 ISZERO PUSH2 0x55E3 JUMPI PUSH1 0x1 PUSH1 0x1 PUSH1 0xA0 SHL SUB DUP11 AND PUSH1 0x0 SWAP1 DUP2 MSTORE PUSH1 0x16 PUSH1 0x20 MSTORE PUSH1 0x40 SWAP1 KECCAK256 SLOAD DUP1 ISZERO PUSH2 0x55E1 JUMPI PUSH2 0x55A8 PUSH2 0x1C20 DUP3 PUSH2 0x5CF4 JUMP JUMPDEST TIMESTAMP LT ISZERO PUSH2 0x55E1 JUMPI PUSH1 0x40 MLOAD PUSH3 0x461BCD PUSH1 0xE5 SHL DUP2 MSTORE PUSH1 0x20 PUSH1 0x4 DUP3 ADD MSTORE PUSH1 0x7 PUSH1 0x24 DUP3 ADD MSTORE PUSH7 0xAEC2D2E84064D PUSH1 0xCB SHL PUSH1 0x44 DUP3 ADD MSTORE PUSH1 0x64 ADD PUSH2 0x11C3 JUMP JUMPDEST POP JUMPDEST POP JUMPDEST DUP6 PUSH2 0x5650 JUMPI PUSH1 0x1 PUSH1 0x1 PUSH1 0xA0 SHL SUB DUP11 AND PUSH1 0x0 SWAP1 DUP2 MSTORE PUSH1 0x16 PUSH1 0x20 MSTORE PUSH1 0x40 SWAP1 KECCAK256 SLOAD DUP1 ISZERO PUSH2 0x564E JUMPI PUSH2 0x5615 PUSH2 0x1C20 DUP3 PUSH2 0x5CF4 JUMP JUMPDEST TIMESTAMP LT ISZERO PUSH2 0x564E JUMPI PUSH1 0x40 MLOAD PUSH3 0x461BCD PUSH1 0xE5 SHL DUP2 MSTORE PUSH1 0x20 PUSH1 0x4 DUP3 ADD MSTORE PUSH1 0x7 PUSH1 0x24 DUP3 ADD MSTORE PUSH7 0xAEC2D2E84064D PUSH1 0xCB SHL PUSH1 0x44 DUP3 ADD MSTORE PUSH1 0x64 ADD PUSH2 0x11C3 JUMP JUMPDEST POP JUMPDEST DUP6 DUP1 ISZERO PUSH2 0x565A JUMPI POP DUP5 JUMPDEST ISZERO PUSH2 0x56BC JUMPI PUSH1 0x1 PUSH1 0x1 PUSH1 0xA0 SHL SUB DUP1 DUP12 AND PUSH1 0x0 DUP2 DUP2 MSTORE PUSH1 0x14 PUSH1 0x20 MSTORE PUSH1 0x40 DUP1 DUP3 KECCAK256 DUP1 SLOAD DUP14 SWAP1 SUB SWAP1 SSTORE SWAP3 DUP13 AND DUP1 DUP3 MSTORE SWAP1 DUP4 SWAP1 KECCAK256 DUP1 SLOAD DUP13 ADD SWAP1 SSTORE SWAP2 MLOAD PUSH1 0x0 DUP1 MLOAD PUSH1 0x20 PUSH2 0x5E75 DUP4 CODECOPY DUP2 MLOAD SWAP2 MSTORE SWAP1 PUSH2 0x56AF SWAP1 DUP13 DUP2 MSTORE PUSH1 0x20 ADD SWAP1 JUMP JUMPDEST PUSH1 0x40 MLOAD DUP1 SWAP2 SUB SWAP1 LOG3 PUSH2 0x58D4 JUMP JUMPDEST PUSH1 0x0 PUSH3 0x186A0 PUSH2 0x56CD PUSH1 0x1E DUP12 PUSH2 0x5DC1 JUMP JUMPDEST PUSH2 0x56D7 SWAP2 SWAP1 PUSH2 0x5DD8 JUMP JUMPDEST SWAP1 POP PUSH1 0x0 PUSH3 0x186A0 PUSH2 0x56EA PUSH1 0x32 DUP13 PUSH2 0x5DC1 JUMP JUMPDEST PUSH2 0x56F4 SWAP2 SWAP1 PUSH2 0x5DD8 JUMP JUMPDEST SWAP1 POP PUSH1 0x0 DUP2 PUSH2 0x5703 DUP5 DUP14 PUSH2 0x5DAE JUMP JUMPDEST PUSH2 0x570D SWAP2 SWAP1 PUSH2 0x5DAE JUMP JUMPDEST SWAP1 POP DUP11 PUSH1 0x14 PUSH1 0x0 DUP16 PUSH1 0x1 PUSH1 0x1 PUSH1 0xA0 SHL SUB AND PUSH1 0x1 PUSH1 0x1 PUSH1 0xA0 SHL SUB AND DUP2 MSTORE PUSH1 0x20 ADD SWAP1 DUP2 MSTORE PUSH1 0x20 ADD PUSH1 0x0 KECCAK256 PUSH1 0x0 DUP3 DUP3 SLOAD SUB SWAP3 POP POP DUP2 SWAP1 SSTORE POP DUP1 PUSH1 0x14 PUSH1 0x0 DUP15 PUSH1 0x1 PUSH1 0x1 PUSH1 0xA0 SHL SUB AND PUSH1 0x1 PUSH1 0x1 PUSH1 0xA0 SHL SUB AND DUP2 MSTORE PUSH1 0x20 ADD SWAP1 DUP2 MSTORE PUSH1 0x20 ADD PUSH1 0x0 KECCAK256 PUSH1 0x0 DUP3 DUP3 SLOAD ADD SWAP3 POP POP DUP2 SWAP1 SSTORE POP DUP2 PUSH1 0x14 PUSH1 0x0 PUSH32 0x0 PUSH1 0x1 PUSH1 0x1 PUSH1 0xA0 SHL SUB AND PUSH1 0x1 PUSH1 0x1 PUSH1 0xA0 SHL SUB AND DUP2 MSTORE PUSH1 0x20 ADD SWAP1 DUP2 MSTORE PUSH1 0x20 ADD PUSH1 0x0 KECCAK256 PUSH1 0x0 DUP3 DUP3 SLOAD ADD SWAP3 POP POP DUP2 SWAP1 SSTORE POP DUP3 PUSH1 0x1 PUSH1 0x0 DUP3 DUP3 SLOAD SUB SWAP3 POP POP DUP2 SWAP1 SSTORE POP DUP12 PUSH1 0x1 PUSH1 0x1 PUSH1 0xA0 SHL SUB AND DUP14 PUSH1 0x1 PUSH1 0x1 PUSH1 0xA0 SHL SUB AND PUSH1 0x0 DUP1 MLOAD PUSH1 0x20 PUSH2 0x5E75 DUP4 CODECOPY DUP2 MLOAD SWAP2 MSTORE DUP4 PUSH1 0x40 MLOAD PUSH2 0x580B SWAP2 DUP2 MSTORE PUSH1 0x20 ADD SWAP1 JUMP JUMPDEST PUSH1 0x40 MLOAD DUP1 SWAP2 SUB SWAP1 LOG3 PUSH32 0x0 PUSH1 0x1 PUSH1 0x1 PUSH1 0xA0 SHL SUB AND DUP14 PUSH1 0x1 PUSH1 0x1 PUSH1 0xA0 SHL SUB AND PUSH1 0x0 DUP1 MLOAD PUSH1 0x20 PUSH2 0x5E75 DUP4 CODECOPY DUP2 MLOAD SWAP2 MSTORE DUP5 PUSH1 0x40 MLOAD PUSH2 0x5866 SWAP2 DUP2 MSTORE PUSH1 0x20 ADD SWAP1 JUMP JUMPDEST PUSH1 0x40 MLOAD DUP1 SWAP2 SUB SWAP1 LOG3 PUSH1 0x40 MLOAD DUP4 DUP2 MSTORE PUSH1 0x0 SWAP1 PUSH1 0x1 PUSH1 0x1 PUSH1 0xA0 SHL SUB DUP16 AND SWAP1 PUSH1 0x0 DUP1 MLOAD PUSH1 0x20 PUSH2 0x5E75 DUP4 CODECOPY DUP2 MLOAD SWAP2 MSTORE SWAP1 PUSH1 0x20 ADD PUSH1 0x40 MLOAD DUP1 SWAP2 SUB SWAP1 LOG3 PUSH1 0x40 MLOAD DUP4 DUP2 MSTORE PUSH32 0x6EF4855B666DCC7884561072E4358B28DFE01FEB1B7F4DCEBC00E62D50394AC7 SWAP1 PUSH1 0x20 ADD PUSH1 0x40 MLOAD DUP1 SWAP2 SUB SWAP1 LOG1 POP POP POP JUMPDEST DUP6 PUSH2 0x58F5 JUMPI PUSH1 0x1 PUSH1 0x1 PUSH1 0xA0 SHL SUB DUP11 AND PUSH1 0x0 SWAP1 DUP2 MSTORE PUSH1 0x16 PUSH1 0x20 MSTORE PUSH1 0x40 SWAP1 KECCAK256 TIMESTAMP SWAP1 SSTORE JUMPDEST DUP5 ISZERO DUP1 ISZERO PUSH2 0x5900 JUMPI POP DUP2 JUMPDEST DUP1 ISZERO PUSH2 0x5909 JUMPI POP DUP3 JUMPDEST ISZERO PUSH2 0x592A JUMPI PUSH1 0x1 PUSH1 0x1 PUSH1 0xA0 SHL SUB DUP10 AND PUSH1 0x0 SWAP1 DUP2 MSTORE PUSH1 0x16 PUSH1 0x20 MSTORE PUSH1 0x40 SWAP1 KECCAK256 TIMESTAMP SWAP1 SSTORE JUMPDEST DUP1 ISZERO PUSH2 0x594C JUMPI PUSH1 0x1 PUSH1 0x1 PUSH1 0xA0 SHL SUB DUP11 AND PUSH1 0x0 SWAP1 DUP2 MSTORE PUSH1 0x17 PUSH1 0x20 MSTORE PUSH1 0x40 SWAP1 KECCAK256 TIMESTAMP SWAP1 SSTORE JUMPDEST POP PUSH1 0x1 SWAP10 SWAP9 POP POP POP POP POP POP POP POP POP JUMP JUMPDEST PUSH1 0x40 MLOAD DUP1 PUSH1 0x80 ADD PUSH1 0x40 MSTORE DUP1 PUSH1 0x4 SWAP1 PUSH1 0x20 DUP3 MUL DUP1 CALLDATASIZE DUP4 CALLDATACOPY POP SWAP2 SWAP3 SWAP2 POP POP JUMP JUMPDEST PUSH1 0x0 PUSH1 0x20 DUP1 DUP4 MSTORE DUP4 MLOAD DUP1 DUP3 DUP6 ADD MSTORE PUSH1 0x0 JUMPDEST DUP2 DUP2 LT ISZERO PUSH2 0x59A7 JUMPI DUP6 DUP2 ADD DUP4 ADD MLOAD DUP6 DUP3 ADD PUSH1 0x40 ADD MSTORE DUP3 ADD PUSH2 0x598B JUMP JUMPDEST POP PUSH1 0x0 PUSH1 0x40 DUP3 DUP7 ADD ADD MSTORE PUSH1 0x40 PUSH1 0x1F NOT PUSH1 0x1F DUP4 ADD AND DUP6 ADD ADD SWAP3 POP POP POP SWAP3 SWAP2 POP POP JUMP JUMPDEST PUSH1 0x1 PUSH1 0x1 PUSH1 0xA0 SHL SUB DUP2 AND DUP2 EQ PUSH2 0x59DD JUMPI PUSH1 0x0 DUP1 REVERT JUMPDEST POP JUMP JUMPDEST PUSH1 0x0 PUSH1 0x20 DUP3 DUP5 SUB SLT ISZERO PUSH2 0x59F2 JUMPI PUSH1 0x0 DUP1 REVERT JUMPDEST DUP2 CALLDATALOAD PUSH2 0x2EB7 DUP2 PUSH2 0x59C8 JUMP JUMPDEST PUSH1 0x0 DUP1 PUSH1 0x40 DUP4 DUP6 SUB SLT ISZERO PUSH2 0x5A10 JUMPI PUSH1 0x0 DUP1 REVERT JUMPDEST DUP3 CALLDATALOAD PUSH2 0x5A1B DUP2 PUSH2 0x59C8 JUMP JUMPDEST SWAP5 PUSH1 0x20 SWAP4 SWAP1 SWAP4 ADD CALLDATALOAD SWAP4 POP POP POP JUMP JUMPDEST DUP1 ISZERO ISZERO DUP2 EQ PUSH2 0x59DD JUMPI PUSH1 0x0 DUP1 REVERT JUMPDEST PUSH1 0x0 DUP1 PUSH1 0x40 DUP4 DUP6 SUB SLT ISZERO PUSH2 0x5A4A JUMPI PUSH1 0x0 DUP1 REVERT JUMPDEST DUP3 CALLDATALOAD PUSH2 0x5A55 DUP2 PUSH2 0x59C8 JUMP JUMPDEST SWAP2 POP PUSH1 0x20 DUP4 ADD CALLDATALOAD PUSH2 0x5A65 DUP2 PUSH2 0x5A29 JUMP JUMPDEST DUP1 SWAP2 POP POP SWAP3 POP SWAP3 SWAP1 POP JUMP JUMPDEST PUSH1 0x0 DUP1 PUSH1 0x0 PUSH1 0x60 DUP5 DUP7 SUB SLT ISZERO PUSH2 0x5A85 JUMPI PUSH1 0x0 DUP1 REVERT JUMPDEST DUP4 CALLDATALOAD PUSH2 0x5A90 DUP2 PUSH2 0x59C8 JUMP JUMPDEST SWAP3 POP PUSH1 0x20 DUP5 ADD CALLDATALOAD PUSH2 0x5AA0 DUP2 PUSH2 0x59C8 JUMP JUMPDEST SWAP3 SWAP6 SWAP3 SWAP5 POP POP POP PUSH1 0x40 SWAP2 SWAP1 SWAP2 ADD CALLDATALOAD SWAP1 JUMP JUMPDEST PUSH1 0x0 DUP1 DUP4 PUSH1 0x1F DUP5 ADD SLT PUSH2 0x5AC3 JUMPI PUSH1 0x0 DUP1 REVERT JUMPDEST POP DUP2 CALLDATALOAD PUSH8 0xFFFFFFFFFFFFFFFF DUP2 GT ISZERO PUSH2 0x5ADB JUMPI PUSH1 0x0 DUP1 REVERT JUMPDEST PUSH1 0x20 DUP4 ADD SWAP2 POP DUP4 PUSH1 0x20 DUP3 PUSH1 0x5 SHL DUP6 ADD ADD GT ISZERO PUSH2 0x5AF6 JUMPI PUSH1 0x0 DUP1 REVERT JUMPDEST SWAP3 POP SWAP3 SWAP1 POP JUMP JUMPDEST PUSH1 0x0 DUP1 PUSH1 0x0 PUSH1 0x40 DUP5 DUP7 SUB SLT ISZERO PUSH2 0x5B12 JUMPI PUSH1 0x0 DUP1 REVERT JUMPDEST DUP4 CALLDATALOAD PUSH8 0xFFFFFFFFFFFFFFFF DUP2 GT ISZERO PUSH2 0x5B29 JUMPI PUSH1 0x0 DUP1 REVERT JUMPDEST PUSH2 0x5B35 DUP7 DUP3 DUP8 ADD PUSH2 0x5AB1 JUMP JUMPDEST SWAP1 SWAP5 POP SWAP3 POP POP PUSH1 0x20 DUP5 ADD CALLDATALOAD PUSH2 0x5B49 DUP2 PUSH2 0x5A29 JUMP JUMPDEST DUP1 SWAP2 POP POP SWAP3 POP SWAP3 POP SWAP3 JUMP JUMPDEST PUSH1 0x0 PUSH1 0x20 DUP3 DUP5 SUB SLT ISZERO PUSH2 0x5B66 JUMPI PUSH1 0x0 DUP1 REVERT JUMPDEST POP CALLDATALOAD SWAP2 SWAP1 POP JUMP JUMPDEST PUSH1 0x0 DUP1 PUSH1 0x20 DUP4 DUP6 SUB SLT ISZERO PUSH2 0x5B80 JUMPI PUSH1 0x0 DUP1 REVERT JUMPDEST DUP3 CALLDATALOAD PUSH8 0xFFFFFFFFFFFFFFFF DUP2 GT ISZERO PUSH2 0x5B97 JUMPI PUSH1 0x0 DUP1 REVERT JUMPDEST PUSH2 0x5BA3 DUP6 DUP3 DUP7 ADD PUSH2 0x5AB1 JUMP JUMPDEST SWAP1 SWAP7 SWAP1 SWAP6 POP SWAP4 POP POP POP POP JUMP JUMPDEST PUSH1 0xE0 DUP2 ADD DUP2 DUP7 PUSH1 0x0 JUMPDEST PUSH1 0x4 DUP2 LT ISZERO PUSH2 0x5BE0 JUMPI DUP2 MLOAD PUSH1 0x1 PUSH1 0x1 PUSH1 0xA0 SHL SUB AND DUP4 MSTORE PUSH1 0x20 SWAP3 DUP4 ADD SWAP3 SWAP1 SWAP2 ADD SWAP1 PUSH1 0x1 ADD PUSH2 0x5BB8 JUMP JUMPDEST POP POP POP PUSH1 0x1 PUSH1 0x1 PUSH1 0xA0 SHL SUB SWAP5 DUP6 AND PUSH1 0x80 DUP4 ADD MSTORE SWAP3 SWAP1 SWAP4 AND PUSH1 0xA0 DUP5 ADD MSTORE ISZERO ISZERO PUSH1 0xC0 SWAP1 SWAP3 ADD SWAP2 SWAP1 SWAP2 MSTORE SWAP2 SWAP1 POP JUMP JUMPDEST PUSH1 0x0 DUP1 PUSH1 0x40 DUP4 DUP6 SUB SLT ISZERO PUSH2 0x5C1F JUMPI PUSH1 0x0 DUP1 REVERT JUMPDEST DUP3 CALLDATALOAD PUSH2 0x5C2A DUP2 PUSH2 0x59C8 JUMP JUMPDEST SWAP2 POP PUSH1 0x20 DUP4 ADD CALLDATALOAD PUSH2 0x5A65 DUP2 PUSH2 0x59C8 JUMP JUMPDEST PUSH1 0x0 DUP1 PUSH1 0x40 DUP4 DUP6 SUB SLT ISZERO PUSH2 0x5C4D JUMPI PUSH1 0x0 DUP1 REVERT JUMPDEST DUP3 CALLDATALOAD PUSH1 0xFF DUP2 AND DUP2 EQ PUSH2 0x5C2A JUMPI PUSH1 0x0 DUP1 REVERT JUMPDEST PUSH1 0x20 DUP1 DUP3 MSTORE PUSH1 0x9 SWAP1 DUP3 ADD MSTORE PUSH9 0x2737BA1030B236B4B7 PUSH1 0xB9 SHL PUSH1 0x40 DUP3 ADD MSTORE PUSH1 0x60 ADD SWAP1 JUMP JUMPDEST PUSH1 0x20 DUP1 DUP3 MSTORE PUSH1 0xC SWAP1 DUP3 ADD MSTORE PUSH12 0x14185A5C9CC81B1BD8DAD959 PUSH1 0xA2 SHL PUSH1 0x40 DUP3 ADD MSTORE PUSH1 0x60 ADD SWAP1 JUMP JUMPDEST PUSH1 0x20 DUP1 DUP3 MSTORE PUSH1 0x19 SWAP1 DUP3 ADD MSTORE PUSH32 0x41646472657373206368616E6765727320636F6F6C646F776E00000000000000 PUSH1 0x40 DUP3 ADD MSTORE PUSH1 0x60 ADD SWAP1 JUMP JUMPDEST PUSH4 0x4E487B71 PUSH1 0xE0 SHL PUSH1 0x0 MSTORE PUSH1 0x11 PUSH1 0x4 MSTORE PUSH1 0x24 PUSH1 0x0 REVERT JUMPDEST DUP1 DUP3 ADD DUP1 DUP3 GT ISZERO PUSH2 0x1300 JUMPI PUSH2 0x1300 PUSH2 0x5CDE JUMP JUMPDEST PUSH4 0x4E487B71 PUSH1 0xE0 SHL PUSH1 0x0 MSTORE PUSH1 0x32 PUSH1 0x4 MSTORE PUSH1 0x24 PUSH1 0x0 REVERT JUMPDEST PUSH1 0x0 PUSH1 0x1 DUP3 ADD PUSH2 0x5D2F JUMPI PUSH2 0x5D2F PUSH2 0x5CDE JUMP JUMPDEST POP PUSH1 0x1 ADD SWAP1 JUMP JUMPDEST PUSH1 0x20 DUP1 DUP3 MSTORE PUSH1 0xE SWAP1 DUP3 ADD MSTORE PUSH14 0x4F6E6C79206D756C74692D736967 PUSH1 0x90 SHL PUSH1 0x40 DUP3 ADD MSTORE PUSH1 0x60 ADD SWAP1 JUMP JUMPDEST PUSH1 0x20 DUP1 DUP3 MSTORE PUSH1 0x11 SWAP1 DUP3 ADD MSTORE PUSH17 0x135D5B1D1A4B5CDA59C81B9BDD081CD95D PUSH1 0x7A SHL PUSH1 0x40 DUP3 ADD MSTORE PUSH1 0x60 ADD SWAP1 JUMP JUMPDEST PUSH1 0x20 DUP1 DUP3 MSTORE PUSH1 0xB SWAP1 DUP3 ADD MSTORE PUSH11 0x4C6F772062616C616E6365 PUSH1 0xA8 SHL PUSH1 0x40 DUP3 ADD MSTORE PUSH1 0x60 ADD SWAP1 JUMP JUMPDEST DUP2 DUP2 SUB DUP2 DUP2 GT ISZERO PUSH2 0x1300 JUMPI PUSH2 0x1300 PUSH2 0x5CDE JUMP JUMPDEST DUP1 DUP3 MUL DUP2 ISZERO DUP3 DUP3 DIV DUP5 EQ OR PUSH2 0x1300 JUMPI PUSH2 0x1300 PUSH2 0x5CDE JUMP JUMPDEST PUSH1 0x0 DUP3 PUSH2 0x5DF5 JUMPI PUSH4 0x4E487B71 PUSH1 0xE0 SHL PUSH1 0x0 MSTORE PUSH1 0x12 PUSH1 0x4 MSTORE PUSH1 0x24 PUSH1 0x0 REVERT JUMPDEST POP DIV SWAP1 JUMP JUMPDEST PUSH1 0x0 PUSH1 0x20 DUP3 DUP5 SUB SLT ISZERO PUSH2 0x5E0C JUMPI PUSH1 0x0 DUP1 REVERT JUMPDEST DUP2 MLOAD PUSH2 0x2EB7 DUP2 PUSH2 0x5A29 JUMP JUMPDEST PUSH1 0x0 PUSH1 0x20 DUP3 DUP5 SUB SLT ISZERO PUSH2 0x5E29 JUMPI PUSH1 0x0 DUP1 REVERT JUMPDEST DUP2 MLOAD PUSH2 0x2EB7 DUP2 PUSH2 0x59C8 JUMP INVALID ORIGIN 0xFB PUSH29 0x9891BC4F963C7DE9F1186D2A7755C7D6E9F4604DABE1D8BB3027C2F49E 0xCF CALLVALUE PUSH20 0xB85DF1594D47B6958F29A32BEA0ABFF9DD68296F PUSH28 0xF33443646793CFD8DDF252AD1BE2C89B69C2B068FC378DAA952BA7F1 PUSH4 0xC4A11628 CREATE2 GAS 0x4D CREATE2 0x23 0xB3 0xEF LOG2 PUSH5 0x6970667358 0x22 SLT KECCAK256 0xA8 0xD4 ORIGIN 0x26 PUSH27 0xE24D0FF112016A663B51349A3F9135E01D4384CA5702B1FB71D5A4 PUSH5 0x736F6C6343 STOP ADDMOD EQ STOP CALLER 0xDD CALLCODE MSTORE 0xAD SHL 0xE2 0xC8 SWAP12 PUSH10 0xC2B068FC378DAA952BA7 CALL PUSH4 0xC4A11628 CREATE2 GAS 0x4D CREATE2 0x23 0xB3 0xEF "},"methodIdentifiers":{"BURN_FEE()":"480df058","COOLDOWN_PERIOD()":"6e99d52f","EXEMPT_TO_NORMAL_COOLDOWN()":"92fde373","FEE_DENOMINATOR()":"d73792a9","MAX_EXEMPT_TO_NORMAL()":"9d249a18","MAX_MINT_AMOUNT()":"fa9b7018","MAX_TRANSACTION()":"1451dd43","MAX_WALLET()":"df7787a4","MINT_COOLDOWN()":"f7ee7a43","MINT_TIMELOCK()":"f92142e2","NotExemptTradeTransferPausedUntil()":"b3670038","OWNER_FEE()":"5dab0fe3","PAUSE_DURATION()":"21b4deee","allowance(address,address)":"dd62ed3e","approve(address,uint256)":"095ea7b3","balanceOf(address)":"70a08231","burn(uint256)":"42966c68","decimals()":"313ce567","decreaseAllowance(address,uint256)":"a457c2d7","dexAddressesLocked()":"e5800210","distributeInitialAllocations()":"f8687091","eAddr1()":"a20cc635","eAddr10()":"f30afd72","eAddr2()":"0721842e","eAddr3()":"baee0bad","eAddr4()":"c58e186b","eAddr5()":"17e13952","eAddr6()":"aa719a3c","eAddr7()":"9f357d93","eAddr8()":"368f505c","eAddr9()":"975afbc0","executeMint(uint256)":"e7a486fb","exemptSlotsLocked()":"f455bcc2","getDistributionAddresses()":"2bf9db79","getExemptAddresses()":"a4fcd4c2","getLiquidityPairAddress(address)":"66716790","getMaxMintableNow()":"535cbfcd","getTimeUntilNextMint()":"44c781c9","increaseAllowance(address,uint256)":"39509351","initialDistributionCompleted()":"888933da","isBlacklisted(address)":"fe575a87","isExemptAddress(address)":"5a5759b4","isExemptSlot(address)":"c71e2825","isLiquidityPair(address)":"5c9a05b8","isPaused()":"b187bd26","isTestnet()":"92108c86","isTradingEnabled()":"064a59d0","lastExemptToNormalTime(address)":"16819578","lastMintTime()":"9d463520","lastTransactionTime(address)":"e75b2073","liquidityPairsLocked()":"8e519677","lockDEXAddresses()":"70330ae1","lockExemptSlotsForever()":"b51fddfb","lockLiquidityPairsForever()":"3ed44603","mainAddressChangersCooldown()":"107bd32f","mintProposals(uint256)":"b6ea231e","multiSigAddress()":"1516def7","name()":"06fdde03","owner()":"8da5cb5b","pause()":"8456cb59","pncswpFactory()":"79e8a2b7","pncswpRouter()":"8c846502","proposalCount()":"da35c664","proposeMint(uint256)":"b6cf146c","removeFromBlacklist(address)":"537df3b6","removeMULTIFromBlacklist(address[])":"77ebd0e9","rescueTokens(address,uint256)":"57376198","setBlacklist(address,bool)":"153b0d1e","setBlacklistBatch(address[],bool)":"3abc97e5","setLiquidityPair(address,bool)":"23876064","setLiquidityPairBatch(address[],bool)":"d859c5a6","setMultiSigAddress(address)":"077f2cfc","symbol()":"95d89b41","timeUntilTradingEnabled()":"cfe3989c","timeUntilUnpaused()":"c9b49c28","totalSupply()":"18160ddd","tradingEnabledTime()":"6fd8fb7a","transfer(address,uint256)":"a9059cbb","transferFrom(address,address,uint256)":"23b872dd","unlockDEXAddresses()":"c345adc7","unlockExemptSlots()":"3bf8fe4c","unlockLiquidityPairs()":"be597d3d","updateDEXAddresses(address,address)":"c0e5dada","updateExemptSlot(uint8,address)":"cab21623","website()":"beb0a416","withdrawBNB()":"1d111d13","withdrawCirculationTokens(uint256)":"ee81e622"}}}}}